:020000041000EA
:1000000000B5324B212058609868022188439860DF
:10001000D860186158612E4B002199600221596106
:100020000121F02299502B49196001219960352056
:1000300000F044F80222904214D00621196600F024
:1000400034F8196E01211966002018661A6600F04E
:100050002CF8196E196E196E052000F02FF8012189
:100060000842F9D1002199601B49196000215960AB
:100070001A491B48016001219960EB211966A021F2
:10008000196600F012F800219960164914480160C1
:100090000121996001BC002800D000471248134993
:1000A000086003C880F30888084703B5996A0420EC
:1000B0000142FBD001200142F8D103BD02B5186610
:1000C0001866FFF7F2FF186E186E02BD00000240BE
:1000D000000000180000070000035F00212200005C
:1000E000F4000018222000A00001001008ED00E03C
:1000F00000000000000000000000000074B24E7A12
:1001000000200420F7010010C3010010C5010010F9
:10011000C1010010C1010010C1010010C101001097
:10012000C1010010C1010010C1010010C701001081
:10013000C1010010C1010010C9010010CB01001065
:10014000CD010010CD010010CD010010CD01001037
:10015000CD010010CD010010CD010010CD01001027
:10016000CD010010CD010010CD010010CD01001017
:10017000CD010010CD010010CD010010CD01001007
:10018000CD010010CD010010CD010010CD010010F7
:10019000CD010010CD010010CD010010CD010010E7
:1001A000CD010010CD010010CD010010CD010010D7
:1001B000CD010010CD010010CD010010CD010010C7
:1001C00000BE00BE00BE00BE00BE00BEEFF3058054
:1001D000103800BEF2EB8871A0770010C4770010D1
:1001E0003402001090A31AE700201F49086006C8D7
:1001F00081F3088810471D48006800282FD10DA4FE
:100200000ECC002902D000F012F8F9E71849194A7B
:10021000002000E001C19142FCD1174988471749ED
:1002200088471749884700BEFDE701C901C29A42C5
:10023000FBD37047C4770010C0000020FC4A0020A8
:1002400000C20010000004200000042000C20010C2
:10025000001004200010042000000000704709482E
:1002600003F0E8F90047000008ED00E0000000D0CE
:10027000004B0020DC4E0020514C0010E50B00101C
:10028000454D00105756000006005250ABB3605366
:100290000877001006005250861C030218770010E1
:1002A000060052505422A29D2C7700100500525097
:1002B000DE65F46800C20010F8B5C0460448054B7E
:1002C00010B5834203D0044B002B00D0984710BDDB
:1002D000FC4A0020FC4A00200000000006480749B4
:1002E000091A8B10C90FC91810B5491003D0044B57
:1002F000002B00D0984710BDFC4A0020FC4A00208B
:100300000000000010B5074C2378002B09D1FFF73F
:10031000D5FF054B002B02D0044800E000BF0123AD
:10032000237010BD004E002000000000B8700010C7
:10033000054B10B5002B03D00449054800E000BF71
:10034000FFF7CCFF10BDC04600000000044E0020A7
:10035000B8700010F0B51F000D4B85B000933B0046
:10036000160004000D0001F004F80A9A4300DB0FA8
:100370000020934201D105B0F0BD03920293220008
:100380002B0000960197034806F0BEFC0120F2E71F
:1003900029140010B8700010F0B5CE46002400B546
:1003A000A54DA64F84B02B00220020002900009705
:1003B00000F0DFFF4000C30F002800DBD0E0A04CBE
:1003C000A04D22002B00A048A049009700F0D1FFCB
:1003D0004000C60F002800DAD1E000249C4D220026
:1003E0002B0000209B49009700F0C3FF4000C30F83
:1003F0009946002800DACFE000240025802300225F
:100400001B0620002900009700F0B3FF4000C30F37
:10041000002800DBCCE02B00220020002900009700
:1004200000F0A7FF4000C30F002800DB98E0802306
:1004300000221B0619001000009700F09AFF4000F0
:10044000C30F002800DBBCE080212B00220000202D
:100450000097090600F08DFF4000C30F002800DB65
:10046000BEE00022200029007B4B009700F081FFB6
:100470004000C60F002800DABFE08021764B002242
:1004800000200097090600F074FF430000D5BBE090
:100490002B00220000207049009700F06AFF430003
:1004A00000D5B9E0002300938023002200206A4990
:1004B0001B06FFF74FFF00285CD1009000220020B0
:1004C000664B5D49FFF746FF002853D1009000229C
:1004D0000020594B6149FFF73DFF00284AD1002217
:1004E0005E4B009019001000FFF734FF002841D147
:1004F000009000220020504B5949FFF72BFF0028A5
:1005000038D10090002200200021554BFFF722FF38
:1005100000282FD100900022002300205149FFF72E
:1005200019FF002826D100900022002000214D4B09
:10053000FFF710FF00281DD101240022484B1000B6
:1005400019000094FFF706FF002813D10022454B45
:10055000100019000094FFF7FDFE431E98410AE0C9
:100560000122009401950392029322002B003E4841
:1005700006F0CAFB012004B080BCB946F0BD0023E0
:10058000039301330293009401952F4A2F4B364871
:1005900006F0BAFB0120EEE701230022029300944B
:1005A00001952C4B3048039606F0AEFB0120E2E7A4
:1005B000012202938023039200221B0600920193E2
:1005C000D3E78024012202930023240600930194A0
:1005D000039225481A00230006F096FB0120CAE783
:1005E00001220094019503920293802300221E4869
:1005F0001B0606F089FB0120BDE74B460393012350
:1006000000220293144BD9E7012302930023124CDA
:10061000039600930194E8E700230124002203934A
:100620000023114800920193029400220A4B06F025
:100630006BFB20009FE7C0460000F03F291400102C
:10064000D044D8F074EB874054E3A59B444A9340D0
:10065000003085C000C05EC00000F0BF0000F87F21
:100660000000F07F0000F0FFB8700010F0B54746C2
:10067000CE4680B585B01F0004000D00160000F0C6
:100680000FFF431E98410C9B8046984228D13B00A7
:1006900032002000290000F013FF431E9841002380
:1006A0009946804505D0484605B0C0BCB946B0461D
:1006B000F0BD32003B002000290000F006FF0028BA
:1006C000F1D1424601235340039302922B002200B2
:1006D00000960197084806F017FB01239946E2E7C8
:1006E000039302902B00220000960197034806F026
:1006F0000BFB01239946D6E724710010F870001017
:10070000F0B54746CE4680B585B01F0004000D0009
:10071000160000F0BFFE431E98410C9B8046984295
:1007200028D13B0032002000290000F0C1FE431E0A
:10073000984100239946804505D0484605B0C0BC85
:10074000B946B046F0BD32003B002000290000F061
:10075000BCFE0028F1D1424601235340039302928C
:100760002B00220000960197084806F0CDFA0123DD
:100770009946E2E7039302902B002200009601972E
:10078000034806F0C1FA01239946D6E77C710010B0
:1007900050710010F0B5DE4657464E464546E0B56E
:1007A0001F003D4B87B09B4600933B000D00160099
:1007B000040000F0DEFD394B80469A4622003900E5
:1007C000009330002B0000F0D4FD5B4681462200F0
:1007D0003900009330002B0000F0CBFD534632006F
:1007E000009320003B00290000F0C3FDC84545D11F
:1007F000109B013326D0109B01215A425A41434697
:100800005800C00F904224D19B00DB0F8B4222D1B5
:100810004B465B00DB0F9C464B469B00DB0F944531
:1008200002D100208B4222D00393634604920293AC
:1008300022002B00009601971948059106F064FAF2
:10084000012014E04346002258000021C00F9042CE
:10085000DAD09B00DB0F04920393029022002B005E
:10086000009601970F48059106F04EFA012007B057
:10087000F0BCBB46B246A946A046F0BD22002B0004
:10088000049405950296039700960197064806F092
:100890003BFA0120EBE7C0462914001019140010A0
:1008A00038720010E4710010A8710010F0B5CE4647
:1008B0004746002480B5634D634B87B099462200BC
:1008C0002900009320002B0000F053FD5F4B060031
:1008D000984622002900009320002B0000F049FDDB
:1008E0004B46070022002900009320002B0000F057
:1008F00040FD43462200009320002B00290000F019
:1009000038FDBE4230D17300DC0F002B17DAB60081
:10091000F00F002E15DADC0FF00F002B01DA002E9D
:100920002FDB01210022474B039002940092019398
:1009300047480591049106F0E7F901240EE0B00064
:10094000C00F012100223F4B0390029400920193BB
:1009500040480591049106F0D7F90124200007B022
:10096000C0BCB946B046F0BD22000494059502947F
:100970000395009401952B00374806F0C5F9012432
:10098000ECE7364A364B374837490094FFF702FF09
:100990000028E3D101256D42324A334B2F483049BC
:1009A0000095FFF7F7FE0028D8D1002200202F4B3A
:1009B0002F490094FFF7EEFE0028CFD1002200203F
:1009C0002B4B2A490095FFF7E5FE0028C6D10022EF
:1009D0000020284B26490095FFF7DCFE0028BDD1FA
:1009E000023500220020224B22490095FFF7D2FE5B
:1009F0000028B3D1802300900022002000211B0694
:100A0000FFF7C8FE0028A9D1002200201A4B0D498B
:100A10000095FFF7BFFE0028A0D100220020094B5F
:100A200015490095FFF7B6FE002897D10022124B1A
:100A3000100019000095FFF7ADFE431E9841040019
:100A40008CE7C0460000F03F291400101914001074
:100A500038720010E4710010A8710010D044D8F072
:100A600074EB874054E3A59B444A9340003085C013
:100A700000C05EC0003085400000F87F002300B554
:100A800083B0009300220A4B00200A49FFF7EEFDD5
:100A900003000120002B01D003B000BD0022009311
:100AA000044B10001900FFF7E1FD431E9841F3E7E6
:100AB0000000F03F0000F87F002300B583B00093F2
:100AC00000220A4B00200A49FFF71AFE030001200A
:100AD000002B01D003B000BD00220093044B100096
:100AE0001900FFF70DFE431E9841F3E70000F03FA9
:100AF0000000F87FF0B5C6460024002500B52200AE
:100B000082B02B002000290000F0DFFC002836D145
:100B100000262F4F32003B0000202E4900F0D5FC6C
:100B20008046002839D100262B4F22002B003000B0
:100B3000390000F0CAFC012839D132003B00200006
:100B4000290000F0C2FC01283BD132003B003000FC
:100B5000390000F0BAFC012836D132003B000020F9
:100B60001E4900F0B2FC012812D01C4B0022009656
:100B700001971B4806F0C8F80123984608E0009446
:100B800001952B002200164806F0BEF80123984676
:100B9000404602B080BCB846F0BD0E4B0022009625
:100BA00001970F4806F0B0F801239846F0E700944B
:100BB00001953B0032000A4806F0A6F8012398464A
:100BC000E6E700960197DCE700960197F1E7C0465B
:100BD0000000F07F0000F0FF0000F87F0000F8FF49
:100BE0008C720010F0B5DE4657464E464546E0B5DD
:100BF00099B002F051FDCC4BCC491A685B6808688B
:100C0000496800F047FC0100C9484B1E994106F0B5
:100C10007BF803239A46C74B00269946C64F032309
:100C200000249846C44D2B0022003900300000F00B
:100C300031FC431E98410094019532003B00029024
:100C4000484606F061F820002900BC4B002200F065
:100C5000AFFB01235B429C46E044434604000D0089
:100C6000002BE0D130003900B44B002200F0A0FB93
:100C700001235B429C46E244534606000F00002BD2
:100C8000CDD103339A46AE4B00269946AA4F032393
:100C900000249846A84D2B0022003900300000F0B7
:100CA0000FFC431E98410094019532003B000290D6
:100CB000484606F029F820002900A04B002200F049
:100CC00077FB01235B429C46E044434604000D0051
:100CD000002BE0D130003900984B002200F068FB77
:100CE00001235B429C46E244534606000F00002B62
:100CF000CDD1033398460023904C00260C930D94DD
:100D0000002313938F4B00279B468F4B1096119710
:100D100099460E960F970A960B9732003B008B4828
:100D200005F0F2FF3000390000F07AFC04000D00FD
:100D30003000390006F0B8F922002B00584605F0C3
:100D4000E3FF3000390006F02FF90C9A0D9B804824
:100D500005F0DAFF3000390006F08EF90A9A0B9B95
:100D60007C4805F0D1FF3000390006F0F5F80E9A06
:100D70000F9B794805F0C8FF0022784B30003900FE
:100D800000F00EFD04000D000022744B300039000D
:100D900006F04AF922002B00484605F0B5FF320064
:100DA0003B0000206D4900F0FBFC04000D00320008
:100DB0003B000020694906F037F922002B00484625
:100DC00005F0A2FF3000390000F0F6FC04000D0031
:100DD0003000390006F0F8F822002B00604805F0DA
:100DE00093FF3000390000F0F3FC04000D003000E8
:100DF000390006F0C1F822002B005A4805F084FFA4
:100E000032003B003000390001F042F904000D00CF
:100E100032003B003000390006F01EF922002B00A2
:100E2000514805F071FF3000390006F00DF9109AB5
:100E3000119B4E4805F068FF3900300000F070FB50
:100E4000390002008246300000F0B4FF04000D00BB
:100E500052463000390006F09FF822002B0044482B
:100E600005F052FF0022434B3000390001F09AFA9E
:100E700004000D0000223F4B3000390006F0C4F89A
:100E800022002B003C4805F03FFF14A90A00300067
:100E9000390016AB00F00CFC149C159D1699179A9E
:100EA0002B000E910F92009101923448220005F020
:100EB0002BFF0A9A0B9B2000290000F0E3FA002880
:100EC00007D00C9A0D9B0E980F9900F0DBFA0028C2
:100ED00004D12B4805F076FE01231393300039002E
:100EE000164B002200F064FA01235B429C46E0446A
:100EF000434606000F00002B44D000F0A7FB0C90E7
:100F00000D913000390000F0B7FB0A900B913000D2
:100F1000390000F017FC0E900F913000390000F0FE
:100F20006FFF10901191F8E6E8450020E0450020A1
:100F3000A4710010C87200100000F0BF0000F03F64
:100F4000D8720010F472001034730010E8720010B0
:100F50000473001014730010247300100000244068
:100F6000447300105473001060730010707300100D
:100F7000807300100000084090730010A0730010F0
:100F8000B873001001242026D94D6442200000F0DF
:100F9000AFFA02000B002800210005F0B5FE20008A
:100FA00000F0A6FA013E200006F01EF86400002EB4
:100FB000ECD101242036200000F09AFA02000B0048
:100FC0002800210005F0A0FE200000F091FA013E6B
:100FD000200006F009F86400002EECD10124002561
:100FE000C44F40362000290000F0D6FA22002B0022
:100FF00000900191380005F087FE2000290000F0E4
:10100000CBFA013E2000290006F016F824196D41A4
:10101000002EE7D101246442E51740362000290064
:1010200000F0BAFA22002B0000900191380005F080
:101030006BFE2000290000F0AFFA013E20002900DD
:1010400005F0FAFF24196D41002EE7D12025012477
:10105000002200230021A84805F056FEA74E2000DC
:1010600000F042FA02000B003000210005F04CFEB7
:10107000200000F039FA013D200005F0F5FF640082
:10108000002DECD130000124402600250022002351
:10109000002105F039FE9A4F2000290000F07CFA6B
:1010A00022002B0000900191380005F02DFE200059
:1010B000290000F071FA013E2000290005F0BCFF74
:1010C00024196D41002EE7D1802300221B060092D7
:1010D0000193C4238B4F002238001B0605F014FE39
:1010E00042260024884D2000290000F061FA2200E9
:1010F000009001912B00380005F006FE0022200030
:101100002900824B00F0C6F9002807D120002900F1
:1011100000F04EFA2000290005F0BEFF2000290053
:1011200000227B4B00F06BF9013E04000D00002E05
:10113000D9D10122774B5242009201938823002299
:101140003800DB0505F0E0FD42260024724D20004A
:10115000290000F02DFA2200009001912B003800A8
:1011600005F0D2FD0022200029006C4B00F0A0F910
:10117000002807D12000290000F01AFA20002900D9
:1011800005F08AFF200029000022614B00F037F9AA
:10119000013E04000D00002ED9D100245A4D604FAD
:1011A00042362900200000F0BBF922002B000090FD
:1011B000380005F0A9FD2900200000F0B1F9290050
:1011C000200005F061FF200029000022504B00F0B4
:1011D00016F9013E04000D00002EE2D100244E4D10
:1011E00042362900200000F09BF922002B000090DD
:1011F000380005F089FD2900200000F091F9290050
:10120000200005F041FF200029000022404B00F0A3
:10121000F6F8013E04000D00002EE2D10024414DFD
:10122000414F0536A82022002B004049C00500F0A0
:10123000C8F822002B00089009910020394900F0DD
:10124000C0F83B4A069007913A4B2000290000F075
:10125000A6F8374A04900591364B2000290000F08B
:10126000A7F822002B00029003912000290000F033
:10127000C6F822002B0000900191380005F044FDD3
:1012800022002B002000290000F0B9F822002B00DA
:101290002000290005F0B0FE22002B00002021498B
:1012A00000F08FF822002B0000201E4905F084FE7C
:1012B0008023200029000022DB0500F079F8013EA0
:1012C00004000D00002EADD1139B002B03D1FFF7BE
:1012D00063F8002832D0184805F074FC012420007F
:1012E00019B0F0BCBB46B246A946A046F0BDC04608
:1012F000C8730010D4730010E0730010EC7300107A
:10130000F8730010047400100000F0C30000E0C384
:101310000000E03FFFFFFF7F0000F0430000E043DC
:10132000147400100000F03F24740010346F9D41CD
:10133000D8822DD8822DD83F54740010FFF7B6FA0A
:101340000028C8D1FFF7D6FB0028C4D1FFF796FBD1
:101350000028C0D1FFF7B0FB041EBCD1014805F046
:1013600031FCBCE75C74001000B59047EFF30080DF
:1013700000BD10B5029CA047EFF3008010BDC04631
:1013800044464D4656465F46F0B47047F0BCA04612
:10139000A946B246BB46704748404140484018B451
:1013A0001B4B5B68FC46019308BD04DFF727001068
:1013B00018B4174B1B68FC46019308BD00DF0128D9
:1013C00000109446134A926F920809D2624618B4EC
:1013D0000F4BDB68FC46019308BD0CDFB92A0010F7
:1013E0000C4AF0B5146E556E576F166F6246FFF7D4
:1013F000EEFF084A1466556657671667F0BD18B4C5
:10140000034B9B68FC46019308BD08DF5D29001073
:10141000004C0020000000D0FFB55040424050403A
:1014200059404B40594000E0FFB5154F4C00640D4A
:1014300003D0BC4204D10C0314D80020090D0905C7
:101440005C00640D03D0BC4204D11C030AD8002206
:101450001B0D1B0501264B4009D44B4003D58B4285
:1014600000D18242FFBD9942FCD19042FFBD0B43A7
:10147000DB1803431343F5D0C9434918FFBD0000EF
:10148000FF07000000B5FFF7CFFF01D0002000BD2F
:10149000012000BD00B5FFF7C7FF804100BDC04679
:1014A00000B5FFF7C1FF01D9002000BD012000BD3C
:1014B00000B5FFF7B1FF01D9002000BD012000BD3C
:1014C00000B5FFF7A9FF804100BD012040054A009B
:1014D000121804D85A00121801D8002070470120B1
:1014E00070470020704700000021002805D1704798
:1014F000C1174840401AFAD0C90713B5064B1B68FC
:1015000098470CBC441CA2401005120B0349091B50
:1015100009051943114310BDB84E00201F040000F7
:1015200010B54C00620D8023D218DB00D21A5B0587
:101530007E2A10DD9E3A13DACC17090349081943B5
:101540005242D140640001341532202A05DAD040DD
:101550000843604310BD002010BD0846604310BD25
:10156000C80FC018013810BD18B4044B5B6AFC46A4
:10157000019308BD24DF952E00100000004C0020D0
:1015800018B4044B1B6EFC46019308BD60DF472F67
:1015900000100000004C002018B4044BDB6DFC462A
:1015A000019308BD5CDF452F00100000004C0020B7
:1015B000C94211D300B549004908002200F024F8BF
:1015C000002904D4002240428A41114600BD8021F6
:1015D0000906002000BD000018B4044BDB6EFC4679
:1015E000019308BD6CDFA32E00100000004C00200A
:1015F00018B4044B5B6FFC46019308BD74DFBD2E2D
:1016000000100000004C002018B4044B9B6FFC46F7
:10161000019308BD78DFBF2E00100000004C0020B1
:1016200018B4044B9B69FC46019308BD18DF852C58
:1016300000100000004C0020024A034B00B501F0EE
:10164000B9F800BD182D4454FB2119408A0002D37B
:10165000920D092A08DA18B4064BDB6BFC4601939D
:1016600008BD3CDF9B30001000B5FFF7E5FF04BC70
:101670009646F0E7004C00208A0002D3920D092A1A
:1016800008DA18B4064B1B6CFC46019308BD40DF1A
:10169000AB30001000B5FFF7CFFF04BC9646F0E773
:1016A000004C002000B5FFF7C7FF04BC964605E0DC
:1016B0003CB58A0002D3920D092AF3DA00F004F84F
:1016C00030BC03C40CC530BD18B4184B9B6CFC4631
:1016D000019308BD48DFDB1600101CB413231B78F0
:1016E000012B01D1124B00E0124B104A936402937C
:1016F0000CBDF0B5FFF744FE00F00BF8844600F097
:101700000CF803B4604600F00CF80CBCFFF73EFE8A
:10171000F0BD01B50848019001BD03B40748019030
:1017200001BD03B40648019001BD0000004C00203B
:10173000BF300010F3160010553800009D3800002F
:10174000D93800008A0002D3920D092A1DDA944686
:10175000114A926F920809D2624618B40F4B5B6C23
:10176000FC46019308BD44DF7B3000100A4AF0B507
:10177000146E556E576F166F6246FFF7EEFF064AFE
:101780001466556657671667F0BD00B5FFF754FF3E
:1017900004BC9646DBE70000000000D0004C0020AF
:1017A00018B4044B9B6DFC46019308BD58DFB9315A
:1017B00000100000004C002018B4044BDB6CFC4609
:1017C000019308BD4CDFCD3300100000004C002019
:1017D00018B4044B1B6DFC46019308BD50DF6934FF
:1017E00000100000004C0020132370B51D78012D5F
:1017F00015D010DD1C4801F025FF1C4C0100802293
:10180000200005F07BF8022D06D0194801F012FFE8
:10181000184B186070BD154C174BA364F5E7164BB9
:10182000124C23606360A360E36023616361A36182
:10183000E36123626362A362E36223636363A3637E
:10184000E36323646364A364E36423656365A3655E
:10185000E36523666366A366E36623676367A3673E
:10186000E367A364D1E7C04653440000004C002066
:101870004C330000B84E0020C5270010F0B5464696
:101880004F46D646C0B54E001D00730D99468B4B92
:1018900014004B4498464B4688B0002B30D0884B00
:1018A00099452DD04B460022864FFF1A3B058018E4
:1018B0005941FFF78DFF844A844BFFF782FD0022D8
:1018C000834B06000F00FFF7FBFD002826D143469F
:1018D000002B31D00022200029007E4BFFF7E8FDCD
:1018E000002832D10022200029007B4BFFF7D8FDD1
:1018F000002835D043460020002B2ADB002129E0B8
:10190000FFF766FF704A714BFFF75BFD0022704BDB
:1019100006000F00FFF7D4FD0028DBD030003900AF
:101920006E4B0022FFF73BFD6D4B06004B44984683
:1019300043460F00002BCDD122002B003000390090
:10194000FFF75DFD00F046FB04E043460020002B5E
:10195000D4DB644908B0E0BCBA46B146A846F0BD45
:101960002000290000F07CFA0B0002002900200072
:1019700004920593FFF713FD1A220290039100F0E1
:1019800019FA00F06DFA0B00009001914900020075
:10199000490D0BD04A48814208D000201A2900DCAA
:1019A00081E05149801859410090019104980599AE
:1019B000FFF7B6FD82464046FFF79AFD009A019B6D
:1019C00004900591FFF71BFD04000D0000F048FA9C
:1019D0000A0001001300069107920200290020006E
:1019E000FFF7DDFC009A019B04000D0002980399AB
:1019F000FFF7D5FC049A059BFFF701FD22002B00A1
:101A0000FFF7D6FC009001915046FFF771FD3200C0
:101A10003B00FFF7F4FC04000D0000F021FA0A007F
:101A20000100130004910592020029002000FFF735
:101A3000B6FC009A019BFFF7BBFC04000D00029866
:101A4000039932003B00FFF7DAFC22002B00FFF77E
:101A5000AFFC00F0BFFA4E0004000D00760D00D17F
:101A600078E7174B9E4200D174E7069807995346D2
:101A700047465F43FFF754FDC71904980599FFF7E0
:101A80004FFDC0198319002B09DD184A93420DDD63
:101A9000144AEB0FDB071A43002011005AE7EB0F43
:101AA0000020D90756E7DB0FD9077DE700220305A1
:101AB00012196B41100019004CE7C04601FCFFFFF2
:101AC000FF070000FF030000EF39FAFE422EE63F59
:101AD0000000E03F0000B0400000B0C00000F03F58
:101AE00002FCFFFF0000F07F000060FEFE07000028
:101AF000F8B54E464546DE4657460400E0B50D00B3
:101B00001600012A5FD0D70FBF187F10012F50D0C9
:101B10000323D21713409B199B109846012B3ED0EC
:101B2000072313409B19DB109946012B30D00F235C
:101B300013409B191B119A46012B1ED01F231340E3
:101B40009B195B119B46012B0CD03F231A40921925
:101B50009211FFF7CDFF0B000200FFF750FC5B4630
:101B6000DB073BD40B000200FFF749FC5346DB07C1
:101B700003D522002B00FFF742FC0B000200FFF709
:101B80003EFC4B46DB0703D522002B00FFF737FC5A
:101B90000B000200FFF733FC4346DB0719D40B00B0
:101BA0000200FFF72CFCFB0703D522002B00FFF7F8
:101BB00026FC0B000200FFF722FCF30703D52200EE
:101BC0002B00FFF71CFCF0BCBB46B246A946A04662
:101BD000F8BD22002B00FFF712FCE0E722002B00EB
:101BE000FFF70DFCBEE7C046F0B54F464646D64669
:101BF0009146C0B5984606000F0004000D1E46DA57
:101C00005A00654B20219C463423520D62449B1A96
:101C100049425E1800D5A1E01F31B1400120404289
:101C200098404F468743380047468F43002E00DADE
:101C30008CE04146F14001263140002A1EDB002B9A
:101C40004EDB38435BD1002907D008E08022210019
:101C50001206AA180C00151E17DA342BF6D18026AE
:101C60003606434620004A46A919FFF7BDFF8B19E7
:101C70001900E0BCBA46B146A846F0BD8023220058
:101C80001B06EB1814001D1EF8DB26002F0048462B
:101C90004146FFF745FC6B00824602005B0D3DD0DC
:101CA0003E498B423AD02903090B0C4336D13C4ABA
:101CB000904268DB80221201904262DA364A9446F2
:101CC00063445843374BC318002B5EDD364A9342BA
:101CD0005EDC030500220020344980185941C8E722
:101CE000802322001B06EB1814001D1ECDDA802372
:101CF00022001B06EB1814001D1EF1DBC5E7802334
:101D000022001B06EB1814001D1EBEDA80232200E1
:101D10001B06EB1814001D1EF1DBB6E75346002B23
:101D200025D02033402B25D85346002B09DA32002A
:101D30003B0000201D49FFF744FB534606000F00FF
:101D40005A4230003900FFF7D3FE92E72021464681
:101D5000C91A8E404946D94031436CE70121202001
:101D600049420F00C01AC7409940394356E7002046
:101D70000E497EE74A46434630003900FFF77EFDB4
:101D800077E706489AE7100094E70020002170E703
:101D9000002007496DE7C04601FCFFFFFF07000078
:101DA00000F8FFFFFF030000FE0700000000F03F07
:101DB0000000F07F4B0070B55B0D04000D00002BA0
:101DC0000ED00C4EB3420BD0D318002B09DD0A49BC
:101DD0008B420ADD094AEB0FDB071A430020110092
:101DE00070BDCB0F0020D907FAE7002011050019BC
:101DF0006941F5E7FF070000FE0700000000F07FE3
:101E00004B00164A5B0D70B506009B181FD4342298
:101E10000400D31A0A00002B10DD202252429A1827
:101E20000FD401209040050001229A4014000023A5
:101E30006242AB411640194034000A0020001100F4
:101E400070BD20220120D21AD0400500ECE700220C
:101E5000C90FCB0714001A00F0E7C04601FCFFFFD2
:101E6000254A4B0094465B0D6344F0B504000D0019
:101E70005A1C24DB5A1C38D03422D21A002A1DDD09
:101E80003322D31A533A9A181DD4012696403100B2
:101E900001269E40300024184D41002A1FDB0226F7
:101EA0009640310002229A40100026000023424250
:101EB0008B412C0016401C4030002100F0BDCB0FA0
:101EC0000020D907FAE720260127F61AF740012655
:101ED0009E403900300024184D41002ADFDA2022CC
:101EE0000226D21AD6403100DCE7CB0F034ADB07CB
:101EF0001A4300201100E1E701FCFFFF0000F03F62
:101F0000F0B5C6460B000D0049000200040000B504
:101F1000490D30D01D48091827D43426711A884637
:101F2000464610001900002E1CDD2021494277187A
:101F300025D40126BE40310001274646B74038006F
:101F4000002B06DA01246442E517A4185D41241829
:101F50004D41002342428B4126002C0016401C407C
:101F60003000210080BCB846F0BD00200021002BCD
:101F7000F8DA0749F6E7DB0F0020D907F2E7202758
:101F8000BF1B0126FE403100D6E7C04601FCFFFF23
:101F90000000F0BF094A70B50B0D93420AD0084A01
:101FA000934204D00022074BFFF7FAFB70BD0648AE
:101FB0000649FBE704480649F8E7C046FF0700006A
:101FC000FF0F00000000F03F182D4454FB21F9BF23
:101FD000FB21F93F264B70B50A0D05000C009A4213
:101FE0003AD00022234BFFF75BFA002834D10022BD
:101FF00028002100204BFFF75BFA002802D00020C8
:102000001E4970BD28002100FFF72AFFFFF788FA5C
:102010000600FFF76DFA02000B0028002100FFF711
:10202000BEF9174B174AFFF7EAF9FFF7C5FB4B005C
:1020300004000D005B0DE4D0134A9342E1D0F31885
:10204000002B0CDD114A93420DDDCB0F0B4ADB0751
:102050001A4300201100D4E700200021D1E7CB0F64
:102060000020D907CDE70020310500196941C8E7F4
:10207000FF0F00000000B0C00000B0400000F07F83
:10208000422EE63FEF39FAFEFF070000FE07000090
:10209000F0B5D6464F464646C0B517001E00002292
:1020A000B84B05000C00FFF7EDF9AC462300002803
:1020B0003CD1330D99465B055A0D9046002B3CD020
:1020C000002228002100B04BFFF7DCF9002838D0AF
:1020D000AE4B984531D0994500D176E0AC4B99454F
:1020E00000D16CE04346AB4A9B1800D56DE0A64892
:1020F0003422D31A9C46002B10DD543A991800D58F
:10210000F8E01F328A4001216346494299403B0072
:102110008B43310091430B4300D001E133003A007F
:1021200028002100FFF760FD84460B00604619007F
:10213000E0BCBA46B146A846F0BD00239C46914B90
:10214000F4E7220D53052000590D002B2AD14346F8
:10215000904A002E3DDB9B1831D43421C91A2ED46D
:1021600020235B425B18984660D4012342465B42C1
:102170009340012252428A403800904302003000CE
:102180009843030013431AD1AC4623003429CDD021
:102190004346002B00DA9DE0DE40F3070FD5AC4646
:1021A0002300C3E7794B9A469A4248D100239C46C4
:1021B000002EBBDB784BB9E7784B994205DC002356
:1021C0009C46B3E7754B9942F9DC00239C46724B61
:1021D000ACE79B18F9D43422D31AF6D4543A9818A1
:1021E0001BD41F3282400121494299403D008D435A
:1021F0002900350095432A000A43E6D1342B04D048
:1022000000286FDBC640F307DFD500226249E40FE8
:10221000E40721430B00944688E701222021524223
:102220001500C91ACD409A402A43DCE70123202239
:102230005B421800521AD0408B40034399E7544B3D
:102240009A4262D14346534A002E20DB9B18BCD4ED
:102250003422D31AB9D4543A981876D41F32824013
:102260000121494299403C008C43210034009443B1
:1022700022000A43A9D1342B00D17FE0002875DB6E
:10228000C64000239C46F30794D5454B4EE79B1868
:1022900095D43422D31A92D4543A98184CD41F327D
:1022A00082400121494299403C008C432100340086
:1022B000944322000A4300D081E7342B05D0002844
:1022C0004CDBC640F30700D479E700239C4680230B
:1022D0001B062BE720235B1A9E4033003E00CE40B6
:1022E0001E435AE72022D21A964032003E00DE40BA
:1022F000164388E7012220215242C91A1300CB401D
:10230000190063469A400A43FDE6D14500D153E7E0
:10231000994500D156E743461E4A9B1800D4E7E68C
:10232000002800DA51E733003A0028002100FFF7C7
:10233000A5FA84460B00F9E601222021524214003E
:10234000C91ACC409A402243ABE7012220215242D5
:102350001400C91ACC409A40224381E72022D21AA5
:10236000964032003E00DE401643ABE72022D21AF0
:10237000964032003E00DE40164382E700239C4632
:10238000074BD3E60000F03F0000F0BFFF0700005E
:10239000FF0F000001FCFFFF0000F07FFE030000C4
:1023A0000000F0FFF0B557464E464546DE461C009D
:1023B000E0B50D006400640DA246534C1E006B0096
:1023C000010085B028005B0DA34267D05446002C65
:1023D00064D0EC0F0394002B0CD10025002C60D1AD
:1023E00000242800210005B0F0BCBB46B246A94637
:1023F000A046F0BD0D0004005345F2DB0C00802127
:1024000049038C460003000B014336030D00310BDA
:10241000160062460A43170052469B1A9846002B44
:102420005EDD01203911404203F0C6FF834616E00D
:1024300022009A40019223004A46934048103200FD
:102440000093C9173B0004F0EFF9009C019D43463F
:102450004A469B1A241A8D419846002B24DD434698
:10246000C1460C2B01DD0C2399465B46A9114A4657
:1024700059431D239B1A202219414B4652420131D8
:102480009B18D5D54A4620239B1A2200DA4048469D
:1024900013002A0082401A430192CCE700251B4C0E
:1024A0009FE7802424069CE7AF4220DD002D05DA5B
:1024B000A4197D41002D01DAA4197D41039B002B55
:1024C00004D022002B00002554429D415346104A5F
:1024D00020002900D21AFFF753F805000C0080E70E
:1024E000AF42EBDCAF420BD0A41BBD41E6E7AF42ED
:1024F00001D1A642DAD8A41BBD41AF42F2DDDDE72F
:10250000A642F1D9DAE7C046FF0700000000F07FDD
:1025100033040000F0B557464E464546DE46E0B56A
:1025200087B002925A009A46530D9946109B4D006F
:1025300004006D0D002B01D000221A609A4A9542CA
:102540007DD04B46002B7AD0002D00D182E02700B1
:102550000E00914575D0013B0393AB4271DCCB0F6C
:102560000E039846330B9B4680235B039C465B46D9
:10257000624613431F005346060018036346000BD0
:102580000343029A0193039B0092AB4200D1AAE05D
:102590004346002B00D1B7E033003C0000275E42E9
:1025A000A7414B46ED1A002D00DCC0E00120019B45
:1025B0004042191103F000FF002398464B46039355
:1025C0005346AB46029004931BE032009A4015003C
:1025D0003300524693401C004B464846D917009A98
:1025E000019B04F021F94346524693404B449846E0
:1025F0005B4626002F009B1A361A8F419B46002B04
:102600002BDD5B46DA460C2B01DD0C239A46029A41
:10261000BB11534351461D22521A1341202201334C
:102620005B10524299468B18CFD5202332005B1A9B
:10263000DA4013003A008A4015001D43C8E700271E
:102640005A4E3800310007B0F0BCBB46B246A9462E
:10265000A046F0BD00270026F3E7039B9946049BA4
:102660009A46009B019CBC4200DD83E000D17DE0E6
:10267000009B019CF61AA741BC4200DD8BE000D113
:1026800085E0009B019CF61AA74102239C46E0448A
:102690003200009801993B0092197B418B421ADC71
:1026A00017D000998A425AD05346002B02DA43468B
:1026B0005B429846109B002B01D042461A604B4665
:1026C0003B4A30003900D21AFEF75AFF07000E00CD
:1026D000B7E78242E5D9009B019CF61AA741012386
:1026E0009C46E044E0E7019B9F422FDD0098019962
:1026F000434600184941002B3FD1039B361A8F41B6
:10270000994601239846CFE74B46ED1A002D00DD90
:102710004CE7019BBB42BBDC009B019CBC4201D14E
:10272000B342B5D8009B019CF61AA74133E00023C1
:102730009846009B019CF6186741002F2FDAF61887
:10274000674102235B429C46E044A1E7009A019B5B
:102750009F4201D19642C9D827000E0071E7019A25
:102760009342A1D14346DB079ED5B4E7009BB34219
:1027700000D87DE7002FDCDB8AE7039B801BB94193
:10278000994601235B4206000F0098468CE7009BA8
:10279000B34200D875E701239C46E04478E7012363
:1027A0005B429C46E04473E7FF0700000000F07FB7
:1027B0003304000010B5002482B00094FFF7AAFE95
:1027C00002B010BD07B5604601880A0A0230DF2A50
:1027D000FAD1C9B2820804D30288408800041043A9
:1027E00000E00068014A5050039007BD004C0020F3
:1027F0000FB403BC0CBCF0B50124E407634000E057
:10280000F0B50C0DCF0F661E3605891B640503D38A
:10281000C943404200D30131640D03D0661CF60A5F
:1028200007D0E41B00207F00791C89078912803CB7
:1028300024031D0DDF0F6E1E36059B1B6D0503D394
:10284000DB43524200D301336D0D03D06E1CF60AF8
:1028500007D0ED1B00227F007B1C9B079B12803D55
:102860002D032F1B661B58D4A446202E46DA203792
:102870001400BC401D00BD40F24033412A43801883
:102880005941CB0F05D0C943C04300226442504197
:10289000514162464D0D28D10D0D07D100281FD0A2
:1028A000241940414941013A0D0DF9D0640006D385
:1028B000013000D30131002C01D140084000013A21
:1028C0000BD4941CE40A04D112051144DB0719440B
:1028D000F0BDD907204B194300E0D9070020F0BD17
:1028E0000029DDD1002CDBD1F0BD0132C607400844
:1028F000CD0728434908002EE1D0D9E73C2E29DA3C
:10290000203E40371400BC4000D00124F240144364
:102910001A00BB401C43D317ACE7AC46202F08DAA3
:1029200020360400B4400D00B540F840394128433A
:10293000A5E73C2F0CDA203F40360400B44000D01D
:102940000124F84004430800B1400C43C117EAE7F2
:1029500010001900002494E70000F07FF0B50C0D82
:10296000661E3605891BE60A6405640D02D0651CE7
:10297000ED0A04D0002001210905803C2403A4466F
:102980001C0D671E3F05DB1BE70A6405640D02D0C2
:10299000651CED0A04D0002201231B05803C2403A2
:1029A0007740644497B484B296B27443070C7E4374
:1029B000150C6F4380B26843361802D3012000041F
:1029C0003F183004350C00197D41844688B29AB214
:1029D00050430C0C62431F0C7C438EB27E43921911
:1029E00002D301263604A4191604170C36186741C1
:1029F00001BC81B29AB25143040C62431B0C5C438C
:102A000080B25843121802D3012000042418100485
:102A1000130C401863412D185E410020474106BC4D
:102A200088B293B258430C0C6343120C544389B2DE
:102A300051435B1802D301210904641819041A0CCC
:102A4000091862416D1856410020474118BCF9022F
:102A5000720D1143F0026A0D1043ED020A0D03D10D
:102A60006D1940414941013B124E9B1B7600B34218
:102A70000ED26D0007D30130002671416646354302
:102A800001D1400840001B05C918E4072144F0BDEE
:102A90000BDA013306D1013004D101314F0D01D0E1
:102AA0004908F2E7E1070020F0BD013631050020BA
:102AB000EBE70000FF030000F0B51C0D671E3F05AB
:102AC000DB1BE70A6405640D02D0661CF60A04D01D
:102AD000002201231B05803C2403D0252D0600265F
:102AE000F6432E661E096E66CE0FF619B4464900EF
:102AF0004F0D02D07E1CF60A03D000200021403F7B
:102B00003F033E1BB600B444013F7F05C91B490883
:102B10002E6F013676089C02950D25437543ED1303
:102B20007543AD1301356D10F603761B0CB4CC0262
:102B3000450D2C43A2B2B3B25A43270C7B43350C4C
:102B40006F43A4B26C431B1902D3012424043F1920
:102B50001C041D0CA4187D4124196D41009A91B2EA
:102B6000ACB26143170C7C432B0C5F4392B25A43C7
:102B7000A41802D301221204BF182204230C5218F5
:102B80007B41019C6C431B19520ED9010A4344013D
:102B9000A01A81B2B2B2514303145A43360C7343A4
:102BA00087B27743D617D21900277E4136049B1986
:102BB0001704160C7F185E417316ED18F3010026FA
:102BC00080337541A90F06D16400690AE8055B0AE4
:102BD000184309D22FE00422944480337541A90A96
:102BE000A8059B0A184326D3404149412404009A72
:102BF000019B0D005543641B4343E41A95B286B212
:102C00007543170C7E43030C5F4392B25A43B618C8
:102C100002D301221204BF183204330C52197B4133
:102C200052429C41002C02D4002201305141400804
:102C3000CA071043490802B06246D7079210084BF2
:102C4000D218084B9A4203D212058918C919F0BD4F
:102C50000020002A01DC3900F0BD01331905F5E739
:102C6000FD030000FE07000007DA002107E0C90F9E
:102C7000C907520D03D0C91201E04C4909050020D3
:102C80007047C0464A00F2D2520D013A484B9A4270
:102C9000EAD2F0B51405091B520801D300184941C6
:102CA0009B08D2181205944640A44A0CA25C0B095A
:102CB000534353431B1353435B131202D21A1300A3
:102CC0005B435B0B4C086343DB135343DB1501335E
:102CD0005B10D21A130CD21A13005B438902840DC5
:102CE00021438DB29EB275430F0C7E431B0C5F4394
:102CF0008CB25C43361902D3012424043F193404F6
:102D0000330C64197B419D01A40E2C432034A5B2E1
:102D10005543241454432D0C6419A411D203121BDF
:102D200095B28EB27543170C7E430C0C674393B279
:102D30006343F61802D301231B04FF183304340C39
:102D40005B197C41DB186441DB18002363419EB2B0
:102D500076439DB21F0C7D437F436C04ED0BA41999
:102D60007D4106028F08361BAF417D07F6086E4194
:102D7000B4B295B26C4337147D43120C5743B6B2CC
:102D80005643EA17AD19002672411204BF182E04EB
:102D90002A0C36197A410832521117D29D0A9C0525
:102DA000D117101969416144F0BD0000FF07000010
:102DB000FE070000F8EBDFD6CDC5BEB8B2ADA8A4C3
:102DC000A09C9995928F8D8A8885838152415D0A56
:102DD000DC05D11714194D412B006343A6B276438D
:102DE000A2B2270C7A437F435104D20B89197A414E
:102DF000D218D21880054942904102D400230134F0
:102E00005D4160086908ED0728436144F0BDC04694
:102E1000624618CA94465A46002A20DB04E06246FD
:102E200018CA944600291ADAC01861415B463B4132
:102E30005C46B4405246FA40224344464D46624105
:102E40006B41904699462B46B3403D41FC401C43A4
:102E500052465B46A241AB4192469B467047C01A20
:102E6000A1414B463B414C46B4404246FA402243C6
:102E700054465D4662416B4192469B462B46B340A9
:102E80003D41FC401C4342464B46A241AB4190466B
:102E900099467047002200B5203200F010F8080073
:102EA00000BD002200B500F00CF8CA179A4200D10C
:102EB00000BDD8430121C907414000BD00220B15C8
:102EC0000AD410B5944600F079F81414013400DAED
:102ED0000021CB17144C204700200021704762448A
:102EE000343A0CD40C2A07DA040091409040524244
:102EF0002032D440214310BDD843D94310BD2032E5
:102F000007D40C469440524220321141D040204315
:102F100010BD0800C917203203D45242203210419C
:102F200010BD1800190010BDDF2E001000210A008E
:102F3000002104E000210A00C11704E00022002360
:102F400006E0C0460022CB1758405940C01A9941AC
:102F500030B5184CA21A002903D1010010D000206E
:102F6000203A4C1512D104D2013A001849414C0DB7
:102F7000FAD3114CA24204D212058918DB07C918F2
:102F800030BDD243520D00200021F5E703D4013AB1
:102F900000184941FBD50B324405C00A4D052843B2
:102FA000C90A640003D0002460416141E1E7E0D335
:102FB0004408F8E732040000FE0700000A0DCC0FB9
:102FC000531E1B05C91A520503D3C943404200D3FF
:102FD0000131520D03D0531CDB0A07D0121B002015
:102FE0006400611C89078912803A1203014BD21ACE
:102FF00070470000FF030000023225D40C2A1CDABF
:103000001125AD1A0B002B41083207350600EE40A2
:10301000904091403143F0CC63431A1500235A414C
:10302000554356435743BF02F4127605761967415C
:10303000ED177F19801BB94170470C220020C9177A
:10304000490001310905DBE70902030E19430002BB
:103050005342203208D40C0019419440D8402043F8
:1030600000225041514170470800C917203B2032CF
:10307000F1D50020002100227047F0B5FEF780F95D
:1030800000F02EF8844600F04FF803B4604600F0DC
:1030900069F80CBCFEF77AF90FE5F0B5FEF770F9A8
:1030A00000F01EF800F040F806E0F0B5FEF768F911
:1030B00000F016F800F056F8FEF768F9F0BDF0B52C
:1030C000FEF75EF900F00CF8844600F02DF803B42A
:1030D000604600F047F80CBCFEF758F9F0BD000060
:1030E00000B5FFF76BFF30A4FFF786FF00242C4DDF
:1030F0002C4ED20702D3F6436D426641520004D2F1
:10310000A246A346A846B14603E0A046A146AA4669
:10311000B3466EA4A44601271F26FFF780FE0137A1
:10312000013E212FF9D100BD594684B28DB26C43C6
:10313000061475430B145E4382B25A43AD18EA1766
:1031400000D7D2431204B6182A042B0C121973416B
:10315000404649469D009B17920F2A439041994152
:103160003E22F0E6494684B28DB26C4306147543A4
:103170000B145E4382B25A43AD18EA1700D7D2430C
:103180001204B6182A042B0C1219734150465946E2
:103190009D009B17920F2A43504159413E22D2E68F
:1031A000BB4DF09DC556F6367D5100001A611400E6
:1031B00085880A00FB211900F0B5FEF7E1F8404DC3
:1031C0000C002C4001D0AC4202D1090D09050020B1
:1031D0001C002C4001D0AC4202D11B0D1B0500226B
:1031E0000026ED02002B04D502266B40694000D476
:1031F00076424F1904D599420CDD0136694003E04F
:10320000BB4207DA013E6B40070010003A000F0096
:1032100019003B0040B4002A0FD1002B0AD05C00FB
:103220006415013409D14C006415013402D101390F
:10323000013B02E0002000212EE0FFF73DFC3E2292
:10324000FFF730FE82468B46002000218046012297
:10325000920791461DA4A44601271F26FFF7D8FD1B
:103260000137013E212FF9D14A4653460C3A012439
:103270006407002752081B0005D4934100197941C7
:103280006408F7D104E05341001BB9416408F1D14F
:10329000CE0749104008304340BC002E0AD0094CEC
:1032A000094D01D5E443ED43F60701D10019694109
:1032B000001969413D22FFF746FEFEF767F8F0BDB1
:1032C0000000F07F8D305A88A8F64332694FBB6109
:1032D0000567AC1DB16E4096FCBAAD0F72DB0BAB4F
:1032E000A66EF50739BD9FE576ABFE034B6297BA34
:1032F0005BD5FF01D694DBDDAAFAFF005DEAEE564E
:1033000055FF7F006E77B7AAEAFF3F00BCBB55555B
:10331000FDFF1F00DEADAAAAFFFF0F006F5555F598
:10332000FFFF0700ABAAAAFEFFFF03005555D5FF1C
:10333000FFFF0100ABAAFAFFFFFF00005555FFFF9A
:10334000FF7F0000ABEAFFFFFF3F000055FDFFFFDE
:10335000FF1F0000ABFFFFFFFF0F0000F5FFFFFFA7
:10336000FF070000FFFFFFFFFF0300000000000059
:10337000000200000000000000010000000000004A
:10338000800000000000000040000000000000007D
:1033900020000000000000001000000000000000FD
:1033A0000800000000000000040000000000000011
:1033B000020000000000000001000000000000808A
:1033C000000000000000004000000000F0B5FFF722
:1033D000F5FD54A4FFF710FE002904DA204C214D1E
:1033E00000196941013A04B4012752A600220123C1
:1033F0009B0730CEB446001BA9410BD47E42203639
:103400001D003D411C00B4401600FE4034436241A3
:103410006B4101E00019694166460137212FE8D16F
:1034200085B29EB2754307147E43190C4F4384B294
:103430004C43F11736190024614109047F18340404
:10344000310C64197941A40F880020438917801832
:10345000594104BC52423E32FFF775FDF0BD0000F9
:103460006BDE73F4FD855C2CF0B54F0050D27F15F8
:103470004ED001374FD0FFF7A1FD04B44902C20D71
:103480001143400201272BA6B446002200237E42AE
:1034900020360D003D410C00B4400600FE40344390
:1034A00044414D41AE0F05D120002900664630CE83
:1034B000121BAB410824A4440137212FE7D1890016
:1034C000891012184B4180BC17A413CC01377843E4
:1034D00079437C434F05C912CD17C0196941A70232
:1034E000A415CD17C9196C41DD17801859416C41DD
:1034F0003E22CD17AC4208D000090E07304309091F
:10350000260731432411043AF3E7FFF71CFDF0BD11
:1035100002490020F0BD02490020F0BD0000F0FF8C
:103520000000F07FAAB800006BDE1300A3EF0F00CD
:1035300021170B00F34B98BFEC23F319D6104DCD98
:10354000E3FB470E7AB9BC8ADBC18907CC542C0255
:103550001846E103053083E7B029F8011E1FE08714
:103560004505FE00249E41ACA9807F00811762457D
:1035700015E03F00E610ABA902F81F00885845553A
:1035800000FE0F00C4AAA90A80FF07005645550196
:10359000E0FF0300ABA92A00F8FF01004555050034
:1035A000FEFF0000AAAA0080FF7F0000551500E082
:1035B000FF3F0000AB0200F8FF1F0000550000FEB7
:1035C000FF0F00000B0080FFFF0700000100E0FF7D
:1035D000FF0300000000F8FFFF0100000000FEFFF5
:1035E000FF0000000080FFFF7F00000000E0FFFF01
:1035F0003F00000000F8FFFF1F00000000FEFFFF7B
:103600000F00000080FFFFFF07000000E0FFFFFF4A
:1036100003000000F8FFFFFF01000000FEFFFFFFB6
:1036200000000000000000800000000000000040DA
:1036300000000000142310B50100188804331B8813
:10364000984710BD162310B50100188802331B8857
:10365000984710BDF8B54746CE4680B50F1E19D025
:1036600014239946043304000025012698464B464E
:103670001888434621681B88984701C4431E984117
:10368000013540420640AF42F1D13000C0BCB946DE
:10369000B046F8BD0126F8E710B503F003FC10BDF5
:1036A000094A830094464022634410B51C68C00058
:1036B0006240C02414408022520113431C60034B1B
:1036C0009C466044416010BD04C001400040014080
:1036D000024B18688007C00F7047C04600C0064004
:1036E00070B5EFF3108C72B60D4D2B68002BFCD02B
:1036F000BFF35F8F0724CB08C618C05C01230C40C2
:10370000A3401C000440034207D103433370BFF3BE
:103710005F8F2C608CF3108870BD100001F016FBD9
:103720002C0100D00021044B044ABFF35F8F02C379
:103730009342FAD17047C046000100D0800100D00A
:10374000044A1078431CDBB2172B00D910231370E6
:103750007047C046F045002001238340002904D073
:10376000034A1360034A13607047034A1360FBE780
:1037700080E200E000E100E080E100E0024B103078
:103780009B688000C058704700ED00E070B50D00E8
:10379000EFF3108672B60F4A1368002BFCD0BFF30C
:1037A0005F8F0D4B10309B6884001B590B4A93426E
:1037B00003D09D4201D001F0E1FA074B9B681D51F7
:1037C000BFF35F8FBFF35F8F0022024B1A6086F357
:1037D000108870BD240100D000ED00E0CD01001084
:1037E000F0B5DE4657464E464546E0B50C0083B080
:1037F000EFF3108972B6584A1368002BFCD0BFF360
:103800005F8F564B9A68030010339F00D559544A76
:103810009046954232D0A54243D0524EAA1B2F2A41
:103820002CD801228240924651464F4A12681140DC
:10383000019151464D4A1160BFF35F8FEFF305824E
:103840009346002A33D101232A009A4393689C426D
:1038500008D177E04B005B189B00F3189968A142F0
:103860002AD01A00062151560029F3DA019B002BB9
:1038700019D052463E4B1A603B4B1A60374B9B683F
:10388000DD51BFF35F8FBFF35F8F0022324B1A60B1
:1038900089F3108803B0F0BCBB46B246A946A046E7
:1038A000F0BD1500EAE75246304B1A60E6E7934256
:1038B000C9D001F063FAC6E706215956002921DB79
:1038C0004A005018800034188046A0689860E0795B
:1038D000D871062020569871002824DBA488F01A9D
:1038E0006405241544440019E0240005400D240219
:1038F0002043988052181F4B9200B6181A781970FE
:10390000B271B3E7594600290FD1FF3191711A49BD
:10391000918018490A789A71184A9B1B5B415A4357
:10392000120D0A70A2E71648E3E7164A1649D21AA2
:10393000083A5002400D01439980144952080A4345
:10394000DA8093E70621515613000029B8DA5A4667
:10395000002AEAD14546DCE7240100D000ED00E072
:10396000CD010010F445002000E100E080E100E01E
:1039700080E200E0D94E002001BDFFFFAAAA0000AE
:1039800001BD00002E46002000F0FFFF00F8FFFF01
:1039900070B5EFF3058101240443EFF3108C72B688
:1039A000214A1368002BFCD0BFF35F8F1F4B05002B
:1039B0001F4AED1A6D416A43120D1E4D8900AE6813
:1039C00052B27658A6421CD00621595691421CD0BC
:1039D00012215956914222D01E215956914220D08F
:1039E0002A2159560324914210D0134B19781A708A
:1039F0008171BFF35F8F00220B4B1A608CF310882C
:103A000070BDAB680D4C5C50EFE7002461000919F4
:103A100089005B18FF21997109499980E5E7012424
:103A2000F4E70224F2E7C046240100D0F445002068
:103A3000AAAA000000ED00E0D94E0020CD01001040
:103A400001BDFFFF054B064A1360064A1360536031
:103A50009360D3601361536193617047808080806D
:103A600000E400E004E400E0024B9C46614489006D
:103A7000016070474000003410B50400FFF760FE9D
:103A800001002000FFF7F0FFFF232371BFF35F8FDA
:103A900010BDC04610B50400FFF752FE0100200023
:103AA000FFF7E2FFFF23A380BFF35F8F10BDC04687
:103AB00083680B4810B584466144624409011201D1
:103AC0009A18591854684B6801209C4201D802D0BA
:103AD0000020C0B210BD12680B689A42F9D8F7E70F
:103AE000FFFFFF0F0A4B1968EFF3108072B60A68E8
:103AF000002AFCD0BFF35F8F1B68BFF35F8F0022EB
:103B00001A6080F3108840BF002000217047C04633
:103B1000BC4E0020F8B557464E464546DE46E0B559
:103B200099460CAB1C780DAB1B78060090469A4664
:103B30000768002C11D1BC7B002C42D065003B688B
:103B40002D19033D59194B78BB73002B00D1FB7322
:103B500000238B704B700B7004E065003B682D19DF
:103B6000033D5919B2682A4B94464246E3181B019B
:103B700063441A604A465A600A9A9A600B9ADA605D
:103B800000238B704B700B707B7B9B46002B2BD0E4
:103B900022005946B8687B6898473A68002816D0D2
:103BA0005B4658465B005B445519033BA870D1182F
:103BB000D35C002B00D06B705B460C707B73A3450D
:103BC00013D0F0BCBB46B246A946A046F8BD5B4642
:103BD0005B005B44033BD3189C705119525D002A73
:103BE00000D05A705B460B707C7342464B46307D6A
:103BF00000F02EFB051E06D05346002B03D12100FA
:103C0000306800F049FD0E9B002BDAD01D70D8E71C
:103C1000FFFFFF0FF0B5DE4657464E4645460023F0
:103C2000E0B58BB00893674B8200D45800239B46C5
:103C3000099000F093FA626806000F00EFF3108518
:103C400072B61368002BFCD0BFF35F8F23689C46CD
:103C50005B7B9946002B00D169E0A2685A4B9046E5
:103C60004B441B01984443461A685B6810001900D6
:103C7000801BB941002900DC63E0099800F0E8FAF4
:103C800000230022984600230692079300239A46B9
:103C90006368BFF35F8F5A461A6085F310885346F6
:103CA000002B08D10028C4D10BB0F0BCBB46B246F3
:103CB000A946A046F0BD089B414618024B46184352
:103CC000D047626806000F00EFF3108572B61368E4
:103CD000002BFCD0BFF35F8F002F50DB33003B4342
:103CE00002D02369002B61D12368D97B002907D03A
:103CF0004A00521819688C4649466244033A51708A
:103D00009A7B002A01D14A469A734A46DA734B4697
:103D1000E168013BCA5C0132CA545B4623616368B7
:103D2000BFF35F8F5A461A6085F3108881E700233E
:103D300000229846002306920793002300209A460B
:103D4000A6E7002902D1002800D096E700216046AE
:103D500000F020FC43461A685B68069207934346CE
:103D60009B689A464346DB689846E3684B44013BB0
:103D70001B7808931B0203432361002088E7236913
:103D8000002BB1D0069A079B921BBB41002B15DB81
:103D900059460491012103914946029141460191FE
:103DA000514620000091FFF7B5FEB6E700F0D6F9C6
:103DB00032003B0012184B41002BE9DA0122034B81
:103DC0005242E5E7A84E0020FFFFFF0FFFFFFF7FF5
:103DD00010B5144C6368002B04D00A211248FFF779
:103DE00043FE10BD2300114A1021206800F0ECFAB8
:103DF000032000F0A7F9032000F094FA03200C49F7
:103E000000F0E0F9FFF79CFC0A4B9C460323237566
:103E1000D0231B061B6860446375074B80006060FD
:103E2000DC60DAE73C460020BC4E0020B13A0010CE
:103E3000153C001040000034A84E0020F0B54E465E
:103E40004546DE465746E0B585B0019310AB1B787A
:103E50000600039300239946984600927268EFF398
:103E6000108B72B61368002BFCD0BFF35F8F3568E0
:103E7000AC7B002C3DD067002B683F19033FDB195A
:103E80005A78AA73002A00D1EA73B168474A8C466F
:103E900000980199A21812016244106051600E99B5
:103EA00091600F99D16042469A705A701A706B7B7C
:103EB0009A46002B67D022001900A8686B689847C3
:103EC0002A68002852D0534650465B005344D71905
:103ED000033BB870D118D35C002B00D07B705346E5
:103EE0000C706B7354454FD0F3681B19013B187865
:103EF00000E000207368BFF35F8F42461A608BF3C7
:103F00001088002C4FD04B46002B08D100022043D4
:103F100005B0F0BCBB46B246A946A046F0BD039B27
:103F2000002B3ED00E9B00200F9998470300040001
:103F30000D000B4335D000290ADA009A019B121BB1
:103F4000AB4100920193002B0ADB039B994685E766
:103F500000F004F924184D4100940195002DF4DA85
:103F60000123134C5B4200930194EEE753465B0040
:103F70005344033BD3189C70D119D25D002A00D062
:103F80005A7053460B706C73307D009A019B00F0A1
:103F90005FF981460028A7D02100306800F07CFB43
:103FA000A2E70020B4E701204042B1E7FFFFFF0F86
:103FB000FFFFFF7FF0B5EFF30583CE46474680B5A0
:103FC00005000C0085B0002B12D02C4A0020536A4B
:103FD0009C4203D8926A0130AA4204D305B0C0BC07
:103FE000B946B046F0BDE01A421E9041C0B2F5E7B6
:103FF000234E02930193234B0200009330000B00E9
:10400000FFF71CFF031EE0DD20BF7168EFF3108790
:1040100072B60A68002AFCD0BFF35F8FDAB294460A
:104020003068427B62451DD0FF221A40510089460C
:1040300001689144884649464144033989780029FA
:1040400013D0F1681B0A88464244013A1278DBB269
:104050009A420FD07368BFF35F8F00221A6087F314
:104060001088B2E7FF221A40EBE732699342F1D1A0
:104070003161EFE7614600F00FFBEBE700400540E0
:104080003C460020E53A0010F0B5EFF30582D64635
:104090004F4646461000C0B51038EFF3108872B690
:1040A000214C2368002BFCD0BFF35F8F0123190044
:1040B00081401E4D1F006963AA461D4D29601D4D9C
:1040C0002E78AC463500C5402F402B4209D1BFF3B6
:1040D0005F8F276088F31088E0BCBA46B146A846D7
:1040E000F0BD5346144D5F6A83005D59AF420ED355
:1040F000124A8E439B5862461670BFF35F8F0022B0
:10410000226088F31088002BE6D09847E4E70C4B38
:1041100092009C46624413681360BFF35F8F0023D4
:10412000236088F31088D7E7280100D000400540BD
:104130003C700540DA4E0020C04E00201C4E00208E
:10414000D03F054010B50100024A0348FFF7C8FA06
:1041500010BDC04664740010D84E0020034B596A4D
:104160000A00986A596A8A42FAD1704700400540AD
:1041700070B504000D00124A536A1900966A536A1A
:104180008B42FAD13000190024184D41AB4211D8AE
:104190000ED02B000A494A6A9A42FCD307D1084A3A
:1041A00002E0516A994202D1916AA142F9D370BDED
:1041B000A642EED9012301246442E5175B42E9E7F8
:1041C0000040054070B504000D00EFF3108672B694
:1041D0001A4A1368002BFCD0BFF35F8F002D1BD051
:1041E0002000FFF7CBFA164981420AD02000FFF7E2
:1041F000CDFA01212000FFF7AFFA0123A340114AB5
:104200001360114BA400E550BFF35F8F00220B4BEE
:104210001A6086F3108870BD0B4BA200D5500122A6
:10422000A2400A4920000B7893430B700449FFF722
:10423000D7FA00212000FFF78FFAE5E7280100D028
:1042400089400010386005401C4E0020DA4E0020E6
:10425000F0B54F46D6464646C0B507002C4C616ABD
:104260000D00A66A616AA942FAD18B4208D805D02E
:104270000120E0BCBA46B146A846F0BDB242F7D92B
:10428000EFF3108A72B6234801680029FCD0BFF30F
:104290005F8F0125BD4020491D4C8846097889461D
:1042A0002943C9B28C46414660460870391D1B48F7
:1042B000890065630A51B9000B50216A0020294228
:1042C00019D0616A0800A66A616A8142FAD18B42FC
:1042D00019D801D1B24216D8CC4516D00C4B1F20AC
:1042E0001D625D6301230740BB400D4A1E38136009
:1042F00043464A461A70BFF35F8F0022054B1A608F
:104300008AF31088B5E70020F5E70120F3E7C046FF
:1043100000400540280100D0DA4E0020C04E0020A9
:1043200080E200E0EFF3108C72B60A490B68002BB4
:10433000FCD0BFF35F8F01238340074A0748136215
:1043400002789A430270BFF35F8F00230B608CF3F7
:1043500010887047280100D000400540DA4E002048
:1043600070B5050014001600002915D00C00002AB5
:1043700012D080686B689847296800280ED07300B7
:104380009B196200033B1219CB18033A9C708818E2
:104390008A5C002A15D10670200070BD63001B19CD
:1043A0007200033B9219CB18033A9E7088188A5CFE
:1043B000002A02D104703400EEE75A700470340011
:1043C000EAE75A700670E7E730B583600023CCB2A5
:1043D00043730133047342608373C4730D00006838
:1043E000012C06D9421C0133DBB2137003329C420C
:1043F000F9D1FF2129404B005918002340180338F8
:10440000437030BDF8B5CE46474606000C0080B577
:10441000002907D04D0003686D18033D5A195778DD
:10442000002F04D12000C0BCB946B046F8BD7900C9
:10443000C91903398846434459788946002159707F
:10444000517073683A0021008068984733680028EB
:1044500014D042469A18947059195B5D002B00D015
:1044600053700F70270049463000FFF7CBFF39002B
:1044700002003000FFF774FF0400D3E742464146D4
:104480005D19AF709A185B5C002B00D06B701470D4
:10449000E9E7C046F0B557464546DE464E46E0B52C
:1044A0000D006B0001685B19DF1E0400C85D83B05E
:1044B0000192CA19002850D043001B18033BCB18A7
:1044C0005E78B446002E1AD1019E002E42D0E67BC3
:1044D000002E04D073009B19CB18033B5D70A37BA7
:1044E000002B00D1A573E57300282FD10023537052
:1044F00003B0F0BCBB46B246A946A046F0BD720070
:104500006244033A89184A78904600224A709146DC
:104510005A70010032002000FFF722FF4346824616
:10452000002B07D05B0021684344033BCB185A782B
:10453000002A16D1424651462000FFF711FF21689C
:10454000019BCA19002BC2D10028CFD043001B18F1
:10455000033BCB1800219970C8E7019B002BB6D113
:10456000C4E7500080180338091848788346484645
:104570004870587041462000FFF7F2FE59468046C9
:104580002000FFF73FFF414602002000FFF7E8FE52
:104590008046CFE7F0B557464546DE464E46E0B585
:1045A00083B00191457B04006B0000685B19DF1E3E
:1045B000C15DC219002952D04B005B18033BC318E0
:1045C0005E78B446002E1CD1019E002E44D0E67BBE
:1045D000002E04D073009B19C318033B5D70A37BAE
:1045E000002B00D1A573E573002931D100232800E9
:1045F0005370617303B0F0BCBB46B246A946A046F7
:10460000F0BD72006244033A80184278904600225E
:10461000427091465A7020003200FFF7A1FE4346D7
:104620008246002B07D05B0021684344033BCB1834
:104630005A78002A17D1424651462000FFF790FED3
:10464000019B01002068C219002BC0D10029CDD0E8
:104650004B005B18033BC31800209870C6E7019B12
:10466000002BB4D1C2E750008018033809184878ED
:10467000834648464870587041462000FFF770FE58
:10468000594680462000FFF7BDFE4146020020004B
:10469000FFF766FE8046CEE770B5040000292CD0F7
:1046A000437B8B422ED005684800401803382818F9
:1046B0008278002A21D053009B18033BEA5CEE1855
:1046C0008A4202D11BE0002A08D053009B18033B0A
:1046D000EB185A788A42F6D142785A7000230122A8
:1046E000837043702000FFF7D5FE617B020020003D
:1046F000FFF736FE6073012000E0002070BD4378B4
:104700003370EBE701221900FFF7C4FE607301204C
:10471000F4E7C046F8B5CE464746040080B506200B
:104720000E0000F023FA051E51D0524B5249E218F8
:1047300053425A418023DB039C4692054F4B62440F
:104740001A604F4B1A6010008B689843FBD1494B9D
:104750008021E3185A4253414A4A5B00490099526A
:10476000062000F003FA3100C00001F025FEC30965
:1047700032D14022012190466162A362256BEB0792
:1047800036D427008026E36A00232C3776013E4387
:1047900033600620256300F0E9F94146800001F00E
:1047A0000BFE236B05009846DB073BD46022E36ACF
:1047B0005A406E2313403360434623638023102204
:1047C0009B013B431A60304B23630323A3642800FF
:1047D000C0BCB946B046F8BD2C4A93423FD900232D
:1047E0002B492C4A6162A362256B9046EB07C8D522
:1047F0002200C02330329B011343234A06201A6053
:10480000666AA26AB601B61800F0B0F9224901F052
:10481000D3FDB6020100300001F0CEFD0021FFF70C
:10482000A7FCAEE72200C02330329B011343164A97
:1048300006201A60636AA26A9B019946914400F0BF
:1048400095F94B4614499B02994601F0B5FD0100CC
:10485000484601F0B1FD0021FFF78AFCA6E77F2260
:104860009901884610400130400819008044030037
:1048700082E7C0460080FCBF00C0004000E000406E
:1048800000F00040D04E002001030000FEFF0000B9
:10489000FFFF0000C0FF3F004E0E000030B50C20AF
:1048A00083B000F0B9F9FEF713FF00280ED0994B42
:1048B000994A1A605A609A60DA601A615A619A617C
:1048C000DA611A62954A5A6203B030BD944CA0670F
:1048D00000F0AAF90122934B1A60636C012BFCD102
:1048E0000322914B1A608E4A936B012BFCD101334A
:1048F00001218E4A8E480093043300F03DF90523D0
:104900008C4A009301218C4800F036F98B4B5A6891
:10491000FF2A02D8802252005A6080227D4C824BAE
:1049200021691201854D1A60002907D0606901F0E4
:1049300043FD431C5800C0180338FDD2E0217F4BD3
:1049400002201A681140802252012A43116019681E
:10495000484003210140116004219A681142FCD0B3
:104960008022802192012A43090111608022520095
:104970005A60734B2361734B5968FF2900D85A6002
:104980000321684A6F4B116002399A681142FCD0CA
:10499000E0201A681040802252011A431060186803
:1049A0004840032101400220116066498A68104294
:1049B000FCD0802292011343802212011A608022CF
:1049C000614B52004A606361604B5968FF2900D80F
:1049D0005A6080225E4BE16912015C4D1A60002929
:1049E00007D0606901F0E8FC431C5800C018033888
:1049F000FDD2E02255490B681A4080235B012B430E
:104A00001A60802380229B012B4312011A608022AE
:104A1000414B52004A60E3614E4B5968FF2900D870
:104A20005A6080224C4B216A12014A4D1A600029BB
:104A300007D0606901F0C0FC431C5800C01803385F
:104A4000FDD2E02243490B681A4080235B012B43CF
:104A50001A60802380229B012B4312011A6080235D
:104A600080225B004B602C4BD20223623B4B596887
:104A7000914200D25A608022394B616A1201374D4F
:104A80001A60002907D0606901F096FC431C5800A9
:104A9000C0180338FDD2E02230490B681A40802349
:104AA0005B012B431A60802380229B012B43120160
:104AB0001A608023DB024B60184B6362294B5A68F3
:104AC000FF2A02D8802252005A608022264BA16918
:104AD0001201244D1A60002907D0606901F06CFCB6
:104AE000431C5800C0180338FDD2E0221D490B6852
:104AF0001A4080235B012B431A60802380229B0194
:104B00002B4312011A6080235B004B600E4BA361A4
:104B1000DAE6C046344E0020006CDC021BB7000011
:104B2000008000403CB0004030B00040002F685989
:104B300000800240008C864700C002403080004068
:104B4000001BB7003C800040405973075480004070
:104B500054B000406080004060B000406C80004075
:104B60006CB000404880004048B00040014B8000DD
:104B7000C0587047344E0020F8B5040021481D008D
:104B800017000E0001F018FC0100380001F014FCC1
:104B9000069B29041B0319432368002B20DB1A4BB7
:104BA0001A4DE21853425A4180235B019C4612037E
:104BB000174B62441A60174B1A601700AB689F438B
:104BC000FBD1C022231D92011A4321232660A0603D
:104BD00013602368002BFCDA0823E1601360F8BD42
:104BE0003F2322681340B342D9D1A3681B051B0D94
:104BF0008342D4D1EE22E368D20213408B42CED15D
:104C0000EDE7C046001BB7000040FDBF00C00040FC
:104C100000E0004000F000408023024A9B00034374
:104C2000D362704700800540AA23064A1B01136027
:104C30002F230549D360054B19605368002BFCDA1C
:104C40007047C0460040024000B0FA0000600240D9
:104C50002C4B2D4A70B51A602C4A2D4B2D491A60E9
:104C600014008B689C43FBD12B4D2C4EB54208D2CF
:104C7000013E761BB60808CD984723000134B342A5
:104C8000F9D1FFF70BFE264A214B1A60214A93689F
:104C9000DB43DB01DD09002BF9D14022214B224C03
:104CA000224E9A675A671A67DA66B44208D22368B6
:104CB0002000002B20D00834FEF7ECFEB442F6D3DF
:104CC0001B4E1C4CC022A168300001F017FEA660EC
:104CD000FEF728FDFEF7B6FEFFF77AF8164C174EE2
:104CE000B44208D2013E361BB60808CC98472B00C8
:104CF00001359E42F9D170BD0834FEF7BDFEB442C5
:104D0000D5D3DDE700E00040BFCDFBFEFE7F3C00D9
:104D100000F0004000C00040E84A0020F84A0020AF
:104D2000FFFFFF0100F00140E04A0020E84A0020B8
:104D30000000002000ED00E0F84A0020FC4A0020BE
:104D400000BEFDE710B5FFF7FBFFC0460FB400B58E
:104D5000084883B001F036FF049B002B07D005A95B
:104D60001800019101F0DAFA034801F02BFF01204D
:104D7000FFF7E6FF887400108872001010B5014834
:104D8000FFF7E4FF987400107047C046F8B5574627
:104D90004E464546DE46E0B599460A9B07009A46D0
:104DA0000D9B8846934615000B9E9B0710D10C9BCC
:104DB0009E420DD29D1B14000E005D4422004B4606
:104DC000013431002020B847A542F7D1B0460B9EF0
:104DD000002E27D0444675195346AA1B013E985D04
:104DE00021004B46B847002EF6D123002C009846F0
:104DF0000D9B9B070FD55B46E51A0C9BAB420AD96E
:104E00004646984622004B46310020200135B847DF
:104E10000134A845F6D82000F0BCBB46B246A946EE
:104E2000A046F8BD2C00E3E7F0B54F464646D6460F
:104E3000C0B584B098460EAB1B78129F9946944635
:104E40000D9C109B119EBA0725D4002E4BD19C427D
:104E500000D3BFE001223A4092461F2C00D9B8E0AF
:104E60000C9A551E302201E0202C03D001342A5523
:104E7000A342F9D85246002A0DD0A6420BD9202CC5
:104E800044D00C9A551E302201E0202C3ED0013433
:104E90002A55B442F9D1FA064DD57A053FD4002CF3
:104EA00039D10F9B102B00D179E00F9B022B00D141
:104EB0008AE030230C9A012413704B46002B3FD01C
:104EC0002D230C9A135501340C9B624600930397D3
:104ED000434602960194FFF759FF04B0E0BCBA467E
:104EE000B146A846F0BD012215003D40AA463A420F
:104EF0002FD04A46002A02D10C323A4200D0013E5D
:104F00009C42BAD21F2CABD9202E27D92024FA06D6
:104F1000DAD57A0503D4A3422DD0A6422BD00F9B1D
:104F2000102B32D0022B20D0202CCDD030220C9B45
:104F30001B191A700134202CC6D04B46002BBFD150
:104F40007B070DD43B07BFD520230C9A13550134A2
:104F5000BAE79C429FD21F2C00D881E720249AE711
:104F60002B230C9A13550134AEE7202CACD00C9BAC
:104F70001B1901343AE0631E012C92D00F9A102ABB
:104F80002AD0022A2FD01C00D0E7BB060ED4202C3A
:104F90009AD00C9B1A19013478231370C4E7BB060E
:104FA0000DD478230C9A01241370BFE7202C00D174
:104FB0008AE758220C9B1B191A700134B4E7582356
:104FC0000C9A01241370B1E70C9A6033012413701A
:104FD000ACE7202400265EE7023CBA06E9D40C9A2E
:104FE00012191C00D8E70C9A9246534462221A7098
:104FF0009AE7C04610B5002800D110BD01F096FD1B
:10500000FBE7C0460B0010B5002802D049681B68BA
:10501000984710BDF0B5DE4657464E464546E0B5CA
:105020009BB09B46249B89469846259B0B900C92EF
:105030004046424619009A46FCF747FA002800D03D
:10504000D8E0012240465146774B5242FCF738FAED
:10505000002800D0CEE0012240465146734B524218
:10506000FCF718FA002800D0C4E0002200234046D4
:105070005146FCF70FFA002800D0B9E142465346EA
:105080000A9209938023289ADB001A400E92289AEC
:105090001A4201D1062326930A9A099B160013434C
:1050A00000D0C7E0289B002500261B0500D49BE10B
:1050B00000230D93269A0D9B9A4200DC9FE1D01AA3
:1050C000431E26938023289ADB001A4300230027DF
:1050D00028920D93279B0024BB4200D9DC1B02239E
:1050E000289A1A400E92289A134203D07B427B41A1
:1050F0005B421C400D9B002B07D00A9809992A009F
:105100003300FCF75EF90A90099100220023404623
:105110005146FCF7BFF9002805D0802000068446E0
:10512000099961440991289A414B0B9D13400493BE
:10513000269B0A9A0293099B039400920193494685
:105140005B4628000C9A00F08BF90400002F62D017
:10515000289B220098061F23C0179843631C98467B
:1051600049465B466530A8470D9B0025DA179C1819
:10517000DB0F9A465440013F01E0202D13D00AAACC
:1051800094461F23200063440A2101355E1901F073
:1051900013F93031317020000A2101F00DF9260099
:1051A0000400092EE9D805230693002304930A334B
:1051B0000393534605970B9F029312AB009342460D
:1051C0005B46494638000195FFF72EFE0E9B040012
:1051D000002B20D00C9BC51A279BAB421BD91E006D
:1051E00022005B46494620200135B8470134AE42D3
:1051F000F6D810E0289B42460493279B4946039328
:10520000269B0B9802935346009201935B460C9A9F
:1052100000F026F9040020001BB0F0BCBB46B246EB
:10522000A946A046F0BDC046FFFFEF7FFFFFEFFF9E
:10523000FFF7FFFF734B099F9C467800400D6044C9
:10524000FCF756F9704A714BFCF7D9F8704A714B6C
:10525000FCF7AEF83B03704A1B0B1A4304000D0029
:10526000300011006D4B0022FCF799F86C4A6D4B31
:10527000FCF7C5F802000B0020002900FCF798F8A5
:10528000FCF74EF90D90FCF733F9674A674B0400C1
:105290000D00FCF7B4F80022654BFCF789F8FCF729
:1052A0003FF9644A0600644B20002900FCF7A7F888
:1052B000040030000D000F96FCF71AF95F4A604BAE
:1052C000FCF79DF802000B0020002900FCF767F8AE
:1052D00002000B0006000F00FCF791F832000400FA
:1052E0000D003B0030003900FCF762F800221090FE
:1052F0001191544B20002900FCF763F80022524B17
:10530000FCF756F802000B0020002900FCF759F8C2
:1053100000224E4BFCF74CF802000B002000290045
:10532000FCF74FF80D008021040032003B00002004
:10533000C905FCF734F802000B0020002900FCF737
:1053400037F802000B0010981199FCF73AF8002288
:10535000314BFCF72DF83E4B0F9C9C4664440022D9
:105360002305FCF74CF805000E0002000B000A981C
:105370000999FCF78FF800280AD00D9B2800013B03
:1053800031000D930022304BFCF71BF805000E0096
:10539000C6270D992B0063318F42BF4128997F4268
:1053A0000437090500D495E6334300D182E6099C11
:1053B000284A2100284B0A98FCF77AF8002808D0E0
:1053C00000222100254B0A98FCF764F8002800D041
:1053D00070E6269B002B00D17CE60E9B5A1E934163
:1053E000269AD31A269375E6002304270D9371E6B7
:1053F00043460A9380231B065344099342E6002345
:1054000026935FE601FCFFFFFB799F501344D33FD7
:10541000B3C8608B288AC63F0000F03F0000F83F09
:1054200061436F63A787D23F71A379094F930A4005
:105430000000E03F1655B5BBB16B0240EF39FAFEF4
:10544000422EE63F00002C4000002440000018409F
:10545000FF0300002D431CEBE2361A3F80842E41EF
:10546000F0B54E46DE4657464546E0B597B09946FC
:10547000209E219F229B8346984607910C923B00D9
:10548000320030003900FCF720F8002800D0A9E1F4
:10549000012230003900CA4B5242FBF7FBFF0028C3
:1054A00000D0E1E0012230003900C64B5242FCF747
:1054B00007F8002800D0B7E0002230003900C24BC6
:1054C000FBF7FEFF002800D099E0002230003900F1
:1054D000BE4BFBF7DFFF002800D090E00022002346
:1054E00030003900FBF7D6FF002800D0B1E00023E0
:1054F0000D93249B5B0501D40623984608AB9C467C
:105500001722002430234146624404E0013413553D
:105510000139202C01D00929F8D8884630003900FB
:10552000FBF7FEFF4346DA00A94B05009B181A68FB
:105530005B6808920993FBF7DBFF02000B00300069
:105540003900FBF72CFF089A099BFBF758FF0A90DC
:105550000B91FCF709F88246FBF7C6FF02000B002F
:105560000A980B99FBF71BFF00229A4B0A900B91AC
:10557000FBF7A6FF002800D1C0E001239C46E244CF
:105580005046FBF7B1FF02000B0008980999FBF7A2
:1055900087FF002802D000239A4601354346002B9E
:1055A0006AD008AB17269C4608956644554614E019
:1055B00001235B4243440A2128009A4600F0FCFE86
:1055C000013430313719397028000A2100F0F4FE17
:1055D000092D00D8D0E0D0460500202CE8D10EAB34
:1055E00098460323249A1340012B00D196E02023F0
:1055F000249A01930392239A434602921EE0249B2D
:1056000058460493239B00960197039343460C9AB4
:10561000029307994B46FFF7FDFC17B0F0BCBB4661
:10562000B246A946A046F0BD249B5B070ED40322D8
:10563000694B249901920391239902910093584652
:105640004B460C9A0799FFF7A1FBE6E70422634B50
:10565000EFE73B00320000200021FBF7A0FE012312
:1056600006000F000D9344E7249B0393239B0293B2
:10567000042301935A4BE1E72800FBF739FF0200AE
:105680000B0030003900FBF78AFE524B0022060067
:105690000F00FBF7FFFE0EAB984600280AD1002250
:1056A000300039004B4BFBF70BFF002802D1EB0712
:1056B00000D50135202C94D008AA94461723280041
:1056C00063440A2101341E1900F04EFE30312800D7
:1056D00031700A2100F048FE051EEBD10323249A05
:1056E0001340012B1BD0202C00D180E70D9B002BF9
:1056F00035D02D224146631C0A5579E700220A98CD
:105700000B99344BFBF7C6FE002800D046E7534602
:10571000002B51D101239C46E2443FE72024239BE8
:10572000002BE0D00D9B002B03D1249A0C331342A5
:1057300002D0239B013B2393239BA342D3D908ABE5
:105740009C46172230236244202C00D14FE7239936
:10575000013413558C42C6D0202CF8D147E7249B46
:105760005B0724D4249A2300120700D440E72022A8
:10577000414601330A553BE75746089D202C00D18E
:105780002DE7220030214046002F09D00132B154CC
:10579000202A00D123E7D3431B191B18002BF5D176
:1057A0000EAB98462E234146541C8B5482E72B2285
:1057B0004146631C0A551BE7DB0700D4EEE6A9E768
:1057C000FFFFEFFFFFFFEF7F65CDCD4165CDCDC181
:1057D000A07600100000E03FA4740010A874001030
:1057E000B4740010249B0393239B0293032301931F
:1057F000004B23E7B0740010F0B5DE464E46574626
:105800004546E0B59FB01C00289B91460993C94AC4
:10581000C94B8B4608901A60002900D118E200237A
:1058200020789A46002800D11AE226001D005C4626
:105830000AE02A006F1C4B46089D2100A8473D0046
:1058400001363078002870D02528F2D110239B46ED
:10585000083B9A46043B9846023B00219C46721C3A
:10586000107816000300203BDBB2102B03D8B34F97
:105870009B00FB589F460300303B092B32D9002385
:105880000A932A2868D0002398462E283ED0030089
:10589000683BDBB2122B1CD8A94A9B00D3589F4609
:1058A000012301321943DBE7634601321943D7E78D
:1058B000434601321943D3E75B4601321943CFE730
:1058C000534601321943CBE780235B0070781943BC
:1058D00001360300253BDBB2532BAAD8994A9B0023
:1058E000D3589F4600270300B800C0190136400076
:1058F000C018337830381A00303A0700092AF3D933
:105900000A901800002398462E28C0D18023707872
:10591000DB0019430300303B721C092B00D8A1E1C6
:105920002A2800D1B2E11600B1E7A346AA462C000E
:10593000D14503D801235B424B449A464B4652461D
:1059400059460020089DA84720001FB0F0BCBB4668
:10595000B246A946A046F0BD099B40CB0A96002E50
:1059600003DB50780993561C8DE7283801437042B9
:105970000A9009935078561C85E7782800D1DFE11A
:10598000582800D14CE26F2800D14FE3622801D1A2
:1059900000F030FC10230A009A430B92692801D0D2
:1059A00000F0A9FC0A230C934B0500D5D0E10B9A1B
:1059B000802311009B0019408B461A4200D0A1E2BF
:1059C000802311005B0019408A461A4200D0B6E3DA
:1059D00013005B0600D5EDE2130009991B0601D404
:1059E00000F076FC08C91BB2D8171A18424092B2D0
:1059F00009919346DA0F1292002B09D180231022CD
:105A00000B99DB000B4091430B91002B00D0E4E29B
:105A10000B9A6123920600D541230EA91F228C46C2
:105A2000DBB262440A3B5F461395A34655460C9C85
:105A3000B2460D9316000AE03033DBB201357355E0
:105A4000A74200D2EDE2202D00D1EAE207002100BA
:105A5000380000F0B1FCCBB20929EDD90D9A94467B
:105A60006344DBB2EAE780239B0070781943013678
:105A70002FE77078682800D1CDE1802301361943E3
:105A800027E770786C2800D1BFE180235B001943C1
:105A900001361EE7462800D19BE10722099B0491AD
:105AA000073393430A9A19000392424602920CC9A3
:105AB00008980092019309912A004B462100FFF7B4
:105AC000CFFC01360500BCE62A006F1C4B46089D42
:105AD00021002520A84701363D00B2E68B0700D4FF
