:020000041000EA
:1000000000B5324B212058609868022188439860DF
:10001000D860186158612E4B002199600221596106
:100020000121F02299502B49196001219960352056
:1000300000F044F80222904214D00621196600F024
:1000400034F8196E01211966002018661A6600F04E
:100050002CF8196E196E196E052000F02FF8012189
:100060000842F9D1002199601B49196000215960AB
:100070001A491B48016001219960EB211966A021F2
:10008000196600F012F800219960164914480160C1
:100090000121996001BC002800D000471248134993
:1000A000086003C880F30888084703B5996A0420EC
:1000B0000142FBD001200142F8D103BD02B5186610
:1000C0001866FFF7F2FF186E186E02BD00000240BE
:1000D000000000180000070000035F00212200005C
:1000E000F4000018222000A00001001008ED00E03C
:1000F00000000000000000000000000074B24E7A12
:1001000000200420F7010010C3010010C5010010F9
:10011000C1010010C1010010C1010010C101001097
:10012000C1010010C1010010C1010010C701001081
:10013000C1010010C1010010C9010010CB01001065
:10014000CD010010CD010010CD010010CD01001037
:10015000CD010010CD010010CD010010CD01001027
:10016000CD010010CD010010CD010010CD01001017
:10017000CD010010CD010010CD010010CD01001007
:10018000CD010010CD010010CD010010CD010010F7
:10019000CD010010CD010010CD010010CD010010E7
:1001A000CD010010CD010010CD010010CD010010D7
:1001B000CD010010CD010010CD010010CD010010C7
:1001C00000BE00BE00BE00BE00BE00BEEFF3058054
:1001D000103800BEF2EB88713C8205105C8205107D
:1001E0003402001090A31AE700201F49086006C8D7
:1001F00081F3088810471D48006800282FD10DA4FE
:100200000ECC002902D000F012F8F9E71849194A7B
:10021000002000E001C19142FCD1174988471749ED
:1002200088471749884700BEFDE701C901C29A42C5
:10023000FBD370475C820510C0000020F02C00202A
:100240008CAE051000000420000004208CAE0510C8
:10025000001004200010042000000000704709482E
:1002600011F0AEF90047000008ED00E0000000D0FA
:10027000F02C0020E05A0320B5FD0010750300109B
:10028000E9FE00105756000006005250ABB3605311
:1002900018DE041006005250861C030228DE0410EB
:1002A000060052505422A29D34DE04100500525024
:1002B000DE65F4688CAE0510F8B5C0460448054B01
:1002C00010B5834203D0044B002B00D0984710BDDB
:1002D000F02C0020F02C0020000000000648074908
:1002E000091A8B10C90FC91810B5491003D0044B57
:1002F000002B00D0984710BDF02C0020F02C0020DF
:100300000000000010B5074C2378002B09D1FFF73F
:10031000D5FF054B002B02D0044800E000BF0123AD
:10032000237010BD003200200000000048D40410EB
:10033000054B10B5002B03D00449054800E000BF71
:10034000FFF7CCFF10BDC0460000000004320020C3
:1003500048D4041010B504001F210DF0EDFC00225C
:10036000200000210DF000FD002120000DF014FD03
:1003700010BDC04630B5192083B00DF021FDD0234B
:1003800080221B0692045A62394812F09DFC12F03A
:10039000FBFD384812F098FC0FF0F0FC1A20FFF734
:1003A000D9FF1B20FFF7D6FF00F08CF8324812F07F
:1003B0008BFC07F005FC314812F086FC09F0C8F907
:1003C0002F4812F081FC07F039FE02F0A7F82D4803
:1003D00012F07AFC0AF0CCFC002205242A4B1A7099
:1003E00006F02CFF294812F06FFC294D013C21003A
:1003F000280012F0BDFDFA2080000EF003FB002C57
:10040000F4D10A2012F014FC0021012221480DF041
:10041000AFFF214814F068FF00F050F901221F4B94
:1004200014201A7012F0DEFA112304000193013334
:1004300010221B49009301330AF082FE194D20005F
:100440002C600CF017FB2B68002B0CD0164812F018
:100450003BFC164C2378012BFCD109F035FB2378AB
:10046000012BFAD0F6E7124812F02EFCF1E7C04655
:1004700048D4041058D4041064D4041070D4041068
:1004800080D4041090D40410C25A0320A0D40410C5
:10049000ACD4041098590320C19D0010C15A032008
:1004A00000C0034038400320C0D40410C65A0320C3
:1004B000D8D4041010B5024815F03EFA10BDC0465D
:1004C00060390320092370B586B005930433049383
:1004D000023B0393013B0293023B324D324C0193AA
:1004E000324B22003249334800932B0006F064FB64
:1004F000142006F05DFBFA2080000EF083FA2E4EE9
:1005000021003200280006F06FFD3378682B08D0F8
:100510002A4C200012F0D8FBFA2080000EF072FA6C
:10052000F7E773783D2BF3D101222100280006F074
:100530007FFD234E32002100280006F0B3FD337802
:10054000002BF7D101222100280006F02FFC012109
:10055000200006F00DFC0321200006F09FFB032184
:10056000280006F0C9FC1321200006F009FE122124
:10057000200006F043FE0021200006F021FE0321AA
:10058000200006F0ABFD0221200006F0C3FD55213E
:10059000200006F0A1FB1821280006F047FC06B059
:1005A00070BDC0460C2003208833002040420F005D
:1005B0009C20002094200020785A032000D50410AD
:1005C000D95A0320F0B5C646334C344D344E220080
:1005D0002900300000B506F019FD6378DB439B0766
:1005E00020D023781B0702D480BCB846F0BD2D4C28
:1005F00006220021200012F0E9F92100300006F067
:10060000D5FC0023E05E06F03FFB274D2860022367
:10061000E05E06F039FB68600423E05E06F034FB20
:10062000A860E1E7214B062298461800002112F04D
:10063000CDF91F4F06220021380012F0C7F94146BC
:10064000280006F095FC3900280006F073FC4346AC
:100650000020185E06F004FB4346164D2860022079
:10066000185E06F0FDFA434668600420185E06F046
:10067000F7FAA8600023F85E06F0FCFA0E4D286039
:100680000223F85E06F0F6FA68600423F85E06F0CE
:10069000F1FAA860A5E7C046AC4F032088330020DC
:1006A0000C200320643F0320B4440320543F032064
:1006B0005C3F0320E03D0320003E0320F0B5C6462A
:1006C00000B512F061FC254925480FF08FFA03218F
:1006D0001A200DF031FB03211B200DF02DFB002211
:1006E00001211A200DF040FB002201211B200DF0FA
:1006F0003BFB1C480EF086F91B4C1C4E23781C4D0E
:10070000DB070ED41B4B01279846210030880CF0E4
:10071000E1FE4346287018680EF074F923781F42F2
:10072000F3D030880CF0B4FC0221287030880CF033
:1007300005FE1421287030880CF038FD1421287033
:1007400030880CF0A1FE287030880CF005FD287070
:10075000094812F0B9FA80BCB846F0BD801A06000C
:100760007C210020B80B0000DA5A0320A4200020CE
:10077000C95A0320A820002014D50410F0B557460C
:10078000DE464E464546E0B58BB0089192461900CC
:1007900005900993DA1703238C46134063449B109A
:1007A0009B009846002B00DC90E05246159B0024ED
:1007B0009B000193149B9B1A159A9B1A089A9B0005
:1007C00002935368126819019446049106925146A7
:1007D0009A00039252468D000021013A920007923E
:1007E000002289465900DE00CB189B009B4613006F
:1007F000424665440092019A94469C44039B1A1910
:100800009F195346002B1EDD069B05981919634658
:10081000804600989B004344804600940868186016
:100820000098081A845804315C6084599C60C0594F
:10083000D86010338D42F1D1434607990093634647
:100840008C4604339C440421029B5A4463448C46E6
:100850001400049A3E00E1449446009A5E446544C4
:100860004A45C8DC1A00009B9846099B434526DD93
:100870001499159C089B0D1B514609CB6D1A002934
:100880001DDD41469E004B439B00C01853469C0013
:10089000059B47469C46099BAB469846159B994647
:1008A00000234A4491006144C558CD5004339C4212
:1008B000FAD1524401375A448019B845F0D10BB0EF
:1008C000F0BCBB46B246A946A046F0BD0022CCE72C
:1008D000F0B54746CE4680B51F00002B1DDD002A2F
:1008E0001BDD9300C0180B68002498464B689100EC
:1008F000D200494252428C4691469B0061464518BF
:100900002900A20042441668D21840C18142FAD19F
:100910004A460134A81AA742F0D1C0BCB946B04635
:10092000F0BDC046F0B5DE464E465746454600236C
:10093000E0B5136083688BB0049305239B460023C6
:100940005E46099202680293013B0790069103926A
:1009500008930523049C9B1B5C439846029BA400C0
:100960009C46039B64449C46644423685D00636822
:100970006D085F007F08291C381C11F0E3FD00287A
:1009800000D1CCE03D1C0127731C9A46022B37D9BD
:10099000A368291C5B005B08181C994611F0D2FD66
:1009A000002801D04D4602275346032B28D0E36888
:1009B000291C5B005B08181C994611F0C3FD002838
:1009C00001D04D4603275346042B19D02369281C18
:1009D0005B005B08191C994611F0A6FD002801D0A8
:1009E0004D4604275346062B0AD16469281C64002F
:1009F0006408211C11F098FD002801D00527251C52
:100A0000069B029A474400219F50281C11F084FD48
:100A1000002800D185E0089B013300D1FEE00623C9
:100A200047469B1B9C46079A059392685743674429
:100A30000492BF000599049B0C009A005C43029B42
:100A400000929C46039BA5001A0065448C46914683
:100A50009B46924690463B1D6444A400994404334F
:100A60005D445C449A44BB44043310379446984434
:100A70003B000027634401935B462968186811F026
:100A80001CFD011C206811F0FEFC2060012E2DD9F8
:100A90004B462868196811F010FD011C606811F0C0
:100AA000F2FC6060022E21D053462868196811F0CC
:100AB00004FD011CA06811F0E6FCA060032E15D017
:100AC00043462868196811F0F8FC011CE06811F031
:100AD000DAFCE060052E09D1019B2968186811F045
:100AE000ECFC011C206911F0CEFC2061009B013759
:100AF0009C4665446444BE42BED1029B013E043321
:100B00000293059B052B00D023E71A00069B5A6130
:100B10000BB0F0BCBB46B246A946A046F0BD0027CC
:100B200032E7474530D0039902988C46BF006744AE
:100B30008446079A3C6892680B5892000C506144B6
:100B40003B608918BB1808681C680C60186089181D
:100B50009B1808681C680C60186089189B18086846
:100B60001C680C60186089189B1808681C680C6069
:100B7000186089189B1818680A6808601A60099A32
:100B800013680093013313604746079B039A9B68E1
:100B90005F4304930623991B43468C46FB189B0036
:100BA00067449C58BF00D51928680591211C11F095
:100BB00070FC2860012E00D83CE7039B3D1D9C463D
:100BC00065442868211C11F064FC2860022E00D1C5
:100BD00030E7039B3D009C46083565442868211C8E
:100BE00011F057FC2860032E00D123E7039B3D0042
:100BF0009C460C3565442868211C11F04AFC28608D
:100C0000042E00D116E7039A3D0094461035654442
:100C10002868211C11F03DFC28600BE7062347469D
:100C20009B1B9C4605934346079A0893926857433B
:100C300067440492BF00FDE6F0B55746DE464E46D7
:100C40004546E0B599B01493249B8246259C26988E
:100C50005D1C00D1229B651C00D1229C239DEE17B8
:100C600003253540239EB4466544AD10AF000725EB
:100C7000229E0E97AE4335000096149E002E00DC97
:100C800088E29B001693230110930301D318179356
:100C90006B1EDB0801330391D9015B010F93A300A5
:100CA0007C43201880001193131815930023D3461A
:100CB000139108930E9B002B00DCC2E10F9A039B5B
:100CC000944663441293179BD846019300230293E2
:100CD0000298434601000CCB089C5943A44661444A
:100CE000890051180991411C5943614489005118E8
:100CF0000A91811C59436144890051180B91C11C10
:100D00004B4363449B00D318019E0C93009B34001B
:100D1000002B00DC45E2039B0025994600234C464E
:100D2000AA46AB46A946069504952F1C059507953E
:100D30000D9325683168281C11F0BFFB594611F04E
:100D4000A5FB71688346281C11F0B7FB514611F0D2
:100D50009DFBB1688246281C11F0AFFB079911F08A
:100D600095FBF1680790281C11F0A7FB059911F07D
:100D70008DFB059065683169281C11F09EFB391CBC
:100D800011F084FB7169071C281C11F096FB049973
:100D900011F07CFBB1690490281C11F08EFB0699C0
:100DA00011F074FBF1690690281C11F086FB49468E
:100DB00011F06CFB8146A568316A281C11F07DFB9F
:100DC000594611F063FB716A8346281C11F075FBCC
:100DD000514611F05BFBB16A8246281C11F06DFB95
:100DE000079911F053FBF16A0790281C11F065FB7D
:100DF000059911F04BFB0590E568316B281C11F04B
:100E00005CFB391C11F042FB716B071C281C11F0B4
:100E100054FB049911F03AFBB16B0490281C11F0BB
:100E20004CFB069911F032FBF16B0690281C11F077
:100E300044FB494611F02AFB81462569316C281C88
:100E400011F03BFB594611F021FB716C8346281CC5
:100E500011F033FB514611F019FBB16C8246281C8E
:100E600011F02BFB079911F011FBF16C0790281C76
:100E700011F023FB059911F009FB05906569316DAF
:100E8000281C11F01AFB391C11F000FB716D071CB6
:100E9000281C11F012FB049911F0F8FAB16D0490BE
:100EA000281C11F00AFB069911F0F0FAF16D06907A
:100EB000281C11F002FB494611F0E8FA8146A569A9
:100EC000316E281C11F0F9FA594611F0DFFA716EF3
:100ED0008346281C11F0F1FA514611F0D7FAB16E91
:100EE0008246281C11F0E9FA079911F0CFFAF16E49
:100EF0000790281C11F0E1FA059911F0C7FA059046
:100F0000E569316F281C11F0D8FA391C11F0BEFACE
:100F1000716F071C281C11F0D0FA049911F0B6FA71
:100F2000B16F0490281C11F0C8FA069911F0AEFABE
:100F3000F16F0690281C11F0C0FA494611F0A6FA8C
:100F40008146803620340D9B009A08330D939A42D7
:100F500000DDEEE6139B019C9C46051C5946381C9F
:100F6000644411F093FA5146071C049811F08EFA6C
:100F70000799061C069811F089FA05998146281CE4
:100F800011F084FA129B051C9A46229A009B9A4201
:100F900030DDAB460493534620CB2168281C9A468B
:100FA00011F08BFA011C381C11F070FA6168071CF3
:100FB000281C11F082FA011C301C11F067FAA1689C
:100FC000061C281C11F079FA011C484611F05EFA43
:100FD000E1688146281C11F070FA011C584611F096
:100FE00055FA8346049B229A0133103404939A42A3
:100FF000D1D1051C311C0A9E306811F044FA391C0D
:10100000099F041C386811F03EFA291C0C9D3860B9
:101010003460286811F037FA0B9E4946041C30688A
:1010200011F031FA1099019A8C46029B62440192A8
:101030000E9A0433306002932C609A4200DD47E63A
:10104000C3460F9A039B944663440E9A0293239BD4
:101050009246159D934200DC90E05B465C685346E7
:101060005C43089B2F009C465B461B6864449C467F
:10107000009BA4006444002B00DC99E00023039F44
:1010800099463B00A04600262F001C0039682068C6
:1010900011F013FA311C11F0F9F9061C7968606837
:1010A00011F00BFA311C11F0F1F9061CB968A068B7
:1010B00011F003FA311C11F0E9F9061CF968E06837
:1010C00011F0FBF9311C11F0E1F9061C39692069B6
:1010D00011F0F3F9311C11F0D9F9061C7969606936
:1010E00011F0EBF9311C11F0D1F9061CB969A069B6
:1010F00011F0E3F9311C11F0C9F9061CF969E06936
:1011000011F0DBF9311C11F0C1F9061C2037203435
:1011100008239C46009BE1444B45B7DC44460F9BAB
:10112000EF18029B0193229A009B9A4217DD994681
:101130000023984643464246F958019B985811F0BF
:10114000BCF9011C301C11F0A1F9061C01239C46BE
:101150000333E1449C46229BE0444B45EAD120689E
:10116000311C11F090F901239C46119BE2449C46EE
:10117000239B20606544534500D06EE71699039A7F
:101180008C46089B62440392149A013308939A4256
:1011900000D08FE519B0F0BCBB46B246A946A046C8
:1011A000F0BD0025039BA9469A462E1C2F1CECE699
:1011B000039B00260193B6E7F0B55746DE464E4640
:1011C00045469C24E0B5BDB006AF3C19FB638423C3
:1011D00020609824BA6694225B003C19FB182160B9
:1011E0001C68BA182369FB67A3681360834202DD99
:1011F0009423FB18186094239821FB187918FA6F30
:101200001B680D68534355432268002A00D1DBE276
:101210009B007B668C23FB181A6090220023BA186F
:1012200013606368AA003A66002B00D1ECE28822C2
:10123000BB670023BA181360C84D2B78BFF35B8FD0
:10124000DB0700D4FDE2C64CA4220423BA181360C5
:101250009433FB181B686068002B18DD9C237A1DF3
:10126000FB18FF321B6812681900934200DAFFE294
:10127000090110F0FFF90323C2171340A4221B1821
:101280009B109B00BA181360042B00DAEBE29C233E
:10129000FB181C68002C00DC72E2FB6BFD6F180071
:1012A0006A425043F86118008021661B7043F8665B
:1012B000180001335A4392007918BA61621E0E6019
:1012C0001100594389008846B96E1B018C46E044E1
:1012D00041467964A90049423961A1007C1CFF3470
:1012E00024685B42A446A42461443964791DFF311B
:1012F0003C1909682468FB606143B962B02183002E
:101300005B4279180B600300921B5043DB43AC2215
:101310009B00BA181360C4227B1DFF331B68BA18E8
:101320009B0078611360A022FB6FBA1813609C22A7
:10133000BA181268934202DDA023FB181A609823A2
:10134000FB181B68002B00DC9FE1A023FB181A6828
:10135000002A00DC99E19823FB181B68396C3B6577
:10136000A423FB181B6853439B00FB62BB6FFB6409
:101370009300CB1A79697B628C46FB6EB82163447B
:101380007B63002379180B60D021BB643B679C33DF
:10139000FB181B6879189B1ABB6013007960032146
:1013A000013B043A8B43D31A3B63A422BA183B6D2A
:1013B0001268FB65934200DDFA65B822BA1812681C
:1013C000FB6D9446C8226344BA1813609C237A6A62
:1013D000FB1894461B6884227B673B6FBA189B00FE
:1013E00063443B627B6B7B657B6CBB65A023FB1816
:1013F0001B6813608423B422FB181B68BA1813609F
:10140000042B03DDB4220423BA1813608423FB18D1
:101410001B68002B00DCA5E0B422C820B824BA1851
:101420007B6F116838183C19006824685A1ABA632F
:10143000A04200DC9CE094464E1EB96E9B008A469A
:10144000043B9B467B6D791C63449B00FF3109681C
:101450009A44BB6C63448C46A8219B006344791872
:101460000B609300C0225B42BA181360BC22BB6DB4
:10147000BA181360BC23FE20FB181B68800519688E
:1014800011F007F8CC23FB181860A823FB181C6880
:10149000B823FB181B68B1461E00C023FB181B684D
:1014A0005A469846A04443469958CC23FB181868DE
:1014B00011F003F843465A4698504B46051C002B42
:1014C00022DD5346196810F0F8FF011C206810F067
:1014D000DAFF4B462060012B16D05346281C596872
:1014E00010F0EBFF011C606810F0CDFF4B46606010
:1014F000022B09D05346281C996810F0DEFF011C0E
:10150000A06810F0C0FFA060C423FB181B68013660
:101510009C46C823FB181B6864449E42BDD1AC2284
:10152000BC23BA181268FB189446BC221B68BA1870
:10153000634413600423B0225B429C46BA181268CD
:10154000E3449446B4224E46BA181268731EE2442D
:10155000961BB2420CDD1E008CE7C046B023032070
:1015600078390320B422BA187B6F12689B1ABB63C8
:101570008423B422BD6BBA18AC46FB1810681B68F4
:101580007A1CFF3212681C1A3B6F796863449446D8
:101590009B0063440B607B1DFF331B6880464B60E0
:1015A000A0230194FB181E6802000096FB6DF86CE6
:1015B0009B4689468246FFF7E1F8002C2ADD2B0086
:1015C000BA6849469446FD6BBA6E6B438C206344FF
:1015D00094464D604D469B003818006863440B608C
:1015E000424623008146FFF773F929007B1DFF3334
:1015F0003D6A1B680D604B600D005B4603964646D6
:10160000019352462300494628000494029600960E
:10161000FFF712FB84238422F968FB188C46B02163
:101620001B68BA18043B13607A6F7918043A09688A
:101630007A67BA6D62448C46BA657A6D62447A659F
:101640003A6B934200D0D5E6A422B823BA181268A8
:10165000B8219446FB181B68791863440B60396DF8
:101660008A1AF96A3A658C46FA6CB96A62448C4601
:10167000FA643A6F62443A67BA6C6244BA64982278
:10168000BA1812689A4200DD8FE680239C22FB186C
:101690001B68BA181360002B72DD9423FB181B68BB
:1016A000002B00DCFEE78023BA6EFB1892461D6813
:1016B000FB6E00249B009A44D023FE1800239B4617
:1016C000013B99469423FB181B68A8469D4200DD08
:1016D0009846CC22A300BA181360FA6B8C20726073
:1016E000A0225344BA1838183100126800683360D9
:1016F0004346FFF7EDF87A1CCC23FF321268FB1843
:1017000094461B688C21634433607B1DFF331B6848
:10171000791873605B4604934B46039302939823B6
:10172000FB181B6830000193A023FB181B68009373
:10173000BA6F43460968FFF77FFA9423FB181B68CA
:101740009C46ED1A8023FB181B686444A342B9DC55
:10175000FA69FB6E9446BA6963449446FB663A693B
:101760007B6C634494467B643B6CFA6F63443B64DC
:101770008023FB181B689B1A8022BA181360D2E5DD
:1017800080233A6E9B029A4208D98823FB181B6873
:10179000002B03D0043B186811F000F980237A6E07
:1017A0009B029A4208D99023FB181B68002B03D098
:1017B000043B186811F0F2F8BD4637B0F0BCBB46E8
:1017C000B246A946A046F0BD9A0080237A669B02E5
:1017D0009A424FD813006A461633DB08DB00D31A4F
:1017E0009D4627200F23684498438133FB181860D7
:1017F00090238C22FB181B68BA1813606368AA0038
:101800003A66002B00D012E580239B029A424FD803
:1018100013006A461633DB08DB00D31A9D462720E7
:101820000F23684498437933FB1818608823FB180A
:101830001B682D4DBB672B78BFF35B8FDB0700D593
:1018400001E5280013F076FD284C002800D1FBE4C8
:101850008023DB01236080231B0328006360A360D7
:1018600013F084FDF0E4A4220423BA1813600EE5FB
:101870001100FDE41000103011F072F89023FB18F5
:10188000021E1860B4D00F23010099430B001021F1
:101890008C468C209C446146DA60236838180160CD
:1018A00058425841902340420140FB181960B8E467
:1018B0001000103011F054F88823FB18186000282D
:1018C000B4D00F23010099430B0010218C46D8603F
:1018D00060689C4443425841614688234042B9674E
:1018E000FB1801401960A7E4B023032078390320D6
:1018F000F0B55746DE464E464546E0B5B3B006AFB6
:101900008C24BB62E023FA6288223C19FB18216018
:101910001C68BA182369786513608422A368BA1812
:101920001360834202DD8423FB181860842388221D
:101930008C21FB18BA18791812681B680D6853437C
:1019400055432268002A00D150E29B00FA678022AA
:101950003B650023BA1813606368AA00FA64002B81
:1019600000D161E2FB660023BB67E74D2B78BFF334
:101970005B8FDB0700D470E2E44C90220423BA189A
:1019800013608833FB181B686068002B16DDDC22AF
:10199000BA187B6D12681900934200DA74E20901EB
:1019A0000FF068FE0323C217134090221B189B10F0
:1019B0009B00BA181360042B00DA60E27B6D002BE9
:1019C00000DCF1E18822B96ABA1808001268BB632A
:1019D00050439B1AB86098207B634B1C99001B01F5
:1019E000FB61DC234A43381801607A609020DC22D6
:1019F000FB181B68BA189B009B46FB6A38183B63B0
:101A0000002312680068BB6542437A610A1F3A628C
:101A10007B679422BB6BBA1813608822BA181268CD
:101A2000934202DD9423FB181A608C23FB181B6879
:101A3000002B00DC45E19423FB181A68002A00DC27
:101A40003FE18C239021FB181B687918BB641300BD
:101A50000968DA464B43D821791809689B008C46FF
:101A60003B61FB6E9C21FB657B6F79189B00634497
:101A7000FB6000230B60A8213B66791813003960D6
:101A80000321013B043A8B43D31ABB619022BA185D
:101A9000BB6C1268BB66934200DDBA669C22BA1822
:101AA0001268BB6E9446FA68634494469B463B6E4C
:101AB0009B006344FB633B6B3B647B6F7B66BB6D4E
:101AC0007B649423FB181B683B679423FB181A68FC
:101AD0003B6FD21A7A62A022BA181360042B03DD7E
:101AE000A0220423BA1813603B6F002B58DD9C23FF
:101AF000FB181B689B4553DDA023A422FB181B6821
:101B0000BA18013B9946FB6B13603B6C98464B46F9
:101B1000002B2EDDA423FB181C689C23FB181E68D9
:101B2000434625685968281C10F0C7FC011C6068F2
:101B300010F0A9FC4B466060012B16D04346281CD0
:101B4000996810F0BAFC011CA06810F09CFC4B4690
:101B5000A060022B09D04346281CD96810F0ADFCC8
:101B6000011CE06810F08FFCE060013654445E45D3
:101B7000D6D14B465A1E9823FB181B68A4219C46BD
:101B8000A423FB181B68791804330B60A023FB18EF
:101B900019684B46E044CB1A994201DD9146B6E7FD
:101BA000A022BA181468D8223B6F796E3E6E8C461C
:101BB0001D1B3300BA1810686344844639689B00C3
:101BC00063440B60DC23FB181B6822004B607B6ABC
:101BD000884601939423FB1818680090BB6EF86D3B
:101BE000FEF7CCFD002D36DD7B6E41469C46786CC1
:101BF000220064440319F86A9B008446B86A63446F
:101C00004860A02038180260F86F0B602B00C146B6
:101C10008046FEF75DFED822BA18331914689B007F
:101C2000A4464C4663442360DC23FB1819687B6A96
:101C3000616004939423FB181E68A0230396FB188D
:101C40001A6841460292BB6E0092019348462B00EF
:101C5000FA6DFEF7F1FF396A7A6C8C46F9696244D5
:101C60008C467A647A6E3B6F04327A663A6C043B37
:101C700062443A64FA6B3B671032FA63BA69934282
:101C800000D022E790229C23BA1812689C21944627
:101C9000FB181B68791863440B60B96C8A1A796960
:101CA000BA648C463A6E396962448C463A66FA6D7B
:101CB0006244FA658C22BA1812689A4200DDE5E6A1
:101CC000D3468822BA1812687B6F94467A6D6344B3
:101CD0007B67934268DA8423FB181B68002B17DCB0
:101CE0008823B968FB188C46BA6B1B68D21ABA6392
:101CF000BA6D6244BA657A6BD31A7A687B6394468C
:101D00003B6B63443B6384E6B023032078390320B4
:101D1000FA6ABB6D92469B009A44A823FE18A93B21
:101D200099467D6B7C6F8423FB181B68A8469D42F7
:101D300000DD9846A422A300BA181360BA6A53447F
:101D400072609422BA1831001268F86F336043460B
:101D5000FEF7BEFDD822A423BA181268FB189446D9
:101D60001B68300063443360DC23FB181B6873601E
:101D7000002304934B46039302938C23FB181B68A8
:101D800001939423FB181B680093FA6E4346F96F86
:101D9000FEF752FF8423FB181B689C46ED1A7B6DEF
:101DA0006444A342BFDC9BE78023FA6C9B029A4207
:101DB00006D9BB6F002B03D0043B186810F0EEFD72
:101DC00080233A6D9B029A4208D98023FB181B6836
:101DD000002B03D0043B186810F0E0FDBD462DB089
:101DE000F0BCBB46B246A946A046F0BD9A0080238F
:101DF0003A659B029A4249D813006A461633DB08BB
:101E0000DB00D31A9D4627200F2368449843713383
:101E1000FB1818608023FB181B68AA00FB67636827
:101E2000FA64002B00D09DE580239B029A4249D89A
:101E300013006A461633DB08DB00D31A9D462720C1
:101E40000F2368449843B867BB6F2A4DFB662B7815
:101E5000BFF35B8FDB0700D58EE5280013F06AFA2D
:101E6000254C002800D188E58023DB0123608023F6
:101E70001B0328006360A36013F078FA7DE59022CD
:101E80000423BA18136099E5110088E5100010309A
:101E900010F066FD8023FB1818600028BAD00F23CD
:101EA000010099430B0010218C46D8609C442368A4
:101EB00061465842584180234042F967FB1801406F
:101EC000196049E51000103010F04AFDB86700288D
:101ED000BAD00F23010099430B0010218C46D86023
:101EE00060689C444342584161464042F966014063
:101EF000B9673AE5B02303207839032030B587B0BD
:101F00000D4B02AD00951A68694602929A8804004A
:101F1000AA809B796A46AB71072301930023D37390
:101F200030F09AF90098A84203D00299013110F0DC
:101F300069FD200007B030BD1CD50410F0B5DE46A9
:101F400057464E464546E24BE0B51860E14B0D1C46
:101F50001B68E14C98464146E04BE4681960DD4956
:101F600089B04968069059608946DB4BDA491F6899
:101F70004E68DB4B89681F605E609960DC60D94BFE
:101F800005949A6858681C68029204910190DB6875
:101F9000211C4046039310F090FA0299824648466D
:101FA00010F08BFA011C504610F070FACE4B8246AE
:101FB0001968281C9B4610F080FA011C504610F04E
:101FC00065FACA4B01991860079040469A4610F08E
:101FD00074FA03998046484610F06FFA011C404697
:101FE00010F054FA5B4680465968281C10F065FAD8
:101FF000011C404610F04AFA554683466860211C91
:10200000381C10F05AFA029A051C111C301C90461C
:1020100010F053FA011C281C10F038FA019981467F
:10202000381C10F04AFA039F051C391C301C10F0B4
:1020300044FA011C281C10F029FA211C824604983D
:1020400010F03BFA4146051C059810F036FA011CC9
:10205000281C10F01BFA464601998046049810F09F
:102060002CFA391C051C059810F027FA011C281CB5
:1020700010F00CFA4946071C201C10F01EFA4146CD
:10208000051C301C10F019FA011C281C10F0FEF978
:10209000974E316810F0FAF9964D51460490286039
:1020A000201C10F00AFA391C041C029810F005FAE2
:1020B000011C201C10F0EAF9716810F0E7F949469C
:1020C00002906860019810F0F8F9039A4146041CE8
:1020D000101C914610F0F1F9011C201C10F0D6F9EB
:1020E000B16810F0D3F95146041CA860019810F0B3
:1020F000E4F9391C8046484610F0DFF9011C4046DF
:1021000010F0C4F9F16810F0C1F9E8607A4D071CCD
:102110002E680498311C10F0D0F96D688046291C97
:10212000381C019710F0C9F9291C8246029810F05A
:10213000C4F9414610F0AAF9311C10F0BEF9311C67
:10214000071C201C10F0B9F9514610F09FF9291C0A
:1021500010F0B3F9011C381C10F098F9674B19689E
:1021600010F094F9664B071C1860291C201C10F015
:10217000A4F9414610F08AF9391C10F08AF9614936
:102180008046894608600298311C10F096F9514645
:1021900010F07CF9391C10F07CF94946079B071CAC
:1021A0004860181C311C9A4610F087F9291C81469A
:1021B000584610F082F9011C484610F067F9011CDE
:1021C000069810F060F94146814610F076F95146C4
:1021D00010F05CF93F4A391C1060484610F06DF968
:1021E000594610F053F93B4A81465060464A311C2B
:1021F0009346404610F061F95A46011C106810F0F1
:1022000042F9311C8246381C10F057F95A46011C1D
:10221000506810F038F9291C061C404610F04DF9A2
:102220005A46011C906810F02EF9291C8046381C73
:1022300010F043F95A46011CD06810F024F95146B9
:10224000051C049810F039F9029B4146071C181C24
:102250009B4610F032F9011C381C10F017F91E4A89
:10226000311C1060049810F028F9291C071C5846EE
:1022700010F023F9011C381C10F008F9164B5146D8
:102280005860201C10F019F9019B4146071C181CCE
:10229000984610F012F9011C381C10F0F7F80E4B9C
:1022A000311C9860201C10F008F9291C041C4046C1
:1022B00010F003F9011C201C10F0E8F8064BD86060
:1022C000484609B0F0BCBB46B246A946A046F0BDA0
:1022D000A45A0320844E0320302E00205C440320A7
:1022E000702E0020902E0020443F0320944E0320A7
:1022F000802D0020502E0020A84E03204C210320CA
:102300005044032094330020B02E0020F0B5DE4668
:1023100057464E464546E0B56B4B85B059689B46DF
:1023200010F0B1F8694B041C1860694B1A689A46A2
:10233000684B111C1D68019210F0A8F8291C10F0C0
:10234000BCF8654B061C1868011C10F09FF8011CB6
:10235000301C10F09EF8614E316810F097F8604B19
:10236000029030601868011C10F090F85D4B061C5C
:1023700018688146011C301C10F09FF88046011C33
:10238000281C10F083F8291C071C404610F07BF82D
:10239000554B1968984610F090F8391C10F079F8F0
:1023A00049460390484610F071F801998146201C77
:1023B00010F069F8011C484610F07FF8391C10F045
:1023C00068F8011C039810F061F842460299106009
:1023D000071C201C10F05AF8391C10F057F8434B1A
:1023E000196810F06AF8424B1860424B1860534667
:1023F0001C605B46196810F046F83F4B041C1860DF
:102400003E4B99461B68191C9A4610F03FF8291C50
:1024100010F053F83A4B80461868011C10F036F85B
:10242000011C404610F035F8364B9846196810F0FC
:102430002DF84246344B10601A680190111C301C74
:10244000904610F03AF88346011C281C10F01EF844
:102450004146061C404610F019F851468046201CA3
:1024600010F011F8011C404610F027F8311C10F054
:1024700010F8291C8046584610F005F8391C10F059
:102480001CF8311C10F005F8011C40460FF0FEFF4F
:102490001E4B01991860051C201C0FF0F7FF291C2A
:1024A0000FF0F4FF1A4B196810F007F8194B186079
:1024B000194B18604B461C6005B0F0BCBB46B246D9
:1024C000A946A046F0BDC046844E0320FC3F032031
:1024D00054440320CC200020B02000204844032096
:1024E000C0200020AC330020E03F0320B8200020B3
:1024F000FC590320EC5903200040032058440320DA
:10250000B42000204C440320B0330020E43F0320DB
:10251000BC200020005A03202C5A0320F8B5FE25C9
:102520000024194BAD051D60DD609C605C60174B9D
:10253000174F1D60DD609C605C60164B1E68164B7B
:10254000301C19680FF0A5FF144B38601D605C60EB
:10255000DD609C60124B7C601D605E60DD609C6095
:10256000104B1C605D60104B1868011C0FF0A5FF3C
:102570000E4B0F4A186012680E4B1A600E4A9C6090
:1025800012685C60DA60F8BD302E0020502E00200A
:10259000443F0320CC200020D0200020B02E00207B
:1025A000902E0020A84E0320DC2000204C21032088
:1025B0003C210320802D002038210320F0B5DE4689
:1025C00057464E464546E0B50E000168C768894645
:1025D000416805698A4681688DB08B46416980698A
:1025E0000793069050681368926805910A90291C19
:1025F00030680B92099308950FF045FF05990390F9
:1026000070680FF040FF0699051CB0680FF03BFFA3
:1026100080268046360607980FF0E8FFB446039BF5
:10262000009001916344180051460FF046FF59464F
:10263000061C281C0FF041FF011C301C0FF023FF6B
:10264000391C061C404604970FF037FF011C301C54
:102650000FF019FF0FF0CAFF0022684B0FF075FA58
:10266000009A019B0FF071FA060048460F000FF028
:10267000BDFF02000B0030003900169C0FF03EFA3F
:102680000FF05CFB4946206003980FF016FF594697
:10269000061C40460FF011FF011C301C0FF0F6FE27
:1026A0000499061C281C0FF008FF011C301C0FF0B9
:1026B000EAFE0FF09BFF0022504B0FF046FA009A03
:1026C000019B0FF042FA060050460F000FF08EFFFC
:1026D00002000B00300039000FF010FA0FF02EFB53
:1026E00049466060281C0FF0E8FE5146061C404633
:1026F0000FF0E3FE011C301C0FF0C5FE0499061C10
:1027000003980FF0DAFE011C301C0FF0BFFE0FF033
:102710006DFF0022394B0FF018FA009A019B0FF061
:1027200014FA060058460F000FF060FF02000B007D
:10273000300039000FF0E2F90FF000FB4946A060CD
:1027400040460FF0BAFE5146061C281C0FF0B5FE9D
:10275000011C301C0FF09AFE5946051C03980FF01F
:10276000ACFE011C281C0FF08EFE0FF03FFF002274
:10277000224B0FF0EAF9009A019B0FF0E6F90600F0
:1027800004980F000FF032FF02000B0030003900F8
:102790000FF0B4F90FF0D2FA089B0999E060181C09
:1027A00098460FF08AFE079D291C0FF086FE011C3B
:1027B00040460FF068FE059F0A992061381C0FF013
:1027C0007CFE291C0FF079FE011C381C0FF05BFE0B
:1027D000069E0B996061301C0FF06FFE291C0FF0F4
:1027E0006CFE011C301C0FF04EFEA06100200DB0ED
:1027F000F0BCBB46B246A946A046F0BD0000E03F93
:10280000F0B5DE4657464E4645468A464168E0B535
:102810008846C768816891B0066889464046391C79
:10282000141C04930FF049FE4946051C301C0FF0A0
:1028300044FE0A90011C281C09950FF024FE0FF09D
:10284000D5FE02000B000FF059F906900791201CED
:1028500002940FF0CBFE0B00020004000D0006985E
:1028600007990FF072F90FF069FA5246391C10609F
:1028700048460FF022FE83464146301C0FF01DFEF5
:102880005A460E90011C58460B920FF0FFFD0FF0B8
:10289000ADFE02000B000FF031F902000B0020002A
:1028A00029000C920D930FF050F90FF047FA54469F
:1028B000311C6060301C0FF000FE4146041C404695
:1028C0000FF0FBFD051C011C201C0FF0DCFD494630
:1028D000089048460FF0F1FD391C8346381C0FF074
:1028E000ECFD5946019008980FF0CDFD01990FF0CD
:1028F000CDFD02990F900FF0E0FD534649469860D8
:1029000040460FF0DAFD391C8046301C0FF0D5FD33
:1029100081461A980FF06AFE06001B980F000FF010
:1029200065FE02900391291C201C0FF0AFFD594653
:102930000FF0A9FD01990FF0A6FD04990FF0BDFD60
:102940000FF054FE04000D00404649460FF09EFD76
:102950000FF04CFE02000B000FF0D0F832003B00ED
:102960000FF0F3F802000B00200029000FF0C6F86A
:10297000029A039B04000D00069807990FF0E5F8F2
:1029800002000B00200029000FF0B8F80FF0D6F974
:102990005346D86004980FF029FE04000D0040460D
:1029A00049460FF070FD0FF021FE02000B000FF002
:1029B000A5F822002B00049405950FF0C6F804003A
:1029C0000D00089859460FF061FD01990FF05BFD6D
:1029D0001A990FF072FD0FF009FE02000B002000A3
:1029E00029000FF08BF8029A039B04000D000C984D
:1029F0000D990FF0AAF802000B00200029000FF03B
:102A00007DF80FF09BF953460A99186109980FF069
:102A10003DFD0FF0EBFD02000B000FF06FF8049A84
:102A2000059B0FF092F804000D000B980E990FF023
:102A30002AFD0FF0DBFD02000B000FF05FF8320003
:102A40003B000FF082F802000B00200029000FF07D
:102A500055F804000D000F981B990FF02EFD0FF094
:102A6000C5FD02000B00200029000FF047F80FF011
:102A700065F953465861002011B0F0BCBB46B24620
:102A8000A946A046F0BDC046F0B50400DE46574654
:102A90004E4645460800E0B545680968AA4685687F
:102AA00095B0AB46C5684669876910910E95016976
:102AB000556810689268049690461A6806971192B5
:102AC0005A689B6812921393FE239B0523609946D4
:102AD0000FF0D9FC0FF08AFD009001911E980FF0C5
:102AE00085FD06000F00009801990022924B0FF01F
:102AF0002CF832003B000FF028F80FF01FF9049972
:102B00000390E061281C0FF0BEFC0FF06FFD002267
:102B1000894B049005910FF018F832003B000FF03C
:102B200014F80FF00BF90699051CA06340460FF04E
:102B3000AAFC0FF05BFD00227F4B069007910FF07F
:102B400004F832003B000FF000F80FF0F7F80A909D
:102B5000606550460FF04AFD0022784B08900991BD
:102B60000EF0F3FF32003B000EF0EFFF0FF0E6F83F
:102B70000B90206758460FF039FD00226F4B0C90E8
:102B80000D910EF0E2FF32003B000EF0DEFF0FF081
:102B9000D5F88C238246E0500E980FF027FD0022D6
:102BA000664B0E900F910EF0D0FF32003B000EF0FE
:102BB000CCFF0FF0C3F8A8238346E0500022009812
:102BC00001995E4B0EF0C1FF32003B000EF0BDFFDD
:102BD0000FF0B4F849460090606021620022069828
:102BE0000799564B0EF0B1FF32003B000EF0ADFFDF
:102BF0000FF0A4F8A5658046E06310980FF0F6FC8E
:102C000000224D4B0EF0A1FF32003B000EF09DFF65
:102C10000FF094F859469023051C60670022E1509C
:102C20000C980D99444B0EF090FF32003B000EF0D3
:102C30008CFF0FF083F8AC230022E0500498059934
:102C40003E4B0EF082FF32003B000EF07EFF0FF095
:102C500075F849460A9A83466262009AA060216428
:102C6000E2650E980F990022334B0EF06EFF320092
:102C70003B000EF06AFF0FF061F894230B99A067F8
:102C8000E5501C33E1504146E1605946A162494696
:102C900021665146039BE167636408980999002205
:102CA000254B0EF052FF32003B000EF04EFF0FF0AE
:102CB00045F89823E0501C33E55000251E991198E3
:102CC0002561E562A56465660FF0F7FB011C4846C7
:102CD0000FF0D9FB8023E0501C33E5501C33E55046
:102CE000343B1E99129865612563E564A566E5503D
:102CF0000FF0E3FB011C48460FF0C5FBA023E0509A
:102D00001C33E550343BA56165632565E566E550F8
:102D10001C33E5501E9913980FF0CFFB011C484659
:102D20000FF0B1FBC023E050002015B0F0BCBB4653
:102D3000B246A946A046F0BD0000E0BF0000E03F5B
:102D4000F0B5DE4657464E464546E0B59A460B6816
:102D5000141C8A689B464B68C9688BB00500101C20
:102D60008846009301920FF041FC02900391201CD1
:102D70000FF03CFCC02306000F00029803990022CC
:102D80001B060EF0E2FE32003B000EF0DEFE0EF0FF
:102D9000D5FF0890286040460FF028FC02000B0089
:102DA0000EF0ACFE32003B000EF0CFFE0EF0C6FF80
:102DB000041CA86158460FF019FCC02300221B0612
:102DC000049005910EF0C1FE32003B000EF0BDFEF6
:102DD0000EF0B4FF286300980FF008FC02000B000F
:102DE000069007910EF08AFE32003B000EF0ADFE19
:102DF0000EF0A4FF002190238946A8642966A967E4
:102E0000E95068600498059902000B000EF076FE08
:102E100032003B000EF099FE0EF090FF6C630490C0
:102E2000E8610298039902000B000EF067FE320081
:102E30003B000EF08AFE0EF081FF49469423E864C1
:102E40006966E967E950C02306980799049A1B064A
:102E5000AA6000220EF079FE32003B000EF075FEF3
:102E60000EF06CFF089B4946AB63802328622C65FB
:102E7000A966E9501833E950404614990FF01DFB3C
:102E8000019F1599061C381C0FF017FB5146041CB6
:102E900058460FF012FB311C0FF0F8FA211C069473
:102EA0000FF0F1FA011C0FF0F1FA51460990E860B9
:102EB00000980FF002FB1499041C381C0FF0FDFA67
:102EC000011C201C0FF0E2FA1599041C40460FF07B
:102ED000F4FA011C201C0FF0D9FA011C0FF0D6FAED
:102EE00014990290686200980FF0E7FA159908901B
:102EF00058460FF0E2FA019A80249446240664446E
:102F0000071C514620000FF0D8FA08990FF0BEFABE
:102F1000391C0FF0B8FA011C0FF0B8FA1499E863E5
:102F200058460FF0CAFA1599049000980FF0C5FAA8
:102F3000802212064244041C514610000FF0BDFAD4
:102F400004990FF0A3FA211C0FF0A0FA011C0FF056
:102F50009DFA4A468423EA666865EA501833EA50C7
:102F60005146286101980FF0A8FA08990FF08BFAE2
:102F7000391C0FF08BFA011C0FF088FA071CA862AD
:102F80008020029B00062B64514658440FF095FAAE
:102F9000311C0FF078FA06990FF078FA011C0FF047
:102FA00075FA8823A86548462867E8501833E85022
:102FB000514640466F610FF080FA04990FF063FAB2
:102FC000211C0FF060FA011C0FF060FA099AE86208
:102FD0006A64029B4A46EB654B466B678C23002074
:102FE000EA501833EA500BB0F0BCBB46B246A946D3
:102FF000A046F0BD0123F0B5E3214746CE469C46EE
:10300000294B804605009946284E80B589000768FF
:1030100046444144FA0F6F68D2077B005B0834686E
:1030200013435A08624064461C4201D04B465A4042
:1030300004C50436A942EDD1E32342469B00C626CF
:10304000D458194B01259C46F6004644E20F4C68C3
:10305000D20763005B08076813435A087A401D4291
:1030600001D063465A40043004C1B042EED142461A
:10307000C62140460E4BC900D3581268DB0F5200E0
:103080005208DB07415813435A084A40DB0701D571
:10309000054B5A404146064BCA5000220433CA50E1
:1030A000C0BCB946B046F0BDDFB008993406000098
:1030B000BC090000F0B54546DE4657464E46E0B531
:1030C0003B4CD723A54434AA944663441B091B01F7
:1030D0008A6805930B68019237921A6804900692E9
:1030E0009A69339107921A6B38AC08929A6C0992DC
:1030F0001A6E0B929A6F0C9290229A580D925A68FF
:103100000E92DA690F925A6B1092DA6C11925A6E23
:103110001292DA6F139294229A5814929A68159226
:103120001A6A16929A6B17921A6D18929A6E1992E1
:1031300080229A581A9298229A581B92DA681C9206
:103140005A6A1D92DA6B1E925A6D1F92DA6E2092A5
:1031500084229A5821929C229A5822921A69239288
:103160009A6A24921A6C25929A6D26921A6F279267
:1031700088229A582892A0229A5829925A692A920B
:10318000DA6A2B925A6C2C92DA6D2D925A6F2E922B
:103190008C229A582F92A4229B5830934B689846C1
:1031A00038AB3293C423454643440A9302E0C046F9
:1031B0009CFDFFFFEA68A96991462A69AB689046C1
:1031C0006A69099803914946019302920FF075F9D3
:1031D000414682460B980FF070F9011C50460FF0E3
:1031E00055F9029982460C980FF067F903998346C6
:1031F0000D980FF062F9011C58460FF047F9011CB9
:1032000050460FF043F96F688246391C07980FF05B
:1032100054F90199834608980FF04FF9011C58465C
:103220000FF034F92E688346311C06980FF045F9EB
:10323000011C58460FF02AF9011C50460FF026F9E0
:103240004946206011980FF038F94146824612989D
:103250000FF033F9011C50460FF018F9029982461D
:1032600013980FF02AF90399834614980FF025F963
:10327000011C58460FF00AF9011C50460FF006F9E0
:10328000391C82460F980FF018F90199834610985F
:103290000FF013F9011C58460FF0F8F8311C834663
:1032A0000E980FF00AF9011C58460FF0EFF8011CB8
:1032B00050460FF0EBF84946606018980FF0FDF8A3
:1032C0004146824619980FF0F8F8011C50460FF05D
:1032D000DDF8029982461A980FF0EFF803998346B9
:1032E0001B980FF0EAF8011C58460FF0CFF8011CAC
:1032F00050460FF0CBF8391C824616980FF0DDF8D7
:103300000199834617980FF0D8F8011C58460FF022
:10331000BDF8311C834615980FF0CFF8011C5846B4
:103320000FF0B4F8011C50460FF0B0F84946A06009
:103330001F980FF0C2F84146824620980FF0BDF862
:10334000011C50460FF0A2F80299824621980FF016
:10335000B4F80399834622980FF0AFF8011C584641
:103360000FF094F8011C50460FF090F8391C82467B
:103370001D980FF0A2F8019983461E980FF09DF852
:10338000011C58460FF082F8311C83461C980FF040
:1033900094F8011C58460FF079F8011C50460FF0C4
:1033A00075F84946E06026980FF087F84146824656
:1033B00027980FF082F8011C50460FF067F8029929
:1033C000824628980FF079F80399834629980FF0E0
:1033D00074F8011C58460FF059F8011C50460FF0C4
:1033E00055F8391C824624980FF067F801998346F6
:1033F00025980FF062F8011C58460FF047F8311C71
:10340000834623980FF059F8011C58460FF03EF8F8
:10341000011C50460FF03AF82D99206148460FF0F4
:103420004CF82E99814640460FF047F8011C48465B
:103430000FF02CF82F99804602980FF03EF8309943
:10344000814603980FF039F8011C48460FF01EF82A
:10345000011C40460FF01AF8391C80462B980FF0DB
:103460002CF82C99071C01980FF027F8011C381C28
:103470000FF00CF8311C071C2A980FF01EF8011CE5
:10348000381C0FF003F8011C40460EF0FFFF0A9BAA
:103490001C3560611834AB4200D08BE6379B1A684C
:1034A000629308929A6909921A6B0A929A6C0B922B
:1034B0001A6E0C929A6F0D9290229A580E925A6838
:1034C0000F92DA6910925A6B1192DA6C12925A6E5C
:1034D0001392DA6F149294229A5815929A6816925F
:1034E0001A6A17929A6B18921A6D19929A6E1A921A
:1034F00080229A581B9298229A581C92DA681D9240
:103500005A6A1E92DA6B1F925A6D2092DA6E2192DD
:1035100084229A5822929C229A5823921A692492C1
:103520009A6A25921A6C26929A6D059C27921A6FB8
:103530002034289288229A58A1462992A0229A588B
:103540002A925A692B92DA6A2C925A6C2D92DA6D71
:103550002E925A6F2F928C229A583092A4229B5806
:1035600031935CAB06933EAB0793329B9846434640
:103570004246414640461B6895690193069B146B81
:10358000096E926C40CB876F0291101C0B990392CD
:1035900006930EF092FF0C99824602980EF08DFF72
:1035A000011C50460EF072FF0D998246381C0EF039
:1035B00084FF0E998346301C0EF07FFF011C584695
:1035C0000EF064FF011C50460EF060FF0999824620
:1035D000281C0EF072FF0A998346201C0EF06DFF26
:1035E000011C58460EF052FF0899834601980EF0D0
:1035F00064FF011C58460EF049FF011C50460EF0B6
:1036000045FF4B461299186003980EF056FF139928
:10361000824602980EF051FF011C50460EF036FF14
:1036200014998246381C0EF048FF15998346301CC9
:103630000EF043FF011C58460EF028FF011C5046B7
:103640000EF024FF10998246281C0EF036FF1199C7
:103650008346201C0EF031FF011C58460EF016FF69
:103660000F99834601980EF028FF011C58460EF072
:103670000DFF011C50460EF009FF4B46199958608A
:1036800003980EF01AFF1A99824602980EF015FF61
:10369000011C50460EF0FAFE1B998246381C0EF0B3
:1036A0000CFF1C998346301C0EF007FF011C584686
:1036B0000EF0ECFE011C50460EF0E8FE1799824613
:1036C000281C0EF0FAFE18998346201C0EF0F5FE19
:1036D000011C58460EF0DAFE1699834601980EF04A
:1036E000ECFE011C58460EF0D1FE011C50460EF0B7
:1036F000CDFE4B462099986003980EF0DEFE21998E
:10370000824602980EF0D9FE011C50460EF0BEFE15
:1037100022998246381C0EF0D0FE23998346301C35
:103720000EF0CBFE011C58460EF0B0FE011C5046B8
:103730000EF0ACFE1E998246281C0EF0BEFE1F99AC
:103740008346201C0EF0B9FE011C58460EF09EFE6A
:103750001D99834601980EF0B0FE011C58460EF0EC
:1037600095FE011C50460EF091FE4B462799D860FD
:1037700003980EF0A2FE2899824602980EF09DFE54
:10378000011C50460EF082FE29998246381C0EF02C
:1037900094FE2A998346301C0EF08FFE011C584679
:1037A0000EF074FE011C50460EF070FE2599824604
:1037B000281C0EF082FE26998346201C0EF07DFE0A
:1037C000011C58460EF062FE2499834601980EF0C3
:1037D00074FE011C58460EF059FE011C50460EF0B6
:1037E00055FE4B462E99186103980EF066FE2F99F0
:1037F000824602980EF061FE011C50460EF046FE15
:1038000030998246381C0EF058FE3199071C301C46
:103810000EF053FE011C381C0EF038FE011C504601
:103820000EF034FE2C99061C281C0EF046FE2D9935
:10383000051C201C0EF041FE011C281C0EF026FE6B
:103840002B99041C01980EF038FE011C201C0EF070
:103850001DFE011C301C0EF019FE4B46586104235E
:103860009C461433E0449C46079BE144984500D0B5
:103870007DE6339B059DDC68296A20680EF006FE14
:10388000049EA96B306060680EF000FE7060A06856
:10389000296D0EF0FBFDB060E068A96E0EF0F6FD3C
:1038A0008023F0602069E95898460EF0EFFD9823D8
:1038B0003061E95860690EF0E9FD7061A069696ADC
:1038C0000EF0E4FDB061E069E96B0EF0DFFDF06140
:1038D000206A696D0EF0DAFD3062E96E606A0EF002
:1038E000D5FD84277062A06AE9590EF0CFFD9C23B4
:1038F000B062E958E06A0EF0C9FDF062206BA96A77
:103900000EF0C4FD3063606B296C0EF0BFFD706378
:10391000A06BA96D0EF0BAFDB063E06B296F0EF0DD
:10392000B5FDF0638826206CA9590EF0AFFD049B0D
:103930001864A023606CE9580EF0A8FD049BE96AA6
:103940005864A06C0EF0A2FD049B696C9864E06C56
:103950000EF09CFD049BE96DD864206D0EF096FD81
:10396000049B696F1865606D0EF090FD8C25049ABC
:10397000059B5065A06D59590EF088FDA423049A4B
:103980009065059AE06DD1580EF080FD049B059A74
:10399000D865116B206E0EF079FD049B059A1866B0
:1039A000916C606E0EF072FD049B059A5866A06ED5
:1039B000116E0EF06BFD049B059A9866E06E916F98
:1039C0000EF064FD049B059AD8669023206FD158B1
:1039D0000EF05CFD049B059A1867A823606FD15810
:1039E0000EF054FD049B059A5867A16F506B0EF0C2
:1039F0004DFD049B059A9867E16FD06C0EF046FD73
:103A00004146049B059AD8676158506E0EF03EFD02
:103A10004146049B059A5850E159D06F0EF036FD8F
:103A2000049BD8519423059FA159F8580EF02EFD00
:103A3000049B9851AC236159F8580EF027FD049B64
:103A4000585199239B009D44F0BCBB46B246A94601
:103A5000A046F0BDF0B5DE4657464E46454604004A
:103A6000E0B5036987B05800636940085900490808
:103A70000EF00CFDE368590049080EF007FD63687D
:103A8000051C5800A3684008590049080EF0FEFCC8
:103A90002368590049080EF0F9FC011C281C0EF09F
:103AA000F5FCA36A051C5800E36A40085900490860
:103AB0000EF0ECFC636A590049080EF0E7FCE3697C
:103AC000061C5800236A4008590049080EF0DEFC25
:103AD000A369590049080EF0D9FC011C301C0EF0F6
:103AE000D5FC236C071C5800636C4008590049083A
:103AF0000EF0CCFCE36B590049080EF0C7FC636B79
:103B0000061C5800A36B4008590049080EF0BEFC83
:103B1000236B590049080EF0B9FC011C301C0EF053
:103B2000B5FC061C011C381C0EF0FEFC002800D160
:103B30003E1C311C281C0EF0F7FC002800D12E1C66
:103B4000A36D5800E36D4008590049080EF09EFC33
:103B5000636D590049080EF099FCE36C051C580090
:103B6000236D4008590049080EF090FCA36C5900E1
:103B700049080EF08BFC011C281C0EF087FC236FFB
:103B8000071C5800636F4008590049080EF07EFC7E
:103B9000E36E590049080EF079FC636E051C58006D
:103BA000A36E4008590049080EF070FC236E5900BE
:103BB00049080EF06BFC011C281C0EF067FC8823E2
:103BC0008046E0580433E158400049004908400865
:103BD0000EF05CFC8423E158490049080EF056FCC5
:103BE000E36F051C58008023E1584008490049084C
:103BF0000EF04CFCA36F590049080EF047FC011C65
:103C0000281C0EF043FC051C011C40460EF08CFCE9
:103C1000002800D14546291C381C0EF085FC0028E0
:103C200000D13D1C291C301C0EF07EFC002800D168
:103C3000351CC0232100E55001AABA3B02A8A831D7
:103C400004930294FCF76EFE0121C422019B982686
:103C50000B405B428B430133A354343A924600221B
:103C600050469C2722509432A1509346923AA2513A
:103C70000132E2519D32944660469C3A2250A03275
:103C800091469F3A90464A4640462300A0504846F7
:103C90001832A258903392009A1815682550404661
:103CA00010606046B8222058A258804660469200B4
:103CB0009A181568255040461060B422E059A25861
:103CC000844692009A1810685D46E0516046106084
:103CD000B022A258A75992009A181068A0511760F4
:103CE000AC225846A258265892009A181068605183
:103CF0001660A822A258554692009B185246186892
:103D0000A25860511A60C523E15407B0F0BCBB460D
:103D1000B246A946A046F0BDC023002210B5C2504D
:103D200000220433C2520B68040003604B684360F6
:103D30008B688360CB68C3600B6903614B69436127
:103D40008B698361CB69C3610B6A03624B6A43620F
:103D50008B6A8362CB6AC3620B6B03634B6B4363F7
:103D60008B6B8363CB6BC3630B6C03644B6C4364DF
:103D70008B6C8364CB6CC3640B6D03654B6D4365C7
:103D80008B6D8365CB6DC3650B6E03664B6E4366AF
:103D90008B6E8366CB6EC3660B6F03674B6F436797
:103DA0008B6F8367CB6FC3678023CA58C2500433BD
:103DB000CA58C2500433CA58C2500433CA58C250F9
:103DC000FFF748FE200010BDF0B5DE464E464546E2
:103DD0005746E0B5214C9146A5443AAA94460A00BC
:103DE00031931F4B3B9063441B091B013A9198464A
:103DF000D3AB13CA13C313CA13C31268D3A91A606F
:103E0000184B194A1B6847A80493184B47AC1B680A
:103E10000193174B1B6805930093049BFEF790FFDB
:103E200047ABD3934B46D49347ABD5933AAA83235E
:103E3000944686201B0163441B68C0004044A2AA2C
:103E4000D3A9D6930990FFF735F96BAB0893434696
:103E50000A934B463094A1461C000BE014F7FFFF79
:103E600047030000082003200AE81C41002003202B
:103E7000042003204B464E461B68B76F0493089BF3
:103E8000494640CB48464A460893A823896C006EB1
:103E90009569126B06910790E158301C05920EF05F
:103EA0000CFB8C238246E158381C0EF006FB011CEB
:103EB00050460EF0EBFA216F824607980EF0FDFA9D
:103EC000616D834606980EF0F8FA011C58460EF014
:103ED000DDFA011C50460EF0D9FAA16B8246059816
:103EE0000EF0EBFAE1698346281C0EF0E6FA011C9D
:103EF00058460EF0CBFA2168834604980EF0DDFA9E
:103F0000011C58460EF0C2FA011C50460EF0BEFAD3
:103F100043461860AC23301CE1580EF0CEFA9023D3
:103F20008246E158381C0EF0C8FA011C50460EF0CB
:103F3000ADFA616F824607980EF0BFFAA16D834615
:103F400006980EF0BAFA011C58460EF09FFA011CB2
:103F500050460EF09BFAE16B824605980EF0ADFAE2
:103F6000216A8346281C0EF0A8FA011C58460EF060
:103F70008DFA6168834604980EF09FFA011C58463A
:103F80000EF084FA011C50460EF080FA4346586049
:103F9000B023301CE1580EF090FA94238246E15889
:103FA000381C0EF08AFA011C50460EF06FFAA16F11
:103FB000824607980EF081FAE16D834606980EF06E
:103FC0007CFA011C58460EF061FA011C50460EF0B6
:103FD0005DFA216C824605980EF06FFA616A83469D
:103FE000281C0EF06AFA011C58460EF04FFAA16820
:103FF000834604980EF061FA011C58460EF046FA0A
:10400000011C50460EF042FA43469860B423301C1F
:10401000E1580EF052FA98238246E158381C0EF00F
:104020004CFA011C50460EF031FAE16F82460798B7
:104030000EF043FA216E834606980EF03EFA011CFC
:1040400058460EF023FA011C50460EF01FFA616C20
:10405000824605980EF031FAA16A8346281C0EF0BC
:104060002CFA011C58460EF011FAE16883460498B8
:104070000EF023FA011C58460EF008FA011C5046B7
:104080000EF004FA4346D860B823301CE1580EF015
:1040900014FA9C238246E158381C0EF00EFA011CDB
:1040A00050460EF0F3F980238246E15807980EF04F
:1040B00004FA616E834606980EF0FFF9011C58461B
:1040C0000EF0E4F9011C50460EF0E0F9A16C8246B6
:1040D00005980EF0F2F9E16A8346281C0EF0EDF91E
:1040E000011C58460EF0D2F92169834604980EF05F
:1040F000E4F9011C58460EF0C9F9011C50460EF0B7
:10410000C5F943461861BC23301CE1580EF0D5F9BF
:10411000A0238246E158381C0EF0CFF9011C50460E
:104120000EF0B4F984238246E15807980EF0C5F9E1
:10413000A16E834606980EF0C0F9011C58460EF099
:10414000A5F9011C50460EF0A1F9E16C82460598D4
:104150000EF0B3F9216B8346281C0EF0AEF9011C5A
:1041600058460EF093F96169834604980EF0A5F95C
:10417000011C58460EF08AF9011C50460EF086F9D3
:104180004346E16E586106980EF097F988238246FF
:10419000E15807980EF091F9011C50460EF076F99F
:1041A000A4238246E158381C0EF087F9C023071C6F
:1041B000E158301C0EF081F9011C381C0EF066F934
:1041C000011C50460EF062F9616B061C281C0EF0B3
:1041D00074F9216D051C05980EF06FF9011C281C5F
:1041E0000EF054F9A169051C04980EF066F9011C43
:1041F000281C0EF04BF9011C301C0EF047F9434609
:10420000986104239C461833E1449C464DABE0443E
:104210004B4500D02EE60A9BA146D8249846A427F9
:10422000A4004444BF00474420000999FFF774FDEF
:10423000210090223800C8240EF0CEFBFC21A400FF
:10424000444489004144182220000EF0C5FBCE20D2
:1042500081218000C9004144182240440EF0BCFB7B
:104260008422D423D200424412689B0043441A6043
:10427000D523874A4546424412889B004344FE2189
:104280001A8000232268B0359200AA1889051160AF
:1042900093611363936413669367C9229200424447
:1042A000126844469200AA181360916113639364E4
:1042B00013669367CA22920042441268062692004F
:1042C000AA18136093611163936413669367CB22FA
:1042D00092004244126806209200AA18136093616B
:1042E0001363916413669367CC2292004244126870
:1042F0009200AA1813609361136393641166936725
:10430000CD229200424412689200AA181360936171
:10431000136393641366A8235B009B469167424630
:104320005946E41820334344A660E66026615350A2
:104330008022920042444B396260924604933A00D4
:1043400006230294FF3901960095FDF7D1FA424603
:104350005946049BA660E6602661535053464B398C
:1043600063603A0006230294062001960095FF3907
:10437000FCF722FF43461B688C2207934346DB6908
:10438000D3AC089343469B6B099343465B6D0A93FA
:1043900043461B6F0B9343469B5804320C93434692
:1043A0005B68179343461B6A18934346DB6B0D9378
:1043B00043469B6D0E9343465B6F0F9343469B585A
:1043C0000432109343469B68119343465B6A1293F1
:1043D00043461B6C13934346DB6D149343469B6F1C
:1043E000159343469B58043216934346DB68199352
:1043F00043469B6A069343465B6C1A9343461B6E87
:104400001B934346DB6F1C9343469B58183A1D93FE
:1044100043461B691E934346DB6A1F9343469B6CCE
:10442000209343465B6E219343469B581C32229354
:1044300043469B58183A239343465B69249343466B
:104440001B6B25934346DB6C269343469B6E279359
:1044500043469B581C32289343469B58183A29934D
:1044600043469B692A9343465B6B2B9343461B6DE4
:104470002C934346DB6E2D9343469B581C322E9360
:1044800043469B58A8462F934B46329302E0C046C2
:104490002404000043461F685B6842469946434631
:1044A00041469B68D2680E694D6908984946049355
:1044B00005920EF002F80499824609980DF0FDFF6E
:1044C000011C50460DF0E2FF391C824607980DF0A2
:1044D000F4FF011C50460DF0D9FF311C82460B98A9
:1044E0000DF0EBFF291C83460C980DF0E6FF011C34
:1044F00058460DF0CBFF059983460A980DF0DDFF75
:10450000011C58460DF0C2FF011C50460DF0BEFFC5
:104510004946206018980DF0D0FF049982460D9806
:104520000DF0CBFF011C50460DF0B0FF391C824648
:1045300017980DF0C2FF011C50460DF0A7FF311C6B
:1045400082460F980DF0B9FF291C834610980DF094
:10455000B4FF011C58460DF099FF059983460E984B
:104560000DF0ABFF011C58460DF090FF011C5046AA
:104570000DF08CFF4946606012980DF09EFF049983
:10458000824613980DF099FF011C50460DF07EFFF6
:10459000391C824611980DF090FF011C50460DF019
:1045A00075FF311C824615980DF087FF291C834644
:1045B00016980DF082FF011C58460DF067FF059913
:1045C000834614980DF079FF011C58460DF05EFFEC
:1045D000011C50460DF05AFF4946A06006980DF0A8
:1045E0006CFF049982461A980DF067FF011C504633
:1045F0000DF04CFF391C824619980DF05EFF011C2E
:1046000050460DF043FF311C82461C980DF055FFBB
:10461000291C83461D980DF050FF011C58460DF0D3
:1046200035FF059983461B980DF047FF011C58463E
:104630000DF02CFF011C50460DF028FF4946E060AC
:104640001F980DF03AFF0499824620980DF035FF2F
:10465000011C50460DF01AFF391C82461E980DF0C1
:104660002CFF011C50460DF011FF311C8246229890
:104670000DF023FF291C834623980DF01EFF011C1B
:1046800058460DF003FF0599834621980DF015FF5C
:10469000011C58460DF0FAFE011C50460DF0F6FEC6
:1046A0004946206125980DF008FF04998246269816
:1046B0000DF003FF011C50460DF0E8FE391C824648
:1046C00024980DF0FAFE011C50460DF0DFFE311C5F
:1046D000824628980DF0F1FE291C834629980DF09A
:1046E000ECFE011C58460DF0D1FE05998346279833
:1046F0000DF0E3FE011C58460DF0C8FE011C5046AB
:104700000DF0C4FE494660612B980DF0D6FE049969
:1047100081462C980DF0D1FE011C48460DF0B6FEE6
:10472000391C81462A980DF0C8FE011C48460DF040
:10473000ADFE311C071C2E980DF0BFFE291C061C77
:104740002F980DF0BAFE011C301C0DF09FFE05994C
:10475000051C2D980DF0B1FE011C281C0DF096FED5
:10476000011C381C0DF092FE18239C46A061FDAB85
:104770001C34E044A34200D08CE6329BD49A994684
:10478000D39BD599D69CD79DD89ED99F0693079247
:10479000DA9BDB9A08910994DC99DD9C0A950B96CB
:1047A000DE9DDF9E0C970D93E09FE19B0E92E29AB7
:1047B0000F91109411951296139714931592E399F3
:1047C000E49CE59DE69EE79FE89BE99A1691179485
:1047D000EA99EB9C18951996EC9DED9E1A971B9300
:1047E000EE9FEF9B1C921D91F09AF1991E94F29C02
:1047F0002096219722932392249125941F95F39D2F
:10480000F49EF59FF79AF69BF899F99C26952796C2
:10481000FA9DFB9E2897FC9F2A923A9A29932B9106
:104820002C942D952E962F97D3AB32CA32C332CA11
:1048300032C31168D3AC1960FD49FE4B09681B688F
:104840000191FD49FD4A09682000009141A9FDF749
:10485000D7FF319F419938680DF015FE4299834684
:1048600078680DF010FE43998246B8680DF00BFE93
:104870004499041CF8680DF006FE4599051C38693A
:104880000DF001FE4699061C78690DF0FCFD071C31
:10489000011C2A980DF011FE311C804623980DF062
:1048A0000CFE011C40460DF0F1FD291C80461C98B1
:1048B0000DF003FE011C40460DF0E8FD211C804672
:1048C00015980DF0FAFD514604900E980DF0F5FD87
:1048D000011C04980DF0DAFD5946049007980DF07C
:1048E000ECFD011C04980DF0D1FD011C40460DF0BB
:1048F000CDFD3A9A51680DF0C9FD391C04902B98F2
:104900000DF0DBFD311C804624980DF0D6FD011C16
:1049100040460DF0BBFD291C80461D980DF0CDFDD5
:10492000011C40460DF0B2FD211C804616980DF08A
:10493000C4FD514605900F980DF0BFFD011C059870
:104940000DF0A4FD5946059008980DF0B6FD011C28
:1049500005980DF09BFD011C40460DF097FD3A9A1D
:1049600091680DF093FD391C05902C980DF0A5FD74
:10497000311C804625980DF0A0FD011C40460DF02D
:1049800085FD291C80461E980DF097FD011C4046B0
:104990000DF07CFD211C804617980DF08EFD5146D0
:1049A000319010980DF089FD011C31980DF06EFDCD
:1049B0005946319009980DF080FD011C31980DF099
:1049C00065FD011C40460DF061FD3A9AD1680DF07D
:1049D0005DFD391C31902D980DF06FFD311C804626
:1049E00026980DF06AFD011C40460DF04FFD291C74
:1049F00080461F980DF061FD011C40460DF046FDFC
:104A0000211C804618980DF058FD5146329011989F
:104A10000DF053FD011C32980DF038FD59463290CF
:104A20000A980DF04AFD011C32980DF02FFD011C73
:104A300040460DF02BFD3A9A11690DF027FD391C07
:104A400032902E980DF039FD311C804627980DF0DC
:104A500034FD011C40460DF019FD291C80462098AC
:104A60000DF02BFD011C40460DF010FD211C804671
:104A700019980DF022FD5146339012980DF01DFD4E
:104A8000011C33980DF002FD594633900B980DF040
:104A900014FD011C33980DF0F9FC011C40460DF08B
:104AA000F5FC3A9A51690DF0F1FC51463390139898
:104AB0000DF003FD211C80461A980DF0FEFC011C30
:104AC00040460DF0E3FC594680460C980DF0F5FC8D
:104AD000011C40460DF0DAFC311C804628980DF090
:104AE000ECFC391C34902F980DF0E7FC011C349835
:104AF0000DF0CCFC291C349021980DF0DEFC011C3B
:104B000034980DF0C3FC011C40460DF0BFFC3A9AEE
:104B100091690DF0BBFC391C804629980DF0CDFC45
:104B2000311C071C22980DF0C8FC011C381C0DF02C
:104B3000ADFC291C061C1B980DF0BFFC011C301C91
:104B40000DF0A4FC211C051C14980DF0B6FC514678
:104B5000041C0D980DF0B1FC011C201C0DF096FCFE
:104B60005946041C06980DF0A8FC011C201C0DF0F1
:104B70008DFC011C281C0DF089FC3A9AD3AC1168FD
:104B80000DF084FC3B9B049A18605A60059A9A6069
:104B9000319ADA60329A1A61339A5A6142469A61BE
:104BA0004B461B684A46A2934B465B68A3934B4611
:104BB0009B68A4934B46DB68A5934B461B69A69361
:104BC0004B465B69A7934B469B69A8934B46DB69B1
:104BD000A9934B461B6AAA934B465B6AAB934B4621
:104BE0009B6AAC934B46DB6AAD934B461B6BAE9313
:104BF0004B465B6BAF934B469B6BB0934B46DB6B6B
:104C0000B1934B461B6CB2934B465B6CB3934B46D4
:104C10009B6CB4934B46DB6CB5934B461B6DB693C4
:104C20004B465B6DB7934B469B6DB8934B4607E085
:104C30000020032008200320042003200AE81C4150
:104C4000DB6DB9934B461B6EBA934B465B6EBB93C1
:104C50004B469B6EBC934B46DB6EBD934B461B6F26
:104C6000BE934B465B6FBF934B469B6FC0934B46C7
:104C7000DB6FC1938023D358C2938423D358C3934B
:104C80008823D358C4938C23D358C5939023D358E7
:104C9000C6939423D358C7939823D358C8939C237F
:104CA000D358C993A023D358CA93A423D358CB93E2
:104CB000A823D358CC93AC23D358CD93B023D35847
:104CC000CE93B423D358CF93B823D358D093BC23D7
:104CD000D358D193C023D358D293309B3092984667
:104CE00043461F685B6842469946434641469B6877
:104CF000D2680E694D690D984946049305920DF0EE
:104D0000DCFB0499824614980DF0D7FB011C504639
:104D10000DF0BCFB391C824606980DF0CEFB011C41
:104D200050460DF0B3FB311C824622980DF0C5FBB6
:104D3000291C834629980DF0C0FB011C58460DF034
:104D4000A5FB059983461B980DF0B7FB011C58463F
:104D50000DF09CFB011C50460DF098FB494620606D
:104D60000E980DF0AAFB0499824615980DF0A5FB4C
:104D7000011C50460DF08AFB391C824607980DF045
:104D80009CFB011C50460DF081FB311C8246239890
:104D90000DF093FB291C83462A980DF08EFB011C15
:104DA00058460DF073FB059983461C980DF085FB62
:104DB000011C58460DF06AFB011C50460DF066FBC5
:104DC000494660600F980DF078FB0499824616986A
:104DD0000DF073FB011C50460DF058FB391C824648
:104DE00008980DF06AFB011C50460DF04FFB311C7A
:104DF000824624980DF061FB291C83462B980DF008
:104E00005CFB011C58460DF041FB059983461D983B
:104E10000DF053FB011C58460DF038FB011C5046A9
:104E20000DF034FB4946A06010980DF046FB049944
:104E3000824617980DF041FB011C50460DF026FBF1
:104E4000391C824609980DF038FB011C50460DF0C4
:104E50001DFB311C824625980DF02FFB291C834633
:104E60002C980DF02AFB011C58460DF00FFB0599FC
:104E700083461E980DF021FB011C58460DF006FBE1
:104E8000011C50460DF002FB4946E06011980DF000
:104E900014FB0499824618980DF00FFB011C504634
:104EA0000DF0F4FA391C82460A980DF006FB011C3D
:104EB00050460DF0EBFA311C824626980DF0FDFAB3
:104EC000291C83462D980DF0F8FA011C58460DF068
:104ED000DDFA059983461F980DF0EFFA011C58463C
:104EE0000DF0D4FA011C50460DF0D0FA494620616D
:104EF00012980DF0E2FA0499824619980DF0DDFA45
:104F0000011C50460DF0C2FA391C82460B980DF078
:104F1000D4FA011C50460DF0B9FA311C824627988C
:104F20000DF0CBFA291C83462E980DF0C6FA011C11
:104F300058460DF0ABFA0599834620980DF0BDFA5E
:104F4000011C58460DF0A2FA011C50460DF09EFAC5
:104F50004946606113980DF0B0FA049981461A9899
:104F60000DF0ABFA011C48460DF090FA391C814651
:104F70000C980DF0A2FA011C48460DF087FA311C7E
:104F8000071C28980DF099FA291C061C2F980DF083
:104F900094FA011C301C0DF079FA0599051C219832
:104FA0000DF08BFA011C281C0DF070FA011C381C46
:104FB0000DF06CFA18239C46FFABA06114331C342F
:104FC000E044A34200D08BE6309BA2AD99463C93CF
:104FD000C4234C46C8464B44089307944246D268C3
:104FE00043464146914642469E694C68096892682C
:104FF0005F691B690491301CFD99069305920DF0C1
:105000005CFAF6998246381C0DF057FA011C50469E
:105010000DF03CFAEF99824606980DF04EFAE899A9
:10502000834648460DF049FA011C58460DF02EFA09
:10503000011C50460DF02AFAE199824605980DF0C0
:105040003CFADA998346201C0DF037FA011C5846C9
:105050000DF01CFAD399834604980DF02EFA011C2A
:1050600058460DF013FA011C50460DF00FFA011CC2
:1050700028680DF008FA2860FE99301C0DF01DFA22
:10508000F7998246381C0DF018FA011C50460DF0B5
:10509000FDF9F099824606980DF00FFAE9998346DA
:1050A00048460DF00AFA011C58460DF0EFF9011CB4
:1050B00050460DF0EBF9E299824605980DF0FDF9A6
:1050C000DB998346201C0DF0F8F9011C58460DF0C1
:1050D000DDF9D499834604980DF0EFF9011C584688
:1050E0000DF0D4F9011C50460DF0D0F9011C686890
:1050F0000DF0C9F9FF996860301C0DF0DEF9F899E0
:105100008246381C0DF0D9F9011C50460DF0BEF94D
:10511000F199824606980DF0D0F9EA9983464846FF
:105120000DF0CBF9011C58460DF0B0F9011C5046AA
:105130000DF0ACF9E399824605980DF0BEF9DC99C3
:105140008346201C0DF0B9F9011C58460DF09EF95C
:10515000D599834604980DF0B0F9011C58460DF01E
:1051600095F9011C50460DF091F9011CA8680DF04D
:105170008AF9FFAB5968A860301C04330DF09DF923
:10518000F9998246381C0DF098F9011C50460DF033
:105190007DF9F299824606980DF08FF9EB998346D6
:1051A00048460DF08AF9011C58460DF06FF9011CB4
:1051B00050460DF06BF9E499824605980DF07DF9A3
:1051C000DD998346201C0DF078F9011C58460DF03E
:1051D0005DF9D699834604980DF06FF9011C584685
:1051E0000DF054F9011C50460DF050F9011CE8680F
:1051F0000DF049F9FFAB9968E860301C08330DF0F9
:105200005CF9FA998246381C0DF057F9011C50469A
:105210000DF03CF9F399824606980DF04EF9EC99A1
:10522000834648460DF049F9011C58460DF02EF909
:10523000011C50460DF02AF9E599824605980DF0BB
:105240003CF9DE998346201C0DF037F9011C5846C5
:105250000DF01CF9D799834604980DF02EF9011C26
:1052600058460DF013F9011C50460DF00FF9011CC2
:1052700028690DF008F9FFABD9682861301C0C33A0
:105280000DF01BF9FB998246381C0DF016F9011C34
:1052900050460DF0FBF8F499824606980DF00DF992
:1052A000ED99834648460DF008F9011C58460DF06B
:1052B000EDF8011C50460DF0E9F8E6998246059894
:1052C0000DF0FBF8DF998346201C0DF0F6F8011C69
:1052D00058460DF0DBF8D899834604980DF0EDF8A8
:1052E000011C58460DF0D2F8011C50460DF0CEF8C6
:1052F000011C68690DF0C7F8EE99686148460DF029
:10530000DCF8F599814606980DF0D7F8011C48465F
:105310000DF0BCF8FC998146381C0DF0CEF8FFABBF
:105320001969071C301C10330DF0C7F8011C381C1C
:105330000DF0ACF8011C48460DF0A8F8E099061CE9
:10534000201C0DF0BAF8E799041C05980DF0B5F88B
:10535000011C201C0DF09AF8D999041C04980DF03A
:10536000ACF8011C201C0DF091F8011C301C0DF054
:105370008DF8011CA8690DF086F81C239C46089B3B
:10538000E044A8611C35984500D027E6079BA29A07
:1053900099461A60A39A5A60A49A9A60A59ADA600C
:1053A000A69A1A61A79A5A61A89A9A61A99ADA618B
:1053B000AA9A1A62AB9A5A62AC9A9A62AD9ADA6267
:1053C000AE9A1A63AF9A5A63B09A9A63B19ADA6343
:1053D000B29A1A64B39A5A64B49A9A64B59ADA641F
:1053E000B69A1A65B79A5A65B89A9A65B99ADA65FB
:1053F000BA9A1A66BB9A5A66BC9A9A66BD9ADA66D7
:10540000BE9A1A67BF9A5A67C09A9A67C19ADA67B2
:105410004A468023C299D150C3990433D150C499CC
:105420000433D150C5990433D150C6990433D150B7
:10543000C7990433D150C8990433D150C999043362
:10544000D150CA990433D150CB990433D150CC995F
:105450000433D150CD990433D150CE990433D15077
:10546000CF990433D150D0990433D150D19904331A
:10547000D150D2990433D1503AAA94464F4BA2AAA4
:1054800063441B6813CB13C24D4BD3AC63441B68FE
:1054900007CB07C43A9B3B9D00934A4B28006344CB
:1054A000A2A91B68D3AAFDF789F82B00D3AA23CBA6
:1054B00023C213CB13C23AA91B688C4613603EAAC1
:1054C00011003E4B63441B6831CB31C13C4BA2A958
:1054D00063441B6831CB31C13A4BD3A963441B6889
:1054E00071A80093A2ABFDF7CFFAD3AB07931C00D2
:1054F000719B0993789B10937F9B1793869B1E93B8
:105500008D9B2593949B2C939B9B3393729B0A9327
:10551000799B1193809B1893879B1F938E9B269357
:10552000959B2D939C9B3493739B0B937A9B129327
:10553000819B1993889B20938F9B2793969B2E93F7
:105540009D9B3593749B0C937B9B1393829B1A9327
:10555000899B2193909B2893979B2F939E9B369397
:10556000759B0D937C9B1493839B1B938A9B229327
:10557000919B2993989B30939F9B3793769B0E9397
:105580007D9B1593849B1C938B9B2393929B2A93C7
:10559000999B3193A09B3893779B0F937E9B169397
:1055A000859B1D938C9B2493939B2B939A9B329367
:1055B000A19B3C9D39934B463C9305E02808000095
:1055C000380800003C080000E868AE698146A96818
:1055D00028692B686A6880460691301C33990493C9
:1055E00005920CF06AFF6F6982462C99381C0CF00A
:1055F00064FF011C50460CF049FF25998246404645
:105600000CF05BFF1E99834648460CF056FF011CC8
:1056100058460CF03BFF011C50460CF037FF179921
:10562000824606980CF049FF1099834605980CF0C5
:1056300044FF011C58460CF029FF09998346049841
:105640000CF03BFF011C58460CF020FF011C50469B
:105650000CF01CFF34992060301C0CF02EFF2D99AB
:105660008246381C0CF029FF011C50460CF00EFF3E
:105670002699824640460CF020FF1F9983464846F3
:105680000CF01BFF011C58460CF000FF011C50469B
:105690000CF0FCFE1899824606980CF00EFF11994A
:1056A000834605980CF009FF011C58460CF0EEFEED
:1056B0000A99834604980CF000FF011C58460CF030
:1056C000E5FE011C50460CF0E1FE35996060301C8F
:1056D0000CF0F3FE2E998246381C0CF0EEFE011CF5
:1056E00050460CF0D3FE2799824640460CF0E5FE6A
:1056F0002099834648460CF0E0FE011C58460CF009
:10570000C5FE011C50460CF0C1FE19998246069850
:105710000CF0D3FE1299834605980CF0CEFE011CC6
:1057200058460CF0B3FE0B99834604980CF0C5FE66
:10573000011C58460CF0AAFE011C50460CF0A6FEB7
:105740003699A060301C0CF0B8FE2F998246381CA8
:105750000CF0B3FE011C50460CF098FE28998246CE
:1057600040460CF0AAFE2199834648460CF0A5FE5F
:10577000011C58460CF08AFE011C50460CF086FEB7
:105780001A99824606980CF098FE1399834605985C
:105790000CF093FE011C58460CF078FE0C998346E1
:1057A00004980CF08AFE011C58460CF06FFE011C98
:1057B00050460CF06BFE3799E060301C0CF07DFE1B
:1057C00030998246381C0CF078FE011C50460CF0D3
:1057D0005DFE2999824640460CF06FFE2299834671
:1057E00048460CF06AFE011C58460CF04FFE011CA6
:1057F00050460CF04BFE1B99824606980CF05DFE5D
:105800001499834605980CF058FE011C58460CF07C
:105810003DFE0D99834604980CF04FFE011C58463E
:105820000CF034FE011C50460CF030FE389920611B
:10583000301C0CF042FE31998246381C0CF03DFEC3
:10584000011C50460CF022FE2A99824640460CF07C
:1058500034FE2399834648460CF02FFE011C58461F
:105860000CF014FE011C50460CF010FE1C998246F0
:1058700006980CF022FE1599834605980CF01DFE43
:10588000011C58460CF002FE0E99834604980CF059
:1058900014FE011C58460CF0F9FD011C50460CF09A
:1058A000F5FD4946606124980CF007FE41468146AB
:1058B0002B980CF002FE011C48460CF0E7FD391C49
:1058C000804632980CF0F9FD311C071C39980CF019
:1058D000F4FD011C381C0CF0D9FD011C40460CF0F5
:1058E000D5FD0599061C16980CF0E7FD0699071CD6
:1058F0001D980CF0E2FD011C381C0CF0C7FD04994A
:10590000071C0F980CF0D9FD011C381C0CF0BEFDD3
:10591000011C301C0CF0BAFD089B1C35A0611C3426
:105920009D4200D050E63C9BA2AC9946F6AB069354
:10593000DAAB08934B463C943D93079B586D1A682D
:105940008146996B186F0492069A804605914846E5
:105950001E99DD691768D6690CF0AFFD259982465E
:1059600040460CF0AAFD011C50460CF08FFD2C990E
:105970008246381C0CF0A1FD33998346301C0CF094
:105980009CFD011C58460CF081FD011C50460CF09A
:105990007DFD10998246281C0CF08FFD17998346D7
:1059A00005980CF08AFD011C58460CF06FFD099912
:1059B000834604980CF081FD011C58460CF066FDEE
:1059C000011C50460CF062FD20601F9948460CF007
:1059D00074FD2699824640460CF06FFD011C50462E
:1059E0000CF054FD2D998246381C0CF066FD34995C
:1059F0008346301C0CF061FD011C58460CF046FD3E
:105A0000011C50460CF042FD11998246281C0CF0F6
:105A100054FD1899834605980CF04FFD011C58461B
:105A20000CF034FD0A99834604980CF046FD011CE5
:105A300058460CF02BFD011C50460CF027FD209918
:105A4000606048460CF039FD2799824640460CF0CC
:105A500034FD011C50460CF019FD2E998246381C6D
:105A60000CF02BFD35998346301C0CF026FD011CF3
:105A700058460CF00BFD011C50460CF007FD129926
:105A80008246281C0CF019FD1999834605980CF0E4
:105A900014FD011C58460CF0F9FC0B998346049840
:105AA0000CF00BFD011C58460CF0F0FC011C50469C
:105AB0000CF0ECFC2199A06048460CF0FEFC289903
:105AC000824640460CF0F9FC011C50460CF0DEFC0E
:105AD0002F998246381C0CF0F0FC36998346301C16
