:020000041000EA
:1000000000B5324B212058609868022188439860DF
:10001000D860186158612E4B002199600221596106
:100020000121F02299502B49196001219960352056
:1000300000F044F80222904214D00621196600F024
:1000400034F8196E01211966002018661A6600F04E
:100050002CF8196E196E196E052000F02FF8012189
:100060000842F9D1002199601B49196000215960AB
:100070001A491B48016001219960EB211966A021F2
:10008000196600F012F800219960164914480160C1
:100090000121996001BC002800D000471248134993
:1000A000086003C880F30888084703B5996A0420EC
:1000B0000142FBD001200142F8D103BD02B5186610
:1000C0001866FFF7F2FF186E186E02BD00000240BE
:1000D000000000180000070000035F00212200005C
:1000E000F4000018222000A00001001008ED00E03C
:1000F00000000000000000000000000074B24E7A12
:1001000000200420F7010010C3010010C5010010F9
:10011000C1010010C1010010C1010010C101001097
:10012000C1010010C1010010C1010010C701001081
:10013000C1010010C1010010C9010010CB01001065
:10014000CD010010CD010010CD010010CD01001037
:10015000CD010010CD010010CD010010CD01001027
:10016000CD010010CD010010CD010010CD01001017
:10017000CD010010CD010010CD010010CD01001007
:10018000CD010010CD010010CD010010CD010010F7
:10019000CD010010CD010010CD010010CD010010E7
:1001A000CD010010CD010010CD010010CD010010D7
:1001B000CD010010CD010010CD010010CD010010C7
:1001C00000BE00BE00BE00BE00BE00BEEFF3058054
:1001D000103800BEF2EB8871CC3C0510EC3C0510E9
:1001E0003402001090A31AE700201F49086006C8D7
:1001F00081F3088810471D48006800282FD10DA4FE
:100200000ECC002902D000F012F8F9E71849194A7B
:10021000002000E001C19142FCD1174988471749ED
:1002200088471749884700BEFDE701C901C29A42C5
:10023000FBD37047EC3C0510C0000020B02C002020
:10024000DC6805100000042000000420DC680510B4
:10025000001004200010042000000000704709482E
:100260000DF05AF90047000008ED00E0000000D052
:10027000B02C0020045903200DBD001055030010C0
:1002800041BE00105756000006005250ABB36053F9
:10029000A098041006005250861C0302B098041067
:1002A000060052505422A29DBC98041005005250E2
:1002B000DE65F468DC680510F8B5C0460448054BF7
:1002C00010B5834203D0044B002B00D0984710BDDB
:1002D000B02C0020B02C0020000000000648074988
:1002E000091A8B10C90FC91810B5491003D0044B57
:1002F000002B00D0984710BDB02C0020B02C00205F
:100300000000000010B5074C2378002B09D1FFF73F
:10031000D5FF054B002B02D0044800E000BF0123AD
:10032000237010BDB831002000000000A09304101D
:10033000054B10B5002B03D00449054800E000BF71
:10034000FFF7CCFF10BDC04600000000BC3100200C
:10035000A093041070B5192009F0A4FFD0238022C7
:100360001B0692045A6224480EF05AFC0EF0B8FDA7
:1003700022480EF055FC00F05FF821480EF050FCCA
:1003800007F038F81F480EF04BFC08F099FA1E48A9
:100390000EF046FC07F06CFA09F0FCFA0022052486
:1003A0001A4B1A7006F064FB19480EF039FC194D0F
:1003B000013C210028000EF087FDFA2080000AF0A1
:1003C00081FD002CF4D10A200EF0DEFB0122002179
:1003D00011480AF03FFA114810F032FF0122104B89
:1003E000104C1A702378012BFCD108F025FC2378DF
:1003F000012BFAD0F6E7C046A0930410B093041086
:10040000BC930410C8930410D8930410EC58032034
:10041000E8930410F4930410E45703207D8E001039
:10042000EB580320F058032010B5024811F030FAC1
:1004300010BDC046FC370320092370B586B0059374
:1004400004330493023B0393013B0293023B324D7E
:10045000324C0193324B22003249334800932B0037
:1004600005F0C4FF142005F0BDFFFA2080000AF05B
:1004700029FD2E4E21003200280006F0CFF93378F6
:10048000682B08D02A4C20000EF0CAFBFA2080000E
:100490000AF018FDF7E773783D2BF3D10122210014
:1004A000280006F0DFF9234E32002100280006F074
:1004B00013FA3378002BF7D101222100280006F02F
:1004C0008FF80121200006F06DF80321200005F0CF
:1004D000FFFF0321280006F029F91321200006F070
:1004E00069FA1221200006F0A3FA0021200006F08C
:1004F00081FA0321200006F00BFA0221200006F009
:1005000023FA5521200006F001F81821280006F0F2
:10051000A7F806B070BDC046B01F032040330020CE
:1005200040420F009C20002094200020B45803205B
:100530000894041001590320F0B5C646334C344DDD
:10054000344E22002900300000B506F079F96378B6
:10055000DB439B0720D023781B0702D480BCB8461E
:10056000F0BD2D4C0622002120000EF0DBF9210009
:10057000300006F035F90023E05E05F09FFF274DBF
:1005800028600223E05E05F099FF68600423E05EC6
:1005900005F094FFA860E1E7214B06229846180079
:1005A00000210EF0BFF91F4F0622002138000EF087
:1005B000B9F94146280006F0F5F83900280006F0A0
:1005C000D3F843460020185E05F064FF4346164DFD
:1005D00028600220185E05F05DFF43466860042035
:1005E000185E05F057FFA8600023F85E05F05CFF79
:1005F0000E4D28600223F85E05F056FF6860042364
:10060000F85E05F051FFA860A5E7C046F84D03204D
:1006100040330020B01F0320F83D03200443032093
:10062000E83D0320F03D0320783C0320983C032064
:10063000F0B55746DE464E464546E0B58BB00891CC
:100640009246190005900993DA1703238C4613404C
:1006500063449B109B009846002B00DC90E05246C0
:10066000159B00249B000193149B9B1A159A9B1ABF
:10067000089A9B00029353681268190194460491EA
:10068000069251469A00039252468D000021013A8B
:1006900092000792002289465900DE00CB189B0089
:1006A0009B461300424665440092019A94469C443E
:1006B000039B1A199F195346002B1EDD069B0598B4
:1006C00019196346804600989B0043448046009475
:1006D000086818600098081A845804315C608459CE
:1006E0009C60C059D86010338D42F1D143460799C0
:1006F000009363468C4604339C440421029B5A4475
:1007000063448C461400049A3E00E1449446009AE7
:100710005E4465444A45C8DC1A00009B9846099B24
:10072000434526DD1499159C089B0D1B514609CBAA
:100730006D1A00291DDD41469E004B439B00C018E9
:1007400053469C00059B47469C46099BAB469846F2
:10075000159B994600234A4491006144C558CD50E9
:1007600004339C42FAD1524401375A448019B845A7
:10077000F0D10BB0F0BCBB46B246A946A046F0BDD6
:100780000022CCE7F0B54746CE4680B51F00002BCF
:100790001DDD002A1BDD9300C0180B68002498465D
:1007A0004B689100D200494252428C4691469B00D0
:1007B000614645182900A20042441668D21840C17B
:1007C0008142FAD14A460134A81AA742F0D1C0BCEE
:1007D000B946B046F0BDC046F0B5DE464E46574677
:1007E00045460023E0B5136083688BB0049305236E
:1007F0009B4600235E46099202680293013B0790E4
:100800000691039208930523049C9B1B5C43984626
:10081000029BA4009C46039B64449C46644423685A
:100820005D0063686D085F007F08291C381C0DF0AF
:1008300035FE002800D1CCE03D1C0127731C9A46F0
:10084000022B37D9A368291C5B005B08181C99464A
:100850000DF024FE002801D04D4602275346032BFD
:1008600028D0E368291C5B005B08181C99460DF032
:1008700015FE002801D04D4603275346042B19D0FE
:100880002369281C5B005B08191C99460DF0F8FDD4
:10089000002801D04D4604275346062B0AD164692F
:1008A000281C64006408211C0DF0EAFD002801D01A
:1008B0000527251C069B029A474400219F50281CAF
:1008C0000DF0D6FD002800D185E0089B013300D152
:1008D000FEE0062347469B1B9C46079A05939268B9
:1008E000574367440492BF000599049B0C009A008B
:1008F0005C43029B00929C46039BA5001A00654442
:100900008C4691469B46924690463B1D6444A4000B
:10091000994404335D445C449A44BB440433103727
:10092000944698443B000027634401935B46296842
:1009300018680DF06EFD011C20680DF050FD206060
:10094000012E2DD94B46286819680DF062FD011C57
:1009500060680DF044FD6060022E21D05346286887
:1009600019680DF056FD011CA0680DF038FDA0605F
:10097000032E15D04346286819680DF04AFD011C66
:10098000E0680DF02CFDE060052E09D1019B29687F
:1009900018680DF03EFD011C20690DF020FD20615E
:1009A000009B01379C4665446444BE42BED1029B15
:1009B000013E04330293059B052B00D023E71A0068
:1009C000069B5A610BB0F0BCBB46B246A946A04696
:1009D000F0BD002732E7474530D0039902988C4696
:1009E000BF0067448446079A3C6892680B5892009F
:1009F0000C5061443B608918BB1808681C680C6087
:100A0000186089189B1808681C680C6018608918A1
:100A10009B1808681C680C60186089189B18086887
:100A20001C680C60186089189B1818680A680860B0
:100A30001A60099A13680093013313604746079BB5
:100A4000039A9B685F4304930623991B43468C4695
:100A5000FB189B0067449C58BF00D5192868059176
:100A6000211C0DF0C2FC2860012E00D83CE7039B3E
:100A70003D1D9C4665442868211C0DF0B6FC28608D
:100A8000022E00D130E7039B3D009C4608356544AB
:100A90002868211C0DF0A9FC2860032E00D123E753
:100AA000039B3D009C460C3565442868211C0DF0D5
:100AB0009CFC2860042E00D116E7039A3D00944662
:100AC000103565442868211C0DF08FFC28600BE769
:100AD000062347469B1B9C4605934346079A08936B
:100AE0009268574367440492BF00FDE6F0B557464D
:100AF000DE464E464546E0B599B01493249B8246A7
:100B0000259C26985D1C00D1229B651C00D1229C4F
:100B1000239DEE1703253540239EB4466544AD1052
:100B2000AF000725229E0E97AE4335000096149E17
:100B3000002E00DC88E29B00169323011093030132
:100B4000D31817936B1EDB0801330391D9015B01A6
:100B50000F93A3007C432018800011931318159362
:100B60000023D346139108930E9B002B00DCC2E1B7
:100B70000F9A039B944663441293179BD8460193A4
:100B8000002302930298434601000CCB089C594372
:100B9000A4466144890051180991411C594361449C
:100BA000890051180A91811C5943614489005118E8
:100BB0000B91C11C4B4363449B00D318019E0C93C3
:100BC000009B3400002B00DC45E2039B0025994686
:100BD00000234C46AA46AB46A946069504952F1C11
:100BE000059507950D9325683168281C0DF011FCBB
:100BF00059460DF0F7FB71688346281C0DF009FC7F
:100C000051460DF0EFFBB1688246281C0DF001FC47
:100C100007990DF0E7FBF1680790281C0DF0F9FB30
:100C200005990DF0DFFB059065683169281C0DF012
:100C3000F0FB391C0DF0D6FB7169071C281C0DF068
:100C4000E8FB04990DF0CEFBB1690490281C0DF06F
:100C5000E0FB06990DF0C6FBF1690690281C0DF02B
:100C6000D8FB49460DF0BEFB8146A568316A281CB9
:100C70000DF0CFFB59460DF0B5FB716A8346281C79
:100C80000DF0C7FB51460DF0ADFBB16A8246281C42
:100C90000DF0BFFB07990DF0A5FBF16A0790281C2A
:100CA0000DF0B7FB05990DF09DFB0590E568316BE4
:100CB000281C0DF0AEFB391C0DF094FB716B071C6A
:100CC000281C0DF0A6FB04990DF08CFBB16B049071
:100CD000281C0DF09EFB06990DF084FBF16B06902D
:100CE000281C0DF096FB49460DF07CFB81462569DA
:100CF000316C281C0DF08DFB59460DF073FB716CA7
:100D00008346281C0DF085FB51460DF06BFBB16C42
:100D10008246281C0DF07DFB07990DF063FBF16CFA
:100D20000790281C0DF075FB05990DF05BFB0590F5
:100D30006569316D281C0DF06CFB391C0DF052FB00
:100D4000716D071C281C0DF064FB04990DF04AFB23
:100D5000B16D0490281C0DF05CFB06990DF042FB70
:100D6000F16D0690281C0DF054FB49460DF03AFB3E
:100D70008146A569316E281C0DF04BFB59460DF0DC
:100D800031FB716E8346281C0DF043FB51460DF07C
:100D900029FBB16E8246281C0DF03BFB07990DF034
:100DA00021FBF16E0790281C0DF033FB05990DF027
:100DB00019FB0590E569316F281C0DF02AFB391CE1
:100DC0000DF010FB716F071C281C0DF022FB04991D
:100DD0000DF008FBB16F0490281C0DF01AFB06996A
:100DE0000DF000FBF16F0690281C0DF012FB494638
:100DF0000DF0F8FA8146803620340D9B009A0833B6
:100E00000D939A4200DDEEE6139B019C9C46051C67
:100E10005946381C64440DF0E5FA5146071C049805
:100E20000DF0E0FA0799061C06980DF0DBFA05991B
:100E30008146281C0DF0D6FA129B051C9A46229A70
:100E4000009B9A4230DDAB460493534620CB216889
:100E5000281C9A460DF0DDFA011C381C0DF0C2FA70
:100E60006168071C281C0DF0D4FA011C301C0DF021
:100E7000B9FAA168061C281C0DF0CBFA011C4846E3
:100E80000DF0B0FAE1688146281C0DF0C2FA011C91
:100E900058460DF0A7FA8346049B229A013310347A
:100EA00004939A42D1D1051C311C0A9E30680DF082
:100EB00096FA391C099F041C38680DF090FA291C19
:100EC0000C9D3860346028680DF089FA0B9E494605
:100ED000041C30680DF083FA1099019A8C46029B2D
:100EE000624401920E9A0433306002932C609A425D
:100EF00000DD47E6C3460F9A039B944663440E9A6F
:100F00000293239B9246159D934200DC90E05B4642
:100F10005C6853465C43089B2F009C465B461B68FD
:100F200064449C46009BA4006444002B00DC99E0D0
:100F30000023039F99463B00A04600262F001C007B
:100F4000396820680DF065FA311C0DF04BFA061C6B
:100F5000796860680DF05DFA311C0DF043FA061CEB
:100F6000B968A0680DF055FA311C0DF03BFA061C6B
:100F7000F968E0680DF04DFA311C0DF033FA061CEB
:100F8000396920690DF045FA311C0DF02BFA061C69
:100F9000796960690DF03DFA311C0DF023FA061CE9
:100FA000B969A0690DF035FA311C0DF01BFA061C69
:100FB000F969E0690DF02DFA311C0DF013FA061CE9
:100FC0002037203408239C46009BE1444B45B7DC86
:100FD00044460F9BEF18029B0193229A009B9A4272
:100FE00017DD99460023984643464246F958019B2F
:100FF00098580DF00EFA011C301C0DF0F3F9061C88
:1010000001239C460333E1449C46229BE0444B452C
:10101000EAD12068311C0DF0E2F901239C46119BB6
:10102000E2449C46239B20606544534500D06EE714
:101030001699039A8C46089B62440392149A0133D2
:1010400008939A4200D08FE519B0F0BCBB46B24677
:10105000A946A046F0BD0025039BA9469A462E1C32
:101060002F1CECE6039B00260193B6E7F0B557462C
:10107000DE464E4645469C24E0B5BDB006AF3C1961
:10108000FB63842320609824BA6694225B003C1999
:10109000FB1821601C68BA182369FB67A3681360FA
:1010A000834202DD9423FB18186094239821FB18D7
:1010B0007918FA6F1B680D68534355432268002A5C
:1010C00000D1DBE29B007B668C23FB181A60902228
:1010D0000023BA1813606368AA003A66002B00D197
:1010E000ECE28822BB670023BA181360C84D2B7846
:1010F000BFF35B8FDB0700D4FDE2C64CA4220423C0
:10110000BA1813609433FB181B686068002B18DD55
:101110009C237A1DFB18FF321B681268190093424A
:1011200000DAFFE209010CF051FA0323C217134061
:10113000A4221B189B109B00BA181360042B00DA22
:10114000EBE29C23FB181C68002C00DC72E2FB6BBA
:10115000FD6F18006A425043F86118008021661B39
:101160007043F866180001335A4392007918BA6147
:10117000621E0E601100594389008846B96E1B013A
:101180008C46E04441467964A90049423961A10096
:101190007C1CFF3424685B42A446A4246144396467
:1011A000791DFF313C1909682468FB606143B9620D
:1011B000B02183005B4279180B600300921B5043FF
:1011C000DB43AC229B00BA181360C4227B1DFF33A3
:1011D0001B68BA189B0078611360A022FB6FBA18D5
:1011E00013609C22BA181268934202DDA023FB18F8
:1011F0001A609823FB181B68002B00DC9FE1A023DA
:10120000FB181A68002A00DC99E19823FB181B6878
:10121000396C3B65A423FB181B6853439B00FB629E
:10122000BB6FFB649300CB1A79697B628C46FB6EC3
:10123000B82163447B63002379180B60D021BB6421
:101240003B679C33FB181B6879189B1ABB60130023
:1012500079600321013B043A8B43D31A3B63A422F8
:10126000BA183B6D1268FB65934200DDFA65B8223F
:10127000BA181268FB6D9446C8226344BA1813600A
:101280009C237A6AFB1894461B6884227B673B6F19
:10129000BA189B0063443B627B6B7B657B6CBB65D0
:1012A000A023FB181B6813608423B422FB181B685F
:1012B000BA181360042B03DDB4220423BA18136098
:1012C0008423FB181B68002B00DCA5E0B422C82097
:1012D000B824BA187B6F116838183C190068246864
:1012E0005A1ABA63A04200DC9CE094464E1EB96EC6
:1012F0009B008A46043B9B467B6D791C63449B00A4
:10130000FF3109689A44BB6C63448C46A8219B005A
:10131000634479180B609300C0225B42BA181360D3
:10132000BC22BB6DBA181360BC23FE20FB181B68DF
:10133000800519680DF059F8CC23FB181860A82314
:10134000FB181C68B823FB181B68B1461E00C0239D
:10135000FB181B685A469846A04443469958CC232C
:10136000FB1818680DF055F843465A4698504B46FE
:10137000051C002B22DD534619680DF04AF8011CAC
:1013800020680DF02CF84B462060012B16D05346F8
:10139000281C59680DF03DF8011C60680DF01FF81D
:1013A0004B466060022B09D05346281C99680DF00B
:1013B00030F8011CA0680DF012F8A060C423FB18DF
:1013C0001B6801369C46C823FB181B6864449E4278
:1013D000BDD1AC22BC23BA181268FB189446BC22BB
:1013E0001B68BA18634413600423B0225B429C4616
:1013F000BA181268E3449446B4224E46BA181268EA
:10140000731EE244961BB2420CDD1E008CE7C04600
:101410004C22032010380320B422BA187B6F1268C4
:101420009B1ABB638423B422BD6BBA18AC46FB186D
:1014300010681B687A1CFF3212681C1A3B6F7968AF
:10144000634494469B0063440B607B1DFF331B6821
:1014500080464B60A0230194FB181E680200009692
:10146000FB6DF86C9B4689468246FFF7E1F8002C3D
:101470002ADD2B00BA6849469446FD6BBA6E6B4371
:101480008C20634494464D604D469B00381800689C
:1014900063440B60424623008146FFF773F929003D
:1014A0007B1DFF333D6A1B680D604B600D005B4682
:1014B0000396464601935246230049462800049469
:1014C00002960096FFF712FB84238422F968FB182A
:1014D0008C46B0211B68BA18043B13607A6F7918E8
:1014E000043A09687A67BA6D62448C46BA657A6DC7
:1014F00062447A653A6B934200D0D5E6A422B823C1
:10150000BA181268B8219446FB181B68791863440E
:101510000B60396D8A1AF96A3A658C46FA6CB96AB9
:1015200062448C46FA643A6F62443A67BA6C624429
:10153000BA649822BA1812689A4200DD8FE68023B6
:101540009C22FB181B68BA181360002B72DD9423D1
:10155000FB181B68002B00DCFEE78023BA6EFB182B
:1015600092461D68FB6E00249B009A44D023FE180F
:1015700000239B46013B99469423FB181B68A84611
:101580009D4200DD9846CC22A300BA181360FA6B86
:101590008C207260A0225344BA18381831001268A7
:1015A000006833604346FFF7EDF87A1CCC23FF3226
:1015B0001268FB1894461B688C21634433607B1DC2
:1015C000FF331B68791873605B4604934B460393A3
:1015D00002939823FB181B6830000193A023FB188B
:1015E0001B680093BA6F43460968FFF77FFA94239C
:1015F000FB181B689C46ED1A8023FB181B6864448B
:10160000A342B9DCFA69FB6E9446BA696344944616
:10161000FB663A697B6C634494467B643B6CFA6F6F
:1016200063443B648023FB181B689B1A8022BA1812
:101630001360D2E580233A6E9B029A4208D9882330
:10164000FB181B68002B03D0043B18680DF052F9FF
:1016500080237A6E9B029A4208D99023FB181B685C
:10166000002B03D0043B18680DF044F9BD4637B099
:10167000F0BCBB46B246A946A046F0BD9A00802306
:101680007A669B029A424FD813006A461633DB08EB
:10169000DB00D31A9D4627200F23684498438133EB
:1016A000FB18186090238C22FB181B68BA18136073
:1016B0006368AA003A66002B00D012E580239B02E3
:1016C0009A424FD813006A461633DB08DB00D31A60
:1016D0009D4627200F23684498437933FB181860F0
:1016E0008823FB181B682D4DBB672B78BFF35B8FDE
:1016F000DB0700D501E528000FF0C8FD284C0028C5
:1017000000D1FBE48023DB01236080231B0328003E
:101710006360A3600FF0D6FDF0E4A4220423BA189E
:1017200013600EE51100FDE4100010300DF0C4F858
:101730009023FB18021E1860B4D00F2301009943B8
:101740000B0010218C468C209C446146DA60236893
:101750003818016058425841902340420140FB181C
:101760001960B8E4100010300DF0A6F88823FB18BB
:1017700018600028B4D00F23010099430B001021FA
:101780008C46D86060689C44434258416146882337
:101790004042B967FB1801401960A7E44C220320BE
:1017A00010380320F0B55746DE464E464546E0B5B4
:1017B000B3B006AF8C24BB62E023FA6288223C19E6
:1017C000FB1821601C68BA182369786513608422AD
:1017D000A368BA181360834202DD8423FB181860E3
:1017E000842388228C21FB18BA18791812681B6888
:1017F0000D68534355432268002A00D150E29B00F4
:10180000FA6780223B650023BA1813606368AA0058
:10181000FA64002B00D161E2FB660023BB67E74D51
:101820002B78BFF35B8FDB0700D470E2E44C90228F
:101830000423BA1813608833FB181B686068002BF8
:1018400016DDDC22BA187B6D12681900934200DAAB
:1018500074E209010BF0BAFE0323C2171340902271
:101860001B189B109B00BA181360042B00DA60E26F
:101870007B6D002B00DCF1E18822B96ABA18080000
:101880001268BB6350439B1AB86098207B634B1C63
:1018900099001B01FB61DC234A43381801607A6020
:1018A0009020DC22FB181B68BA189B009B46FB6A41
:1018B00038183B63002312680068BB6542437A61B5
:1018C0000A1F3A627B679422BB6BBA1813608822A6
:1018D000BA181268934202DD9423FB181A608C2315
:1018E000FB181B68002B00DC45E19423FB181A68E9
:1018F000002A00DC3FE18C239021FB181B6879183B
:10190000BB6413000968DA464B43D821791809688B
:101910009B008C463B61FB6E9C21FB657B6F7918BD
:101920009B006344FB6000230B60A8213B66791891
:10193000130039600321013B043A8B43D31ABB6186
:101940009022BA18BB6C1268BB66934200DDBA667F
:101950009C22BA181268BB6E9446FA686344944697
:101960009B463B6E9B006344FB633B6B3B647B6F1E
:101970007B66BB6D7B649423FB181B683B679423D9
:10198000FB181A683B6FD21A7A62A022BA18136049
:10199000042B03DDA0220423BA1813603B6F002B35
:1019A00058DD9C23FB181B689B4553DDA023A42214
:1019B000FB181B68BA18013B9946FB6B13603B6C24
:1019C00098464B46002B2EDDA423FB181C689C2355
:1019D000FB181E68434625685968281C0CF019FD41
:1019E000011C60680CF0FBFC4B466060012B16D0BC
:1019F0004346281C99680CF00CFD011CA0680CF0F3
:101A0000EEFC4B46A060022B09D04346281CD96847
:101A10000CF0FFFC011CE0680CF0E1FCE06001361A
:101A200054445E45D6D14B465A1E9823FB181B687A
:101A3000A4219C46A423FB181B68791804330B606F
:101A4000A023FB1819684B46E044CB1A994201DDEC
:101A50009146B6E7A022BA181468D8223B6F796E77
:101A60003E6E8C461D1B3300BA18106863448446D2
:101A700039689B0063440B60DC23FB181B68220061
:101A80004B607B6A884601939423FB18186800908A
:101A9000BB6EF86DFEF7CCFD002D36DD7B6E41464A
:101AA0009C46786C220064440319F86A9B008446C3
:101AB000B86A63444860A02038180260F86F0B6071
:101AC0002B00C1468046FEF75DFED822BA183319B6
:101AD00014689B00A4464C4663442360DC23FB1837
:101AE00019687B6A616004939423FB181E68A02325
:101AF0000396FB181A6841460292BB6E009201934E
:101B000048462B00FA6DFEF7F1FF396A7A6C8C4675
:101B1000F96962448C467A647A6E3B6F04327A6665
:101B20003A6C043B62443A64FA6B3B671032FA63E6
:101B3000BA69934200D022E790229C23BA18126817
:101B40009C219446FB181B68791863440B60B96CA0
:101B50008A1A7969BA648C463A6E396962448C464D
:101B60003A66FA6D6244FA658C22BA1812689A4293
:101B700000DDE5E6D3468822BA1812687B6F9446EA
:101B80007A6D63447B67934268DA8423FB181B6891
:101B9000002B17DC8823B968FB188C46BA6B1B68CE
:101BA000D21ABA63BA6D6244BA657A6BD31A7A688C
:101BB0007B6394463B6B63443B6384E64C22032087
:101BC00010380320FA6ABB6D92469B009A44A82302
:101BD000FE18A93B99467D6B7C6F8423FB181B681C
:101BE000A8469D4200DD9846A422A300BA181360BF
:101BF000BA6A534472609422BA1831001268F86FBE
:101C000033604346FEF7BEFDD822A423BA181268FB
:101C1000FB1894461B68300063443360DC23FB18D8
:101C20001B687360002304934B46039302938C2339
:101C3000FB181B6801939423FB181B680093FA6E32
:101C40004346F96FFEF752FF8423FB181B689C463E
:101C5000ED1A7B6D6444A342BFDC9BE78023FA6CE2
:101C60009B029A4206D9BB6F002B03D0043B186835
:101C70000CF040FE80233A6D9B029A4208D98023E3
:101C8000FB181B68002B03D0043B18680CF032FED5
:101C9000BD462DB0F0BCBB46B246A946A046F0BD3D
:101CA0009A0080233A659B029A4249D813006A46FB
:101CB0001633DB08DB00D31A9D4627200F23684428
:101CC00098437133FB1818608023FB181B68AA0027
:101CD000FB676368FA64002B00D09DE580239B02BC
:101CE0009A4249D813006A461633DB08DB00D31A40
:101CF0009D4627200F2368449843B867BB6F2A4D41
:101D0000FB662B78BFF35B8FDB0700D58EE52800E1
:101D10000FF0BCFA254C002800D188E58023DB01B8
:101D2000236080231B0328006360A3600FF0CAFABE
:101D30007DE590220423BA18136099E5110088E527
:101D4000100010300CF0B8FD8023FB18186000283C
:101D5000BAD00F23010099430B0010218C46D860A4
:101D60009C44236861465842584180234042F967A9
:101D7000FB180140196049E5100010300CF09CFD83
:101D8000B8670028BAD00F23010099430B00102137
:101D90008C46D86060689C4443425841614640424A
:101DA000F9660140B9673AE54C2203201038032058
:101DB00030B587B00D4B02AD00951A6869460292A6
:101DC0009A880400AA809B796A46AB710723019325
:101DD0000023D3732CF0ECF90098A84203D00299A9
:101DE00001310CF0BBFD200007B030BD1C94041085
:101DF000F0B5DE4657464E464546E0B50E00016852
:101E0000C7688946416805698A4681688DB08B46F6
:101E1000416980690793069050681368926805913C
:101E20000A90291C30680B92099308950CF0D7FA98
:101E30000599039070680CF0D2FA0699051CB068F9
:101E40000CF0CDFA80268046360607980CF07AFB17
:101E5000B446039B009001916344180051460CF076
:101E6000D8FA5946061C281C0CF0D3FA011C301C69
:101E70000CF0B5FA391C061C404604970CF0C9FA60
:101E8000011C301C0CF0ABFA0CF05CFB0022684B20
:101E90000BF007FE009A019B0BF003FE060048467C
:101EA0000F000CF04FFB02000B0030003900169CB5
:101EB0000BF0D0FD0BF0EEFE4946206003980CF0CD
:101EC000A8FA5946061C40460CF0A3FA011C301C27
:101ED0000CF088FA0499061C281C0CF09AFA011CD4
:101EE000301C0CF07CFA0CF02DFB0022504B0BF058
:101EF000D8FD009A019B0BF0D4FD060050460F0060
:101F00000CF020FB02000B00300039000BF0A2FDAA
:101F10000BF0C0FE49466060281C0CF07AFA51466E
:101F2000061C40460CF075FA011C301C0CF057FAE8
:101F30000499061C03980CF06CFA011C301C0CF080
:101F400051FA0CF0FFFA0022394B0BF0AAFD009A6F
:101F5000019B0BF0A6FD060058460F000CF0F2FAAC
:101F600002000B00300039000BF074FD0BF092FE04
:101F70004946A06040460CF04CFA5146061C281C0D
:101F80000CF047FA011C301C0CF02CFA5946051CC9
:101F900003980CF03EFA011C281C0CF020FA0CF0FF
:101FA000D1FA0022224B0BF07CFD009A019B0BF032
:101FB00078FD060004980F000CF0C4FA02000B0034
:101FC000300039000BF046FD0BF064FE089B0999C8
:101FD000E060181C98460CF01CFA079D291C0CF0B8
:101FE00018FA011C40460CF0FAF9059F0A99206185
:101FF000381C0CF00EFA291C0CF00BFA011C381CD2
:102000000CF0EDF9069E0B996061301C0CF001FAA2
:10201000291C0CF0FEF9011C301C0CF0E0F9A06149
:1020200000200DB0F0BCBB46B246A946A046F0BDAC
:102030000000E03FF0B5DE4657464E4645468A462C
:102040004168E0B58846C768816891B006688946EE
:102050004046391C141C04930CF0DBF94946051C5E
:10206000301C0CF0D6F90A90011C281C09950CF0C4
:10207000B6F90CF067FA02000B000BF0EBFC0690CF
:102080000791201C02940CF05DFA0B000200040082
:102090000D00069807990BF004FD0BF0FBFD52466E
:1020A000391C106048460CF0B4F983464146301C98
:1020B0000CF0AFF95A460E90011C58460B920CF0EA
:1020C00091F90CF03FFA02000B000BF0C3FC020088
:1020D0000B00200029000C920D930BF0E2FC0BF09A
:1020E000D9FD5446311C6060301C0CF092F9414619
:1020F000041C40460CF08DF9051C011C201C0CF042
:102100006EF94946089048460CF083F9391C83461D
:10211000381C0CF07EF95946019008980CF05FF9D4
:1021200001990CF05FF902990F900CF072F9534687
:102130004946986040460CF06CF9391C8046301CCA
:102140000CF067F981461A980CF0FCF906001B9810
:102150000F000CF0F7F902900391291C201C0CF0E1
:1021600041F959460CF03BF901990CF038F9049902
:102170000CF04FF90CF0E6F904000D00404649461A
:102180000CF030F90CF0DEF902000B000BF062FCF1
:1021900032003B000BF085FC02000B002000290000
:1021A0000BF058FC029A039B04000D000698079957
:1021B0000BF077FC02000B00200029000BF04AFC1A
:1021C0000BF068FD5346D86004980CF0BBF904008E
:1021D0000D00404649460CF002F90CF0B3F902003C
:1021E0000B000BF037FC22002B00049405950BF03C
:1021F00058FC04000D00089859460CF0F3F80199BA
:102200000CF0EDF81A990CF004F90CF09BF90200AF
:102210000B00200029000BF01DFC029A039B040018
:102220000D000C980D990BF03CFC02000B002000F7
:1022300029000BF00FFC0BF02DFD53460A99186195
:1022400009980CF0CFF80CF07DF902000B000BF0B0
:1022500001FC049A059B0BF024FC04000D000B9874
:102260000E990CF0BCF80CF06DF902000B000BF0AD
:10227000F1FB32003B000BF014FC02000B002000CD
:1022800029000BF0E7FB04000D000F981B990CF0E0
:10229000C0F80CF057F902000B00200029000BF0E9
:1022A000D9FB0BF0F7FC53465861002011B0F0BC8D
:1022B000BB46B246A946A046F0BDC046F0B50400F4
:1022C000DE4657464E4645460800E0B54568096873
:1022D000AA46856895B0AB46C5684669876910917E
:1022E0000E950169556810689268049690461A68C0
:1022F000069711925A689B6812921393FE239B05CE
:10230000236099460CF06BF80CF01CF900900191D9
:102310001E980CF017F906000F0000980199002292
:10232000924B0BF0BEFB32003B000BF0BAFB0BF004
:10233000B1FC04990390E061281C0CF050F80CF0FB
:1023400001F90022894B049005910BF0AAFB3200A1
:102350003B000BF0A6FB0BF09DFC0699051CA0634F
:1023600040460CF03CF80CF0EDF800227F4B069054
:1023700007910BF096FB32003B000BF092FB0BF049
:1023800089FC0A90606550460CF0DCF80022784B1E
:10239000089009910BF085FB32003B000BF081FBAC
:1023A0000BF078FC0B90206758460CF0CBF800221D
:1023B0006F4B0C900D910BF074FB32003B000BF057
:1023C00070FB0BF067FC8C238246E0500E980CF0FB
:1023D000B9F80022664B0E900F910BF062FB3200B1
:1023E0003B000BF05EFB0BF055FCA8238346E0504E
:1023F0000022009801995E4B0BF053FB32003B002A
:102400000BF04FFB0BF046FC4946009060602162E8
:10241000002206980799564B0BF043FB32003B0015
:102420000BF03FFB0BF036FCA5658046E06310988F
:102430000CF088F800224D4B0BF033FB32003B00D0
:102440000BF02FFB0BF026FC59469023051C606710
:102450000022E1500C980D99444B0BF022FB320006
:102460003B000BF01EFB0BF015FCAC230022E050F0
:10247000049805993E4B0BF014FB32003B000BF027
:1024800010FB0BF007FC49460A9A83466262009AE9
:10249000A0602164E2650E980F990022334B0BF087
:1024A00000FB32003B000BF0FCFA0BF0F3FB942333
:1024B0000B99A067E5501C33E1504146E160594655
:1024C000A162494621665146039BE167636408980F
:1024D00009990022254B0BF0E4FA32003B000BF087
:1024E000E0FA0BF0D7FB9823E0501C33E5500025B1
:1024F0001E9911982561E562A56465660BF089FF58
:10250000011C48460BF06BFF8023E0501C33E55064
:102510001C33E550343B1E99129865612563E564D0
:10252000A566E5500BF075FF011C48460BF057FF00
:10253000A023E0501C33E550343BA561656325655D
:10254000E566E5501C33E5501E9913980BF061FFCA
:10255000011C48460BF043FFC023E050002015B09B
:10256000F0BCBB46B246A946A046F0BD0000E0BFA5
:102570000000E03FF0B5DE4657464E464546E0B522
:102580009A460B68141C8A689B464B68C9688BB0D6
:102590000500101C8846009301920BF0D3FF0290B7
:1025A0000391201C0BF0CEFFC02306000F00029801
:1025B000039900221B060BF074FA32003B000BF06B
:1025C00070FA0BF067FB0890286040460BF0BAFFEA
:1025D00002000B000BF03EFA32003B000BF061FAF8
:1025E0000BF058FB041CA86158460BF0ABFFC0234E
:1025F00000221B06049005910BF053FA32003B00B9
:102600000BF04FFA0BF046FB286300980BF09AFF93
:1026100002000B00069007910BF01CFA32003B0001
:102620000BF03FFA0BF036FB002190238946A8649B
:102630002966A967E95068600498059902000B00B3
:102640000BF008FA32003B000BF02BFA0BF022FBE8
:102650006C630490E8610298039902000B000BF090
:10266000F9F932003B000BF01CFA0BF013FB494662
:102670009423E8646966E967E950C02306980799DE
:10268000049A1B06AA6000220BF00BFA32003B00F2
:102690000BF007FA0BF0FEFA089B4946AB63802368
:1026A00028622C65A966E9501833E9504046149910
:1026B0000BF0AFFE019F1599061C381C0BF0A9FE0C
:1026C0005146041C58460BF0A4FE311C0BF08AFE48
:1026D000211C06940BF083FE011C0BF083FE514677
:1026E0000990E86000980BF094FE1499041C381CC3
:1026F0000BF08FFE011C201C0BF074FE1599041CBE
:1027000040460BF086FE011C201C0BF06BFE011CEA
:102710000BF068FE14990290686200980BF079FE45
:102720001599089058460BF074FE019A802494463F
:1027300024066444071C514620000BF06AFE0899E9
:102740000BF050FE391C0BF04AFE011C0BF04AFE48
:102750001499E86358460BF05CFE159904900098B4
:102760000BF057FE802212064244041C5146100012
:102770000BF04FFE04990BF035FE211C0BF032FEDE
:10278000011C0BF02FFE4A468423EA666865EA5076
:102790001833EA505146286101980BF03AFE089927
:1027A0000BF01DFE391C0BF01DFE011C0BF01AFE78
:1027B000071CA8628020029B00062B6451465844E7
:1027C0000BF027FE311C0BF00AFE06990BF00AFEF7
:1027D000011C0BF007FE8823A86548462867E850CF
:1027E0001833E850514640466F610BF012FE0499D1
:1027F0000BF0F5FD211C0BF0F2FD011C0BF0F2FDBE
:10280000099AE8626A64029B4A46EB654B466B672D
:102810008C230020EA501833EA500BB0F0BCBB46C2
:10282000B246A946A046F0BD0123F0B5E3214746D4
:10283000CE469C46294B804605009946284E80B5D9
:102840008900076846444144FA0F6F68D2077B004D
:102850005B08346813435A08624064461C4201D046
:102860004B465A4004C50436A942EDD1E323424603
:102870009B00C626D458194B01259C46F6004644B9
:10288000E20F4C68D20763005B08076813435A08DD
:102890007A401D4201D063465A40043004C1B04220
:1028A000EED14246C62140460E4BC900D3581268AD
:1028B000DB0F52005208DB07415813435A084A40C5
:1028C000DB0701D5054B5A404146064BCA50002252
:1028D0000433CA50C0BCB946B046F0BDDFB0089959
:1028E00034060000BC090000F0B54546DE465746F8
:1028F0004E46E0B53B4CD723A54434AA94466344E6
:102900001B091B018A6805930B68019237921A68AC
:10291000049006929A69339107921A6B38AC089228
:102920009A6C09921A6E0B929A6F0C9290229A5896
:102930000D925A680E92DA690F925A6B1092DA6C05
:1029400011925A6E1292DA6F139294229A5814923C
:102950009A6815921A6A16929A6B17921A6D1892C3
:102960009A6E199280229A581A9298229A581B921B
:10297000DA681C925A6A1D92DA6B1E925A6D1F9287
:10298000DA6E209284229A5821929C229A5822929E
:102990001A6923929A6A24921A6C25929A6D269249
:1029A0001A6F279288229A582892A0229A58299220
:1029B0005A692A92DA6A2B925A6C2C92DA6D2D920D
:1029C0005A6F2E928C229A582F92A4229B583093A1
:1029D0004B68984638AB3293C423454643440A9328
:1029E00002E0C0469CFDFFFFEA68A96991462A699A
:1029F000AB6890466A69099803914946019302922F
:102A00000BF007FD414682460B980BF002FD011CBE
:102A100050460BF0E7FC029982460C980BF0F9FC4B
:102A2000039983460D980BF0F4FC011C58460BF0FB
:102A3000D9FC011C50460BF0D5FC6F688246391C4E
:102A400007980BF0E6FC0199834608980BF0E1FC2F
:102A5000011C58460BF0C6FC2E688346311C0698B4
:102A60000BF0D7FC011C58460BF0BCFC011C504677
:102A70000BF0B8FC4946206011980BF0CAFC4146A7
:102A8000824612980BF0C5FC011C50460BF0AAFCC4
:102A90000299824613980BF0BCFC03998346149864
:102AA0000BF0B7FC011C58460BF09CFC011C504677
:102AB0000BF098FC391C82460F980BF0AAFC019988
:102AC000834610980BF0A5FC011C58460BF08AFCBD
:102AD000311C83460E980BF09CFC011C58460BF0F1
:102AE00081FC011C50460BF07DFC49466060189843
:102AF0000BF08FFC4146824619980BF08AFC011CB2
:102B000050460BF06FFC029982461A980BF081FC3C
:102B1000039983461B980BF07CFC011C58460BF074
:102B200061FC011C50460BF05DFC391C8246169876
:102B30000BF06FFC0199834617980BF06AFC011C9F
:102B400058460BF04FFC311C834615980BF061FC86
:102B5000011C58460BF046FC011C50460BF042FC91
:102B60004946A0601F980BF054FC414682462098CD
:102B70000BF04FFC011C50460BF034FC02998246CE
:102B800021980BF046FC0399834622980BF041FCF8
:102B9000011C58460BF026FC011C50460BF022FC91
:102BA000391C82461D980BF034FC019983461E980F
:102BB0000BF02FFC011C58460BF014FC311C834613
:102BC0001C980BF026FC011C58460BF00BFC011C5A
:102BD00050460BF007FC4946E06026980BF019FCC4
:102BE0004146824627980BF014FC011C50460BF01E
:102BF000F9FB0299824628980BF00BFC0399834657
:102C000029980BF006FC011C58460BF0EBFB011C4D
:102C100050460BF0E7FB391C824624980BF0F9FB79
:102C20000199834625980BF0F4FB011C58460BF0E4
:102C3000D9FB311C834623980BF0EBFB011C584653
:102C40000BF0D0FB011C50460BF0CCFB2D99206102
:102C500048460BF0DEFB2E99814640460BF0D9FB2F
:102C6000011C48460BF0BEFB2F99804602980BF0E2
:102C7000D0FB3099814603980BF0CBFB011C4846F2
:102C80000BF0B0FB011C40460BF0ACFB391C80463E
:102C90002B980BF0BEFB2C99071C01980BF0B9FB8D
:102CA000011C381C0BF09EFB311C071C2A980BF0F2
:102CB000B0FB011C381C0BF095FB011C40460BF0CF
:102CC00091FB0A9B1C3560611834AB4200D08BE647
:102CD000379B1A68629308929A6909921A6B0A9252
:102CE0009A6C0B921A6E0C929A6F0D9290229A58CF
:102CF0000E925A680F92DA6910925A6B1192DA6C3E
:102D000012925A6E1392DA6F149294229A58159274
:102D10009A6816921A6A17929A6B18921A6D1992FB
:102D20009A6E1A9280229A581B9298229A581C9254
:102D3000DA681D925A6A1E92DA6B1F925A6D2092BF
:102D4000DA6E219284229A5822929C229A582392D7
:102D50001A6924929A6A25921A6C26929A6D059C99
:102D600027921A6F2034289288229A58A1462992D5
:102D7000A0229A582A925A692B92DA6A2C925A6C9B
:102D80002D92DA6D2E925A6F2F928C229A58309291
:102D9000A4229B5831935CAB06933EAB0793329BC6
:102DA000984643464246414640461B689569019312
:102DB000069B146B096E926C40CB876F0291101CBE
:102DC0000B99039206930BF024FB0C998246029810
:102DD0000BF01FFB011C50460BF004FB0D998246C3
:102DE000381C0BF016FB0E998346301C0BF011FBC0
:102DF000011C58460BF0F6FA011C50460BF0F2FA93
:102E000009998246281C0BF004FB0A998346201C72
:102E10000BF0FFFA011C58460BF0E4FA08998346C0
:102E200001980BF0F6FA011C58460BF0DBFA011C76
:102E300050460BF0D7FA4B461299186003980BF0E6
:102E4000E8FA1399824602980BF0E3FA011C504607
:102E50000BF0C8FA14998246381C0BF0DAFA15996F
:102E60008346301C0BF0D5FA011C58460BF0BAFA19
:102E7000011C50460BF0B6FA10998246281C0BF044
:102E8000C8FA11998346201C0BF0C3FA011C58465E
:102E90000BF0A8FA0F99834601980BF0BAFA011CBF
:102EA00058460BF09FFA011C50460BF09BFA4B461C
:102EB0001999586003980BF0ACFA1A998246029857
:102EC0000BF0A7FA011C50460BF08CFA1B998246B6
:102ED000381C0BF09EFA1C998346301C0BF099FAB3
:102EE000011C58460BF07EFA011C50460BF07AFA92
:102EF00017998246281C0BF08CFA18998346201CDF
:102F00000BF087FA011C58460BF06CFA16998346B1
:102F100001980BF07EFA011C58460BF063FA011C75
:102F200050460BF05FFA4B462099986003980BF0DF
:102F300070FA2199824602980BF06BFA011C5046F8
:102F40000BF050FA22998246381C0BF062FA239952
:102F50008346301C0BF05DFA011C58460BF042FA18
:102F6000011C50460BF03EFA1E998246281C0BF0BD
:102F700050FA1F998346201C0BF04BFA011C58464F
:102F80000BF030FA1D99834601980BF042FA011CB0
:102F900058460BF027FA011C50460BF023FA4B461B
:102FA0002799D86003980BF034FA28998246029842
:102FB0000BF02FFA011C50460BF014FA29998246A7
:102FC000381C0BF026FA2A998346301C0BF021FAA4
:102FD000011C58460BF006FA011C50460BF002FA91
:102FE00025998246281C0BF014FA26998346201C4A
:102FF0000BF00FFA011C58460BF0F4F924998346A4
:1030000001980BF006FA011C58460BF0EBF9011C75
:1030100050460BF0E7F94B462E99186103980BF0D8
:10302000F8F92F99824602980BF0F3F9011C5046EB
:103030000BF0D8F930998246381C0BF0EAF9319937
:10304000071C301C0BF0E5F9011C381C0BF0CAF909
:10305000011C50460BF0C6F92C99061C281C0BF0DD
:10306000D8F92D99051C201C0BF0D3F9011C281C44
:103070000BF0B8F92B99041C01980BF0CAF9011C4C
:10308000201C0BF0AFF9011C301C0BF0ABF94B46C8
:10309000586104239C461433E0449C46079BE1445A
:1030A000984500D07DE6339B059DDC68296A206841
:1030B0000BF098F9049EA96B306060680BF092F9F0
:1030C0007060A068296D0BF08DF9B060E068A96EA2
:1030D0000BF088F98023F0602069E95898460BF0DE
:1030E00081F998233061E95860690BF07BF97061D0
:1030F000A069696A0BF076F9B061E069E96B0BF0E1
:1031000071F9F061206A696D0BF06CF93062E96E5B
:10311000606A0BF067F984277062A06AE9590BF0C6
:1031200061F99C23B062E958E06A0BF05BF9F06248
:10313000206BA96A0BF056F93063606B296C0BF0B9
:1031400051F97063A06BA96D0BF04CF9B063E06BA3
:10315000296F0BF047F9F0638826206CA9590BF012
:1031600041F9049B1864A023606CE9580BF03AF90C
:10317000049BE96A5864A06C0BF034F9049B696CF9
:103180009864E06C0BF02EF9049BE96DD864206D17
:103190000BF028F9049B696F1865606D0BF022F93C
:1031A0008C25049A059B5065A06D59590BF01AF9AE
:1031B000A423049A9065059AE06DD1580BF012F99A
:1031C000049B059AD865116B206E0BF00BF9049BDC
:1031D000059A1866916C606E0BF004F9049B059AD1
:1031E0005866A06E116E0BF0FDF8049B059A986668
:1031F000E06E916F0BF0F6F8049B059AD866902369
:10320000206FD1580BF0EEF8049B059A1867A8239D
:10321000606FD1580BF0E6F8049B059A5867A16FD0
:10322000506B0BF0DFF8049B059A9867E16FD06C48
:103230000BF0D8F84146049B059AD8676158506E48
:103240000BF0D0F84146049B059A5850E159D06FD5
:103250000BF0C8F8049BD8519423059FA159F85846
:103260000BF0C0F8049B9851AC236159F8580BF04F
:10327000B9F8049B585199239B009D44F0BCBB4670
:10328000B246A946A046F0BDF0B5DE4657464E46CA
:1032900045460400E0B5036987B0580063694008FB
:1032A000590049080BF09EF8E368590049080BF0F3
:1032B00099F86368051C5800A3684008590049083C
:1032C0000BF090F82368590049080BF08BF8011CAB
:1032D000281C0BF087F8A36A051C5800E36A400815
:1032E000590049080BF07EF8636A590049080BF051
:1032F00079F8E369061C5800236A40085900490818
:103300000BF070F8A369590049080BF06BF8011C29
:10331000301C0BF067F8236C071C5800636C4008E6
:10332000590049080BF05EF8E36B590049080BF0AF
:1033300059F8636B061C5800A36B400859004908F4
:103340000BF050F8236B590049080BF04BF8011CA7
:10335000301C0BF047F8061C011C381C0BF090F8D1
:10336000002800D13E1C311C281C0BF089F80028D5
:1033700000D12E1CA36D5800E36D40085900490888
:103380000BF030F8636D590049080BF02BF8E36C33
:10339000051C5800236D4008590049080BF022F81D
:1033A000A36C590049080BF01DF8011C281C0BF0F8
:1033B00019F8236F071C5800636F4008590049082B
:1033C0000BF010F8E36E590049080BF00BF8636E30
:1033D000051C5800A36E4008590049080BF002F87C
:1033E000236E590049080AF0FDFF011C281C0AF051
:1033F000F9FF88238046E0580433E1584000490033
:10340000490840080AF0EEFF8423E15849004908C2
:103410000AF0E8FFE36F051C58008023E1584008DC
:10342000490049080AF0DEFFA36F590049080AF075
:10343000D9FF011C281C0AF0D5FF051C011C4046C1
:103440000BF01EF8002800D14546291C381C0BF053
:1034500017F8002800D13D1C291C301C0BF010F877
:10346000002800D1351CC0232100E55001AABA3B39
:1034700002A8A83104930294FDF7AEF90121C422F9
:10348000019B98260B405B428B430133A354343A93
:103490009246002250469C2722509432A1509346D7
:1034A000923AA2510132E2519D32944660469C3AD2
:1034B0002250A03291469F3A90464A464046230009
:1034C000A05048461832A258903392009A181568B6
:1034D0002550404610606046B8222058A2588046C9
:1034E000604692009A181568255040461060B42234
:1034F000E059A258844692009A1810685D46E0513F
:1035000060461060B022A258A75992009A1810681D
:10351000A0511760AC225846A258265892009A181B
:10352000106860511660A822A258554692009B1858
:1035300052461868A25860511A60C523E15407B07A
:10354000F0BCBB46B246A946A046F0BDC02300224F
:1035500010B5C25000220433C2520B68040003604D
:103560004B6843608B688360CB68C3600B69036101
:103570004B6943618B698361CB69C3610B6A0362E9
:103580004B6A43628B6A8362CB6AC3620B6B0363D1
:103590004B6B43638B6B8363CB6BC3630B6C0364B9
:1035A0004B6C43648B6C8364CB6CC3640B6D0365A1
:1035B0004B6D43658B6D8365CB6DC3650B6E036689
:1035C0004B6E43668B6E8366CB6EC3660B6F036771
:1035D0004B6F43678B6F8367CB6FC3678023CA587A
:1035E000C2500433CA58C2500433CA58C2500433BC
:1035F000CA58C250FFF748FE200010BDF0B5DE46A5
:103600004E4645465746E0B5214C9146A5443AAA58
:1036100094460A0031931F4B3B9063441B091B01E6
:103620003A919846D3AB13CA13C313CA13C3126893
:10363000D3A91A60184B194A1B6847A80493184B62
:1036400047AC1B680193174B1B6805930093049BC1
:10365000FEF790FF47ABD3934B46D49347ABD5933C
:103660003AAA8323944686201B0163441B68C0004A
:103670004044A2AAD3A9D6930990FFF735F96BABC2
:10368000089343460A934B463094A1461C000BE036
:1036900014F7FFFF47030000AC1F03200AE81C419A
:1036A000A41F0320A81F03204B464E461B68B76F7C
:1036B0000493089B494640CB48464A460893A823B2
:1036C000896C006E9569126B06910790E158301C69
:1036D00005920AF09EFE8C238246E158381C0AF0BF
:1036E00098FE011C50460AF07DFE216F8246079825
:1036F0000AF08FFE616D834606980AF08AFE011C6F
:1037000058460AF06FFE011C50460AF06BFEA16B92
:10371000824605980AF07DFEE1698346281C0AF07E
:1037200078FE011C58460AF05DFE21688346049825
:103730000AF06FFE011C58460AF054FE011C504668
:103740000AF050FE43461860AC23301CE1580AF0E2
:1037500060FE90238246E158381C0AF05AFE011C94
:1037600050460AF03FFE616F824607980AF051FE0C
:10377000A16D834606980AF04CFE011C58460AF0DB
:1037800031FE011C50460AF02DFEE16B8246059881
:103790000AF03FFE216A8346281C0AF03AFE011C0B
:1037A00058460AF01FFE6168834604980AF031FE0D
:1037B000011C58460AF016FE011C50460AF012FE83
:1037C00043465860B023301CE1580AF022FE94238F
:1037D0008246E158381C0AF01CFE011C50460AF0D3
:1037E00001FEA16F824607980AF013FEE16D834641
:1037F00006980AF00EFE011C58460AF0F3FD011C63
:1038000050460AF0EFFD216C824605980AF001FE51
:10381000616A8346281C0AF0FCFD011C58460AF028
:10382000E1FDA168834604980AF0F3FD011C5846A7
:103830000AF0D8FD011C50460AF0D4FD43469860BA
:10384000B423301CE1580AF0E4FD98238246E15885
:10385000381C0AF0DEFD011C50460AF0C3FDE16F82
:10386000824607980AF0D5FD216E834606980AF035
:10387000D0FD011C58460AF0B5FD011C50460AF067
:10388000B1FD616C824605980AF0C3FDA16A8346CA
:10389000281C0AF0BEFD011C58460AF0A3FDE16891
:1038A000834604980AF0B5FD011C58460AF09AFDBB
:1038B000011C50460AF096FD4346D860B823301CE0
:1038C000E1580AF0A6FD9C238246E158381C0AF014
:1038D000A0FD011C50460AF085FD80238246E15878
:1038E00007980AF096FD616E834606980AF091FDEE
:1038F000011C58460AF076FD011C50460AF072FD84
:10390000A16C824605980AF084FDE16A8346281C72
:103910000AF07FFD011C58460AF064FD21698346C8
:1039200004980AF076FD011C58460AF05BFD011C64
:1039300050460AF057FD43461861BC23301CE1583D
:103940000AF067FDA0238246E158381C0AF061FDA9
:10395000011C50460AF046FD84238246E158079830
:103960000AF057FDA16E834606980AF052FD011C2D
:1039700058460AF037FD011C50460AF033FDE16C51
:10398000824605980AF045FD216B8346281C0AF003
:1039900040FD011C58460AF025FD616983460498E4
:1039A0000AF037FD011C58460AF01CFD011C504668
:1039B0000AF018FD4346E16E586106980AF029FDA9
:1039C00088238246E15807980AF023FD011C5046DF
:1039D0000AF008FDA4238246E158381C0AF019FDBC
:1039E000C023071CE158301C0AF013FD011C381CD1
:1039F0000AF0F8FC011C50460AF0F4FC616B061C4E
:103A0000281C0AF006FD216D051C05980AF001FD31
:103A1000011C281C0AF0E6FCA169051C04980AF0A8
:103A2000F8FC011C281C0AF0DDFC011C301C0AF00B
:103A3000D9FC4346986104239C461833E1449C46D4
:103A40004DABE0444B4500D02EE60A9BA146D8245E
:103A50009846A427A4004444BF0047442000099985
:103A6000FFF774FD210090223800C8240AF060FF9F
:103A7000FC21A400444489004144182220000AF09B
:103A800057FFCE2081218000C900414418224044C4
:103A90000AF04EFF8422D423D200424412689B00D5
:103AA00043441A60D523874A4546424412889B0006
:103AB0004344FE211A8000232268B0359200AA18E0
:103AC0008905116093611363936413669367C92238
:103AD00092004244126844469200AA181360916111
:103AE0001363936413669367CA2292004244126878
:103AF00006269200AA1813609361116393641366FB
:103B00009367CB2292004244126806209200AA18C2
:103B1000136093611363916413669367CC229200E0
:103B2000424412689200AA1813609361136393646D
:103B300011669367CD229200424412689200AA183F
:103B400013609361136393641366A8235B009B4621
:103B5000916742465946E41820334344A660E66024
:103B6000266153508022920042444B396260924653
:103B700004933A0006230294FF3901960095FDF75D
:103B800011FE42465946049BA660E66026615350EA
:103B900053464B3963603A0006230294062001968F
:103BA0000095FF39FDF762FA43461B688C220793A4
:103BB0004346DB69D3AC089343469B6B099343466A
:103BC0005B6D0A9343461B6F0B9343469B5804322D
:103BD0000C9343465B68179343461B6A189343460E
:103BE000DB6B0D9343469B6D0E9343465B6F0F93C8
:103BF00043469B580432109343469B6811934346B7
:103C00005B6A129343461B6C13934346DB6D14931C
:103C100043469B6F159343469B5804321693434685
:103C2000DB68199343469B6A069343465B6C1A9381
:103C300043461B6E1B934346DB6F1C9343469B58C6
:103C4000183A1D9343461B691E934346DB6A1F9334
:103C500043469B6C209343465B6E219343469B589F
:103C60001C32229343469B58183A239343465B6980
:103C7000249343461B6B25934346DB6C26934346B4
:103C80009B6E279343469B581C32289343469B5870
:103C9000183A299343469B692A9343465B6B2B93BF
:103CA00043461B6D2C934346DB6E2D9343469B5836
:103CB0001C322E9343469B58A8462F934B46329373
:103CC00002E0C0462404000043461F685B68424689
:103CD0009946434641469B68D2680E694D690898EB
:103CE0004946049305920AF094FB04998246099888
:103CF0000AF08FFB011C50460AF074FB391C824607
:103D000007980AF086FB011C50460AF06BFB311C39
:103D100082460B980AF07DFB291C83460C980AF01A
:103D200078FB011C58460AF05DFB059983460A980A
:103D30000AF06FFB011C58460AF054FB011C504668
:103D40000AF050FB4946206018980AF062FB04997B
:103D500082460D980AF05DFB011C50460AF042FBBA
:103D6000391C824617980AF054FB011C50460AF091
:103D700039FB311C82460F980AF04BFB291C834605
:103D800010980AF046FB011C58460AF02BFB0599D7
:103D900083460E980AF03DFB011C58460AF022FBB0
:103DA000011C50460AF01EFB4946606012980AF05A
:103DB00030FB0499824613980AF02BFB011C5046F5
:103DC0000AF010FB391C824611980AF022FB011CF4
:103DD00050460AF007FB311C824615980AF019FB81
:103DE000291C834616980AF014FB011C58460AF059
:103DF000F9FA0599834614980AF00BFB011C584602
:103E00000AF0F0FA011C50460AF0ECFA4946A060AC
:103E100006980AF0FEFA049982461A980AF0F9FA0E
:103E2000011C50460AF0DEFA391C824619980AF045
:103E3000F0FA011C50460AF0D5FA311C82461C9853
:103E40000AF0E7FA291C83461D980AF0E2FA011CE1
:103E500058460AF0C7FA059983461B980AF0D9FA22
:103E6000011C58460AF0BEFA011C50460AF0BAFA84
:103E70004946E0601F980AF0CCFA049982462098DF
:103E80000AF0C7FA011C50460AF0ACFA391C824607
:103E90001E980AF0BEFA011C50460AF0A3FA311C23
:103EA000824622980AF0B5FA291C834623980AF024
:103EB000B0FA011C58460AF095FA059983462198F4
:103EC0000AF0A7FA011C58460AF08CFA011C504669
:103ED0000AF088FA4946206125980AF09AFA04996E
:103EE000824626980AF095FA011C50460AF07AFAA2
:103EF000391C824624980AF08CFA011C50460AF0BC
:103F000071FA311C824628980AF083FA291C8346EC
:103F100029980AF07EFA011C58460AF063FA0599BE
:103F2000834627980AF075FA011C58460AF05AFA97
:103F3000011C50460AF056FA494660612B980AF077
:103F400068FA049981462C980AF063FA011C4846E5
:103F50000AF048FA391C81462A980AF05AFA011CDC
:103F600048460AF03FFA311C071C2E980AF051FA15
:103F7000291C061C2F980AF04CFA011C301C0AF070
:103F800031FA0599051C2D980AF043FA011C281CEA
:103F90000AF028FA011C381C0AF024FA18239C465F
:103FA000A061FDAB1C34E044A34200D08CE6329B00
:103FB000D49A9946D39BD599D69CD79DD89ED99F04
:103FC00006930792DA9BDB9A08910994DC99DD9CB1
:103FD0000A950B96DE9DDF9E0C970D93E09FE19B6B
:103FE0000E92E29A0F9110941195129613971493D2
:103FF0001592E399E49CE59DE69EE79FE89BE99A8C
:1040000016911794EA99EB9C18951996EC9DED9EE4
:104010001A971B93EE9FEF9B1C921D91F09AF199BA
:104020001E94F29C2096219722932392249125940A
:104030001F95F39DF49EF59FF79AF69BF899F99CCE
:1040400026952796FA9DFB9E2897FC9F2A923A9ADE
:1040500029932B912C942D952E962F97D3AB32CA62
:1040600032C332CA32C31168D3AC1960FD49FE4B6A
:1040700009681B680191FD49FD4A0968200000910B
:1040800041A9FDF7D7FF319F419938680AF0A7F998
:104090004299834678680AF0A2F943998246B86843
:1040A0000AF09DF94499041CF8680AF098F94599BA
:1040B000051C38690AF093F94699061C78690AF0DC
:1040C0008EF9071C011C2A980AF0A3F9311C8046BE
:1040D00023980AF09EF9011C40460AF083F9291C36
:1040E00080461C980AF095F9011C40460AF07AF9BE
:1040F000211C804615980AF08CF9514604900E98C0
:104100000AF087F9011C04980AF06CF959460490EA
:1041100007980AF07EF9011C04980AF063F9011C63
:1041200040460AF05FF93A9A51680AF05BF9391C87
:1041300004902B980AF06DF9311C804624980AF0FF
:1041400068F9011C40460AF04DF9291C80461D986B
:104150000AF05FF9011C40460AF044F9211C804630
:1041600016980AF056F9514605900F980AF051F941
:10417000011C05980AF036F95946059008980AF08E
:1041800048F9011C05980AF02DF9011C40460AF077
:1041900029F93A9A91680AF025F9391C05902C986A
:1041A0000AF037F9311C804625980AF032F9011CD3
:1041B00040460AF017F9291C80461E980AF029F992
:1041C000011C40460AF00EF9211C804617980AF09F
:1041D00020F95146319010980AF01BF9011C3198D2
:1041E0000AF000F95946319009980AF012F9011CB9
:1041F00031980AF0F7F8011C40460AF0F3F83A9AB1
:10420000D1680AF0EFF8391C31902D980AF001F9C5
:10421000311C804626980AF0FCF8011C40460AF042
:10422000E1F8291C80461F980AF0F3F8011C40466B
:104230000AF0D8F8211C804618980AF0EAF851468E
:10424000329011980AF0E5F8011C32980AF0CAF889
:10425000594632900A980AF0DCF8011C32980AF0AC
:10426000C1F8011C40460AF0BDF83A9A11690AF0FB
:10427000B9F8391C32902E980AF0CBF8311C8046E0
:1042800027980AF0C6F8011C40460AF0ABF8291C32
:10429000804620980AF0BDF8011C40460AF0A2F8BA
:1042A000211C804619980AF0B4F8514633901298B0
:1042B0000AF0AFF8011C33980AF094F8594633908D
:1042C0000B980AF0A6F8011C33980AF08BF8011C31
:1042D00040460AF087F83A9A51690AF083F8514645
:1042E000339013980AF095F8211C80461A980AF02A
:1042F00090F8011C40460AF075F8594680460C9823
:104300000AF087F8011C40460AF06CF8311C804620
:1043100028980AF07EF8391C34902F980AF079F822
:10432000011C34980AF05EF8291C349021980AF098
:1043300070F8011C34980AF055F8011C40460AF048
:1043400051F83A9A91690AF04DF8391C804629983B
:104350000AF05FF8311C071C22980AF05AF8011C79
:10436000381C0AF03FF8291C061C1B980AF051F86B
:10437000011C301C0AF036F8211C051C14980AF0A8
:1043800048F85146041C0D980AF043F8011C201C03
:104390000AF028F85946041C06980AF03AF8011C5D
:1043A000201C0AF01FF8011C281C0AF01BF83A9A7E
:1043B000D3AC11680AF016F83B9B049A18605A6057
:1043C000059A9A60319ADA60329A1A61339A5A6180
:1043D00042469A614B461B684A46A2934B465B682D
:1043E000A3934B469B68A4934B46DB68A5934B462F
:1043F0001B69A6934B465B69A7934B469B69A893A1
:104400004B46DB69A9934B461B6AAA934B465B6AF2
:10441000AB934B469B6AAC934B46DB6AAD934B46E2
:104420001B6BAE934B465B6BAF934B469B6BB09352
:104430004B46DB6BB1934B461B6CB2934B465B6CAC
:10444000B3934B469B6CB4934B46DB6CB5934B4696
:104450001B6DB6934B465B6DB7934B469B6DB89304
:104460004B4607E0A41F0320AC1F0320A81F032016
:104470000AE81C41DB6DB9934B461B6EBA934B4661
:104480005B6EBB934B469B6EBC934B46DB6EBD9302
:104490004B461B6FBE934B465B6FBF934B469B6F68
:1044A000C0934B46DB6FC1938023D358C2938423C0
:1044B000D358C3938823D358C4938C23D358C5931C
:1044C0009023D358C6939423D358C7939823D35893
:1044D000C8939C23D358C993A023D358CA93A42329
:1044E000D358CB93A823D358CC93AC23D358CD9394
:1044F000B023D358CE93B423D358CF93B823D358F3
:10450000D093BC23D358D193C023D358D293309B9C
:104510003092984643461F685B6842469946434638
:1045200041469B68D2680E694D690D9849460493CF
:10453000059209F06EFF04998246149809F069FF0C
:10454000011C504609F04EFF391C8246069809F0BE
:1045500060FF011C504609F045FF311C824622983D
:1045600009F057FF291C8346299809F052FF011CC6
:10457000584609F037FF059983461B9809F049FF13
:10458000011C584609F02EFF011C504609F02AFF75
:10459000494620600E9809F03CFF04998246159820
:1045A00009F037FF011C504609F01CFF391C8246F8
:1045B000079809F02EFF011C504609F013FF311C2B
:1045C0008246239809F025FF291C83462A9809F082
:1045D00020FF011C584609F005FF059983461C98E9
:1045E00009F017FF011C584609F0FCFE011C50465B
:1045F00009F0F8FE494660600F9809F00AFF049937
:104600008246169809F005FF011C504609F0EAFEA3
:10461000391C8246089809F0FCFE011C504609F03E
:10462000E1FE311C8246249809F0F3FE291C8346E2
:104630002B9809F0EEFE011C584609F0D3FE0599AF
:1046400083461D9809F0E5FE011C584609F0CAFE94
:10465000011C504609F0C6FE4946A060109809F0BA
:10466000D8FE04998246179809F0D3FE011C5046E3
:1046700009F0B8FE391C8246099809F0CAFE011CEF
:10468000504609F0AFFE311C8246259809F0C1FE64
:10469000291C83462C9809F0BCFE011C584609F0E1
:1046A000A1FE059983461E9809F0B3FE011C5846E9
:1046B00009F098FE011C504609F094FE4946E0605E
:1046C000119809F0A6FE04998246189809F0A1FEF7
:1046D000011C504609F086FE391C82460A9809F0F2
:1046E00098FE011C504609F07DFE311C824626983A
:1046F00009F08FFE291C83462D9809F08AFE011CC3
:10470000584609F06FFE059983461F9809F081FE0F
:10471000011C584609F066FE011C504609F062FE75
:1047200049462061129809F074FE0499824619984E
:1047300009F06FFE011C504609F054FE391C8246F8
:104740000B9809F066FE011C504609F04BFE311C27
:104750008246279809F05DFE291C83462E9809F0B1
:1047600058FE011C584609F03DFE059983462098E5
:1047700009F04FFE011C584609F034FE011C50465A
:1047800009F030FE49466061139809F042FE049931
:1047900081461A9809F03DFE011C484609F022FEA8
:1047A000391C81460C9809F034FE011C484609F07A
:1047B00019FE311C071C289809F02BFE291C061C29
:1047C0002F9809F026FE011C301C09F00BFE0599FC
:1047D000051C219809F01DFE011C281C09F002FE91
:1047E000011C381C09F0FEFD18239C46FFABA0619C
:1047F00014331C34E044A34200D08BE6309BA2ADBE
:1048000099463C93C4234C46C8464B4408930794AE
:104810004246D26843464146914642469E694C68AC
:10482000096892685F691B690491301CFD990693C1
:10483000059209F0EEFDF6998246381C09F0E9FD73
:10484000011C504609F0CEFDEF998246069809F00A
:10485000E0FDE8998346484609F0DBFD011C584617
:1048600009F0C0FD011C504609F0BCFDE1998246EB
:10487000059809F0CEFDDA998346201C09F0C9FDA0
:10488000011C584609F0AEFDD3998346049809F0FF
:10489000C0FD011C584609F0A5FD011C504609F059
:1048A000A1FD011C286809F09AFD2860FE99301CC2
:1048B00009F0AFFDF7998246381C09F0AAFD011CEA
:1048C000504609F08FFDF0998246069809F0A1FD47
:1048D000E9998346484609F09CFD011C584609F0B9
:1048E00081FD011C504609F07DFDE2998246059844
:1048F00009F08FFDDB998346201C09F08AFD011C1D
:10490000584609F06FFDD4998346049809F081FD5B
:10491000011C584609F066FD011C504609F062FD75
:10492000011C686809F05BFDFF996860301C09F0A4
:1049300070FDF8998246381C09F06BFD011C504649
:1049400009F050FDF1998246069809F062FDEA9956
:104950008346484609F05DFD011C584609F042FDBA
:10496000011C504609F03EFDE3998246059809F086
:1049700050FDDC998346201C09F04BFD011C584674
:1049800009F030FDD5998346049809F042FD011CD9
:10499000584609F027FD011C504609F023FD011C73
:1049A000A86809F01CFDFFAB5968A860301C0433EF
:1049B00009F02FFDF9998246381C09F02AFD011CE7
:1049C000504609F00FFDF2998246069809F021FD44
:1049D000EB998346484609F01CFD011C584609F036
:1049E00001FD011C504609F0FDFCE4998246059842
:1049F00009F00FFDDD998346201C09F00AFD011C1A
:104A0000584609F0EFFCD6998346049809F001FD59
:104A1000011C584609F0E6FC011C504609F0E2FC76
:104A2000011CE86809F0DBFCFFAB9968E860301C0A
:104A3000083309F0EEFCFA998246381C09F0E9FCCB
:104A4000011C504609F0CEFCF3998246069809F005
:104A5000E0FCEC998346484609F0DBFC011C584613
:104A600009F0C0FC011C504609F0BCFCE5998246E7
:104A7000059809F0CEFCDE998346201C09F0C9FC9C
:104A8000011C584609F0AEFCD7998346049809F0FA
:104A9000C0FC011C584609F0A5FC011C504609F059
:104AA000A1FC011C286909F09AFCFFABD9682861B8
:104AB000301C0C3309F0ADFCFB998246381C09F020
:104AC000A8FC011C504609F08DFCF499824606981A
:104AD00009F09FFCED998346484609F09AFC011CB9
:104AE000584609F07FFC011C504609F07BFCE69912
:104AF0008246059809F08DFCDF998346201C09F059
:104B000088FC011C584609F06DFCD899834604982E
:104B100009F07FFC011C584609F064FC011C50465A
:104B200009F060FC011C686909F059FCEE996861A4
:104B3000484609F06EFCF5998146069809F069FC33
:104B4000011C484609F04EFCFC998146381C09F0CE
:104B500060FCFFAB1969071C301C103309F059FCCD
:104B6000011C381C09F03EFC011C484609F03AFCC7
:104B7000E099061C201C09F04CFCE799041C0598E0
:104B800009F047FC011C201C09F02CFCD999041CDD
:104B9000049809F03EFC011C201C09F023FC011CB8
:104BA000301C09F01FFC011CA86909F018FC1C232B
:104BB0009C46089BE044A8611C35984500D027E638
:104BC000079BA29A99461A60A39A5A60A49A9A607F
:104BD000A59ADA60A69A1A61A79A5A61A89A9A6168
:104BE000A99ADA61AA9A1A62AB9A5A62AC9A9A6244
:104BF000AD9ADA62AE9A1A63AF9A5A63B09A9A6320
:104C0000B19ADA63B29A1A64B39A5A64B49A9A64FB
:104C1000B59ADA64B69A1A65B79A5A65B89A9A65D7
:104C2000B99ADA65BA9A1A66BB9A5A66BC9A9A66B3
:104C3000BD9ADA66BE9A1A67BF9A5A67C09A9A678F
:104C4000C19ADA674A468023C299D150C399043386
:104C5000D150C4990433D150C5990433D150C69969
:104C60000433D150C7990433D150C8990433D1507B
:104C7000C9990433D150CA990433D150CB99043324
:104C8000D150CC990433D150CD990433D150CE9921
:104C90000433D150CF990433D150D0990433D1503B
:104CA000D1990433D150D2990433D1503AAA9446C1
:104CB0004F4BA2AA63441B6813CB13C24D4BD3AC1A
:104CC00063441B6807CB07C43A9B3B9D00934A4B48
:104CD00028006344A2A91B68D3AAFDF789F82B001A
:104CE000D3AA23CB23C213CB13C23AA91B688C4689
:104CF00013603EAA11003E4B63441B6831CB31C1A7
:104D00003C4BA2A963441B6831CB31C13A4BD3A9B8
:104D100063441B6871A80093A2ABFDF7CFFAD3AB35
:104D200007931C00719B0993789B10937F9B1793AB
:104D3000869B1E938D9B2593949B2C939B9B3393D7
:104D4000729B0A93799B1193809B1893879B1F9367
:104D50008E9B2693959B2D939C9B3493739B0B93D7
:104D60007A9B1293819B1993889B20938F9B279307
:104D7000969B2E939D9B3593749B0C937B9B1393D7
:104D8000829B1A93899B2193909B2893979B2F93A7
:104D90009E9B3693759B0D937C9B1493839B1B93D7
:104DA0008A9B2293919B2993989B30939F9B379347
:104DB000769B0E937D9B1593849B1C938B9B2393D7
:104DC000929B2A93999B3193A09B3893779B0F9347
:104DD0007E9B1693859B1D938C9B2493939B2B9377
:104DE0009A9B3293A19B3C9D39934B463C9305E0A3
:104DF00028080000380800003C080000E868AE6998
:104E00008146A96828692B686A6880460691301C2B
:104E100033990493059209F0FCFA6F6982462C9944
:104E2000381C09F0F6FA011C504609F0DBFA259906
:104E30008246404609F0EDFA1E998346484609F03D
:104E4000E8FA011C584609F0CDFA011C504609F059
:104E5000C9FA17998246069809F0DBFA1099834639
:104E6000059809F0D6FA011C584609F0BBFA0999D1
:104E70008346049809F0CDFA011C584609F0B2FAAD
:104E8000011C504609F0AEFA34992060301C09F03C
:104E9000C0FA2D998246381C09F0BBFA011C504615
:104EA00009F0A0FA26998246404609F0B2FA1F9905
:104EB0008346484609F0ADFA011C584609F092FABB
:104EC000011C504609F08EFA18998246069809F09E
:104ED000A0FA11998346059809F09BFA011C5846DF
:104EE00009F080FA0A998346049809F092FA011CA5
:104EF000584609F077FA011C504609F073FA3599C3
:104F00006060301C09F085FA2E998246381C09F041
:104F100080FA011C504609F065FA279982464046FE
:104F200009F077FA20998346484609F072FA011C85
:104F3000584609F057FA011C504609F053FA1999DE
:104F40008246069809F065FA12998346059809F099
:104F500060FA011C584609F045FA0B9983460498FB
:104F600009F057FA011C584609F03CFA011C50465A
:104F700009F038FA3699A060301C09F04AFA2F99E6
:104F80008246381C09F045FA011C504609F02AFAFD
:104F900028998246404609F03CFA219983464846C2
:104FA00009F037FA011C584609F01CFA011C50465A
:104FB00009F018FA1A998246069809F02AFA139904
:104FC0008346059809F025FA011C584609F00AFAAB
:104FD0000C998346049809F01CFA011C584609F004
:104FE00001FA011C504609F0FDF93799E060301CC8
:104FF00009F00FFA30998246381C09F00AFA011CB0
:10500000504609F0EFF929998246404609F001FA25
:1050100022998346484609F0FCF9011C584609F0DC
:10502000E1F9011C504609F0DDF91B99824606980A
:1050300009F0EFF914998346059809F0EAF9011C83
:10504000584609F0CFF90D998346049809F0E1F923
:10505000011C584609F0C6F9011C504609F0C2F976
:1050600038992061301C09F0D4F931998246381CF6
:1050700009F0CFF9011C504609F0B4F92A9982468B
:10508000404609F0C6F923998346484609F0C1F91C
:10509000011C584609F0A6F9011C504609F0A2F976
:1050A0001C998246069809F0B4F91599834605982B
:1050B00009F0AFF9011C584609F094F90E9983469E
:1050C000049809F0A6F9011C584609F08BF9011C57
:1050D000504609F087F949466061249809F099F92A
:1050E000414681462B9809F094F9011C484609F085
:1050F00079F9391C8046329809F08BF9311C071C6C
:10510000399809F086F9011C381C09F06BF9011C6B
:10511000404609F067F90599061C169809F079F9D7
:105120000699071C1D9809F074F9011C381C09F038
:1051300059F90499071C0F9809F06BF9011C381CE8
:1051400009F050F9011C301C09F04CF9089B1C3582
:10515000A0611C349D4200D050E63C9BA2AC994615
:10516000F6AB0693DAAB08934B463C943D93079B12
:10517000586D1A688146996B186F0492069A80469A
:10518000059148461E99DD691768D66909F041F90D
:1051900025998246404609F03CF9011C504609F029
:1051A00021F92C998246381C09F033F9339983464A
:1051B000301C09F02EF9011C584609F013F9011CA6
:1051C000504609F00FF910998246281C09F021F980
:1051D00017998346059809F01CF9011C584609F0F7
:1051E00001F909998346049809F013F9011C5846FE
:1051F00009F0F8F8011C504609F0F4F820601F99F6
:10520000484609F006F926998246404609F001F918
:10521000011C504609F0E6F82D998246381C09F029
:10522000F8F834998346301C09F0F3F8011C58460D
:1052300009F0D8F8011C504609F0D4F811998246BB
:10524000281C09F0E6F818998346059809F0E1F85A
:10525000011C584609F0C6F80A998346049809F0DB
:10526000D8F8011C584609F0BDF8011C504609F059
:10527000B9F820996060484609F0CBF82799824632
:10528000404609F0C6F8011C504609F0ABF82E99CB
:105290008246381C09F0BDF835998346301C09F068
:1052A000B8F8011C584609F09DF8011C504609F059
:1052B00099F812998246281C09F0ABF8199983468F
:1052C000059809F0A6F8011C584609F08BF80B99CF
:1052D0008346049809F09DF8011C584609F082F8AD
:1052E000011C504609F07EF82199A060484609F05B
:1052F00090F828998246404609F08BF8011C5046E8
:1053000009F070F82F998246381C09F082F8369916
:105310008346301C09F07DF8011C584609F062F8FC
:10532000011C504609F05EF813998246281C09F0CA
:1053300070F81A998346059809F06BF8011C5846D5
:1053400009F050F80C998346049809F062F8011CA2
:10535000584609F047F8011C504609F043F82299D5
:10536000E060484609F055F829998246404609F020
:1053700050F8011C504609F035F830998246381C27
:1053800009F047F837998346301C09F042F8011CB0
:10539000584609F027F8011C504609F023F81499E3
:1053A0008246281C09F035F81B998346059809F0B8
:1053B00030F8011C584609F015F80D9983460498F9
:1053C00009F027F8011C584609F00CF8011C50465A
:1053D00009F008F823992061484609F01AF82A993B
:1053E0008246404609F015F8011C504608F0FAFFC5
:1053F00031998246381C09F00CF838998346301CE4
:1054000009F007F8011C584608F0ECFF011C504653
:1054100008F0E8FF15998246281C08F0FAFF1C994D
:105420008346059808F0F5FF011C584608F0DAFF9E
:105430000E998346049808F0ECFF011C584608F0CA
:10544000D1FF011C504608F0CDFF49466061249809
:1054500008F0DFFF414681462B9808F0DAFF011C77
:10546000484608F0BFFF391C8046329808F0D1FF4B
:10547000311C071C399808F0CCFF011C381C08F0BF
:10548000B1FF011C404608F0ADFF291C061C169810
:1054900008F0BFFF0599051C1D9808F0BAFF011C14
:1054A000281C08F09FFF0499051C0F9808F0B1FF15
:1054B000011C281C08F096FF011C301C08F092FF0C
:1054C000069A079B04320692089A0433A061079358
:1054D0001C34934200D04AE63AAA94463D9B764A51
:1054E0009946754B624463441B6812681B68D3ACD1
:1054F0000793714B63441B68DB6908936E4B6344ED
:105500001B689B6B09936C4B63441B685B6D0A9330
:10551000694B63441B681B6F0B938C23D358664AFB
:105520000C93654B624463441B685B680D93624B4C
:1055300063441B681B6A0E935F4B63441B68DB6B01
:105540000F935D4B63441B689B6D10935A4B6344F0
:105550001B685B6F126811939023D358564A1293BD
:10556000554B624463441B6812689B681393524B0B
:1055700063441B685B6A14934F4B63441B681B6C4A
:1055800015934D4B63441B68DB6D16934A4B634484
:105590001B689B6F17939423D358474A1893464B25
:1055A000624463441B68DB681993434B63441B6884
:1055B0009B6A1A93404B63441B685B6C1B933E4B86
:1055C00063441B6812681B6E1C933B4B63441B684F
:1055D000DB6F1D939823D358374A1E93364B624492
:1055E00063441B6812681B691F93334B63441B6839
:1055F000DB6A2093304B63441B689B6C21932E4BDA
:1056000063441B685B6E22938023D3582A4A2393FA
:105610009C2362441268D358274A2493264B624441
:1056200063441B685B692593234B63441B681B6BB6
:105630002693214B126863441B68DB6C27931E4B37
:1056400063441B689B6E28938423D3581A4A29937A
:10565000A02362441268D358174A2A93164B624417
:1056600063441B6812689B692B93134B63441B684C
:105670005B6B2C93104B63441B681B6D2D930E4B7F
:1056800063441B68DB6E2E938823D3580A4A2F93FA
:10569000A42362441268D35822003093074B63441A
:1056A0001B689846D3AB06939023434431934B46F3
:1056B00044469046329303E0340800002C08000072
:1056C0006368E2689946A36808994846049305927E
:1056D00008F09FFE09998246049808F09AFE011C82
:1056E000504608F07FFE276882460799381C08F06C
:1056F00090FE011C504608F075FE266982460B9903
:10570000301C08F086FE656983460C99281C08F059
:1057100080FE011C584608F065FE0A9983460598EC
:1057200008F077FE011C584608F05CFE011C50464C
:1057300008F058FE414608600E99484608F069FE98
:105740000F998246049808F064FE011C504608F048
:1057500049FE0D998246381C08F05BFE011C50463C
:1057600008F040FE11998246301C08F052FE129952
:105770008346281C08F04DFE011C584608F032FEF6
:1057800010998346059808F044FE011C584608F01D
:1057900029FE011C504608F025FE41464860149938
:1057A000484608F036FE15998246049808F031FE06
:1057B000011C504608F016FE13998246381C08F06A
:1057C00028FE011C504608F00DFE17998246301C39
:1057D00008F01FFE18998346281C08F01AFE011CC9
:1057E000584608F0FFFD16998346059808F011FE0B
:1057F000011C584608F0F6FD011C504608F0F2FD69
:10580000414688601A99484608F003FE1B99824673
:10581000049808F0FEFD011C504608F0E3FD1999BC
:105820008246381C08F0F5FD011C504608F0DAFDF0
:105830001D998246301C08F0ECFD1E998346281CF9
:1058400008F0E7FD011C584608F0CCFD1C99834682
:10585000059808F0DEFD011C584608F0C3FD011C48
:10586000504608F0BFFD4146C8602099484608F000
:10587000D0FD21998246049808F0CBFD011C5046CA
:1058800008F0B0FD1F998246381C08F0C2FD011CCB
:10589000504608F0A7FD23998246301C08F0B9FD58
:1058A00024998346281C08F0B4FD011C584608F0D2
:1058B00099FD22998346059808F0ABFD011C5846D6
:1058C00008F090FD011C504608F08CFD414608612F
:1058D0002699484608F09DFD27998246049808F0CD
:1058E00098FD011C504608F07DFD25998246381C24
:1058F00008F08FFD011C504608F074FD299982467E
:10590000301C08F086FD2A998346281C08F081FD8A
:10591000011C584608F066FD28998346059808F052
:1059200078FD011C584608F05DFD011C504608F04A
:1059300059FD43462C995861484608F06AFD2D9957
:105940008146049808F065FD011C484608F04AFDB0
:105950002B998146381C08F05CFD011C484608F074
:1059600041FD2F99071C301C08F053FD3099061C8F
:10597000281C08F04EFD011C301C08F033FD2E9948
:10598000051C059808F045FD011C281C08F02AFD9F
:10599000011C381C08F026FD434698611C239C46D8
:1059A000319B1834E044A34200D089E6F6AB05935E
:1059B0003C9CDAAB3193069B0899DA691F689146E3
:1059C0009A6B484690465A6D1E6F0492059A20CAFB
:1059D000059208F01EFD09998246404608F019FD1F
:1059E000011C504608F0FEFC07998246381C08F05E
:1059F00010FD011C504608F0F5FC0B998246301C46
:105A000008F007FD0C998346281C08F002FD011CD4
:105A1000584608F0E7FC0A998346049808F0F9FC18
:105A2000011C584608F0DEFC011C504608F0DAFC68
:105A3000011C206808F0D6FC0F992060404608F051
:105A4000E8FC0E998246484608F0E3FC011C5046EB
:105A500008F0C8FC0D998246381C08F0DAFC011CDD
:105A6000504608F0BFFC11998246301C08F0D1FC6A
:105A700012998346281C08F0CCFC011C584608F0FB
:105A8000B1FC10998346049808F0C3FC011C5846E9
:105A900008F0A8FC011C504608F0A4FC011C60683A
:105AA00008F0A0FC14996060484608F0B2FC159913
:105AB0008246404608F0ADFC011C504608F092FCBE
:105AC00013998246381C08F0A4FC011C504608F0CB
:105AD00089FC18998246281C08F09BFC179983467C
