:020000041000EA
:1000000000B5324B212058609868022188439860DF
:10001000D860186158612E4B002199600221596106
:100020000121F02299502B49196001219960352056
:1000300000F044F80222904214D00621196600F024
:1000400034F8196E01211966002018661A6600F04E
:100050002CF8196E196E196E052000F02FF8012189
:100060000842F9D1002199601B49196000215960AB
:100070001A491B48016001219960EB211966A021F2
:10008000196600F012F800219960164914480160C1
:100090000121996001BC002800D000471248134993
:1000A000086003C880F30888084703B5996A0420EC
:1000B0000142FBD001200142F8D103BD02B5186610
:1000C0001866FFF7F2FF186E186E02BD00000240BE
:1000D000000000180000070000035F00212200005C
:1000E000F4000018222000A00001001008ED00E03C
:1000F00000000000000000000000000074B24E7A12
:1001000000200420F7010010C3010010C5010010F9
:10011000C1010010C1010010C1010010C101001097
:10012000C1010010C1010010C1010010C701001081
:10013000C1010010C1010010C9010010CB01001065
:10014000CD010010CD010010CD010010CD01001037
:10015000CD010010CD010010CD010010CD01001027
:10016000CD010010CD010010CD010010CD01001017
:10017000CD010010CD010010CD010010CD01001007
:10018000CD010010CD010010CD010010CD010010F7
:10019000CD010010CD010010CD010010CD010010E7
:1001A000CD010010CD010010CD010010CD010010D7
:1001B000CD010010CD010010CD010010CD010010C7
:1001C00000BE00BE00BE00BE00BE00BEEFF3058054
:1001D000103800BEF2EB88713C3E05105C3E051005
:1001E0003402001090A31AE700201F49086006C8D7
:1001F00081F3088810471D48006800282FD10DA4FE
:100200000ECC002902D000F012F8F9E71849194A7B
:10021000002000E001C19142FCD1174988471749ED
:1002200088471749884700BEFDE701C901C29A42C5
:10023000FBD370475C3E0510C0000020B02C0020AE
:100240004C6A051000000420000004204C6A0510D0
:10025000001004200010042000000000704709482E
:100260000DF012FA0047000008ED00E0000000D099
:10027000B02C00200C5903207DBE00105503001047
:10028000B1BF00105756000006005250ABB3605388
:10029000109A041006005250861C0302209A041083
:1002A000060052505422A29D2C9A04100500525070
:1002B000DE65F4684C6A0510F8B5C0460448054B85
:1002C00010B5834203D0044B002B00D0984710BDDB
:1002D000B02C0020B02C0020000000000648074988
:1002E000091A8B10C90FC91810B5491003D0044B57
:1002F000002B00D0984710BDB02C0020B02C00205F
:100300000000000010B5074C2378002B09D1FFF73F
:10031000D5FF054B002B02D0044800E000BF0123AD
:10032000237010BDB83100200000000010950410AB
:10033000054B10B5002B03D00449054800E000BF71
:10034000FFF7CCFF10BDC04600000000BC3100200C
:100350001095041070B519200AF05CF8D0238022A3
:100360001B0692045A6224480EF012FD0EF070FE35
:1003700022480EF00DFD00F05FF821480EF008FD58
:1003800007F038F81F480EF003FD08F04DFB1E483B
:100390000EF0FEFC07F06CFA09F0B4FB0022052415
:1003A0001A4B1A7006F064FB19480EF0F1FC194D57
:1003B000013C210028000EF03FFEFA2080000AF0E8
:1003C00039FE002CF4D10A200EF096FC0122002107
:1003D00011480AF0F7FA114810F0EAFF0122104B19
:1003E000104C1A702378012BFCD108F0D9FC23782B
:1003F000012BFAD0F6E7C0461095041020950410A2
:100400002C9504103895041048950410F4580320D6
:100410005895041064950410EC570320E58F0010E4
:10042000F3580320F858032010B5024811F0E8FAF9
:1004300010BDC04604380320092370B586B005936B
:1004400004330493023B0393013B0293023B324D7E
:10045000324C0193324B22003249334800932B0037
:1004600005F0C4FF142005F0BDFFFA2080000AF05B
:10047000E1FD2E4E21003200280006F0CFF933783E
:10048000682B08D02A4C20000EF082FCFA20800055
:100490000AF0D0FDF7E773783D2BF3D1012221005C
:1004A000280006F0DFF9234E32002100280006F074
:1004B00013FA3378002BF7D101222100280006F02F
:1004C0008FF80121200006F06DF80321200005F0CF
:1004D000FFFF0321280006F029F91321200006F070
:1004E00069FA1221200006F0A3FA0021200006F08C
:1004F00081FA0321200006F00BFA0221200006F009
:1005000023FA5521200006F001F81821280006F0F2
:10051000A7F806B070BDC046B01F032040330020CE
:1005200040420F009C20002094200020BC58032053
:100530007895041009590320F0B5C646334C344D64
:10054000344E22002900300000B506F079F96378B6
:10055000DB439B0720D023781B0702D480BCB8461E
:10056000F0BD2D4C0622002120000EF093FA210050
:10057000300006F035F90023E05E05F09FFF274DBF
:1005800028600223E05E05F099FF68600423E05EC6
:1005900005F094FFA860E1E7214B06229846180079
:1005A00000210EF077FA1F4F0622002138000EF0CE
:1005B00071FA4146280006F0F5F83900280006F0E7
:1005C000D3F843460020185E05F064FF4346164DFD
:1005D00028600220185E05F05DFF43466860042035
:1005E000185E05F057FFA8600023F85E05F05CFF79
:1005F0000E4D28600223F85E05F056FF6860042364
:10060000F85E05F051FFA860A5E7C046004E032044
:1006100040330020B01F0320003E03200C43032082
:10062000F03D0320F83D0320803C0320A03C032044
:10063000F0B55746DE464E464546E0B58BB00891CC
:100640009246190005900993DA1703238C4613404C
:1006500063449B109B009846002B00DC90E05246C0
:10066000159B00249B000193149B9B1A159A9B1ABF
:10067000089A9B00029353681268190194460491EA
:10068000069251469A00039252468D000021013A8B
:1006900092000792002289465900DE00CB189B0089
:1006A0009B461300424665440092019A94469C443E
:1006B000039B1A199F195346002B1EDD069B0598B4
:1006C00019196346804600989B0043448046009475
:1006D000086818600098081A845804315C608459CE
:1006E0009C60C059D86010338D42F1D143460799C0
:1006F000009363468C4604339C440421029B5A4475
:1007000063448C461400049A3E00E1449446009AE7
:100710005E4465444A45C8DC1A00009B9846099B24
:10072000434526DD1499159C089B0D1B514609CBAA
:100730006D1A00291DDD41469E004B439B00C018E9
:1007400053469C00059B47469C46099BAB469846F2
:10075000159B994600234A4491006144C558CD50E9
:1007600004339C42FAD1524401375A448019B845A7
:10077000F0D10BB0F0BCBB46B246A946A046F0BDD6
:100780000022CCE7F0B54746CE4680B51F00002BCF
:100790001DDD002A1BDD9300C0180B68002498465D
:1007A0004B689100D200494252428C4691469B00D0
:1007B000614645182900A20042441668D21840C17B
:1007C0008142FAD14A460134A81AA742F0D1C0BCEE
:1007D000B946B046F0BDC046F0B5DE464E46574677
:1007E00045460023E0B5136083688BB0049305236E
:1007F0009B4600235E46099202680293013B0790E4
:100800000691039208930523049C9B1B5C43984626
:10081000029BA4009C46039B64449C46644423685A
:100820005D0063686D085F007F08291C381C0DF0AF
:10083000EDFE002800D1CCE03D1C0127731C9A4638
:10084000022B37D9A368291C5B005B08181C99464A
:100850000DF0DCFE002801D04D4602275346032B45
:1008600028D0E368291C5B005B08181C99460DF032
:10087000CDFE002801D04D4603275346042B19D046
:100880002369281C5B005B08191C99460DF0B0FE1B
:10089000002801D04D4604275346062B0AD164692F
:1008A000281C64006408211C0DF0A2FE002801D061
:1008B0000527251C069B029A474400219F50281CAF
:1008C0000DF08EFE002800D185E0089B013300D199
:1008D000FEE0062347469B1B9C46079A05939268B9
:1008E000574367440492BF000599049B0C009A008B
:1008F0005C43029B00929C46039BA5001A00654442
:100900008C4691469B46924690463B1D6444A4000B
:10091000994404335D445C449A44BB440433103727
:10092000944698443B000027634401935B46296842
:1009300018680DF026FE011C20680DF008FE2060EE
:10094000012E2DD94B46286819680DF01AFE011C9E
:1009500060680DF0FCFD6060022E21D053462868CF
:1009600019680DF00EFE011CA0680DF0F0FDA060EE
:10097000032E15D04346286819680DF002FE011CAD
:10098000E0680DF0E4FDE060052E09D1019B2968C7
:1009900018680DF0F6FD011C20690DF0D8FD2061EE
:1009A000009B01379C4665446444BE42BED1029B15
:1009B000013E04330293059B052B00D023E71A0068
:1009C000069B5A610BB0F0BCBB46B246A946A04696
:1009D000F0BD002732E7474530D0039902988C4696
:1009E000BF0067448446079A3C6892680B5892009F
:1009F0000C5061443B608918BB1808681C680C6087
:100A0000186089189B1808681C680C6018608918A1
:100A10009B1808681C680C60186089189B18086887
:100A20001C680C60186089189B1818680A680860B0
:100A30001A60099A13680093013313604746079BB5
:100A4000039A9B685F4304930623991B43468C4695
:100A5000FB189B0067449C58BF00D5192868059176
:100A6000211C0DF07AFD2860012E00D83CE7039B85
:100A70003D1D9C4665442868211C0DF06EFD2860D4
:100A8000022E00D130E7039B3D009C4608356544AB
:100A90002868211C0DF061FD2860032E00D123E79A
:100AA000039B3D009C460C3565442868211C0DF0D5
:100AB00054FD2860042E00D116E7039A3D009446A9
:100AC000103565442868211C0DF047FD28600BE7B0
:100AD000062347469B1B9C4605934346079A08936B
:100AE0009268574367440492BF00FDE6F0B557464D
:100AF000DE464E464546E0B599B01493249B8246A7
:100B0000259C26985D1C00D1229B651C00D1229C4F
:100B1000239DEE1703253540239EB4466544AD1052
:100B2000AF000725229E0E97AE4335000096149E17
:100B3000002E00DC88E29B00169323011093030132
:100B4000D31817936B1EDB0801330391D9015B01A6
:100B50000F93A3007C432018800011931318159362
:100B60000023D346139108930E9B002B00DCC2E1B7
:100B70000F9A039B944663441293179BD8460193A4
:100B8000002302930298434601000CCB089C594372
:100B9000A4466144890051180991411C594361449C
:100BA000890051180A91811C5943614489005118E8
:100BB0000B91C11C4B4363449B00D318019E0C93C3
:100BC000009B3400002B00DC45E2039B0025994686
:100BD00000234C46AA46AB46A946069504952F1C11
:100BE000059507950D9325683168281C0DF0C9FC03
:100BF00059460DF0AFFC71688346281C0DF0C1FC0E
:100C000051460DF0A7FCB1688246281C0DF0B9FCD6
:100C100007990DF09FFCF1680790281C0DF0B1FCBE
:100C200005990DF097FC059065683169281C0DF059
:100C3000A8FC391C0DF08EFC7169071C281C0DF0F6
:100C4000A0FC04990DF086FCB1690490281C0DF0FD
:100C500098FC06990DF07EFCF1690690281C0DF0B9
:100C600090FC49460DF076FC8146A568316A281C47
:100C70000DF087FC59460DF06DFC716A8346281C07
:100C80000DF07FFC51460DF065FCB16A8246281CD0
:100C90000DF077FC07990DF05DFCF16A0790281CB8
:100CA0000DF06FFC05990DF055FC0590E568316B72
:100CB000281C0DF066FC391C0DF04CFC716B071CF8
:100CC000281C0DF05EFC04990DF044FCB16B0490FF
:100CD000281C0DF056FC06990DF03CFCF16B0690BB
:100CE000281C0DF04EFC49460DF034FC8146256968
:100CF000316C281C0DF045FC59460DF02BFC716C35
:100D00008346281C0DF03DFC51460DF023FCB16CD0
:100D10008246281C0DF035FC07990DF01BFCF16C88
:100D20000790281C0DF02DFC05990DF013FC059083
:100D30006569316D281C0DF024FC391C0DF00AFC8E
:100D4000716D071C281C0DF01CFC04990DF002FCB1
:100D5000B16D0490281C0DF014FC06990DF0FAFBFF
:100D6000F16D0690281C0DF00CFC49460DF0F2FBCD
:100D70008146A569316E281C0DF003FC59460DF023
:100D8000E9FB716E8346281C0DF0FBFB51460DF00C
:100D9000E1FBB16E8246281C0DF0F3FB07990DF0C4
:100DA000D9FBF16E0790281C0DF0EBFB05990DF0B7
:100DB000D1FB0590E569316F281C0DF0E2FB391C71
:100DC0000DF0C8FB716F071C281C0DF0DAFB0499AD
:100DD0000DF0C0FBB16F0490281C0DF0D2FB0699FA
:100DE0000DF0B8FBF16F0690281C0DF0CAFB4946C8
:100DF0000DF0B0FB8146803620340D9B009A0833FD
:100E00000D939A4200DDEEE6139B019C9C46051C67
:100E10005946381C64440DF09DFB5146071C04984C
:100E20000DF098FB0799061C06980DF093FB0599A9
:100E30008146281C0DF08EFB129B051C9A46229AB7
:100E4000009B9A4230DDAB460493534620CB216889
:100E5000281C9A460DF095FB011C381C0DF07AFBFE
:100E60006168071C281C0DF08CFB011C301C0DF068
:100E700071FBA168061C281C0DF083FB011C484671
:100E80000DF068FBE1688146281C0DF07AFB011C1F
:100E900058460DF05FFB8346049B229A01331034C1
:100EA00004939A42D1D1051C311C0A9E30680DF082
:100EB0004EFB391C099F041C38680DF048FB291CA7
:100EC0000C9D3860346028680DF041FB0B9E49464C
:100ED000041C30680DF03BFB1099019A8C46029B74
:100EE000624401920E9A0433306002932C609A425D
:100EF00000DD47E6C3460F9A039B944663440E9A6F
:100F00000293239B9246159D934200DC90E05B4642
:100F10005C6853465C43089B2F009C465B461B68FD
:100F200064449C46009BA4006444002B00DC99E0D0
:100F30000023039F99463B00A04600262F001C007B
:100F4000396820680DF01DFB311C0DF003FB061CF9
:100F5000796860680DF015FB311C0DF0FBFA061C7A
:100F6000B968A0680DF00DFB311C0DF0F3FA061CFA
:100F7000F968E0680DF005FB311C0DF0EBFA061C7A
:100F8000396920690DF0FDFA311C0DF0E3FA061CF9
:100F9000796960690DF0F5FA311C0DF0DBFA061C79
:100FA000B969A0690DF0EDFA311C0DF0D3FA061CF9
:100FB000F969E0690DF0E5FA311C0DF0CBFA061C79
:100FC0002037203408239C46009BE1444B45B7DC86
:100FD00044460F9BEF18029B0193229A009B9A4272
:100FE00017DD99460023984643464246F958019B2F
:100FF00098580DF0C6FA011C301C0DF0ABFA061C17
:1010000001239C460333E1449C46229BE0444B452C
:10101000EAD12068311C0DF09AFA01239C46119BFD
:10102000E2449C46239B20606544534500D06EE714
:101030001699039A8C46089B62440392149A0133D2
:1010400008939A4200D08FE519B0F0BCBB46B24677
:10105000A946A046F0BD0025039BA9469A462E1C32
:101060002F1CECE6039B00260193B6E7F0B557462C
:10107000DE464E4645469C24E0B5BDB006AF3C1961
:10108000FB63842320609824BA6694225B003C1999
:10109000FB1821601C68BA182369FB67A3681360FA
:1010A000834202DD9423FB18186094239821FB18D7
:1010B0007918FA6F1B680D68534355432268002A5C
:1010C00000D1DBE29B007B668C23FB181A60902228
:1010D0000023BA1813606368AA003A66002B00D197
:1010E000ECE28822BB670023BA181360C84D2B7846
:1010F000BFF35B8FDB0700D4FDE2C64CA4220423C0
:10110000BA1813609433FB181B686068002B18DD55
:101110009C237A1DFB18FF321B681268190093424A
:1011200000DAFFE209010CF009FB0323C2171340A8
:10113000A4221B189B109B00BA181360042B00DA22
:10114000EBE29C23FB181C68002C00DC72E2FB6BBA
:10115000FD6F18006A425043F86118008021661B39
:101160007043F866180001335A4392007918BA6147
:10117000621E0E601100594389008846B96E1B013A
:101180008C46E04441467964A90049423961A10096
:101190007C1CFF3424685B42A446A4246144396467
:1011A000791DFF313C1909682468FB606143B9620D
:1011B000B02183005B4279180B600300921B5043FF
:1011C000DB43AC229B00BA181360C4227B1DFF33A3
:1011D0001B68BA189B0078611360A022FB6FBA18D5
:1011E00013609C22BA181268934202DDA023FB18F8
:1011F0001A609823FB181B68002B00DC9FE1A023DA
:10120000FB181A68002A00DC99E19823FB181B6878
:10121000396C3B65A423FB181B6853439B00FB629E
:10122000BB6FFB649300CB1A79697B628C46FB6EC3
:10123000B82163447B63002379180B60D021BB6421
:101240003B679C33FB181B6879189B1ABB60130023
:1012500079600321013B043A8B43D31A3B63A422F8
:10126000BA183B6D1268FB65934200DDFA65B8223F
:10127000BA181268FB6D9446C8226344BA1813600A
:101280009C237A6AFB1894461B6884227B673B6F19
:10129000BA189B0063443B627B6B7B657B6CBB65D0
:1012A000A023FB181B6813608423B422FB181B685F
:1012B000BA181360042B03DDB4220423BA18136098
:1012C0008423FB181B68002B00DCA5E0B422C82097
:1012D000B824BA187B6F116838183C190068246864
:1012E0005A1ABA63A04200DC9CE094464E1EB96EC6
:1012F0009B008A46043B9B467B6D791C63449B00A4
:10130000FF3109689A44BB6C63448C46A8219B005A
:10131000634479180B609300C0225B42BA181360D3
:10132000BC22BB6DBA181360BC23FE20FB181B68DF
:10133000800519680DF011F9CC23FB181860A8235B
:10134000FB181C68B823FB181B68B1461E00C0239D
:10135000FB181B685A469846A04443469958CC232C
:10136000FB1818680DF00DF943465A4698504B4645
:10137000051C002B22DD534619680DF002F9011CF3
:1013800020680DF0E4F84B462060012B16D0534640
:10139000281C59680DF0F5F8011C60680DF0D7F8AD
:1013A0004B466060022B09D05346281C99680DF00B
:1013B000E8F8011CA0680DF0CAF8A060C423FB186F
:1013C0001B6801369C46C823FB181B6864449E4278
:1013D000BDD1AC22BC23BA181268FB189446BC22BB
:1013E0001B68BA18634413600423B0225B429C4616
:1013F000BA181268E3449446B4224E46BA181268EA
:10140000731EE244961BB2420CDD1E008CE7C04600
:101410005422032018380320B422BA187B6F1268B4
:101420009B1ABB638423B422BD6BBA18AC46FB186D
:1014300010681B687A1CFF3212681C1A3B6F7968AF
:10144000634494469B0063440B607B1DFF331B6821
:1014500080464B60A0230194FB181E680200009692
:10146000FB6DF86C9B4689468246FFF7E1F8002C3D
:101470002ADD2B00BA6849469446FD6BBA6E6B4371
:101480008C20634494464D604D469B00381800689C
:1014900063440B60424623008146FFF773F929003D
:1014A0007B1DFF333D6A1B680D604B600D005B4682
:1014B0000396464601935246230049462800049469
:1014C00002960096FFF712FB84238422F968FB182A
:1014D0008C46B0211B68BA18043B13607A6F7918E8
:1014E000043A09687A67BA6D62448C46BA657A6DC7
:1014F00062447A653A6B934200D0D5E6A422B823C1
:10150000BA181268B8219446FB181B68791863440E
:101510000B60396D8A1AF96A3A658C46FA6CB96AB9
:1015200062448C46FA643A6F62443A67BA6C624429
:10153000BA649822BA1812689A4200DD8FE68023B6
:101540009C22FB181B68BA181360002B72DD9423D1
:10155000FB181B68002B00DCFEE78023BA6EFB182B
:1015600092461D68FB6E00249B009A44D023FE180F
:1015700000239B46013B99469423FB181B68A84611
:101580009D4200DD9846CC22A300BA181360FA6B86
:101590008C207260A0225344BA18381831001268A7
:1015A000006833604346FFF7EDF87A1CCC23FF3226
:1015B0001268FB1894461B688C21634433607B1DC2
:1015C000FF331B68791873605B4604934B460393A3
:1015D00002939823FB181B6830000193A023FB188B
:1015E0001B680093BA6F43460968FFF77FFA94239C
:1015F000FB181B689C46ED1A8023FB181B6864448B
:10160000A342B9DCFA69FB6E9446BA696344944616
:10161000FB663A697B6C634494467B643B6CFA6F6F
:1016200063443B648023FB181B689B1A8022BA1812
:101630001360D2E580233A6E9B029A4208D9882330
:10164000FB181B68002B03D0043B18680DF00AFA46
:1016500080237A6E9B029A4208D99023FB181B685C
:10166000002B03D0043B18680DF0FCF9BD4637B0E1
:10167000F0BCBB46B246A946A046F0BD9A00802306
:101680007A669B029A424FD813006A461633DB08EB
:10169000DB00D31A9D4627200F23684498438133EB
:1016A000FB18186090238C22FB181B68BA18136073
:1016B0006368AA003A66002B00D012E580239B02E3
:1016C0009A424FD813006A461633DB08DB00D31A60
:1016D0009D4627200F23684498437933FB181860F0
:1016E0008823FB181B682D4DBB672B78BFF35B8FDE
:1016F000DB0700D501E528000FF080FE284C00280C
:1017000000D1FBE48023DB01236080231B0328003E
:101710006360A3600FF08EFEF0E4A4220423BA18E5
:1017200013600EE51100FDE4100010300DF07CF99F
:101730009023FB18021E1860B4D00F2301009943B8
:101740000B0010218C468C209C446146DA60236893
:101750003818016058425841902340420140FB181C
:101760001960B8E4100010300DF05EF98823FB1802
:1017700018600028B4D00F23010099430B001021FA
:101780008C46D86060689C44434258416146882337
:101790004042B967FB1801401960A7E454220320B6
:1017A00018380320F0B55746DE464E464546E0B5AC
:1017B000B3B006AF8C24BB62E023FA6288223C19E6
:1017C000FB1821601C68BA182369786513608422AD
:1017D000A368BA181360834202DD8423FB181860E3
:1017E000842388228C21FB18BA18791812681B6888
:1017F0000D68534355432268002A00D150E29B00F4
:10180000FA6780223B650023BA1813606368AA0058
:10181000FA64002B00D161E2FB660023BB67E74D51
:101820002B78BFF35B8FDB0700D470E2E44C90228F
:101830000423BA1813608833FB181B686068002BF8
:1018400016DDDC22BA187B6D12681900934200DAAB
:1018500074E209010BF072FF0323C21713409022B8
:101860001B189B109B00BA181360042B00DA60E26F
:101870007B6D002B00DCF1E18822B96ABA18080000
:101880001268BB6350439B1AB86098207B634B1C63
:1018900099001B01FB61DC234A43381801607A6020
:1018A0009020DC22FB181B68BA189B009B46FB6A41
:1018B00038183B63002312680068BB6542437A61B5
:1018C0000A1F3A627B679422BB6BBA1813608822A6
:1018D000BA181268934202DD9423FB181A608C2315
:1018E000FB181B68002B00DC45E19423FB181A68E9
:1018F000002A00DC3FE18C239021FB181B6879183B
:10190000BB6413000968DA464B43D821791809688B
:101910009B008C463B61FB6E9C21FB657B6F7918BD
:101920009B006344FB6000230B60A8213B66791891
:10193000130039600321013B043A8B43D31ABB6186
:101940009022BA18BB6C1268BB66934200DDBA667F
:101950009C22BA181268BB6E9446FA686344944697
:101960009B463B6E9B006344FB633B6B3B647B6F1E
:101970007B66BB6D7B649423FB181B683B679423D9
:10198000FB181A683B6FD21A7A62A022BA18136049
:10199000042B03DDA0220423BA1813603B6F002B35
:1019A00058DD9C23FB181B689B4553DDA023A42214
:1019B000FB181B68BA18013B9946FB6B13603B6C24
:1019C00098464B46002B2EDDA423FB181C689C2355
:1019D000FB181E68434625685968281C0CF0D1FD89
:1019E000011C60680CF0B3FD4B466060012B16D003
:1019F0004346281C99680CF0C4FD011CA0680CF03B
:101A0000A6FD4B46A060022B09D04346281CD9688E
:101A10000CF0B7FD011CE0680CF099FDE0600136A8
:101A200054445E45D6D14B465A1E9823FB181B687A
:101A3000A4219C46A423FB181B68791804330B606F
:101A4000A023FB1819684B46E044CB1A994201DDEC
:101A50009146B6E7A022BA181468D8223B6F796E77
:101A60003E6E8C461D1B3300BA18106863448446D2
:101A700039689B0063440B60DC23FB181B68220061
:101A80004B607B6A884601939423FB18186800908A
:101A9000BB6EF86DFEF7CCFD002D36DD7B6E41464A
:101AA0009C46786C220064440319F86A9B008446C3
:101AB000B86A63444860A02038180260F86F0B6071
:101AC0002B00C1468046FEF75DFED822BA183319B6
:101AD00014689B00A4464C4663442360DC23FB1837
:101AE00019687B6A616004939423FB181E68A02325
:101AF0000396FB181A6841460292BB6E009201934E
:101B000048462B00FA6DFEF7F1FF396A7A6C8C4675
:101B1000F96962448C467A647A6E3B6F04327A6665
:101B20003A6C043B62443A64FA6B3B671032FA63E6
:101B3000BA69934200D022E790229C23BA18126817
:101B40009C219446FB181B68791863440B60B96CA0
:101B50008A1A7969BA648C463A6E396962448C464D
:101B60003A66FA6D6244FA658C22BA1812689A4293
:101B700000DDE5E6D3468822BA1812687B6F9446EA
:101B80007A6D63447B67934268DA8423FB181B6891
:101B9000002B17DC8823B968FB188C46BA6B1B68CE
:101BA000D21ABA63BA6D6244BA657A6BD31A7A688C
:101BB0007B6394463B6B63443B6384E6542203207F
:101BC00018380320FA6ABB6D92469B009A44A823FA
:101BD000FE18A93B99467D6B7C6F8423FB181B681C
:101BE000A8469D4200DD9846A422A300BA181360BF
:101BF000BA6A534472609422BA1831001268F86FBE
:101C000033604346FEF7BEFDD822A423BA181268FB
:101C1000FB1894461B68300063443360DC23FB18D8
:101C20001B687360002304934B46039302938C2339
:101C3000FB181B6801939423FB181B680093FA6E32
:101C40004346F96FFEF752FF8423FB181B689C463E
:101C5000ED1A7B6D6444A342BFDC9BE78023FA6CE2
:101C60009B029A4206D9BB6F002B03D0043B186835
:101C70000CF0F8FE80233A6D9B029A4208D980232B
:101C8000FB181B68002B03D0043B18680CF0EAFE1D
:101C9000BD462DB0F0BCBB46B246A946A046F0BD3D
:101CA0009A0080233A659B029A4249D813006A46FB
:101CB0001633DB08DB00D31A9D4627200F23684428
:101CC00098437133FB1818608023FB181B68AA0027
:101CD000FB676368FA64002B00D09DE580239B02BC
:101CE0009A4249D813006A461633DB08DB00D31A40
:101CF0009D4627200F2368449843B867BB6F2A4D41
:101D0000FB662B78BFF35B8FDB0700D58EE52800E1
:101D10000FF074FB254C002800D188E58023DB01FF
:101D2000236080231B0328006360A3600FF082FB05
:101D30007DE590220423BA18136099E5110088E527
:101D4000100010300CF070FE8023FB181860002883
:101D5000BAD00F23010099430B0010218C46D860A4
:101D60009C44236861465842584180234042F967A9
:101D7000FB180140196049E5100010300CF054FECA
:101D8000B8670028BAD00F23010099430B00102137
:101D90008C46D86060689C4443425841614640424A
:101DA000F9660140B9673AE5542203201838032048
:101DB00030B587B00D4B02AD00951A6869460292A6
:101DC0009A880400AA809B796A46AB710723019325
:101DD0000023D3732CF0A4FA0098A84203D00299F0
:101DE00001310CF073FE200007B030BD8C9504105B
:101DF000F0B5DE4657464E464546E0B50E00016852
:101E0000C7688946416805698A4681688DB08B46F6
:101E1000416980690793069050681368926805913C
:101E20000A90291C30680B92099308950CF08FFBDF
:101E30000599039070680CF08AFB0699051CB06840
:101E40000CF085FB80268046360607980CF032FCA5
:101E5000B446039B009001916344180051460CF076
:101E600090FB5946061C281C0CF08BFB011C301CF7
:101E70000CF06DFB391C061C404604970CF081FBEE
:101E8000011C301C0CF063FB0CF014FC0022684BAE
:101E90000BF0BFFE009A019B0BF0BBFE060048460C
:101EA0000F000CF007FC02000B0030003900169CFC
:101EB0000BF088FE0BF0A6FF4946206003980CF05B
:101EC00060FB5946061C40460CF05BFB011C301CB5
:101ED0000CF040FB0499061C281C0CF052FB011C62
:101EE000301C0CF034FB0CF0E5FB0022504B0BF0E7
:101EF00090FE009A019B0BF08CFE060050460F00EE
:101F00000CF0D8FB02000B00300039000BF05AFE39
:101F10000BF078FF49466060281C0CF032FB5146FC
:101F2000061C40460CF02DFB011C301C0CF00FFB76
:101F30000499061C03980CF024FB011C301C0CF0C7
:101F400009FB0CF0B7FB0022394B0BF062FE009A44
:101F5000019B0BF05EFE060058460F000CF0AAFB3A
:101F600002000B00300039000BF02CFE0BF04AFF92
:101F70004946A06040460CF004FB5146061C281C54
:101F80000CF0FFFA011C301C0CF0E4FA5946051C59
:101F900003980CF0F6FA011C281C0CF0D8FA0CF08F
:101FA00089FB0022224B0BF034FE009A019B0BF0C0
:101FB00030FE060004980F000CF07CFB02000B00C2
:101FC000300039000BF0FEFD0BF01CFF089B099957
:101FD000E060181C98460CF0D4FA079D291C0CF000
:101FE000D0FA011C40460CF0B2FA059F0A99206114
:101FF000381C0CF0C6FA291C0CF0C3FA011C381C62
:102000000CF0A5FA069E0B996061301C0CF0B9FA31
:10201000291C0CF0B6FA011C301C0CF098FAA061D7
:1020200000200DB0F0BCBB46B246A946A046F0BDAC
:102030000000E03FF0B5DE4657464E4645468A462C
:102040004168E0B58846C768816891B006688946EE
:102050004046391C141C04930CF093FA4946051CA5
:10206000301C0CF08EFA0A90011C281C09950CF00B
:102070006EFA0CF01FFB02000B000BF0A3FD0690A4
:102080000791201C02940CF015FB0B0002000400C9
:102090000D00069807990BF0BCFD0BF0B3FE5246FD
:1020A000391C106048460CF06CFA83464146301CDF
:1020B0000CF067FA5A460E90011C58460B920CF031
:1020C00049FA0CF0F7FA02000B000BF07BFD02005E
:1020D0000B00200029000C920D930BF09AFD0BF0E1
:1020E00091FE5446311C6060301C0CF04AFA4146A7
:1020F000041C40460CF045FA051C011C201C0CF089
:1021000026FA4946089048460CF03BFA391C8346AB
:10211000381C0CF036FA5946019008980CF017FA62
:1021200001990CF017FA02990F900CF02AFA534615
:102130004946986040460CF024FA391C8046301C11
:102140000CF01FFA81461A980CF0B4FA06001B989E
:102150000F000CF0AFFA02900391291C201C0CF028
:10216000F9F959460CF0F3F901990CF0F0F90499DA
:102170000CF007FA0CF09EFA04000D0040464946A8
:102180000CF0E8F90CF096FA02000B000BF01AFDC7
:1021900032003B000BF03DFD02000B002000290047
:1021A0000BF010FD029A039B04000D00069807999E
:1021B0000BF02FFD02000B00200029000BF002FDA8
:1021C0000BF020FE5346D86004980CF073FA04001C
:1021D0000D00404649460CF0BAF90CF06BFA0200CB
:1021E0000B000BF0EFFC22002B00049405950BF084
:1021F00010FD04000D00089859460CF0ABF9019948
:102200000CF0A5F91A990CF0BCF90CF053FA020085
:102210000B00200029000BF0D5FC029A039B040060
:102220000D000C980D990BF0F4FC02000B0020003F
:1022300029000BF0C7FC0BF0E5FD53460A99186125
:1022400009980CF087F90CF035FA02000B000BF03E
:10225000B9FC049A059B0BF0DCFC04000D000B9804
:102260000E990CF074F90CF025FA02000B000BF03B
:10227000A9FC32003B000BF0CCFC02000B0020005C
:1022800029000BF09FFC04000D000F981B990CF027
:1022900078F90CF00FFA02000B00200029000BF077
:1022A00091FC0BF0AFFD53465861002011B0F0BC1B
:1022B000BB46B246A946A046F0BDC046F0B50400F4
:1022C000DE4657464E4645460800E0B54568096873
:1022D000AA46856895B0AB46C5684669876910917E
:1022E0000E950169556810689268049690461A68C0
:1022F000069711925A689B6812921393FE239B05CE
:10230000236099460CF023F90CF0D4F90090019168
:102310001E980CF0CFF906000F00009801990022DA
:10232000924B0BF076FC32003B000BF072FC0BF092
:1023300069FD04990390E061281C0CF008F90CF089
:10234000B9F90022894B049005910BF062FC320030
:102350003B000BF05EFC0BF055FD0699051CA063DD
:1023600040460CF0F4F80CF0A5F900227F4B0690E3
:1023700007910BF04EFC32003B000BF04AFC0BF0D7
:1023800041FD0A90606550460CF094F90022784BAC
:10239000089009910BF03DFC32003B000BF039FC3A
:1023A0000BF030FD0B90206758460CF083F90022AB
:1023B0006F4B0C900D910BF02CFC32003B000BF09E
:1023C00028FC0BF01FFD8C238246E0500E980CF089
:1023D00071F90022664B0E900F910BF01AFC32003F
:1023E0003B000BF016FC0BF00DFDA8238346E050DC
:1023F0000022009801995E4B0BF00BFC32003B0071
:102400000BF007FC0BF0FEFC494600906060216277
:10241000002206980799564B0BF0FBFB32003B005D
:102420000BF0F7FB0BF0EEFCA5658046E06310981F
:102430000CF040F900224D4B0BF0EBFB32003B005F
:102440000BF0E7FB0BF0DEFC59469023051C6067A0
:102450000022E1500C980D99444B0BF0DAFB32004E
:102460003B000BF0D6FB0BF0CDFCAC230022E05080
:10247000049805993E4B0BF0CCFB32003B000BF06F
:10248000C8FB0BF0BFFC49460A9A83466262009A79
:10249000A0602164E2650E980F990022334B0BF087
:1024A000B8FB32003B000BF0B4FB0BF0ABFC942309
:1024B0000B99A067E5501C33E1504146E160594655
:1024C000A162494621665146039BE167636408980F
:1024D00009990022254B0BF09CFB32003B000BF0CE
:1024E00098FB0BF08FFC9823E0501C33E55000253F
:1024F0001E9911982561E562A56465660CF041F8A6
:10250000011C48460CF023F88023E0501C33E550B2
:102510001C33E550343B1E99129865612563E564D0
:10252000A566E5500CF02DF8011C48460CF00FF89C
:10253000A023E0501C33E550343BA561656325655D
:10254000E566E5501C33E5501E9913980CF019F818
:10255000011C48460BF0FBFFC023E050002015B0E3
:10256000F0BCBB46B246A946A046F0BD0000E0BFA5
:102570000000E03FF0B5DE4657464E464546E0B522
:102580009A460B68141C8A689B464B68C9688BB0D6
:102590000500101C8846009301920CF08BF8029005
:1025A0000391201C0CF086F8C02306000F0002984F
:1025B000039900221B060BF02CFB32003B000BF0B2
:1025C00028FB0BF01FFC0890286040460CF072F8C6
:1025D00002000B000BF0F6FA32003B000BF019FB87
:1025E0000BF010FC041CA86158460CF063F8C023E3
:1025F00000221B06049005910BF00BFB32003B0000
:102600000BF007FB0BF0FEFB286300980CF052F870
:1026100002000B00069007910BF0D4FA32003B0049
:102620000BF0F7FA0BF0EEFB002190238946A8642B
:102630002966A967E95068600498059902000B00B3
:102640000BF0C0FA32003B000BF0E3FA0BF0DAFBC0
:102650006C630490E8610298039902000B000BF090
:10266000B1FA32003B000BF0D4FA0BF0CBFB494639
:102670009423E8646966E967E950C02306980799DE
:10268000049A1B06AA6000220BF0C3FA32003B003A
:102690000BF0BFFA0BF0B6FB089B4946AB638023F7
:1026A00028622C65A966E9501833E9504046149910
:1026B0000BF067FF019F1599061C381C0BF061FF9A
:1026C0005146041C58460BF05CFF311C0BF042FFD6
:1026D000211C06940BF03BFF011C0BF03BFF514605
:1026E0000990E86000980BF04CFF1499041C381C0A
:1026F0000BF047FF011C201C0BF02CFF1599041C4C
:1027000040460BF03EFF011C201C0BF023FF011C78
:102710000BF020FF14990290686200980BF031FFD3
:102720001599089058460BF02CFF019A8024944686
:1027300024066444071C514620000BF022FF089930
:102740000BF008FF391C0BF002FF011C0BF002FF1D
:102750001499E86358460BF014FF159904900098FB
:102760000BF00FFF802212064244041C5146100059
:102770000BF007FF04990BF0EDFE211C0BF0EAFEB5
:10278000011C0BF0E7FE4A468423EA666865EA50BE
:102790001833EA505146286101980BF0F2FE08996F
:1027A0000BF0D5FE391C0BF0D5FE011C0BF0D2FE50
:1027B000071CA8628020029B00062B6451465844E7
:1027C0000BF0DFFE311C0BF0C2FE06990BF0C2FECF
:1027D000011C0BF0BFFE8823A86548462867E85017
:1027E0001833E850514640466F610BF0CAFE049919
:1027F0000BF0ADFE211C0BF0AAFE011C0BF0AAFE93
:10280000099AE8626A64029B4A46EB654B466B672D
:102810008C230020EA501833EA500BB0F0BCBB46C2
:10282000B246A946A046F0BD0123F0B5E3214746D4
:10283000CE469C46294B804605009946284E80B5D9
:102840008900076846444144FA0F6F68D2077B004D
:102850005B08346813435A08624064461C4201D046
:102860004B465A4004C50436A942EDD1E323424603
:102870009B00C626D458194B01259C46F6004644B9
:10288000E20F4C68D20763005B08076813435A08DD
:102890007A401D4201D063465A40043004C1B04220
:1028A000EED14246C62140460E4BC900D3581268AD
:1028B000DB0F52005208DB07415813435A084A40C5
:1028C000DB0701D5054B5A404146064BCA50002252
:1028D0000433CA50C0BCB946B046F0BDDFB0089959
:1028E00034060000BC090000F0B54546DE465746F8
:1028F0004E46E0B53B4CD723A54434AA94466344E6
:102900001B091B018A6805930B68019237921A68AC
:10291000049006929A69339107921A6B38AC089228
:102920009A6C09921A6E0B929A6F0C9290229A5896
:102930000D925A680E92DA690F925A6B1092DA6C05
:1029400011925A6E1292DA6F139294229A5814923C
:102950009A6815921A6A16929A6B17921A6D1892C3
:102960009A6E199280229A581A9298229A581B921B
:10297000DA681C925A6A1D92DA6B1E925A6D1F9287
:10298000DA6E209284229A5821929C229A5822929E
:102990001A6923929A6A24921A6C25929A6D269249
:1029A0001A6F279288229A582892A0229A58299220
:1029B0005A692A92DA6A2B925A6C2C92DA6D2D920D
:1029C0005A6F2E928C229A582F92A4229B583093A1
:1029D0004B68984638AB3293C423454643440A9328
:1029E00002E0C0469CFDFFFFEA68A96991462A699A
:1029F000AB6890466A69099803914946019302922F
:102A00000BF0BFFD414682460B980BF0BAFD011C4E
:102A100050460BF09FFD029982460C980BF0B1FDD9
:102A2000039983460D980BF0ACFD011C58460BF042
:102A300091FD011C50460BF08DFD6F688246391CDC
:102A400007980BF09EFD0199834608980BF099FDBD
:102A5000011C58460BF07EFD2E688346311C0698FB
:102A60000BF08FFD011C58460BF074FD011C504605
:102A70000BF070FD4946206011980BF082FD414635
:102A8000824612980BF07DFD011C50460BF062FD52
:102A90000299824613980BF074FD039983461498AB
:102AA0000BF06FFD011C58460BF054FD011C504605
:102AB0000BF050FD391C82460F980BF062FD019916
:102AC000834610980BF05DFD011C58460BF042FD4B
:102AD000311C83460E980BF054FD011C58460BF038
:102AE00039FD011C50460BF035FD494660601898D1
:102AF0000BF047FD4146824619980BF042FD011C40
:102B000050460BF027FD029982461A980BF039FDCA
:102B1000039983461B980BF034FD011C58460BF0BB
:102B200019FD011C50460BF015FD391C8246169804
:102B30000BF027FD0199834617980BF022FD011C2D
:102B400058460BF007FD311C834615980BF019FD14
:102B5000011C58460BF0FEFC011C50460BF0FAFC21
:102B60004946A0601F980BF00CFD41468246209814
:102B70000BF007FD011C50460BF0ECFC029982465D
:102B800021980BF0FEFC0399834622980BF0F9FC88
:102B9000011C58460BF0DEFC011C50460BF0DAFC21
:102BA000391C82461D980BF0ECFC019983461E9857
:102BB0000BF0E7FC011C58460BF0CCFC311C8346A3
:102BC0001C980BF0DEFC011C58460BF0C3FC011CEA
:102BD00050460BF0BFFC4946E06026980BF0D1FC54
:102BE0004146824627980BF0CCFC011C50460BF066
:102BF000B1FC0299824628980BF0C3FC03998346E6
:102C000029980BF0BEFC011C58460BF0A3FC011CDC
:102C100050460BF09FFC391C824624980BF0B1FC07
:102C20000199834625980BF0ACFC011C58460BF02B
:102C300091FC311C834623980BF0A3FC011C5846E1
:102C40000BF088FC011C50460BF084FC2D99206190
:102C500048460BF096FC2E99814640460BF091FCBD
:102C6000011C48460BF076FC2F99804602980BF029
:102C700088FC3099814603980BF083FC011C484680
:102C80000BF068FC011C40460BF064FC391C8046CC
:102C90002B980BF076FC2C99071C01980BF071FC1B
:102CA000011C381C0BF056FC311C071C2A980BF039
:102CB00068FC011C381C0BF04DFC011C40460BF05D
:102CC00049FC0A9B1C3560611834AB4200D08BE68E
:102CD000379B1A68629308929A6909921A6B0A9252
:102CE0009A6C0B921A6E0C929A6F0D9290229A58CF
:102CF0000E925A680F92DA6910925A6B1192DA6C3E
:102D000012925A6E1392DA6F149294229A58159274
:102D10009A6816921A6A17929A6B18921A6D1992FB
:102D20009A6E1A9280229A581B9298229A581C9254
:102D3000DA681D925A6A1E92DA6B1F925A6D2092BF
:102D4000DA6E219284229A5822929C229A582392D7
:102D50001A6924929A6A25921A6C26929A6D059C99
:102D600027921A6F2034289288229A58A1462992D5
:102D7000A0229A582A925A692B92DA6A2C925A6C9B
:102D80002D92DA6D2E925A6F2F928C229A58309291
:102D9000A4229B5831935CAB06933EAB0793329BC6
:102DA000984643464246414640461B689569019312
:102DB000069B146B096E926C40CB876F0291101CBE
:102DC0000B99039206930BF0DCFB0C998246029858
:102DD0000BF0D7FB011C50460BF0BCFB0D99824653
:102DE000381C0BF0CEFB0E998346301C0BF0C9FB50
:102DF000011C58460BF0AEFB011C50460BF0AAFB21
:102E000009998246281C0BF0BCFB0A998346201CBA
:102E10000BF0B7FB011C58460BF09CFB089983464E
:102E200001980BF0AEFB011C58460BF093FB011C04
:102E300050460BF08FFB4B461299186003980BF02D
:102E4000A0FB1399824602980BF09BFB011C504695
:102E50000BF080FB14998246381C0BF092FB1599FD
:102E60008346301C0BF08DFB011C58460BF072FBA7
:102E7000011C50460BF06EFB10998246281C0BF08B
:102E800080FB11998346201C0BF07BFB011C5846EC
:102E90000BF060FB0F99834601980BF072FB011C4D
:102EA00058460BF057FB011C50460BF053FB4B46AA
:102EB0001999586003980BF064FB1A99824602989E
:102EC0000BF05FFB011C50460BF044FB1B99824644
:102ED000381C0BF056FB1C998346301C0BF051FB41
:102EE000011C58460BF036FB011C50460BF032FB20
:102EF00017998246281C0BF044FB18998346201C26
:102F00000BF03FFB011C58460BF024FB169983463F
:102F100001980BF036FB011C58460BF01BFB011C03
:102F200050460BF017FB4B462099986003980BF026
:102F300028FB2199824602980BF023FB011C504686
:102F40000BF008FB22998246381C0BF01AFB2399E0
:102F50008346301C0BF015FB011C58460BF0FAFAA7
:102F6000011C50460BF0F6FA1E998246281C0BF005
:102F700008FB1F998346201C0BF003FB011C5846DD
:102F80000BF0E8FA1D99834601980BF0FAFA011C40
:102F900058460BF0DFFA011C50460BF0DBFA4B46AB
:102FA0002799D86003980BF0ECFA2899824602988A
:102FB0000BF0E7FA011C50460BF0CCFA2999824637
:102FC000381C0BF0DEFA2A998346301C0BF0D9FA34
:102FD000011C58460BF0BEFA011C50460BF0BAFA21
:102FE00025998246281C0BF0CCFA26998346201C92
:102FF0000BF0C7FA011C58460BF0ACFA2499834633
:1030000001980BF0BEFA011C58460BF0A3FA011C04
:1030100050460BF09FFA4B462E99186103980BF01F
:10302000B0FA2F99824602980BF0ABFA011C504679
:103030000BF090FA30998246381C0BF0A2FA3199C5
:10304000071C301C0BF09DFA011C381C0BF082FA97
:10305000011C50460BF07EFA2C99061C281C0BF024
:1030600090FA2D99051C201C0BF08BFA011C281CD2
:103070000BF070FA2B99041C01980BF082FA011CDA
:10308000201C0BF067FA011C301C0BF063FA4B4656
:10309000586104239C461433E0449C46079BE1445A
:1030A000984500D07DE6339B059DDC68296A206841
:1030B0000BF050FA049EA96B306060680BF04AFA7E
:1030C0007060A068296D0BF045FAB060E068A96EE9
:1030D0000BF040FA8023F0602069E95898460BF025
:1030E00039FA98233061E95860690BF033FA70615E
:1030F000A069696A0BF02EFAB061E069E96B0BF028
:1031000029FAF061206A696D0BF024FA3062E96EE9
:10311000606A0BF01FFA84277062A06AE9590BF00D
:1031200019FA9C23B062E958E06A0BF013FAF062D6
:10313000206BA96A0BF00EFA3063606B296C0BF000
:1031400009FA7063A06BA96D0BF004FAB063E06B31
:10315000296F0BF0FFF9F0638826206CA9590BF05A
:10316000F9F9049B1864A023606CE9580BF0F2F99C
:10317000049BE96A5864A06C0BF0ECF9049B696C41
:103180009864E06C0BF0E6F9049BE96DD864206D5F
:103190000BF0E0F9049B696F1865606D0BF0DAF9CC
:1031A0008C25049A059B5065A06D59590BF0D2F9F6
:1031B000A423049A9065059AE06DD1580BF0CAF9E2
:1031C000049B059AD865116B206E0BF0C3F9049B24
:1031D000059A1866916C606E0BF0BCF9049B059A19
:1031E0005866A06E116E0BF0B5F9049B059A9866AF
:1031F000E06E916F0BF0AEF9049B059AD8669023B0
:10320000206FD1580BF0A6F9049B059A1867A823E4
:10321000606FD1580BF09EF9049B059A5867A16F17
:10322000506B0BF097F9049B059A9867E16FD06C8F
:103230000BF090F94146049B059AD8676158506E8F
:103240000BF088F94146049B059A5850E159D06F1C
:103250000BF080F9049BD8519423059FA159F8588D
:103260000BF078F9049B9851AC236159F8580BF096
:1032700071F9049B585199239B009D44F0BCBB46B7
:10328000B246A946A046F0BDF0B5DE4657464E46CA
:1032900045460400E0B5036987B0580063694008FB
:1032A000590049080BF056F9E368590049080BF03A
:1032B00051F96368051C5800A36840085900490883
:1032C0000BF048F92368590049080BF043F9011C39
:1032D000281C0BF03FF9A36A051C5800E36A40085C
:1032E000590049080BF036F9636A590049080BF098
:1032F00031F9E369061C5800236A4008590049085F
:103300000BF028F9A369590049080BF023F9011CB7
:10331000301C0BF01FF9236C071C5800636C40082D
:10332000590049080BF016F9E36B590049080BF0F6
:1033300011F9636B061C5800A36B4008590049083B
:103340000BF008F9236B590049080BF003F9011C35
:10335000301C0BF0FFF8061C011C381C0BF048F960
:10336000002800D13E1C311C281C0BF041F900281C
:1033700000D12E1CA36D5800E36D40085900490888
:103380000BF0E8F8636D590049080BF0E3F8E36CC3
:10339000051C5800236D4008590049080BF0DAF865
:1033A000A36C590049080BF0D5F8011C281C0BF040
:1033B000D1F8236F071C5800636F40085900490873
:1033C0000BF0C8F8E36E590049080BF0C3F8636EC0
:1033D000051C5800A36E4008590049080BF0BAF8C4
:1033E000236E590049080BF0B5F8011C281C0BF09E
:1033F000B1F888238046E0580433E1584000490082
:10340000490840080BF0A6F88423E1584900490810
:103410000BF0A0F8E36F051C58008023E15840082A
:10342000490049080BF096F8A36F590049080BF0C2
:1034300091F8011C281C0BF08DF8051C011C40465E
:103440000BF0D6F8002800D14546291C381C0BF09B
:10345000CFF8002800D13D1C291C301C0BF0C8F807
:10346000002800D1351CC0232100E55001AABA3B39
:1034700002A8A83104930294FDF7AEF90121C422F9
:10348000019B98260B405B428B430133A354343A93
:103490009246002250469C2722509432A1509346D7
:1034A000923AA2510132E2519D32944660469C3AD2
:1034B0002250A03291469F3A90464A464046230009
:1034C000A05048461832A258903392009A181568B6
:1034D0002550404610606046B8222058A2588046C9
:1034E000604692009A181568255040461060B42234
:1034F000E059A258844692009A1810685D46E0513F
:1035000060461060B022A258A75992009A1810681D
:10351000A0511760AC225846A258265892009A181B
:10352000106860511660A822A258554692009B1858
:1035300052461868A25860511A60C523E15407B07A
:10354000F0BCBB46B246A946A046F0BDC02300224F
:1035500010B5C25000220433C2520B68040003604D
:103560004B6843608B688360CB68C3600B69036101
:103570004B6943618B698361CB69C3610B6A0362E9
:103580004B6A43628B6A8362CB6AC3620B6B0363D1
:103590004B6B43638B6B8363CB6BC3630B6C0364B9
:1035A0004B6C43648B6C8364CB6CC3640B6D0365A1
:1035B0004B6D43658B6D8365CB6DC3650B6E036689
:1035C0004B6E43668B6E8366CB6EC3660B6F036771
:1035D0004B6F43678B6F8367CB6FC3678023CA587A
:1035E000C2500433CA58C2500433CA58C2500433BC
:1035F000CA58C250FFF748FE200010BDF0B5DE46A5
:103600004E4645465746E0B5214C9146A5443AAA58
:1036100094460A0031931F4B3B9063441B091B01E6
:103620003A919846D3AB13CA13C313CA13C3126893
:10363000D3A91A60184B194A1B6847A80493184B62
:1036400047AC1B680193174B1B6805930093049BC1
:10365000FEF790FF47ABD3934B46D49347ABD5933C
:103660003AAA8323944686201B0163441B68C0004A
:103670004044A2AAD3A9D6930990FFF735F96BABC2
:10368000089343460A934B463094A1461C000BE036
:1036900014F7FFFF47030000AC1F03200AE81C419A
:1036A000A41F0320A81F03204B464E461B68B76F7C
:1036B0000493089B494640CB48464A460893A823B2
:1036C000896C006E9569126B06910790E158301C69
:1036D00005920AF056FF8C238246E158381C0AF006
:1036E00050FF011C50460AF035FF216F82460798B3
:1036F0000AF047FF616D834606980AF042FF011CFD
:1037000058460AF027FF011C50460AF023FFA16B20
:10371000824605980AF035FFE1698346281C0AF0C5
:1037200030FF011C58460AF015FF216883460498B3
:103730000AF027FF011C58460AF00CFF011C5046F6
:103740000AF008FF43461860AC23301CE1580AF029
:1037500018FF90238246E158381C0AF012FF011C22
:1037600050460AF0F7FE616F824607980AF009FF9B
:10377000A16D834606980AF004FF011C58460AF022
:10378000E9FE011C50460AF0E5FEE16B8246059811
:103790000AF0F7FE216A8346281C0AF0F2FE011C9B
:1037A00058460AF0D7FE6168834604980AF0E9FE9D
:1037B000011C58460AF0CEFE011C50460AF0CAFE13
:1037C00043465860B023301CE1580AF0DAFE9423D7
:1037D0008246E158381C0AF0D4FE011C50460AF01B
:1037E000B9FEA16F824607980AF0CBFEE16D8346D1
:1037F00006980AF0C6FE011C58460AF0ABFE011CF2
:1038000050460AF0A7FE216C824605980AF0B9FEE0
:10381000616A8346281C0AF0B4FE011C58460AF06F
:1038200099FEA168834604980AF0ABFE011C584635
:103830000AF090FE011C50460AF08CFE4346986048
:10384000B423301CE1580AF09CFE98238246E158CC
:10385000381C0AF096FE011C50460AF07BFEE16F10
:10386000824607980AF08DFE216E834606980AF07C
:1038700088FE011C58460AF06DFE011C50460AF0F5
:1038800069FE616C824605980AF07BFEA16A834658
:10389000281C0AF076FE011C58460AF05BFEE1681F
:1038A000834604980AF06DFE011C58460AF052FE49
:1038B000011C50460AF04EFE4346D860B823301C27
:1038C000E1580AF05EFE9C238246E158381C0AF05B
:1038D00058FE011C50460AF03DFE80238246E15806
:1038E00007980AF04EFE616E834606980AF049FE7C
:1038F000011C58460AF02EFE011C50460AF02AFE12
:10390000A16C824605980AF03CFEE16A8346281CB9
:103910000AF037FE011C58460AF01CFE2169834656
:1039200004980AF02EFE011C58460AF013FE011CF2
:1039300050460AF00FFE43461861BC23301CE15884
:103940000AF01FFEA0238246E158381C0AF019FE37
:10395000011C50460AF0FEFD84238246E158079878
:103960000AF00FFEA16E834606980AF00AFE011CBB
:1039700058460AF0EFFD011C50460AF0EBFDE16CE1
:10398000824605980AF0FDFD216B8346281C0AF04B
:10399000F8FD011C58460AF0DDFD61698346049874
:1039A0000AF0EFFD011C58460AF0D4FD011C5046F8
:1039B0000AF0D0FD4346E16E586106980AF0E1FD39
:1039C00088238246E15807980AF0DBFD011C504627
:1039D0000AF0C0FDA4238246E158381C0AF0D1FD4C
:1039E000C023071CE158301C0AF0CBFD011C381C19
:1039F0000AF0B0FD011C50460AF0ACFD616B061CDC
:103A0000281C0AF0BEFD216D051C05980AF0B9FDC1
:103A1000011C281C0AF09EFDA169051C04980AF0EF
:103A2000B0FD011C281C0AF095FD011C301C0AF099
:103A300091FD4346986104239C461833E1449C461B
:103A40004DABE0444B4500D02EE60A9BA146D8245E
:103A50009846A427A4004444BF0047442000099985
:103A6000FFF774FD210090223800C8240BF018F8ED
:103A7000FC21A400444489004144182220000BF09A
:103A80000FF8CE2081218000C90041441822404413
:103A90000BF006F88422D423D200424412689B0023
:103AA00043441A60D523874A4546424412889B0006
:103AB0004344FE211A8000232268B0359200AA18E0
:103AC0008905116093611363936413669367C92238
:103AD00092004244126844469200AA181360916111
:103AE0001363936413669367CA2292004244126878
:103AF00006269200AA1813609361116393641366FB
:103B00009367CB2292004244126806209200AA18C2
:103B1000136093611363916413669367CC229200E0
:103B2000424412689200AA1813609361136393646D
:103B300011669367CD229200424412689200AA183F
:103B400013609361136393641366A8235B009B4621
:103B5000916742465946E41820334344A660E66024
:103B6000266153508022920042444B396260924653
:103B700004933A0006230294FF3901960095FDF75D
:103B800011FE42465946049BA660E66026615350EA
:103B900053464B3963603A0006230294062001968F
:103BA0000095FF39FDF762FA43461B688C220793A4
:103BB0004346DB69D3AC089343469B6B099343466A
:103BC0005B6D0A9343461B6F0B9343469B5804322D
:103BD0000C9343465B68179343461B6A189343460E
:103BE000DB6B0D9343469B6D0E9343465B6F0F93C8
:103BF00043469B580432109343469B6811934346B7
:103C00005B6A129343461B6C13934346DB6D14931C
:103C100043469B6F159343469B5804321693434685
:103C2000DB68199343469B6A069343465B6C1A9381
:103C300043461B6E1B934346DB6F1C9343469B58C6
:103C4000183A1D9343461B691E934346DB6A1F9334
:103C500043469B6C209343465B6E219343469B589F
:103C60001C32229343469B58183A239343465B6980
:103C7000249343461B6B25934346DB6C26934346B4
:103C80009B6E279343469B581C32289343469B5870
:103C9000183A299343469B692A9343465B6B2B93BF
:103CA00043461B6D2C934346DB6E2D9343469B5836
:103CB0001C322E9343469B58A8462F934B46329373
:103CC00002E0C0462404000043461F685B68424689
:103CD0009946434641469B68D2680E694D690898EB
:103CE0004946049305920AF04CFC049982460998CF
:103CF0000AF047FC011C50460AF02CFC391C824695
:103D000007980AF03EFC011C50460AF023FC311CC7
:103D100082460B980AF035FC291C83460C980AF061
:103D200030FC011C58460AF015FC059983460A9898
:103D30000AF027FC011C58460AF00CFC011C5046F6
:103D40000AF008FC4946206018980AF01AFC049909
:103D500082460D980AF015FC011C50460AF0FAFB49
:103D6000391C824617980AF00CFC011C50460AF0D8
:103D7000F1FB311C82460F980AF003FC291C834694
:103D800010980AF0FEFB011C58460AF0E3FB059967
:103D900083460E980AF0F5FB011C58460AF0DAFB40
:103DA000011C50460AF0D6FB4946606012980AF0A2
:103DB000E8FB0499824613980AF0E3FB011C504685
:103DC0000AF0C8FB391C824611980AF0DAFB011C84
:103DD00050460AF0BFFB311C824615980AF0D1FB11
:103DE000291C834616980AF0CCFB011C58460AF0A1
:103DF000B1FB0599834614980AF0C3FB011C584691
:103E00000AF0A8FB011C50460AF0A4FB4946A0603A
:103E100006980AF0B6FB049982461A980AF0B1FB9C
:103E2000011C50460AF096FB391C824619980AF08C
:103E3000A8FB011C50460AF08DFB311C82461C98E1
:103E40000AF09FFB291C83461D980AF09AFB011C6F
:103E500058460AF07FFB059983461B980AF091FBB0
:103E6000011C58460AF076FB011C50460AF072FB12
:103E70004946E0601F980AF084FB04998246209826
:103E80000AF07FFB011C50460AF064FB391C824695
:103E90001E980AF076FB011C50460AF05BFB311CB1
:103EA000824622980AF06DFB291C834623980AF06B
:103EB00068FB011C58460AF04DFB05998346219882
:103EC0000AF05FFB011C58460AF044FB011C5046F7
:103ED0000AF040FB4946206125980AF052FB0499FC
:103EE000824626980AF04DFB011C50460AF032FB30
:103EF000391C824624980AF044FB011C50460AF003
:103F000029FB311C824628980AF03BFB291C83467A
:103F100029980AF036FB011C58460AF01BFB05994C
:103F2000834627980AF02DFB011C58460AF012FB25
:103F3000011C50460AF00EFB494660612B980AF0BE
:103F400020FB049981462C980AF01BFB011C484673
:103F50000AF000FB391C81462A980AF012FB011C6A
:103F600048460AF0F7FA311C071C2E980AF009FBA4
:103F7000291C061C2F980AF004FB011C301C0AF0B7
:103F8000E9FA0599051C2D980AF0FBFA011C281C7A
:103F90000AF0E0FA011C381C0AF0DCFA18239C46EF
:103FA000A061FDAB1C34E044A34200D08CE6329B00
:103FB000D49A9946D39BD599D69CD79DD89ED99F04
:103FC00006930792DA9BDB9A08910994DC99DD9CB1
:103FD0000A950B96DE9DDF9E0C970D93E09FE19B6B
:103FE0000E92E29A0F9110941195129613971493D2
:103FF0001592E399E49CE59DE69EE79FE89BE99A8C
:1040000016911794EA99EB9C18951996EC9DED9EE4
:104010001A971B93EE9FEF9B1C921D91F09AF199BA
:104020001E94F29C2096219722932392249125940A
:104030001F95F39DF49EF59FF79AF69BF899F99CCE
:1040400026952796FA9DFB9E2897FC9F2A923A9ADE
:1040500029932B912C942D952E962F97D3AB32CA62
:1040600032C332CA32C31168D3AC1960FD49FE4B6A
:1040700009681B680191FD49FD4A0968200000910B
:1040800041A9FDF7D7FF319F419938680AF05FFADF
:104090004299834678680AF05AFA43998246B8688A
:1040A0000AF055FA4499041CF8680AF050FA459948
:1040B000051C38690AF04BFA4699061C78690AF023
:1040C00046FA071C011C2A980AF05BFA311C80464C
:1040D00023980AF056FA011C40460AF03BFA291CC4
:1040E00080461C980AF04DFA011C40460AF032FA4C
:1040F000211C804615980AF044FA514604900E9807
:104100000AF03FFA011C04980AF024FA5946049078
:1041100007980AF036FA011C04980AF01BFA011CF1
:1041200040460AF017FA3A9A51680AF013FA391C15
:1041300004902B980AF025FA311C804624980AF046
:1041400020FA011C40460AF005FA291C80461D98F9
:104150000AF017FA011C40460AF0FCF9211C8046BF
:1041600016980AF00EFA514605900F980AF009FACF
:10417000011C05980AF0EEF95946059008980AF0D6
:1041800000FA011C05980AF0E5F9011C40460AF006
:10419000E1F93A9A91680AF0DDF9391C05902C98FA
:1041A0000AF0EFF9311C804625980AF0EAF9011C63
:1041B00040460AF0CFF9291C80461E980AF0E1F922
:1041C000011C40460AF0C6F9211C804617980AF0E7
:1041D000D8F95146319010980AF0D3F9011C319862
:1041E0000AF0B8F95946319009980AF0CAF9011C49
:1041F00031980AF0AFF9011C40460AF0ABF93A9A3F
:10420000D1680AF0A7F9391C31902D980AF0B9F954
:10421000311C804626980AF0B4F9011C40460AF089
:1042200099F9291C80461F980AF0ABF9011C4046F9
:104230000AF090F9211C804618980AF0A2F951461C
:10424000329011980AF09DF9011C32980AF082F917
:10425000594632900A980AF094F9011C32980AF0F3
:1042600079F9011C40460AF075F93A9A11690AF089
:1042700071F9391C32902E980AF083F9311C80466E
:1042800027980AF07EF9011C40460AF063F9291CC0
:10429000804620980AF075F9011C40460AF05AF948
:1042A000211C804619980AF06CF9514633901298F7
:1042B0000AF067F9011C33980AF04CF9594633901B
:1042C0000B980AF05EF9011C33980AF043F9011CBF
:1042D00040460AF03FF93A9A51690AF03BF95146D3
:1042E000339013980AF04DF9211C80461A980AF071
:1042F00048F9011C40460AF02DF9594680460C98B1
:104300000AF03FF9011C40460AF024F9311C8046AE
:1043100028980AF036F9391C34902F980AF031F9B0
:10432000011C34980AF016F9291C349021980AF0DF
:1043300028F9011C34980AF00DF9011C40460AF0D6
:1043400009F93A9A91690AF005F9391C80462998C9
:104350000AF017F9311C071C22980AF012F9011C07
:10436000381C0AF0F7F8291C061C1B980AF009F9FA
:10437000011C301C0AF0EEF8211C051C14980AF0F0
:1043800000F95146041C0D980AF0FBF8011C201C92
:104390000AF0E0F85946041C06980AF0F2F8011CED
:1043A000201C0AF0D7F8011C281C0AF0D3F83A9A0E
:1043B000D3AC11680AF0CEF83B9B049A18605A609F
:1043C000059A9A60319ADA60329A1A61339A5A6180
:1043D00042469A614B461B684A46A2934B465B682D
:1043E000A3934B469B68A4934B46DB68A5934B462F
:1043F0001B69A6934B465B69A7934B469B69A893A1
:104400004B46DB69A9934B461B6AAA934B465B6AF2
:10441000AB934B469B6AAC934B46DB6AAD934B46E2
:104420001B6BAE934B465B6BAF934B469B6BB09352
:104430004B46DB6BB1934B461B6CB2934B465B6CAC
:10444000B3934B469B6CB4934B46DB6CB5934B4696
:104450001B6DB6934B465B6DB7934B469B6DB89304
:104460004B4607E0A41F0320AC1F0320A81F032016
:104470000AE81C41DB6DB9934B461B6EBA934B4661
:104480005B6EBB934B469B6EBC934B46DB6EBD9302
:104490004B461B6FBE934B465B6FBF934B469B6F68
:1044A000C0934B46DB6FC1938023D358C2938423C0
:1044B000D358C3938823D358C4938C23D358C5931C
:1044C0009023D358C6939423D358C7939823D35893
:1044D000C8939C23D358C993A023D358CA93A42329
:1044E000D358CB93A823D358CC93AC23D358CD9394
:1044F000B023D358CE93B423D358CF93B823D358F3
:10450000D093BC23D358D193C023D358D293309B9C
:104510003092984643461F685B6842469946434638
:1045200041469B68D2680E694D690D9849460493CF
:1045300005920AF026F80499824614980AF021F8A8
:10454000011C50460AF006F8391C824606980AF00B
:1045500018F8011C504609F0FDFF311C82462298D4
:104560000AF00FF8291C834629980AF00AF8011C62
:10457000584609F0EFFF059983461B980AF001F8A9
:10458000011C584609F0E6FF011C504609F0E2FF05
:10459000494620600E9809F0F4FF04998246159868
:1045A00009F0EFFF011C504609F0D4FF391C824688
:1045B000079809F0E6FF011C504609F0CBFF311CBB
:1045C0008246239809F0DDFF291C83462A9809F0CA
:1045D000D8FF011C584609F0BDFF059983461C9879
:1045E00009F0CFFF011C584609F0B4FF011C5046EA
:1045F00009F0B0FF494660600F9809F0C2FF0499C6
:104600008246169809F0BDFF011C504609F0A2FF32
:10461000391C8246089809F0B4FF011C504609F085
:1046200099FF311C8246249809F0ABFF291C834670
:104630002B9809F0A6FF011C584609F08BFF05993D
:1046400083461D9809F09DFF011C584609F082FF22
:10465000011C504609F07EFF4946A060109809F001
:1046600090FF04998246179809F08BFF011C504671
:1046700009F070FF391C8246099809F082FF011C7D
:10468000504609F067FF311C8246259809F079FFF2
:10469000291C83462C9809F074FF011C584609F028
:1046A00059FF059983461E9809F06BFF011C584677
:1046B00009F050FF011C504609F04CFF4946E060EC
:1046C000119809F05EFF04998246189809F059FF85
:1046D000011C504609F03EFF391C82460A9809F039
:1046E00050FF011C504609F035FF311C82462698C8
:1046F00009F047FF291C83462D9809F042FF011C51
:10470000584609F027FF059983461F9809F039FF9D
:10471000011C584609F01EFF011C504609F01AFF03
:1047200049462061129809F02CFF04998246199895
:1047300009F027FF011C504609F00CFF391C824686
:104740000B9809F01EFF011C504609F003FF311CB5
:104750008246279809F015FF291C83462E9809F0F8
:1047600010FF011C584609F0F5FE05998346209874
:1047700009F007FF011C584609F0ECFE011C5046E9
:1047800009F0E8FE49466061139809F0FAFE0499C1
:1047900081461A9809F0F5FE011C484609F0DAFE38
:1047A000391C81460C9809F0ECFE011C484609F0C2
:1047B000D1FE311C071C289809F0E3FE291C061CB9
:1047C0002F9809F0DEFE011C301C09F0C3FE05998C
:1047D000051C219809F0D5FE011C281C09F0BAFE21
:1047E000011C381C09F0B6FE18239C46FFABA061E3
:1047F00014331C34E044A34200D08BE6309BA2ADBE
:1048000099463C93C4234C46C8464B4408930794AE
:104810004246D26843464146914642469E694C68AC
:10482000096892685F691B690491301CFD990693C1
:10483000059209F0A6FEF6998246381C09F0A1FE01
:10484000011C504609F086FEEF998246069809F051
:1048500098FEE8998346484609F093FE011C5846A5
:1048600009F078FE011C504609F074FEE199824679
:10487000059809F086FEDA998346201C09F081FE2E
:10488000011C584609F066FED3998346049809F046
:1048900078FE011C584609F05DFE011C504609F0E7
:1048A00059FE011C286809F052FE2860FE99301C50
:1048B00009F067FEF7998246381C09F062FE011C78
:1048C000504609F047FEF0998246069809F059FED5
:1048D000E9998346484609F054FE011C584609F000
:1048E00039FE011C504609F035FEE29982460598D2
:1048F00009F047FEDB998346201C09F042FE011CAB
:10490000584609F027FED4998346049809F039FEE9
:10491000011C584609F01EFE011C504609F01AFE03
:10492000011C686809F013FEFF996860301C09F0EB
:1049300028FEF8998246381C09F023FE011C5046D7
:1049400009F008FEF1998246069809F01AFEEA99E4
:104950008346484609F015FE011C584609F0FAFD49
:10496000011C504609F0F6FDE3998246059809F0CE
:1049700008FEDC998346201C09F003FE011C584602
:1049800009F0E8FDD5998346049809F0FAFD011C69
:10499000584609F0DFFD011C504609F0DBFD011C03
:1049A000A86809F0D4FDFFAB5968A860301C043337
:1049B00009F0E7FDF9998246381C09F0E2FD011C77
:1049C000504609F0C7FDF2998246069809F0D9FDD4
:1049D000EB998346484609F0D4FD011C584609F07E
:1049E000B9FD011C504609F0B5FDE49982460598D1
:1049F00009F0C7FDDD998346201C09F0C2FD011CAA
:104A0000584609F0A7FDD6998346049809F0B9FDE8
:104A1000011C584609F09EFD011C504609F09AFD04
:104A2000011CE86809F093FDFFAB9968E860301C51
:104A3000083309F0A6FDFA998246381C09F0A1FD59
:104A4000011C504609F086FDF3998246069809F04C
:104A500098FDEC998346484609F093FD011C5846A1
:104A600009F078FD011C504609F074FDE599824675
:104A7000059809F086FDDE998346201C09F081FD2A
:104A8000011C584609F066FDD7998346049809F041
:104A900078FD011C584609F05DFD011C504609F0E7
:104AA00059FD011C286909F052FDFFABD968286146
:104AB000301C0C3309F065FDFB998246381C09F067
:104AC00060FD011C504609F045FDF49982460698A8
:104AD00009F057FDED998346484609F052FD011C47
:104AE000584609F037FD011C504609F033FDE699A0
:104AF0008246059809F045FDDF998346201C09F0A0
:104B000040FD011C584609F025FDD89983460498BC
:104B100009F037FD011C584609F01CFD011C5046E8
:104B200009F018FD011C686909F011FDEE99686132
:104B3000484609F026FDF5998146069809F021FDC1
:104B4000011C484609F006FDFC998146381C09F015
:104B500018FDFFAB1969071C301C103309F011FD5B
:104B6000011C381C09F0F6FC011C484609F0F2FC57
:104B7000E099061C201C09F004FDE799041C059827
:104B800009F0FFFC011C201C09F0E4FCD999041C6D
:104B9000049809F0F6FC011C201C09F0DBFC011C48
:104BA000301C09F0D7FC011CA86909F0D0FC1C23BB
:104BB0009C46089BE044A8611C35984500D027E638
:104BC000079BA29A99461A60A39A5A60A49A9A607F
:104BD000A59ADA60A69A1A61A79A5A61A89A9A6168
:104BE000A99ADA61AA9A1A62AB9A5A62AC9A9A6244
:104BF000AD9ADA62AE9A1A63AF9A5A63B09A9A6320
:104C0000B19ADA63B29A1A64B39A5A64B49A9A64FB
:104C1000B59ADA64B69A1A65B79A5A65B89A9A65D7
:104C2000B99ADA65BA9A1A66BB9A5A66BC9A9A66B3
:104C3000BD9ADA66BE9A1A67BF9A5A67C09A9A678F
:104C4000C19ADA674A468023C299D150C399043386
:104C5000D150C4990433D150C5990433D150C69969
:104C60000433D150C7990433D150C8990433D1507B
:104C7000C9990433D150CA990433D150CB99043324
:104C8000D150CC990433D150CD990433D150CE9921
:104C90000433D150CF990433D150D0990433D1503B
:104CA000D1990433D150D2990433D1503AAA9446C1
:104CB0004F4BA2AA63441B6813CB13C24D4BD3AC1A
:104CC00063441B6807CB07C43A9B3B9D00934A4B48
:104CD00028006344A2A91B68D3AAFDF789F82B001A
:104CE000D3AA23CB23C213CB13C23AA91B688C4689
:104CF00013603EAA11003E4B63441B6831CB31C1A7
:104D00003C4BA2A963441B6831CB31C13A4BD3A9B8
:104D100063441B6871A80093A2ABFDF7CFFAD3AB35
:104D200007931C00719B0993789B10937F9B1793AB
:104D3000869B1E938D9B2593949B2C939B9B3393D7
:104D4000729B0A93799B1193809B1893879B1F9367
:104D50008E9B2693959B2D939C9B3493739B0B93D7
:104D60007A9B1293819B1993889B20938F9B279307
:104D7000969B2E939D9B3593749B0C937B9B1393D7
:104D8000829B1A93899B2193909B2893979B2F93A7
:104D90009E9B3693759B0D937C9B1493839B1B93D7
:104DA0008A9B2293919B2993989B30939F9B379347
:104DB000769B0E937D9B1593849B1C938B9B2393D7
:104DC000929B2A93999B3193A09B3893779B0F9347
:104DD0007E9B1693859B1D938C9B2493939B2B9377
:104DE0009A9B3293A19B3C9D39934B463C9305E0A3
:104DF00028080000380800003C080000E868AE6998
:104E00008146A96828692B686A6880460691301C2B
:104E100033990493059209F0B4FB6F6982462C998B
:104E2000381C09F0AEFB011C504609F093FB259994
:104E30008246404609F0A5FB1E998346484609F084
:104E4000A0FB011C584609F085FB011C504609F0E7
:104E500081FB17998246069809F093FB10998346C7
:104E6000059809F08EFB011C584609F073FB09995F
:104E70008346049809F085FB011C584609F06AFB3B
:104E8000011C504609F066FB34992060301C09F083
:104E900078FB2D998246381C09F073FB011C5046A3
:104EA00009F058FB26998246404609F06AFB1F9993
:104EB0008346484609F065FB011C584609F04AFB49
:104EC000011C504609F046FB18998246069809F0E5
:104ED00058FB11998346059809F053FB011C58466D
:104EE00009F038FB0A998346049809F04AFB011C33
:104EF000584609F02FFB011C504609F02BFB359951
:104F00006060301C09F03DFB2E998246381C09F088
:104F100038FB011C504609F01DFB2799824640468C
:104F200009F02FFB20998346484609F02AFB011C13
:104F3000584609F00FFB011C504609F00BFB19996C
:104F40008246069809F01DFB12998346059809F0E0
:104F500018FB011C584609F0FDFA0B99834604988A
:104F600009F00FFB011C584609F0F4FA011C5046E9
:104F700009F0F0FA3699A060301C09F002FB2F9975
:104F80008246381C09F0FDFA011C504609F0E2FA8D
:104F900028998246404609F0F4FA2199834648460A
:104FA00009F0EFFA011C584609F0D4FA011C5046EA
:104FB00009F0D0FA1A998246069809F0E2FA139994
:104FC0008346059809F0DDFA011C584609F0C2FA3B
:104FD0000C998346049809F0D4FA011C584609F04C
:104FE000B9FA011C504609F0B5FA3799E060301C57
:104FF00009F0C7FA30998246381C09F0C2FA011C40
:10500000504609F0A7FA29998246404609F0B9FAB4
:1050100022998346484609F0B4FA011C584609F023
:1050200099FA011C504609F095FA1B998246069898
:1050300009F0A7FA14998346059809F0A2FA011C11
:10504000584609F087FA0D998346049809F099FAB1
:10505000011C584609F07EFA011C504609F07AFA04
:1050600038992061301C09F08CFA31998246381C3D
:1050700009F087FA011C504609F06CFA2A99824619
:10508000404609F07EFA23998346484609F079FAAA
:10509000011C584609F05EFA011C504609F05AFA04
:1050A0001C998246069809F06CFA15998346059872
:1050B00009F067FA011C584609F04CFA0E9983462C
:1050C000049809F05EFA011C584609F043FA011CE5
:1050D000504609F03FFA49466061249809F051FAB8
:1050E000414681462B9809F04CFA011C484609F0CC
:1050F00031FA391C8046329809F043FA311C071CFA
:10510000399809F03EFA011C381C09F023FA011CF9
:10511000404609F01FFA0599061C169809F031FA65
:105120000699071C1D9809F02CFA011C381C09F07F
:1051300011FA0499071C0F9809F023FA011C381C76
:1051400009F008FA011C301C09F004FA089B1C3510
:10515000A0611C349D4200D050E63C9BA2AC994615
:10516000F6AB0693DAAB08934B463C943D93079B12
:10517000586D1A688146996B186F0492069A80469A
:10518000059148461E99DD691768D66909F0F9F955
:1051900025998246404609F0F4F9011C504609F071
:1051A000D9F92C998246381C09F0EBF933998346DA
:1051B000301C09F0E6F9011C584609F0CBF9011C36
:1051C000504609F0C7F910998246281C09F0D9F910
:1051D00017998346059809F0D4F9011C584609F03F
:1051E000B9F909998346049809F0CBF9011C58468E
:1051F00009F0B0F9011C504609F0ACF920601F9984
:10520000484609F0BEF926998246404609F0B9F9A8
:10521000011C504609F09EF92D998246381C09F070
:10522000B0F934998346301C09F0ABF9011C58469B
:1052300009F090F9011C504609F08CF91199824649
:10524000281C09F09EF918998346059809F099F9E8
:10525000011C584609F07EF90A998346049809F022
:1052600090F9011C584609F075F9011C504609F0E7
:1052700071F920996060484609F083F927998246C0
:10528000404609F07EF9011C504609F063F92E9959
:105290008246381C09F075F935998346301C09F0AF
:1052A00070F9011C584609F055F9011C504609F0E7
:1052B00051F912998246281C09F063F9199983461D
:1052C000059809F05EF9011C584609F043F90B995D
:1052D0008346049809F055F9011C584609F03AF93B
:1052E000011C504609F036F92199A060484609F0A2
:1052F00048F928998246404609F043F9011C504676
:1053000009F028F92F998246381C09F03AF93699A4
:105310008346301C09F035F9011C584609F01AF98A
:10532000011C504609F016F913998246281C09F011
:1053300028F91A998346059809F023F9011C584663
:1053400009F008F90C998346049809F01AF9011C30
:10535000584609F0FFF8011C504609F0FBF8229965
:10536000E060484609F00DF929998246404609F067
:1053700008F9011C504609F0EDF830998246381CB6
:1053800009F0FFF837998346301C09F0FAF8011C40
:10539000584609F0DFF8011C504609F0DBF8149973
:1053A0008246281C09F0EDF81B998346059809F000
:1053B000E8F8011C584609F0CDF80D998346049889
:1053C00009F0DFF8011C584609F0C4F8011C5046EA
:1053D00009F0C0F823992061484609F0D2F82A99CB
:1053E0008246404609F0CDF8011C504609F0B2F85B
:1053F00031998246381C09F0C4F838998346301C2C
:1054000009F0BFF8011C584609F0A4F8011C5046E9
:1054100009F0A0F815998246281C09F0B2F81C99E9
:105420008346059809F0ADF8011C584609F092F83A
:105430000E998346049809F0A4F8011C584609F017
:1054400089F8011C504609F085F8494660612498A6
:1054500009F097F8414681462B9809F092F8011C13
:10546000484609F077F8391C8046329809F089F8E7
:10547000311C071C399809F084F8011C381C09F00C
:1054800069F8011C404609F065F8291C061C1698AD
:1054900009F077F80599051C1D9809F072F8011CB0
:1054A000281C09F057F80499051C0F9809F069F8B1
:1054B000011C281C09F04EF8011C301C09F04AF8A8
:1054C000069A079B04320692089A0433A061079358
:1054D0001C34934200D04AE63AAA94463D9B764A51
:1054E0009946754B624463441B6812681B68D3ACD1
:1054F0000793714B63441B68DB6908936E4B6344ED
:105500001B689B6B09936C4B63441B685B6D0A9330
:10551000694B63441B681B6F0B938C23D358664AFB
:105520000C93654B624463441B685B680D93624B4C
:1055300063441B681B6A0E935F4B63441B68DB6B01
:105540000F935D4B63441B689B6D10935A4B6344F0
:105550001B685B6F126811939023D358564A1293BD
:10556000554B624463441B6812689B681393524B0B
:1055700063441B685B6A14934F4B63441B681B6C4A
:1055800015934D4B63441B68DB6D16934A4B634484
:105590001B689B6F17939423D358474A1893464B25
:1055A000624463441B68DB681993434B63441B6884
:1055B0009B6A1A93404B63441B685B6C1B933E4B86
:1055C00063441B6812681B6E1C933B4B63441B684F
:1055D000DB6F1D939823D358374A1E93364B624492
:1055E00063441B6812681B691F93334B63441B6839
:1055F000DB6A2093304B63441B689B6C21932E4BDA
:1056000063441B685B6E22938023D3582A4A2393FA
:105610009C2362441268D358274A2493264B624441
:1056200063441B685B692593234B63441B681B6BB6
:105630002693214B126863441B68DB6C27931E4B37
:1056400063441B689B6E28938423D3581A4A29937A
:10565000A02362441268D358174A2A93164B624417
:1056600063441B6812689B692B93134B63441B684C
:105670005B6B2C93104B63441B681B6D2D930E4B7F
:1056800063441B68DB6E2E938823D3580A4A2F93FA
:10569000A42362441268D35822003093074B63441A
:1056A0001B689846D3AB06939023434431934B46F3
:1056B00044469046329303E0340800002C08000072
:1056C0006368E2689946A36808994846049305927E
:1056D00008F057FF09998246049808F052FF011C10
:1056E000504608F037FF276882460799381C08F0B3
:1056F00048FF011C504608F02DFF266982460B9991
:10570000301C08F03EFF656983460C99281C08F0A0
:1057100038FF011C584608F01DFF0A99834605987A
:1057200008F02FFF011C584608F014FF011C5046DA
:1057300008F010FF414608600E99484608F021FF26
:105740000F998246049808F01CFF011C504608F08F
:1057500001FF0D998246381C08F013FF011C5046CA
:1057600008F0F8FE11998246301C08F00AFF1299E1
:105770008346281C08F005FF011C584608F0EAFE85
:1057800010998346059808F0FCFE011C584608F065
:10579000E1FE011C504608F0DDFE414648601499C8
:1057A000484608F0EEFE15998246049808F0E9FE96
:1057B000011C504608F0CEFE13998246381C08F0B2
:1057C000E0FE011C504608F0C5FE17998246301CC9
:1057D00008F0D7FE18998346281C08F0D2FE011C59
:1057E000584608F0B7FE16998346059808F0C9FE9A
:1057F000011C584608F0AEFE011C504608F0AAFEF7
:10580000414688601A99484608F0BBFE1B998246BB
:10581000049808F0B6FE011C504608F09BFE19994A
:105820008246381C08F0ADFE011C504608F092FE7E
:105830001D998246301C08F0A4FE1E998346281C40
:1058400008F09FFE011C584608F084FE1C99834610
:10585000059808F096FE011C584608F07BFE011CD6
:10586000504608F077FE4146C8602099484608F047
:1058700088FE21998246049808F083FE011C504658
:1058800008F068FE1F998246381C08F07AFE011C59
:10589000504608F05FFE23998246301C08F071FEE6
:1058A00024998346281C08F06CFE011C584608F019
:1058B00051FE22998346059808F063FE011C584664
:1058C00008F048FE011C504608F044FE41460861BD
:1058D0002699484608F055FE27998246049808F014
:1058E00050FE011C504608F035FE25998246381CB2
:1058F00008F047FE011C504608F02CFE299982460C
:10590000301C08F03EFE2A998346281C08F039FE18
:10591000011C584608F01EFE28998346059808F099
:1059200030FE011C584608F015FE011C504608F0D8
:1059300011FE43462C995861484608F022FE2D99E5
:105940008146049808F01DFE011C484608F002FE3E
:105950002B998146381C08F014FE011C484608F0BB
:10596000F9FD2F99071C301C08F00BFE3099061C1E
:10597000281C08F006FE011C301C08F0EBFD2E99D7
:10598000051C059808F0FDFD011C281C08F0E2FD2F
:10599000011C381C08F0DEFD434698611C239C4620
:1059A000319B1834E044A34200D089E6F6AB05935E
:1059B0003C9CDAAB3193069B0899DA691F689146E3
:1059C0009A6B484690465A6D1E6F0492059A20CAFB
:1059D000059208F0D6FD09998246404608F0D1FDAF
:1059E000011C504608F0B6FD07998246381C08F0A5
:1059F000C8FD011C504608F0ADFD0B998246301CD5
:105A000008F0BFFD0C998346281C08F0BAFD011C64
:105A1000584608F09FFD0A998346049808F0B1FDA6
:105A2000011C584608F096FD011C504608F092FDF6
:105A3000011C206808F08EFD0F992060404608F098
:105A4000A0FD0E998246484608F09BFD011C504679
:105A500008F080FD0D998246381C08F092FD011C6B
:105A6000504608F077FD11998246301C08F089FDF8
:105A700012998346281C08F084FD011C584608F042
:105A800069FD10998346049808F07BFD011C584677
:105A900008F060FD011C504608F05CFD011C6068C8
:105AA00008F058FD14996060484608F06AFD1599A1
:105AB0008246404608F065FD011C504608F04AFD4C
:105AC00013998246381C08F05CFD011C504608F012
:105AD00041FD18998246281C08F053FD179983460A
