:020000041000EA
:1000000000B5324B212058609868022188439860DF
:10001000D860186158612E4B002199600221596106
:100020000121F02299502B49196001219960352056
:1000300000F044F80222904214D00621196600F024
:1000400034F8196E01211966002018661A6600F04E
:100050002CF8196E196E196E052000F02FF8012189
:100060000842F9D1002199601B49196000215960AB
:100070001A491B48016001219960EB211966A021F2
:10008000196600F012F800219960164914480160C1
:100090000121996001BC002800D000471248134993
:1000A000086003C880F30888084703B5996A0420EC
:1000B0000142FBD001200142F8D103BD02B5186610
:1000C0001866FFF7F2FF186E186E02BD00000240BE
:1000D000000000180000070000035F00212200005C
:1000E000F4000018222000A00001001008ED00E03C
:1000F00000000000000000000000000074B24E7A12
:1001000000200420F7010010C3010010C5010010F9
:10011000C1010010C1010010C1010010C101001097
:10012000C1010010C1010010C1010010C701001081
:10013000C1010010C1010010C9010010CB01001065
:10014000CD010010CD010010CD010010CD01001037
:10015000CD010010CD010010CD010010CD01001027
:10016000CD010010CD010010CD010010CD01001017
:10017000CD010010CD010010CD010010CD01001007
:10018000CD010010CD010010CD010010CD010010F7
:10019000CD010010CD010010CD010010CD010010E7
:1001A000CD010010CD010010CD010010CD010010D7
:1001B000CD010010CD010010CD010010CD010010C7
:1001C00000BE00BE00BE00BE00BE00BEEFF3058054
:1001D000103800BEF2EB88712C8205104C8205109D
:1001E0003402001090A31AE700201F49086006C8D7
:1001F00081F3088810471D48006800282FD10DA4FE
:100200000ECC002902D000F012F8F9E71849194A7B
:10021000002000E001C19142FCD1174988471749ED
:1002200088471749884700BEFDE701C901C29A42C5
:10023000FBD370474C820510C0000020F02C00203A
:100240007CAE051000000420000004207CAE0510E8
:10025000001004200010042000000000704709482E
:1002600011F0B0F90047000008ED00E0000000D0F8
:10027000F02C0020E05A0320B9FD00107503001097
:10028000EDFE00105756000006005250ABB360530D
:1002900008DE041006005250861C030218DE04100B
:1002A000060052505422A29D24DE04100500525034
:1002B000DE65F4687CAE0510F8B5C0460448054B11
:1002C00010B5834203D0044B002B00D0984710BDDB
:1002D000F02C0020F02C0020000000000648074908
:1002E000091A8B10C90FC91810B5491003D0044B57
:1002F000002B00D0984710BDF02C0020F02C0020DF
:100300000000000010B5074C2378002B09D1FFF73F
:10031000D5FF054B002B02D0044800E000BF0123AD
:10032000237010BD003200200000000048D40410EB
:10033000054B10B5002B03D00449054800E000BF71
:10034000FFF7CCFF10BDC0460000000004320020C3
:1003500048D4041010B504001F210DF0EFFC00225A
:10036000200000210DF002FD002120000DF016FDFF
:1003700010BDC04630B5192083B00DF023FDD02349
:1003800080221B0692045A62394812F09FFC12F038
:10039000FDFD384812F09AFC0FF0F2FC1A20FFF72E
:1003A000D9FF1B20FFF7D6FF00F08CF8324812F07F
:1003B0008DFC07F005FC314812F088FC09F0F4F9D7
:1003C0002F4812F083FC07F039FE02F0A7F82D4801
:1003D00012F07CFC0AF0D6FC002205242A4B1A708D
:1003E00006F02CFF294812F071FC294D013C210038
:1003F000280012F0BFFDFA2080000EF005FB002C53
:10040000F4D10A2012F016FC0021012221480DF03F
:10041000B1FF214814F06AFF00F050F901221F4B90
:1004200014201A7012F0E0FA112304000193013332
:1004300010221B49009301330AF08CFE194D200055
:100440002C600CF021FB2B68002B0CD0164812F00E
:100450003DFC164C2378012BFCD109F061FB23787D
:10046000012BFAD0F6E7124812F030FCF1E7C04653
:1004700048D4041058D4041064D4041070D4041068
:1004800080D4041090D40410C25A0320A0D40410C5
:10049000ACD4041098590320659D0010C15A032064
:1004A00000C0034038400320C0D40410C65A0320C3
:1004B000D8D4041010B5024815F040FA10BDC0465B
:1004C00060390320092370B586B005930433049383
:1004D000023B0393013B0293023B324D324C0193AA
:1004E000324B22003249334800932B0006F064FB64
:1004F000142006F05DFBFA2080000EF085FA2E4EE7
:1005000021003200280006F06FFD3378682B08D0F8
:100510002A4C200012F0DAFBFA2080000EF074FA68
:10052000F7E773783D2BF3D101222100280006F074
:100530007FFD234E32002100280006F0B3FD337802
:10054000002BF7D101222100280006F02FFC012109
:10055000200006F00DFC0321200006F09FFB032184
:10056000280006F0C9FC1321200006F009FE122124
:10057000200006F043FE0021200006F021FE0321AA
:10058000200006F0ABFD0221200006F0C3FD55213E
:10059000200006F0A1FB1821280006F047FC06B059
:1005A00070BDC0460C2003208833002040420F005D
:1005B0009C20002094200020785A032000D50410AD
:1005C000D95A0320F0B5C646334C344D344E220080
:1005D0002900300000B506F019FD6378DB439B0766
:1005E00020D023781B0702D480BCB846F0BD2D4C28
:1005F00006220021200012F0EBF92100300006F065
:10060000D5FC0023E05E06F03FFB274D2860022367
:10061000E05E06F039FB68600423E05E06F034FB20
:10062000A860E1E7214B062298461800002112F04D
:10063000CFF91F4F06220021380012F0C9F94146B8
:10064000280006F095FC3900280006F073FC4346AC
:100650000020185E06F004FB4346164D2860022079
:10066000185E06F0FDFA434668600420185E06F046
:10067000F7FAA8600023F85E06F0FCFA0E4D286039
:100680000223F85E06F0F6FA68600423F85E06F0CE
:10069000F1FAA860A5E7C046AC4F032088330020DC
:1006A0000C200320643F0320B4440320543F032064
:1006B0005C3F0320E03D0320003E0320F0B5C6462A
:1006C00000B512F063FC254925480FF091FA03218B
:1006D0001A200DF033FB03211B200DF02FFB00220D
:1006E00001211A200DF042FB002201211B200DF0F8
:1006F0003DFB1C480EF088F91B4C1C4E23781C4D0A
:10070000DB070ED41B4B01279846210030880CF0E4
:10071000E3FE4346287018680EF076F923781F42EE
:10072000F3D030880CF0B6FC0221287030880CF031
:1007300007FE1421287030880CF03AFD142128702F
:1007400030880CF0A3FE287030880CF007FD28706C
:10075000094812F0BBFA80BCB846F0BD801A06000A
:100760007C210020B80B0000DA5A0320A4200020CE
:10077000C95A0320A820002014D50410F0B557460C
:10078000DE464E464546E0B58BB0089192461900CC
:1007900005900993DA1703238C46134063449B109A
:1007A0009B009846002B00DC90E05246159B0024ED
:1007B0009B000193149B9B1A159A9B1A089A9B0005
:1007C00002935368126819019446049106925146A7
:1007D0009A00039252468D000021013A920007923E
:1007E000002289465900DE00CB189B009B4613006F
:1007F000424665440092019A94469C44039B1A1910
:100800009F195346002B1EDD069B05981919634658
:10081000804600989B004344804600940868186016
:100820000098081A845804315C6084599C60C0594F
:10083000D86010338D42F1D1434607990093634647
:100840008C4604339C440421029B5A4463448C46E6
:100850001400049A3E00E1449446009A5E446544C4
:100860004A45C8DC1A00009B9846099B434526DD93
:100870001499159C089B0D1B514609CB6D1A002934
:100880001DDD41469E004B439B00C01853469C0013
:10089000059B47469C46099BAB469846159B994647
:1008A00000234A4491006144C558CD5004339C4212
:1008B000FAD1524401375A448019B845F0D10BB0EF
:1008C000F0BCBB46B246A946A046F0BD0022CCE72C
:1008D000F0B54746CE4680B51F00002B1DDD002A2F
:1008E0001BDD9300C0180B68002498464B689100EC
:1008F000D200494252428C4691469B0061464518BF
:100900002900A20042441668D21840C18142FAD19F
:100910004A460134A81AA742F0D1C0BCB946B04635
:10092000F0BDC046F0B5DE464E465746454600236C
:10093000E0B5136083688BB0049305239B460023C6
:100940005E46099202680293013B0790069103926A
:1009500008930523049C9B1B5C439846029BA400C0
:100960009C46039B64449C46644423685D00636822
:100970006D085F007F08291C381C11F0E5FD002878
:1009800000D1CCE03D1C0127731C9A46022B37D9BD
:10099000A368291C5B005B08181C994611F0D4FD64
:1009A000002801D04D4602275346032B28D0E36888
:1009B000291C5B005B08181C994611F0C5FD002836
:1009C00001D04D4603275346042B19D02369281C18
:1009D0005B005B08191C994611F0A8FD002801D0A6
:1009E0004D4604275346062B0AD16469281C64002F
:1009F0006408211C11F09AFD002801D00527251C50
:100A0000069B029A474400219F50281C11F086FD46
:100A1000002800D185E0089B013300D1FEE00623C9
:100A200047469B1B9C46079A059392685743674429
:100A30000492BF000599049B0C009A005C43029B42
:100A400000929C46039BA5001A0065448C46914683
:100A50009B46924690463B1D6444A400994404334F
:100A60005D445C449A44BB44043310379446984434
:100A70003B000027634401935B462968186811F026
:100A80001EFD011C206811F000FD2060012E2DD9F3
:100A90004B462868196811F012FD011C606811F0BE
:100AA000F4FC6060022E21D053462868196811F0CA
:100AB00006FD011CA06811F0E8FCA060032E15D013
:100AC00043462868196811F0FAFC011CE06811F02F
:100AD000DCFCE060052E09D1019B2968186811F043
:100AE000EEFC011C206911F0D0FC2061009B013755
:100AF0009C4665446444BE42BED1029B013E043321
:100B00000293059B052B00D023E71A00069B5A6130
:100B10000BB0F0BCBB46B246A946A046F0BD0027CC
:100B200032E7474530D0039902988C46BF006744AE
:100B30008446079A3C6892680B5892000C506144B6
:100B40003B608918BB1808681C680C60186089181D
:100B50009B1808681C680C60186089189B18086846
:100B60001C680C60186089189B1808681C680C6069
:100B7000186089189B1818680A6808601A60099A32
:100B800013680093013313604746079B039A9B68E1
:100B90005F4304930623991B43468C46FB189B0036
:100BA00067449C58BF00D51928680591211C11F095
:100BB00072FC2860012E00D83CE7039B3D1D9C463B
:100BC00065442868211C11F066FC2860022E00D1C3
:100BD00030E7039B3D009C46083565442868211C8E
:100BE00011F059FC2860032E00D123E7039B3D0040
:100BF0009C460C3565442868211C11F04CFC28608B
:100C0000042E00D116E7039A3D0094461035654442
:100C10002868211C11F03FFC28600BE7062347469B
:100C20009B1B9C4605934346079A0893926857433B
:100C300067440492BF00FDE6F0B55746DE464E46D7
:100C40004546E0B599B01493249B8246259C26988E
:100C50005D1C00D1229B651C00D1229C239DEE17B8
:100C600003253540239EB4466544AD10AF000725EB
:100C7000229E0E97AE4335000096149E002E00DC97
:100C800088E29B001693230110930301D318179356
:100C90006B1EDB0801330391D9015B010F93A300A5
:100CA0007C43201880001193131815930023D3461A
:100CB000139108930E9B002B00DCC2E10F9A039B5B
:100CC000944663441293179BD846019300230293E2
:100CD0000298434601000CCB089C5943A44661444A
:100CE000890051180991411C5943614489005118E8
:100CF0000A91811C59436144890051180B91C11C10
:100D00004B4363449B00D318019E0C93009B34001B
:100D1000002B00DC45E2039B0025994600234C464E
:100D2000AA46AB46A946069504952F1C059507953E
:100D30000D9325683168281C11F0C1FB594611F04C
:100D4000A7FB71688346281C11F0B9FB514611F0CE
:100D50009FFBB1688246281C11F0B1FB079911F086
:100D600097FBF1680790281C11F0A9FB059911F079
:100D70008FFB059065683169281C11F0A0FB391CB8
:100D800011F086FB7169071C281C11F098FB04996F
:100D900011F07EFBB1690490281C11F090FB0699BC
:100DA00011F076FBF1690690281C11F088FB49468A
:100DB00011F06EFB8146A568316A281C11F07FFB9B
:100DC000594611F065FB716A8346281C11F077FBC8
:100DD000514611F05DFBB16A8246281C11F06FFB91
:100DE000079911F055FBF16A0790281C11F067FB79
:100DF000059911F04DFB0590E568316B281C11F049
:100E00005EFB391C11F044FB716B071C281C11F0B0
:100E100056FB049911F03CFBB16B0490281C11F0B7
:100E20004EFB069911F034FBF16B0690281C11F073
:100E300046FB494611F02CFB81462569316C281C84
:100E400011F03DFB594611F023FB716C8346281CC1
:100E500011F035FB514611F01BFBB16C8246281C8A
:100E600011F02DFB079911F013FBF16C0790281C72
:100E700011F025FB059911F00BFB05906569316DAB
:100E8000281C11F01CFB391C11F002FB716D071CB2
:100E9000281C11F014FB049911F0FAFAB16D0490BA
:100EA000281C11F00CFB069911F0F2FAF16D069076
:100EB000281C11F004FB494611F0EAFA8146A569A5
:100EC000316E281C11F0FBFA594611F0E1FA716EEF
:100ED0008346281C11F0F3FA514611F0D9FAB16E8D
:100EE0008246281C11F0EBFA079911F0D1FAF16E45
:100EF0000790281C11F0E3FA059911F0C9FA059042
:100F0000E569316F281C11F0DAFA391C11F0C0FACA
:100F1000716F071C281C11F0D2FA049911F0B8FA6D
:100F2000B16F0490281C11F0CAFA069911F0B0FABA
:100F3000F16F0690281C11F0C2FA494611F0A8FA88
:100F40008146803620340D9B009A08330D939A42D7
:100F500000DDEEE6139B019C9C46051C5946381C9F
:100F6000644411F095FA5146071C049811F090FA68
:100F70000799061C069811F08BFA05998146281CE2
:100F800011F086FA129B051C9A46229A009B9A42FF
:100F900030DDAB460493534620CB2168281C9A468B
:100FA00011F08DFA011C381C11F072FA6168071CEF
:100FB000281C11F084FA011C301C11F069FAA16898
:100FC000061C281C11F07BFA011C484611F060FA3F
:100FD000E1688146281C11F072FA011C584611F094
:100FE00057FA8346049B229A0133103404939A42A1
:100FF000D1D1051C311C0A9E306811F046FA391C0B
:10100000099F041C386811F040FA291C0C9D3860B7
:101010003460286811F039FA0B9E4946041C306888
:1010200011F033FA1099019A8C46029B62440192A6
:101030000E9A0433306002932C609A4200DD47E63A
:10104000C3460F9A039B944663440E9A0293239BD4
:101050009246159D934200DC90E05B465C685346E7
:101060005C43089B2F009C465B461B6864449C467F
:10107000009BA4006444002B00DC99E00023039F44
:1010800099463B00A04600262F001C0039682068C6
:1010900011F015FA311C11F0FBF9061C7968606833
:1010A00011F00DFA311C11F0F3F9061CB968A068B3
:1010B00011F005FA311C11F0EBF9061CF968E06833
:1010C00011F0FDF9311C11F0E3F9061C39692069B2
:1010D00011F0F5F9311C11F0DBF9061C7969606932
:1010E00011F0EDF9311C11F0D3F9061CB969A069B2
:1010F00011F0E5F9311C11F0CBF9061CF969E06932
:1011000011F0DDF9311C11F0C3F9061C2037203431
:1011100008239C46009BE1444B45B7DC44460F9BAB
:10112000EF18029B0193229A009B9A4217DD994681
:101130000023984643464246F958019B985811F0BF
:10114000BEF9011C301C11F0A3F9061C01239C46BA
:101150000333E1449C46229BE0444B45EAD120689E
:10116000311C11F092F901239C46119BE2449C46EC
:10117000239B20606544534500D06EE71699039A7F
:101180008C46089B62440392149A013308939A4256
:1011900000D08FE519B0F0BCBB46B246A946A046C8
:1011A000F0BD0025039BA9469A462E1C2F1CECE699
:1011B000039B00260193B6E7F0B55746DE464E4640
:1011C00045469C24E0B5BDB006AF3C19FB638423C3
:1011D00020609824BA6694225B003C19FB182160B9
:1011E0001C68BA182369FB67A3681360834202DD99
:1011F0009423FB18186094239821FB187918FA6F30
:101200001B680D68534355432268002A00D1DBE276
:101210009B007B668C23FB181A6090220023BA186F
:1012200013606368AA003A66002B00D1ECE28822C2
:10123000BB670023BA181360C84D2B78BFF35B8FD0
:10124000DB0700D4FDE2C64CA4220423BA181360C5
:101250009433FB181B686068002B18DD9C237A1DF3
:10126000FB18FF321B6812681900934200DAFFE294
:10127000090110F001FA0323C2171340A4221B181E
:101280009B109B00BA181360042B00DAEBE29C233E
:10129000FB181C68002C00DC72E2FB6BFD6F180071
:1012A0006A425043F86118008021661B7043F8665B
:1012B000180001335A4392007918BA61621E0E6019
:1012C0001100594389008846B96E1B018C46E044E1
:1012D00041467964A90049423961A1007C1CFF3470
:1012E00024685B42A446A42461443964791DFF311B
:1012F0003C1909682468FB606143B962B02183002E
:101300005B4279180B600300921B5043DB43AC2215
:101310009B00BA181360C4227B1DFF331B68BA18E8
:101320009B0078611360A022FB6FBA1813609C22A7
:10133000BA181268934202DDA023FB181A609823A2
:10134000FB181B68002B00DC9FE1A023FB181A6828
:10135000002A00DC99E19823FB181B68396C3B6577
:10136000A423FB181B6853439B00FB62BB6FFB6409
:101370009300CB1A79697B628C46FB6EB82163447B
:101380007B63002379180B60D021BB643B679C33DF
:10139000FB181B6879189B1ABB6013007960032146
:1013A000013B043A8B43D31A3B63A422BA183B6D2A
:1013B0001268FB65934200DDFA65B822BA1812681C
:1013C000FB6D9446C8226344BA1813609C237A6A62
:1013D000FB1894461B6884227B673B6FBA189B00FE
:1013E00063443B627B6B7B657B6CBB65A023FB1816
:1013F0001B6813608423B422FB181B68BA1813609F
:10140000042B03DDB4220423BA1813608423FB18D1
:101410001B68002B00DCA5E0B422C820B824BA1851
:101420007B6F116838183C19006824685A1ABA632F
:10143000A04200DC9CE094464E1EB96E9B008A469A
:10144000043B9B467B6D791C63449B00FF3109681C
:101450009A44BB6C63448C46A8219B006344791872
:101460000B609300C0225B42BA181360BC22BB6DB4
:10147000BA181360BC23FE20FB181B68800519688E
:1014800011F009F8CC23FB181860A823FB181C687E
:10149000B823FB181B68B1461E00C023FB181B684D
:1014A0005A469846A04443469958CC23FB181868DE
:1014B00011F005F843465A4698504B46051C002B40
:1014C00022DD5346196810F0FAFF011C206810F065
:1014D000DCFF4B462060012B16D05346281C596870
:1014E00010F0EDFF011C606810F0CFFF4B4660600C
:1014F000022B09D05346281C996810F0E0FF011C0C
:10150000A06810F0C2FFA060C423FB181B6801365E
:101510009C46C823FB181B6864449E42BDD1AC2284
:10152000BC23BA181268FB189446BC221B68BA1870
:10153000634413600423B0225B429C46BA181268CD
:10154000E3449446B4224E46BA181268731EE2442D
:10155000961BB2420CDD1E008CE7C046B023032070
:1015600078390320B422BA187B6F12689B1ABB63C8
:101570008423B422BD6BBA18AC46FB1810681B68F4
:101580007A1CFF3212681C1A3B6F796863449446D8
:101590009B0063440B607B1DFF331B6880464B60E0
:1015A000A0230194FB181E6802000096FB6DF86CE6
:1015B0009B4689468246FFF7E1F8002C2ADD2B0086
:1015C000BA6849469446FD6BBA6E6B438C206344FF
:1015D00094464D604D469B003818006863440B608C
:1015E000424623008146FFF773F929007B1DFF3334
:1015F0003D6A1B680D604B600D005B4603964646D6
:10160000019352462300494628000494029600960E
:10161000FFF712FB84238422F968FB188C46B02163
:101620001B68BA18043B13607A6F7918043A09688A
:101630007A67BA6D62448C46BA657A6D62447A659F
:101640003A6B934200D0D5E6A422B823BA181268A8
:10165000B8219446FB181B68791863440B60396DF8
:101660008A1AF96A3A658C46FA6CB96A62448C4601
:10167000FA643A6F62443A67BA6C6244BA64982278
:10168000BA1812689A4200DD8FE680239C22FB186C
:101690001B68BA181360002B72DD9423FB181B68BB
:1016A000002B00DCFEE78023BA6EFB1892461D6813
:1016B000FB6E00249B009A44D023FE1800239B4617
:1016C000013B99469423FB181B68A8469D4200DD08
:1016D0009846CC22A300BA181360FA6B8C20726073
:1016E000A0225344BA1838183100126800683360D9
:1016F0004346FFF7EDF87A1CCC23FF321268FB1843
:1017000094461B688C21634433607B1DFF331B6848
:10171000791873605B4604934B46039302939823B6
:10172000FB181B6830000193A023FB181B68009373
:10173000BA6F43460968FFF77FFA9423FB181B68CA
:101740009C46ED1A8023FB181B686444A342B9DC55
:10175000FA69FB6E9446BA6963449446FB663A693B
:101760007B6C634494467B643B6CFA6F63443B64DC
:101770008023FB181B689B1A8022BA181360D2E5DD
:1017800080233A6E9B029A4208D98823FB181B6873
:10179000002B03D0043B186811F002F980237A6E05
:1017A0009B029A4208D99023FB181B68002B03D098
:1017B000043B186811F0F4F8BD4637B0F0BCBB46E6
:1017C000B246A946A046F0BD9A0080237A669B02E5
:1017D0009A424FD813006A461633DB08DB00D31A4F
:1017E0009D4627200F23684498438133FB181860D7
:1017F00090238C22FB181B68BA1813606368AA0038
:101800003A66002B00D012E580239B029A424FD803
:1018100013006A461633DB08DB00D31A9D462720E7
:101820000F23684498437933FB1818608823FB180A
:101830001B682D4DBB672B78BFF35B8FDB0700D593
:1018400001E5280013F078FD284C002800D1FBE4C6
:101850008023DB01236080231B0328006360A360D7
:1018600013F086FDF0E4A4220423BA1813600EE5F9
:101870001100FDE41000103011F074F89023FB18F3
:10188000021E1860B4D00F23010099430B001021F1
:101890008C468C209C446146DA60236838180160CD
:1018A00058425841902340420140FB181960B8E467
:1018B0001000103011F056F88823FB18186000282B
:1018C000B4D00F23010099430B0010218C46D8603F
:1018D00060689C4443425841614688234042B9674E
:1018E000FB1801401960A7E4B023032078390320D6
:1018F000F0B55746DE464E464546E0B5B3B006AFB6
:101900008C24BB62E023FA6288223C19FB18216018
:101910001C68BA182369786513608422A368BA1812
:101920001360834202DD8423FB181860842388221D
:101930008C21FB18BA18791812681B680D6853437C
:1019400055432268002A00D150E29B00FA678022AA
:101950003B650023BA1813606368AA00FA64002B81
:1019600000D161E2FB660023BB67E74D2B78BFF334
:101970005B8FDB0700D470E2E44C90220423BA189A
:1019800013608833FB181B686068002B16DDDC22AF
:10199000BA187B6D12681900934200DA74E20901EB
:1019A0000FF06AFE0323C217134090221B189B10EE
:1019B0009B00BA181360042B00DA60E27B6D002BE9
:1019C00000DCF1E18822B96ABA1808001268BB632A
:1019D00050439B1AB86098207B634B1C99001B01F5
:1019E000FB61DC234A43381801607A609020DC22D6
:1019F000FB181B68BA189B009B46FB6A38183B63B0
:101A0000002312680068BB6542437A610A1F3A628C
:101A10007B679422BB6BBA1813608822BA181268CD
:101A2000934202DD9423FB181A608C23FB181B6879
:101A3000002B00DC45E19423FB181A68002A00DC27
:101A40003FE18C239021FB181B687918BB641300BD
:101A50000968DA464B43D821791809689B008C46FF
:101A60003B61FB6E9C21FB657B6F79189B00634497
:101A7000FB6000230B60A8213B66791813003960D6
:101A80000321013B043A8B43D31ABB619022BA185D
:101A9000BB6C1268BB66934200DDBA669C22BA1822
:101AA0001268BB6E9446FA68634494469B463B6E4C
:101AB0009B006344FB633B6B3B647B6F7B66BB6D4E
:101AC0007B649423FB181B683B679423FB181A68FC
:101AD0003B6FD21A7A62A022BA181360042B03DD7E
:101AE000A0220423BA1813603B6F002B58DD9C23FF
:101AF000FB181B689B4553DDA023A422FB181B6821
:101B0000BA18013B9946FB6B13603B6C98464B46F9
:101B1000002B2EDDA423FB181C689C23FB181E68D9
:101B2000434625685968281C10F0C9FC011C6068F0
:101B300010F0ABFC4B466060012B16D04346281CCE
:101B4000996810F0BCFC011CA06810F09EFC4B468C
:101B5000A060022B09D04346281CD96810F0AFFCC6
:101B6000011CE06810F091FCE060013654445E45D1
:101B7000D6D14B465A1E9823FB181B68A4219C46BD
:101B8000A423FB181B68791804330B60A023FB18EF
:101B900019684B46E044CB1A994201DD9146B6E7FD
:101BA000A022BA181468D8223B6F796E3E6E8C461C
:101BB0001D1B3300BA1810686344844639689B00C3
:101BC00063440B60DC23FB181B6822004B607B6ABC
:101BD000884601939423FB1818680090BB6EF86D3B
:101BE000FEF7CCFD002D36DD7B6E41469C46786CC1
:101BF000220064440319F86A9B008446B86A63446F
:101C00004860A02038180260F86F0B602B00C146B6
:101C10008046FEF75DFED822BA18331914689B007F
:101C2000A4464C4663442360DC23FB1819687B6A96
:101C3000616004939423FB181E68A0230396FB188D
:101C40001A6841460292BB6E0092019348462B00EF
:101C5000FA6DFEF7F1FF396A7A6C8C46F9696244D5
:101C60008C467A647A6E3B6F04327A663A6C043B37
:101C700062443A64FA6B3B671032FA63BA69934282
:101C800000D022E790229C23BA1812689C21944627
:101C9000FB181B68791863440B60B96C8A1A796960
:101CA000BA648C463A6E396962448C463A66FA6D7B
:101CB0006244FA658C22BA1812689A4200DDE5E6A1
:101CC000D3468822BA1812687B6F94467A6D6344B3
:101CD0007B67934268DA8423FB181B68002B17DCB0
:101CE0008823B968FB188C46BA6B1B68D21ABA6392
:101CF000BA6D6244BA657A6BD31A7A687B6394468C
:101D00003B6B63443B6384E6B023032078390320B4
:101D1000FA6ABB6D92469B009A44A823FE18A93B21
:101D200099467D6B7C6F8423FB181B68A8469D42F7
:101D300000DD9846A422A300BA181360BA6A53447F
:101D400072609422BA1831001268F86F336043460B
:101D5000FEF7BEFDD822A423BA181268FB189446D9
:101D60001B68300063443360DC23FB181B6873601E
:101D7000002304934B46039302938C23FB181B68A8
:101D800001939423FB181B680093FA6E4346F96F86
:101D9000FEF752FF8423FB181B689C46ED1A7B6DEF
:101DA0006444A342BFDC9BE78023FA6C9B029A4207
:101DB00006D9BB6F002B03D0043B186810F0F0FD70
:101DC00080233A6D9B029A4208D98023FB181B6836
:101DD000002B03D0043B186810F0E2FDBD462DB087
:101DE000F0BCBB46B246A946A046F0BD9A0080238F
:101DF0003A659B029A4249D813006A461633DB08BB
:101E0000DB00D31A9D4627200F2368449843713383
:101E1000FB1818608023FB181B68AA00FB67636827
:101E2000FA64002B00D09DE580239B029A4249D89A
:101E300013006A461633DB08DB00D31A9D462720C1
:101E40000F2368449843B867BB6F2A4DFB662B7815
:101E5000BFF35B8FDB0700D58EE5280013F06CFA2B
:101E6000254C002800D188E58023DB0123608023F6
:101E70001B0328006360A36013F07AFA7DE59022CB
:101E80000423BA18136099E5110088E5100010309A
:101E900010F068FD8023FB1818600028BAD00F23CB
:101EA000010099430B0010218C46D8609C442368A4
:101EB00061465842584180234042F967FB1801406F
:101EC000196049E51000103010F04CFDB86700288B
:101ED000BAD00F23010099430B0010218C46D86023
:101EE00060689C444342584161464042F966014063
:101EF000B9673AE5B02303207839032030B587B0BD
:101F00000D4B02AD00951A68694602929A8804004A
:101F1000AA809B796A46AB71072301930023D37390
:101F200030F09CF90098A84203D00299013110F0DA
:101F30006BFD200007B030BD1CD50410F0B5DE46A7
:101F400057464E464546E24BE0B51860E14B0D1C46
:101F50001B68E14C98464146E04BE4681960DD4956
:101F600089B04968069059608946DB4BDA491F6899
:101F70004E68DB4B89681F605E609960DC60D94BFE
:101F800005949A6858681C68029204910190DB6875
:101F9000211C4046039310F092FA0299824648466B
:101FA00010F08DFA011C504610F072FACE4B8246AA
:101FB0001968281C9B4610F082FA011C504610F04C
:101FC00067FACA4B01991860079040469A4610F08C
:101FD00076FA03998046484610F071FA011C404693
:101FE00010F056FA5B4680465968281C10F067FAD4
:101FF000011C404610F04CFA554683466860211C8F
:10200000381C10F05CFA029A051C111C301C90461A
:1020100010F055FA011C281C10F03AFA019981467B
:10202000381C10F04CFA039F051C391C301C10F0B2
:1020300046FA011C281C10F02BFA211C8246049839
:1020400010F03DFA4146051C059810F038FA011CC5
:10205000281C10F01DFA464601998046049810F09D
:102060002EFA391C051C059810F029FA011C281CB1
:1020700010F00EFA4946071C201C10F020FA4146C9
:10208000051C301C10F01BFA011C281C10F000FA73
:10209000974E316810F0FCF9964D51460490286037
:1020A000201C10F00CFA391C041C029810F007FADE
:1020B000011C201C10F0ECF9716810F0E9F9494698
:1020C00002906860019810F0FAF9039A4146041CE6
:1020D000101C914610F0F3F9011C201C10F0D8F9E7
:1020E000B16810F0D5F95146041CA860019810F0B1
:1020F000E6F9391C8046484610F0E1F9011C4046DB
:1021000010F0C6F9F16810F0C3F9E8607A4D071CC9
:102110002E680498311C10F0D2F96D688046291C95
:10212000381C019710F0CBF9291C8246029810F058
:10213000C6F9414610F0ACF9311C10F0C0F9311C61
:10214000071C201C10F0BBF9514610F0A1F9291C06
:1021500010F0B5F9011C381C10F09AF9674B19689A
:1021600010F096F9664B071C1860291C201C10F013
:10217000A6F9414610F08CF9391C10F08CF9614930
:102180008046894608600298311C10F098F9514643
:1021900010F07EF9391C10F07EF94946079B071CA8
:1021A0004860181C311C9A4610F089F9291C814698
:1021B000584610F084F9011C484610F069F9011CDA
:1021C000069810F062F94146814610F078F95146C0
:1021D00010F05EF93F4A391C1060484610F06FF964
:1021E000594610F055F93B4A81465060464A311C29
:1021F0009346404610F063F95A46011C106810F0EF
:1022000044F9311C8246381C10F059F95A46011C19
:10221000506810F03AF9291C061C404610F04FF99E
:102220005A46011C906810F030F9291C8046381C71
:1022300010F045F95A46011CD06810F026F95146B5
:10224000051C049810F03BF9029B4146071C181C22
:102250009B4610F034F9011C381C10F019F91E4A85
:10226000311C1060049810F02AF9291C071C5846EC
:1022700010F025F9011C381C10F00AF9164B5146D4
:102280005860201C10F01BF9019B4146071C181CCC
:10229000984610F014F9011C381C10F0F9F80E4B98
:1022A000311C9860201C10F00AF9291C041C4046BF
:1022B00010F005F9011C201C10F0EAF8064BD8605C
:1022C000484609B0F0BCBB46B246A946A046F0BDA0
:1022D000A45A0320844E0320302E00205C440320A7
:1022E000702E0020902E0020443F0320944E0320A7
:1022F000802D0020502E0020A84E03204C210320CA
:102300005044032094330020B02E0020F0B5DE4668
:1023100057464E464546E0B56B4B85B059689B46DF
:1023200010F0B3F8694B041C1860694B1A689A46A0
:10233000684B111C1D68019210F0AAF8291C10F0BE
:10234000BEF8654B061C1868011C10F0A1F8011CB2
:10235000301C10F0A0F8614E316810F099F8604B15
:10236000029030601868011C10F092F85D4B061C5A
:1023700018688146011C301C10F0A1F88046011C31
:10238000281C10F085F8291C071C404610F07DF829
:10239000554B1968984610F092F8391C10F07BF8EC
:1023A00049460390484610F073F801998146201C75
:1023B00010F06BF8011C484610F081F8391C10F041
:1023C0006AF8011C039810F063F842460299106005
:1023D000071C201C10F05CF8391C10F059F8434B16
:1023E000196810F06CF8424B1860424B1860534665
:1023F0001C605B46196810F048F83F4B041C1860DD
:102400003E4B99461B68191C9A4610F041F8291C4E
:1024100010F055F83A4B80461868011C10F038F857
:10242000011C404610F037F8364B9846196810F0FA
:102430002FF84246344B10601A680190111C301C72
:10244000904610F03CF88346011C281C10F020F840
:102450004146061C404610F01BF851468046201CA1
:1024600010F013F8011C404610F029F8311C10F050
:1024700012F8291C8046584610F007F8391C10F055
:102480001EF8311C10F007F8011C404610F000F84F
:102490001E4B01991860051C201C0FF0F9FF291C28
:1024A0000FF0F6FF1A4B196810F009F8194B186075
:1024B000194B18604B461C6005B0F0BCBB46B246D9
:1024C000A946A046F0BDC046844E0320FC3F032031
:1024D00054440320CC200020B02000204844032096
:1024E000C0200020AC330020E03F0320B8200020B3
:1024F000FC590320EC5903200040032058440320DA
:10250000B42000204C440320B0330020E43F0320DB
:10251000BC200020005A03202C5A0320F8B5FE25C9
:102520000024194BAD051D60DD609C605C60174B9D
:10253000174F1D60DD609C605C60164B1E68164B7B
:10254000301C19680FF0A7FF144B38601D605C60E9
:10255000DD609C60124B7C601D605E60DD609C6095
:10256000104B1C605D60104B1868011C0FF0A7FF3A
:102570000E4B0F4A186012680E4B1A600E4A9C6090
:1025800012685C60DA60F8BD302E0020502E00200A
:10259000443F0320CC200020D0200020B02E00207B
:1025A000902E0020A84E0320DC2000204C21032088
:1025B0003C210320802D002038210320F0B5DE4689
:1025C00057464E464546E0B50E000168C768894645
:1025D000416805698A4681688DB08B46416980698A
:1025E0000793069050681368926805910A90291C19
:1025F00030680B92099308950FF047FF05990390F7
:1026000070680FF042FF0699051CB0680FF03DFF9F
:1026100080268046360607980FF0EAFFB446039BF3
:10262000009001916344180051460FF048FF59464D
:10263000061C281C0FF043FF011C301C0FF025FF67
:10264000391C061C404604970FF039FF011C301C52
:102650000FF01BFF0FF0CCFF0022684B0FF077FA52
:10266000009A019B0FF073FA060048460F000FF026
:10267000BFFF02000B0030003900169C0FF040FA3B
:102680000FF05EFB4946206003980FF018FF594693
:10269000061C40460FF013FF011C301C0FF0F8FE23
:1026A0000499061C281C0FF00AFF011C301C0FF0B7
:1026B000ECFE0FF09DFF0022504B0FF048FA009AFD
:1026C000019B0FF044FA060050460F000FF090FFF8
:1026D00002000B00300039000FF012FA0FF030FB4F
:1026E00049466060281C0FF0EAFE5146061C404631
:1026F0000FF0E5FE011C301C0FF0C7FE0499061C0C
:1027000003980FF0DCFE011C301C0FF0C1FE0FF02F
:102710006FFF0022394B0FF01AFA009A019B0FF05D
:1027200016FA060058460F000FF062FF02000B0079
:10273000300039000FF0E4F90FF002FB4946A060C9
:1027400040460FF0BCFE5146061C281C0FF0B7FE99
:10275000011C301C0FF09CFE5946051C03980FF01D
:10276000AEFE011C281C0FF090FE0FF041FF00226E
:10277000224B0FF0ECF9009A019B0FF0E8F90600EC
:1027800004980F000FF034FF02000B0030003900F6
:102790000FF0B6F90FF0D4FA089B0999E060181C05
:1027A00098460FF08CFE079D291C0FF088FE011C37
:1027B00040460FF06AFE059F0A992061381C0FF011
:1027C0007EFE291C0FF07BFE011C381C0FF05DFE05
:1027D000069E0B996061301C0FF071FE291C0FF0F2
:1027E0006EFE011C301C0FF050FEA06100200DB0E9
:1027F000F0BCBB46B246A946A046F0BD0000E03F93
:10280000F0B5DE4657464E4645468A464168E0B535
:102810008846C768816891B0066889464046391C79
:10282000141C04930FF04BFE4946051C301C0FF09E
:1028300046FE0A90011C281C09950FF026FE0FF099
:10284000D7FE02000B000FF05BF906900791201CE9
:1028500002940FF0CDFE0B00020004000D0006985C
:1028600007990FF074F90FF06BFA5246391C10609B
:1028700048460FF024FE83464146301C0FF01FFEF1
:102880005A460E90011C58460B920FF001FE0FF0B5
:10289000AFFE02000B000FF033F902000B00200026
:1028A00029000C920D930FF052F90FF049FA54469B
:1028B000311C6060301C0FF002FE4146041C404693
:1028C0000FF0FDFD051C011C201C0FF0DEFD49462C
:1028D000089048460FF0F3FD391C8346381C0FF072
:1028E000EEFD5946019008980FF0CFFD01990FF0C9
:1028F000CFFD02990F900FF0E2FD534649469860D4
:1029000040460FF0DCFD391C8046301C0FF0D7FD2F
:1029100081461A980FF06CFE06001B980F000FF00E
:1029200067FE02900391291C201C0FF0B1FD59464F
:102930000FF0ABFD01990FF0A8FD04990FF0BFFD5A
:102940000FF056FE04000D00404649460FF0A0FD72
:102950000FF04EFE02000B000FF0D2F832003B00E9
:102960000FF0F5F802000B00200029000FF0C8F866
:10297000029A039B04000D00069807990FF0E7F8F0
:1029800002000B00200029000FF0BAF80FF0D8F970
:102990005346D86004980FF02BFE04000D0040460B
:1029A00049460FF072FD0FF023FE02000B000FF0FE
:1029B000A7F822002B00049405950FF0C8F8040036
:1029C0000D00089859460FF063FD01990FF05DFD69
:1029D0001A990FF074FD0FF00BFE02000B0020009F
:1029E00029000FF08DF8029A039B04000D000C984B
:1029F0000D990FF0ACF802000B00200029000FF039
:102A00007FF80FF09DF953460A99186109980FF065
:102A10003FFD0FF0EDFD02000B000FF071F8049A7E
:102A2000059B0FF094F804000D000B980E990FF021
:102A30002CFD0FF0DDFD02000B000FF061F83200FD
:102A40003B000FF084F802000B00200029000FF07B
:102A500057F804000D000F981B990FF030FD0FF090
:102A6000C7FD02000B00200029000FF049F80FF00D
:102A700067F953465861002011B0F0BCBB46B2461E
:102A8000A946A046F0BDC046F0B50400DE46574654
:102A90004E4645460800E0B545680968AA4685687F
:102AA00095B0AB46C5684669876910910E95016976
:102AB000556810689268049690461A6806971192B5
:102AC0005A689B6812921393FE239B0523609946D4
:102AD0000FF0DBFC0FF08CFD009001911E980FF0C1
:102AE00087FD06000F00009801990022924B0FF01D
:102AF0002EF832003B000FF02AF80FF021F904996C
:102B00000390E061281C0FF0C0FC0FF071FD002263
:102B1000894B049005910FF01AF832003B000FF03A
:102B200016F80FF00DF90699051CA06340460FF04A
:102B3000ACFC0FF05DFD00227F4B069007910FF07B
:102B400006F832003B000FF002F80FF0F9F80A9097
:102B5000606550460FF04CFD0022784B08900991BB
:102B60000EF0F5FF32003B000EF0F1FF0FF0E8F839
:102B70000B90206758460FF03BFD00226F4B0C90E6
:102B80000D910EF0E4FF32003B000EF0E0FF0FF07D
:102B9000D7F88C238246E0500E980FF029FD0022D2
:102BA000664B0E900F910EF0D2FF32003B000EF0FC
:102BB000CEFF0FF0C5F8A8238346E050002200980E
:102BC00001995E4B0EF0C3FF32003B000EF0BFFFD9
:102BD0000FF0B6F849460090606021620022069826
:102BE0000799564B0EF0B3FF32003B000EF0AFFFDB
:102BF0000FF0A6F8A5658046E06310980FF0F8FC8A
:102C000000224D4B0EF0A3FF32003B000EF09FFF61
:102C10000FF096F859469023051C60670022E1509A
:102C20000C980D99444B0EF092FF32003B000EF0D1
:102C30008EFF0FF085F8AC230022E0500498059930
:102C40003E4B0EF084FF32003B000EF080FF0FF091
:102C500077F849460A9A83466262009AA060216426
:102C6000E2650E980F990022334B0EF070FF320090
:102C70003B000EF06CFF0FF063F894230B99A067F4
:102C8000E5501C33E1504146E1605946A162494696
:102C900021665146039BE167636408980999002205
:102CA000254B0EF054FF32003B000EF050FF0FF0AA
:102CB00047F89823E0501C33E55000251E991198E1
:102CC0002561E562A56465660FF0F9FB011C4846C5
:102CD0000FF0DBFB8023E0501C33E5501C33E55044
:102CE000343B1E99129865612563E564A566E5503D
:102CF0000FF0E5FB011C48460FF0C7FBA023E05096
:102D00001C33E550343BA56165632565E566E550F8
:102D10001C33E5501E9913980FF0D1FB011C484657
:102D20000FF0B3FBC023E050002015B0F0BCBB4651
:102D3000B246A946A046F0BD0000E0BF0000E03F5B
:102D4000F0B5DE4657464E464546E0B59A460B6816
:102D5000141C8A689B464B68C9688BB00500101C20
:102D60008846009301920FF043FC02900391201CCF
:102D70000FF03EFCC02306000F00029803990022CA
:102D80001B060EF0E4FE32003B000EF0E0FE0EF0FB
:102D9000D7FF0890286040460FF02AFC02000B0085
:102DA0000EF0AEFE32003B000EF0D1FE0EF0C8FF7A
:102DB000041CA86158460FF01BFCC02300221B0610
:102DC000049005910EF0C3FE32003B000EF0BFFEF2
:102DD0000EF0B6FF286300980FF00AFC02000B000B
:102DE000069007910EF08CFE32003B000EF0AFFE15
:102DF0000EF0A6FF002190238946A8642966A967E2
:102E0000E95068600498059902000B000EF078FE06
:102E100032003B000EF09BFE0EF092FF6C630490BC
:102E2000E8610298039902000B000EF069FE32007F
:102E30003B000EF08CFE0EF083FF49469423E864BD
:102E40006966E967E950C02306980799049A1B064A
:102E5000AA6000220EF07BFE32003B000EF077FEEF
:102E60000EF06EFF089B4946AB63802328622C65F9
:102E7000A966E9501833E950404614990FF01FFB3A
:102E8000019F1599061C381C0FF019FB5146041CB4
:102E900058460FF014FB311C0FF0FAFA211C06946F
:102EA0000FF0F3FA011C0FF0F3FA51460990E860B5
:102EB00000980FF004FB1499041C381C0FF0FFFA63
:102EC000011C201C0FF0E4FA1599041C40460FF079
:102ED000F6FA011C201C0FF0DBFA011C0FF0D8FAE7
:102EE00014990290686200980FF0E9FA1599089019
:102EF00058460FF0E4FA019A80249446240664446C
:102F0000071C514620000FF0DAFA08990FF0C0FABA
:102F1000391C0FF0BAFA011C0FF0BAFA1499E863E1
:102F200058460FF0CCFA1599049000980FF0C7FAA4
:102F3000802212064244041C514610000FF0BFFAD2
:102F400004990FF0A5FA211C0FF0A2FA011C0FF052
:102F50009FFA4A468423EA666865EA501833EA50C5
:102F60005146286101980FF0AAFA08990FF08DFADE
:102F7000391C0FF08DFA011C0FF08AFA071CA862A9
:102F80008020029B00062B64514658440FF097FAAC
:102F9000311C0FF07AFA06990FF07AFA011C0FF043
:102FA00077FA8823A86548462867E8501833E85020
:102FB000514640466F610FF082FA04990FF065FAAE
:102FC000211C0FF062FA011C0FF062FA099AE86204
:102FD0006A64029B4A46EB654B466B678C23002074
:102FE000EA501833EA500BB0F0BCBB46B246A946D3
:102FF000A046F0BD0123F0B5E3214746CE469C46EE
:10300000294B804605009946284E80B589000768FF
:1030100046444144FA0F6F68D2077B005B0834686E
:1030200013435A08624064461C4201D04B465A4042
:1030300004C50436A942EDD1E32342469B00C626CF
:10304000D458194B01259C46F6004644E20F4C68C3
:10305000D20763005B08076813435A087A401D4291
:1030600001D063465A40043004C1B042EED142461A
:10307000C62140460E4BC900D3581268DB0F5200E0
:103080005208DB07415813435A084A40DB0701D571
:10309000054B5A404146064BCA5000220433CA50E1
:1030A000C0BCB946B046F0BDDFB008993406000098
:1030B000BC090000F0B54546DE4657464E46E0B531
:1030C0003B4CD723A54434AA944663441B091B01F7
:1030D0008A6805930B68019237921A6804900692E9
:1030E0009A69339107921A6B38AC08929A6C0992DC
:1030F0001A6E0B929A6F0C9290229A580D925A68FF
:103100000E92DA690F925A6B1092DA6C11925A6E23
:103110001292DA6F139294229A5814929A68159226
:103120001A6A16929A6B17921A6D18929A6E1992E1
:1031300080229A581A9298229A581B92DA681C9206
:103140005A6A1D92DA6B1E925A6D1F92DA6E2092A5
:1031500084229A5821929C229A5822921A69239288
:103160009A6A24921A6C25929A6D26921A6F279267
:1031700088229A582892A0229A5829925A692A920B
:10318000DA6A2B925A6C2C92DA6D2D925A6F2E922B
:103190008C229A582F92A4229B5830934B689846C1
:1031A00038AB3293C423454643440A9302E0C046F9
:1031B0009CFDFFFFEA68A96991462A69AB689046C1
:1031C0006A69099803914946019302920FF077F9D1
:1031D000414682460B980FF072F9011C50460FF0E1
:1031E00057F9029982460C980FF069F903998346C2
:1031F0000D980FF064F9011C58460FF049F9011CB5
:1032000050460FF045F96F688246391C07980FF059
:1032100056F90199834608980FF051F9011C584658
:103220000FF036F92E688346311C06980FF047F9E7
:10323000011C58460FF02CF9011C50460FF028F9DC
:103240004946206011980FF03AF94146824612989B
:103250000FF035F9011C50460FF01AF90299824619
:1032600013980FF02CF90399834614980FF027F95F
:10327000011C58460FF00CF9011C50460FF008F9DC
:10328000391C82460F980FF01AF90199834610985D
:103290000FF015F9011C58460FF0FAF8311C83465F
:1032A0000E980FF00CF9011C58460FF0F1F8011CB4
:1032B00050460FF0EDF84946606018980FF0FFF89F
:1032C0004146824619980FF0FAF8011C50460FF05B
:1032D000DFF8029982461A980FF0F1F803998346B5
:1032E0001B980FF0ECF8011C58460FF0D1F8011CA8
:1032F00050460FF0CDF8391C824616980FF0DFF8D3
:103300000199834617980FF0DAF8011C58460FF020
:10331000BFF8311C834615980FF0D1F8011C5846B0
:103320000FF0B6F8011C50460FF0B2F84946A06005
:103330001F980FF0C4F84146824620980FF0BFF85E
:10334000011C50460FF0A4F80299824621980FF014
:10335000B6F80399834622980FF0B1F8011C58463D
:103360000FF096F8011C50460FF092F8391C824677
:103370001D980FF0A4F8019983461E980FF09FF84E
:10338000011C58460FF084F8311C83461C980FF03E
:1033900096F8011C58460FF07BF8011C50460FF0C0
:1033A00077F84946E06026980FF089F84146824652
:1033B00027980FF084F8011C50460FF069F8029925
:1033C000824628980FF07BF80399834629980FF0DE
:1033D00076F8011C58460FF05BF8011C50460FF0C0
:1033E00057F8391C824624980FF069F801998346F2
:1033F00025980FF064F8011C58460FF049F8311C6D
:10340000834623980FF05BF8011C58460FF040F8F4
:10341000011C50460FF03CF82D99206148460FF0F2
:103420004EF82E99814640460FF049F8011C484657
:103430000FF02EF82F99804602980FF040F830993F
:10344000814603980FF03BF8011C48460FF020F826
:10345000011C40460FF01CF8391C80462B980FF0D9
:103460002EF82C99071C01980FF029F8011C381C24
:103470000FF00EF8311C071C2A980FF020F8011CE1
:10348000381C0FF005F8011C40460FF001F80A9BAC
:103490001C3560611834AB4200D08BE6379B1A684C
:1034A000629308929A6909921A6B0A929A6C0B922B
:1034B0001A6E0C929A6F0D9290229A580E925A6838
:1034C0000F92DA6910925A6B1192DA6C12925A6E5C
:1034D0001392DA6F149294229A5815929A6816925F
:1034E0001A6A17929A6B18921A6D19929A6E1A921A
:1034F00080229A581B9298229A581C92DA681D9240
:103500005A6A1E92DA6B1F925A6D2092DA6E2192DD
:1035100084229A5822929C229A5823921A692492C1
:103520009A6A25921A6C26929A6D059C27921A6FB8
:103530002034289288229A58A1462992A0229A588B
:103540002A925A692B92DA6A2C925A6C2D92DA6D71
:103550002E925A6F2F928C229A583092A4229B5806
:1035600031935CAB06933EAB0793329B9846434640
:103570004246414640461B6895690193069B146B81
:10358000096E926C40CB876F0291101C0B990392CD
:1035900006930EF094FF0C99824602980EF08FFF6E
:1035A000011C50460EF074FF0D998246381C0EF037
:1035B00086FF0E998346301C0EF081FF011C584691
:1035C0000EF066FF011C50460EF062FF099982461C
:1035D000281C0EF074FF0A998346201C0EF06FFF22
:1035E000011C58460EF054FF0899834601980EF0CE
:1035F00066FF011C58460EF04BFF011C50460EF0B2
:1036000047FF4B461299186003980EF058FF139924
:10361000824602980EF053FF011C50460EF038FF10
:1036200014998246381C0EF04AFF15998346301CC7
:103630000EF045FF011C58460EF02AFF011C5046B3
:103640000EF026FF10998246281C0EF038FF1199C3
:103650008346201C0EF033FF011C58460EF018FF65
:103660000F99834601980EF02AFF011C58460EF070
:103670000FFF011C50460EF00BFF4B461999586086
:1036800003980EF01CFF1A99824602980EF017FF5D
:10369000011C50460EF0FCFE1B998246381C0EF0B1
:1036A0000EFF1C998346301C0EF009FF011C584682
:1036B0000EF0EEFE011C50460EF0EAFE179982460F
:1036C000281C0EF0FCFE18998346201C0EF0F7FE15
:1036D000011C58460EF0DCFE1699834601980EF048
:1036E000EEFE011C58460EF0D3FE011C50460EF0B3
:1036F000CFFE4B462099986003980EF0E0FE21998A
:10370000824602980EF0DBFE011C50460EF0C0FE11
:1037100022998246381C0EF0D2FE23998346301C33
:103720000EF0CDFE011C58460EF0B2FE011C5046B4
:103730000EF0AEFE1E998246281C0EF0C0FE1F99A8
:103740008346201C0EF0BBFE011C58460EF0A0FE66
:103750001D99834601980EF0B2FE011C58460EF0EA
:1037600097FE011C50460EF093FE4B462799D860F9
:1037700003980EF0A4FE2899824602980EF09FFE50
:10378000011C50460EF084FE29998246381C0EF02A
:1037900096FE2A998346301C0EF091FE011C584675
:1037A0000EF076FE011C50460EF072FE2599824600
:1037B000281C0EF084FE26998346201C0EF07FFE06
:1037C000011C58460EF064FE2499834601980EF0C1
:1037D00076FE011C58460EF05BFE011C50460EF0B2
:1037E00057FE4B462E99186103980EF068FE2F99EC
:1037F000824602980EF063FE011C50460EF048FE11
:1038000030998246381C0EF05AFE3199071C301C44
:103810000EF055FE011C381C0EF03AFE011C5046FD
:103820000EF036FE2C99061C281C0EF048FE2D9931
:10383000051C201C0EF043FE011C281C0EF028FE67
:103840002B99041C01980EF03AFE011C201C0EF06E
:103850001FFE011C301C0EF01BFE4B46586104235A
:103860009C461433E0449C46079BE144984500D0B5
:103870007DE6339B059DDC68296A20680EF008FE12
:10388000049EA96B306060680EF002FE7060A06854
:10389000296D0EF0FDFDB060E068A96E0EF0F8FD38
:1038A0008023F0602069E95898460EF0F1FD9823D6
:1038B0003061E95860690EF0EBFD7061A069696ADA
:1038C0000EF0E6FDB061E069E96B0EF0E1FDF0613C
:1038D000206A696D0EF0DCFD3062E96E606A0EF000
:1038E000D7FD84277062A06AE9590EF0D1FD9C23B0
:1038F000B062E958E06A0EF0CBFDF062206BA96A75
:103900000EF0C6FD3063606B296C0EF0C1FD706374
:10391000A06BA96D0EF0BCFDB063E06B296F0EF0DB
:10392000B7FDF0638826206CA9590EF0B1FD049B09
:103930001864A023606CE9580EF0AAFD049BE96AA4
:103940005864A06C0EF0A4FD049B696C9864E06C54
:103950000EF09EFD049BE96DD864206D0EF098FD7D
:10396000049B696F1865606D0EF092FD8C25049ABA
:10397000059B5065A06D59590EF08AFDA423049A49
:103980009065059AE06DD1580EF082FD049B059A72
:10399000D865116B206E0EF07BFD049B059A1866AE
:1039A000916C606E0EF074FD049B059A5866A06ED3
:1039B000116E0EF06DFD049B059A9866E06E916F96
:1039C0000EF066FD049B059AD8669023206FD158AF
:1039D0000EF05EFD049B059A1867A823606FD1580E
:1039E0000EF056FD049B059A5867A16F506B0EF0C0
:1039F0004FFD049B059A9867E16FD06C0EF048FD6F
:103A00004146049B059AD8676158506E0EF040FD00
:103A10004146049B059A5850E159D06F0EF038FD8D
:103A2000049BD8519423059FA159F8580EF030FDFE
:103A3000049B9851AC236159F8580EF029FD049B62
:103A4000585199239B009D44F0BCBB46B246A94601
:103A5000A046F0BDF0B5DE4657464E46454604004A
:103A6000E0B5036987B05800636940085900490808
:103A70000EF00EFDE368590049080EF009FD636879
:103A8000051C5800A3684008590049080EF000FDC5
:103A90002368590049080EF0FBFC011C281C0EF09D
:103AA000F7FCA36A051C5800E36A4008590049085E
:103AB0000EF0EEFC636A590049080EF0E9FCE36978
:103AC000061C5800236A4008590049080EF0E0FC23
:103AD000A369590049080EF0DBFC011C301C0EF0F4
:103AE000D7FC236C071C5800636C40085900490838
:103AF0000EF0CEFCE36B590049080EF0C9FC636B75
:103B0000061C5800A36B4008590049080EF0C0FC81
:103B1000236B590049080EF0BBFC011C301C0EF051
:103B2000B7FC061C011C381C0EF000FD002800D15B
:103B30003E1C311C281C0EF0F9FC002800D12E1C64
:103B4000A36D5800E36D4008590049080EF0A0FC31
:103B5000636D590049080EF09BFCE36C051C58008E
:103B6000236D4008590049080EF092FCA36C5900DF
:103B700049080EF08DFC011C281C0EF089FC236FF7
:103B8000071C5800636F4008590049080EF080FC7C
:103B9000E36E590049080EF07BFC636E051C58006B
:103BA000A36E4008590049080EF072FC236E5900BC
:103BB00049080EF06DFC011C281C0EF069FC8823DE
:103BC0008046E0580433E158400049004908400865
:103BD0000EF05EFC8423E158490049080EF058FCC1
:103BE000E36F051C58008023E1584008490049084C
:103BF0000EF04EFCA36F590049080EF049FC011C61
:103C0000281C0EF045FC051C011C40460EF08EFCE5
:103C1000002800D14546291C381C0EF087FC0028DE
:103C200000D13D1C291C301C0EF080FC002800D166
:103C3000351CC0232100E55001AABA3B02A8A831D7
:103C400004930294FCF76EFE0121C422019B982686
:103C50000B405B428B430133A354343A924600221B
:103C600050469C2722509432A1509346923AA2513A
:103C70000132E2519D32944660469C3A2250A03275
:103C800091469F3A90464A4640462300A0504846F7
:103C90001832A258903392009A1815682550404661
:103CA00010606046B8222058A258804660469200B4
:103CB0009A181568255040461060B422E059A25861
:103CC000844692009A1810685D46E0516046106084
:103CD000B022A258A75992009A181068A0511760F4
:103CE000AC225846A258265892009A181068605183
:103CF0001660A822A258554692009B185246186892
:103D0000A25860511A60C523E15407B0F0BCBB460D
:103D1000B246A946A046F0BDC023002210B5C2504D
:103D200000220433C2520B68040003604B684360F6
:103D30008B688360CB68C3600B6903614B69436127
:103D40008B698361CB69C3610B6A03624B6A43620F
:103D50008B6A8362CB6AC3620B6B03634B6B4363F7
:103D60008B6B8363CB6BC3630B6C03644B6C4364DF
:103D70008B6C8364CB6CC3640B6D03654B6D4365C7
:103D80008B6D8365CB6DC3650B6E03664B6E4366AF
:103D90008B6E8366CB6EC3660B6F03674B6F436797
:103DA0008B6F8367CB6FC3678023CA58C2500433BD
:103DB000CA58C2500433CA58C2500433CA58C250F9
:103DC000FFF748FE200010BDF0B5DE464E464546E2
:103DD0005746E0B5214C9146A5443AAA94460A00BC
:103DE00031931F4B3B9063441B091B013A9198464A
:103DF000D3AB13CA13C313CA13C31268D3A91A606F
:103E0000184B194A1B6847A80493184B47AC1B680A
:103E10000193174B1B6805930093049BFEF790FFDB
:103E200047ABD3934B46D49347ABD5933AAA83235E
:103E3000944686201B0163441B68C0004044A2AA2C
:103E4000D3A9D6930990FFF735F96BAB0893434696
:103E50000A934B463094A1461C000BE014F7FFFF79
:103E600047030000082003200AE81C41002003202B
:103E7000042003204B464E461B68B76F0493089BF3
:103E8000494640CB48464A460893A823896C006EB1
:103E90009569126B06910790E158301C05920EF05F
:103EA0000EFB8C238246E158381C0EF008FB011CE7
:103EB00050460EF0EDFA216F824607980EF0FFFA99
:103EC000616D834606980EF0FAFA011C58460EF012
:103ED000DFFA011C50460EF0DBFAA16B8246059812
:103EE0000EF0EDFAE1698346281C0EF0E8FA011C99
:103EF00058460EF0CDFA2168834604980EF0DFFA9A
:103F0000011C58460EF0C4FA011C50460EF0C0FACF
:103F100043461860AC23301CE1580EF0D0FA9023D1
:103F20008246E158381C0EF0CAFA011C50460EF0C9
:103F3000AFFA616F824607980EF0C1FAA16D834611
:103F400006980EF0BCFA011C58460EF0A1FA011CAE
:103F500050460EF09DFAE16B824605980EF0AFFADE
:103F6000216A8346281C0EF0AAFA011C58460EF05E
:103F70008FFA6168834604980EF0A1FA011C584636
:103F80000EF086FA011C50460EF082FA4346586045
:103F9000B023301CE1580EF092FA94238246E15887
:103FA000381C0EF08CFA011C50460EF071FAA16F0D
:103FB000824607980EF083FAE16D834606980EF06C
:103FC0007EFA011C58460EF063FA011C50460EF0B2
:103FD0005FFA216C824605980EF071FA616A834699
:103FE000281C0EF06CFA011C58460EF051FAA1681C
:103FF000834604980EF063FA011C58460EF048FA06
:10400000011C50460EF044FA43469860B423301C1D
:10401000E1580EF054FA98238246E158381C0EF00D
:104020004EFA011C50460EF033FAE16F82460798B3
:104030000EF045FA216E834606980EF040FA011CF8
:1040400058460EF025FA011C50460EF021FA616C1C
:10405000824605980EF033FAA16A8346281C0EF0BA
:104060002EFA011C58460EF013FAE16883460498B4
:104070000EF025FA011C58460EF00AFA011C5046B3
:104080000EF006FA4346D860B823301CE1580EF013
:1040900016FA9C238246E158381C0EF010FA011CD7
:1040A00050460EF0F5F980238246E15807980EF04D
:1040B00006FA616E834606980EF001FA011C584616
:1040C0000EF0E6F9011C50460EF0E2F9A16C8246B2
:1040D00005980EF0F4F9E16A8346281C0EF0EFF91A
:1040E000011C58460EF0D4F92169834604980EF05D
:1040F000E6F9011C58460EF0CBF9011C50460EF0B3
:10410000C7F943461861BC23301CE1580EF0D7F9BB
:10411000A0238246E158381C0EF0D1F9011C50460C
:104120000EF0B6F984238246E15807980EF0C7F9DD
:10413000A16E834606980EF0C2F9011C58460EF097
:10414000A7F9011C50460EF0A3F9E16C82460598D0
:104150000EF0B5F9216B8346281C0EF0B0F9011C56
:1041600058460EF095F96169834604980EF0A7F958
:10417000011C58460EF08CF9011C50460EF088F9CF
:104180004346E16E586106980EF099F988238246FD
:10419000E15807980EF093F9011C50460EF078F99B
:1041A000A4238246E158381C0EF089F9C023071C6D
:1041B000E158301C0EF083F9011C381C0EF068F930
:1041C000011C50460EF064F9616B061C281C0EF0B1
:1041D00076F9216D051C05980EF071F9011C281C5B
:1041E0000EF056F9A169051C04980EF068F9011C3F
:1041F000281C0EF04DF9011C301C0EF049F9434605
:10420000986104239C461833E1449C464DABE0443E
:104210004B4500D02EE60A9BA146D8249846A427F9
:10422000A4004444BF00474420000999FFF774FDEF
:10423000210090223800C8240EF0D0FBFC21A400FD
:10424000444489004144182220000EF0C7FBCE20D0
:1042500081218000C9004144182240440EF0BEFB79
:104260008422D423D200424412689B0043441A6043
:10427000D523874A4546424412889B004344FE2189
:104280001A8000232268B0359200AA1889051160AF
:1042900093611363936413669367C9229200424447
:1042A000126844469200AA181360916113639364E4
:1042B00013669367CA22920042441268062692004F
:1042C000AA18136093611163936413669367CB22FA
:1042D00092004244126806209200AA18136093616B
:1042E0001363916413669367CC2292004244126870
:1042F0009200AA1813609361136393641166936725
:10430000CD229200424412689200AA181360936171
:10431000136393641366A8235B009B469167424630
:104320005946E41820334344A660E66026615350A2
:104330008022920042444B396260924604933A00D4
:1043400006230294FF3901960095FDF7D1FA424603
:104350005946049BA660E6602661535053464B398C
:1043600063603A0006230294062001960095FF3907
:10437000FCF722FF43461B688C2207934346DB6908
:10438000D3AC089343469B6B099343465B6D0A93FA
:1043900043461B6F0B9343469B5804320C93434692
:1043A0005B68179343461B6A18934346DB6B0D9378
:1043B00043469B6D0E9343465B6F0F9343469B585A
:1043C0000432109343469B68119343465B6A1293F1
:1043D00043461B6C13934346DB6D149343469B6F1C
:1043E000159343469B58043216934346DB68199352
:1043F00043469B6A069343465B6C1A9343461B6E87
:104400001B934346DB6F1C9343469B58183A1D93FE
:1044100043461B691E934346DB6A1F9343469B6CCE
:10442000209343465B6E219343469B581C32229354
:1044300043469B58183A239343465B69249343466B
:104440001B6B25934346DB6C269343469B6E279359
:1044500043469B581C32289343469B58183A29934D
:1044600043469B692A9343465B6B2B9343461B6DE4
:104470002C934346DB6E2D9343469B581C322E9360
:1044800043469B58A8462F934B46329302E0C046C2
:104490002404000043461F685B6842469946434631
:1044A00041469B68D2680E694D6908984946049355
:1044B00005920EF004F80499824609980DF0FFFF6A
:1044C000011C50460DF0E4FF391C824607980DF0A0
:1044D000F6FF011C50460DF0DBFF311C82460B98A5
:1044E0000DF0EDFF291C83460C980DF0E8FF011C30
:1044F00058460DF0CDFF059983460A980DF0DFFF71
:10450000011C58460DF0C4FF011C50460DF0C0FFC1
:104510004946206018980DF0D2FF049982460D9804
:104520000DF0CDFF011C50460DF0B2FF391C824644
:1045300017980DF0C4FF011C50460DF0A9FF311C67
:1045400082460F980DF0BBFF291C834610980DF092
:10455000B6FF011C58460DF09BFF059983460E9847
:104560000DF0ADFF011C58460DF092FF011C5046A6
:104570000DF08EFF4946606012980DF0A0FF04997F
:10458000824613980DF09BFF011C50460DF080FFF2
:10459000391C824611980DF092FF011C50460DF017
:1045A00077FF311C824615980DF089FF291C834640
:1045B00016980DF084FF011C58460DF069FF05990F
:1045C000834614980DF07BFF011C58460DF060FFE8
:1045D000011C50460DF05CFF4946A06006980DF0A6
:1045E0006EFF049982461A980DF069FF011C50462F
:1045F0000DF04EFF391C824619980DF060FF011C2A
:1046000050460DF045FF311C82461C980DF057FFB7
:10461000291C83461D980DF052FF011C58460DF0D1
:1046200037FF059983461B980DF049FF011C58463A
:104630000DF02EFF011C50460DF02AFF4946E060A8
:104640001F980DF03CFF0499824620980DF037FF2B
:10465000011C50460DF01CFF391C82461E980DF0BF
:104660002EFF011C50460DF013FF311C824622988C
:104670000DF025FF291C834623980DF020FF011C17
:1046800058460DF005FF0599834621980DF017FF58
:10469000011C58460DF0FCFE011C50460DF0F8FEC2
:1046A0004946206125980DF00AFF04998246269814
:1046B0000DF005FF011C50460DF0EAFE391C824644
:1046C00024980DF0FCFE011C50460DF0E1FE311C5B
:1046D000824628980DF0F3FE291C834629980DF098
:1046E000EEFE011C58460DF0D3FE0599834627982F
:1046F0000DF0E5FE011C58460DF0CAFE011C5046A7
:104700000DF0C6FE494660612B980DF0D8FE049965
:1047100081462C980DF0D3FE011C48460DF0B8FEE2
:10472000391C81462A980DF0CAFE011C48460DF03E
:10473000AFFE311C071C2E980DF0C1FE291C061C73
:104740002F980DF0BCFE011C301C0DF0A1FE059948
:10475000051C2D980DF0B3FE011C281C0DF098FED1
:10476000011C381C0DF094FE18239C46A061FDAB83
:104770001C34E044A34200D08CE6329BD49A994684
:10478000D39BD599D69CD79DD89ED99F0693079247
:10479000DA9BDB9A08910994DC99DD9C0A950B96CB
:1047A000DE9DDF9E0C970D93E09FE19B0E92E29AB7
:1047B0000F91109411951296139714931592E399F3
:1047C000E49CE59DE69EE79FE89BE99A1691179485
:1047D000EA99EB9C18951996EC9DED9E1A971B9300
:1047E000EE9FEF9B1C921D91F09AF1991E94F29C02
:1047F0002096219722932392249125941F95F39D2F
:10480000F49EF59FF79AF69BF899F99C26952796C2
:10481000FA9DFB9E2897FC9F2A923A9A29932B9106
:104820002C942D952E962F97D3AB32CA32C332CA11
:1048300032C31168D3AC1960FD49FE4B09681B688F
:104840000191FD49FD4A09682000009141A9FDF749
:10485000D7FF319F419938680DF017FE4299834682
:1048600078680DF012FE43998246B8680DF00DFE8F
:104870004499041CF8680DF008FE4599051C386938
:104880000DF003FE4699061C78690DF0FEFD071C2D
:10489000011C2A980DF013FE311C804623980DF060
:1048A0000EFE011C40460DF0F3FD291C80461C98AD
:1048B0000DF005FE011C40460DF0EAFD211C80466E
:1048C00015980DF0FCFD514604900E980DF0F7FD83
:1048D000011C04980DF0DCFD5946049007980DF07A
:1048E000EEFD011C04980DF0D3FD011C40460DF0B7
:1048F000CFFD3A9A51680DF0CBFD391C04902B98EE
:104900000DF0DDFD311C804624980DF0D8FD011C12
:1049100040460DF0BDFD291C80461D980DF0CFFDD1
:10492000011C40460DF0B4FD211C804616980DF088
:10493000C6FD514605900F980DF0C1FD011C05986C
:104940000DF0A6FD5946059008980DF0B8FD011C24
:1049500005980DF09DFD011C40460DF099FD3A9A19
:1049600091680DF095FD391C05902C980DF0A7FD70
:10497000311C804625980DF0A2FD011C40460DF02B
:1049800087FD291C80461E980DF099FD011C4046AC
:104990000DF07EFD211C804617980DF090FD5146CC
:1049A000319010980DF08BFD011C31980DF070FDC9
:1049B0005946319009980DF082FD011C31980DF097
:1049C00067FD011C40460DF063FD3A9AD1680DF079
:1049D0005FFD391C31902D980DF071FD311C804622
:1049E00026980DF06CFD011C40460DF051FD291C70
:1049F00080461F980DF063FD011C40460DF048FDF8
:104A0000211C804618980DF05AFD5146329011989D
:104A10000DF055FD011C32980DF03AFD59463290CB
:104A20000A980DF04CFD011C32980DF031FD011C6F
:104A300040460DF02DFD3A9A11690DF029FD391C03
:104A400032902E980DF03BFD311C804627980DF0DA
:104A500036FD011C40460DF01BFD291C80462098A8
:104A60000DF02DFD011C40460DF012FD211C80466D
:104A700019980DF024FD5146339012980DF01FFD4A
:104A8000011C33980DF004FD594633900B980DF03E
:104A900016FD011C33980DF0FBFC011C40460DF087
:104AA000F7FC3A9A51690DF0F3FC51463390139894
:104AB0000DF005FD211C80461A980DF000FD011C2B
:104AC00040460DF0E5FC594680460C980DF0F7FC89
:104AD000011C40460DF0DCFC311C804628980DF08E
:104AE000EEFC391C34902F980DF0E9FC011C349831
:104AF0000DF0CEFC291C349021980DF0E0FC011C37
:104B000034980DF0C5FC011C40460DF0C1FC3A9AEA
:104B100091690DF0BDFC391C804629980DF0CFFC41
:104B2000311C071C22980DF0CAFC011C381C0DF02A
:104B3000AFFC291C061C1B980DF0C1FC011C301C8D
:104B40000DF0A6FC211C051C14980DF0B8FC514674
:104B5000041C0D980DF0B3FC011C201C0DF098FCFA
:104B60005946041C06980DF0AAFC011C201C0DF0EF
:104B70008FFC011C281C0DF08BFC3A9AD3AC1168F9
:104B80000DF086FC3B9B049A18605A60059A9A6067
:104B9000319ADA60329A1A61339A5A6142469A61BE
:104BA0004B461B684A46A2934B465B68A3934B4611
:104BB0009B68A4934B46DB68A5934B461B69A69361
:104BC0004B465B69A7934B469B69A8934B46DB69B1
:104BD000A9934B461B6AAA934B465B6AAB934B4621
:104BE0009B6AAC934B46DB6AAD934B461B6BAE9313
:104BF0004B465B6BAF934B469B6BB0934B46DB6B6B
:104C0000B1934B461B6CB2934B465B6CB3934B46D4
:104C10009B6CB4934B46DB6CB5934B461B6DB693C4
:104C20004B465B6DB7934B469B6DB8934B4607E085
:104C30000020032008200320042003200AE81C4150
:104C4000DB6DB9934B461B6EBA934B465B6EBB93C1
:104C50004B469B6EBC934B46DB6EBD934B461B6F26
:104C6000BE934B465B6FBF934B469B6FC0934B46C7
:104C7000DB6FC1938023D358C2938423D358C3934B
:104C80008823D358C4938C23D358C5939023D358E7
:104C9000C6939423D358C7939823D358C8939C237F
:104CA000D358C993A023D358CA93A423D358CB93E2
:104CB000A823D358CC93AC23D358CD93B023D35847
:104CC000CE93B423D358CF93B823D358D093BC23D7
:104CD000D358D193C023D358D293309B3092984667
:104CE00043461F685B6842469946434641469B6877
:104CF000D2680E694D690D984946049305920DF0EE
:104D0000DEFB0499824614980DF0D9FB011C504635
:104D10000DF0BEFB391C824606980DF0D0FB011C3D
:104D200050460DF0B5FB311C824622980DF0C7FBB2
:104D3000291C834629980DF0C2FB011C58460DF032
:104D4000A7FB059983461B980DF0B9FB011C58463B
:104D50000DF09EFB011C50460DF09AFB4946206069
:104D60000E980DF0ACFB0499824615980DF0A7FB48
:104D7000011C50460DF08CFB391C824607980DF043
:104D80009EFB011C50460DF083FB311C824623988C
:104D90000DF095FB291C83462A980DF090FB011C11
:104DA00058460DF075FB059983461C980DF087FB5E
:104DB000011C58460DF06CFB011C50460DF068FBC1
:104DC000494660600F980DF07AFB04998246169868
:104DD0000DF075FB011C50460DF05AFB391C824644
:104DE00008980DF06CFB011C50460DF051FB311C76
:104DF000824624980DF063FB291C83462B980DF006
:104E00005EFB011C58460DF043FB059983461D9837
:104E10000DF055FB011C58460DF03AFB011C5046A5
:104E20000DF036FB4946A06010980DF048FB049940
:104E3000824617980DF043FB011C50460DF028FBED
:104E4000391C824609980DF03AFB011C50460DF0C2
:104E50001FFB311C824625980DF031FB291C83462F
:104E60002C980DF02CFB011C58460DF011FB0599F8
:104E700083461E980DF023FB011C58460DF008FBDD
:104E8000011C50460DF004FB4946E06011980DF0FE
:104E900016FB0499824618980DF011FB011C504630
:104EA0000DF0F6FA391C82460A980DF008FB011C39
:104EB00050460DF0EDFA311C824626980DF0FFFAAF
:104EC000291C83462D980DF0FAFA011C58460DF066
:104ED000DFFA059983461F980DF0F1FA011C584638
:104EE0000DF0D6FA011C50460DF0D2FA4946206169
:104EF00012980DF0E4FA0499824619980DF0DFFA41
:104F0000011C50460DF0C4FA391C82460B980DF076
:104F1000D6FA011C50460DF0BBFA311C8246279888
:104F20000DF0CDFA291C83462E980DF0C8FA011C0D
:104F300058460DF0ADFA0599834620980DF0BFFA5A
:104F4000011C58460DF0A4FA011C50460DF0A0FAC1
:104F50004946606113980DF0B2FA049981461A9897
:104F60000DF0ADFA011C48460DF092FA391C81464D
:104F70000C980DF0A4FA011C48460DF089FA311C7A
:104F8000071C28980DF09BFA291C061C2F980DF081
:104F900096FA011C301C0DF07BFA0599051C21982E
:104FA0000DF08DFA011C281C0DF072FA011C381C42
:104FB0000DF06EFA18239C46FFABA06114331C342D
:104FC000E044A34200D08BE6309BA2AD99463C93CF
:104FD000C4234C46C8464B44089307944246D268C3
:104FE00043464146914642469E694C68096892682C
:104FF0005F691B690491301CFD99069305920DF0C1
:105000005EFAF6998246381C0DF059FA011C50469A
:105010000DF03EFAEF99824606980DF050FAE899A5
:10502000834648460DF04BFA011C58460DF030FA05
:10503000011C50460DF02CFAE199824605980DF0BE
:105040003EFADA998346201C0DF039FA011C5846C5
:105050000DF01EFAD399834604980DF030FA011C26
:1050600058460DF015FA011C50460DF011FA011CBE
:1050700028680DF00AFA2860FE99301C0DF01FFA1E
:10508000F7998246381C0DF01AFA011C50460DF0B3
:10509000FFF9F099824606980DF011FAE9998346D6
:1050A00048460DF00CFA011C58460DF0F1F9011CB0
:1050B00050460DF0EDF9E299824605980DF0FFF9A2
:1050C000DB998346201C0DF0FAF9011C58460DF0BF
:1050D000DFF9D499834604980DF0F1F9011C584684
:1050E0000DF0D6F9011C50460DF0D2F9011C68688C
:1050F0000DF0CBF9FF996860301C0DF0E0F9F899DC
:105100008246381C0DF0DBF9011C50460DF0C0F949
:10511000F199824606980DF0D2F9EA9983464846FD
:105120000DF0CDF9011C58460DF0B2F9011C5046A6
:105130000DF0AEF9E399824605980DF0C0F9DC99BF
:105140008346201C0DF0BBF9011C58460DF0A0F958
:10515000D599834604980DF0B2F9011C58460DF01C
:1051600097F9011C50460DF093F9011CA8680DF049
:105170008CF9FFAB5968A860301C04330DF09FF91F
:10518000F9998246381C0DF09AF9011C50460DF031
:105190007FF9F299824606980DF091F9EB998346D2
:1051A00048460DF08CF9011C58460DF071F9011CB0
:1051B00050460DF06DF9E499824605980DF07FF99F
:1051C000DD998346201C0DF07AF9011C58460DF03C
:1051D0005FF9D699834604980DF071F9011C584681
:1051E0000DF056F9011C50460DF052F9011CE8680B
:1051F0000DF04BF9FFAB9968E860301C08330DF0F7
:105200005EF9FA998246381C0DF059F9011C504696
:105210000DF03EF9F399824606980DF050F9EC999D
:10522000834648460DF04BF9011C58460DF030F905
:10523000011C50460DF02CF9E599824605980DF0B9
:105240003EF9DE998346201C0DF039F9011C5846C1
:105250000DF01EF9D799834604980DF030F9011C22
:1052600058460DF015F9011C50460DF011F9011CBE
:1052700028690DF00AF9FFABD9682861301C0C339E
:105280000DF01DF9FB998246381C0DF018F9011C30
:1052900050460DF0FDF8F499824606980DF00FF98E
:1052A000ED99834648460DF00AF9011C58460DF069
:1052B000EFF8011C50460DF0EBF8E6998246059890
:1052C0000DF0FDF8DF998346201C0DF0F8F8011C65
:1052D00058460DF0DDF8D899834604980DF0EFF8A4
:1052E000011C58460DF0D4F8011C50460DF0D0F8C2
:1052F000011C68690DF0C9F8EE99686148460DF027
:10530000DEF8F599814606980DF0D9F8011C48465B
:105310000DF0BEF8FC998146381C0DF0D0F8FFABBB
:105320001969071C301C10330DF0C9F8011C381C1A
:105330000DF0AEF8011C48460DF0AAF8E099061CE5
:10534000201C0DF0BCF8E799041C05980DF0B7F887
:10535000011C201C0DF09CF8D999041C04980DF038
:10536000AEF8011C201C0DF093F8011C301C0DF050
:105370008FF8011CA8690DF088F81C239C46089B37
:10538000E044A8611C35984500D027E6079BA29A07
:1053900099461A60A39A5A60A49A9A60A59ADA600C
:1053A000A69A1A61A79A5A61A89A9A61A99ADA618B
:1053B000AA9A1A62AB9A5A62AC9A9A62AD9ADA6267
:1053C000AE9A1A63AF9A5A63B09A9A63B19ADA6343
:1053D000B29A1A64B39A5A64B49A9A64B59ADA641F
:1053E000B69A1A65B79A5A65B89A9A65B99ADA65FB
:1053F000BA9A1A66BB9A5A66BC9A9A66BD9ADA66D7
:10540000BE9A1A67BF9A5A67C09A9A67C19ADA67B2
:105410004A468023C299D150C3990433D150C499CC
:105420000433D150C5990433D150C6990433D150B7
:10543000C7990433D150C8990433D150C999043362
:10544000D150CA990433D150CB990433D150CC995F
:105450000433D150CD990433D150CE990433D15077
:10546000CF990433D150D0990433D150D19904331A
:10547000D150D2990433D1503AAA94464F4BA2AAA4
:1054800063441B6813CB13C24D4BD3AC63441B68FE
:1054900007CB07C43A9B3B9D00934A4B28006344CB
:1054A000A2A91B68D3AAFDF789F82B00D3AA23CBA6
:1054B00023C213CB13C23AA91B688C4613603EAAC1
:1054C00011003E4B63441B6831CB31C13C4BA2A958
:1054D00063441B6831CB31C13A4BD3A963441B6889
:1054E00071A80093A2ABFDF7CFFAD3AB07931C00D2
:1054F000719B0993789B10937F9B1793869B1E93B8
:105500008D9B2593949B2C939B9B3393729B0A9327
:10551000799B1193809B1893879B1F938E9B269357
:10552000959B2D939C9B3493739B0B937A9B129327
:10553000819B1993889B20938F9B2793969B2E93F7
:105540009D9B3593749B0C937B9B1393829B1A9327
:10555000899B2193909B2893979B2F939E9B369397
:10556000759B0D937C9B1493839B1B938A9B229327
:10557000919B2993989B30939F9B3793769B0E9397
:105580007D9B1593849B1C938B9B2393929B2A93C7
:10559000999B3193A09B3893779B0F937E9B169397
:1055A000859B1D938C9B2493939B2B939A9B329367
:1055B000A19B3C9D39934B463C9305E02808000095
:1055C000380800003C080000E868AE698146A96818
:1055D00028692B686A6880460691301C33990493C9
:1055E00005920CF06CFF6F6982462C99381C0CF008
:1055F00066FF011C50460CF04BFF25998246404641
:105600000CF05DFF1E99834648460CF058FF011CC4
:1056100058460CF03DFF011C50460CF039FF17991D
:10562000824606980CF04BFF1099834605980CF0C3
:1056300046FF011C58460CF02BFF0999834604983D
:105640000CF03DFF011C58460CF022FF011C504697
:105650000CF01EFF34992060301C0CF030FF2D99A7
:105660008246381C0CF02BFF011C50460CF010FF3A
:105670002699824640460CF022FF1F9983464846F1
:105680000CF01DFF011C58460CF002FF011C504697
:105690000CF0FEFE1899824606980CF010FF119946
:1056A000834605980CF00BFF011C58460CF0F0FEE9
:1056B0000A99834604980CF002FF011C58460CF02E
:1056C000E7FE011C50460CF0E3FE35996060301C8B
:1056D0000CF0F5FE2E998246381C0CF0F0FE011CF1
:1056E00050460CF0D5FE2799824640460CF0E7FE66
:1056F0002099834648460CF0E2FE011C58460CF007
:10570000C7FE011C50460CF0C3FE1999824606984C
:105710000CF0D5FE1299834605980CF0D0FE011CC2
:1057200058460CF0B5FE0B99834604980CF0C7FE62
:10573000011C58460CF0ACFE011C50460CF0A8FEB3
:105740003699A060301C0CF0BAFE2F998246381CA6
:105750000CF0B5FE011C50460CF09AFE28998246CA
:1057600040460CF0ACFE2199834648460CF0A7FE5B
:10577000011C58460CF08CFE011C50460CF088FEB3
:105780001A99824606980CF09AFE1399834605985A
:105790000CF095FE011C58460CF07AFE0C998346DD
:1057A00004980CF08CFE011C58460CF071FE011C94
:1057B00050460CF06DFE3799E060301C0CF07FFE17
:1057C00030998246381C0CF07AFE011C50460CF0D1
:1057D0005FFE2999824640460CF071FE229983466D
:1057E00048460CF06CFE011C58460CF051FE011CA2
:1057F00050460CF04DFE1B99824606980CF05FFE59
:105800001499834605980CF05AFE011C58460CF07A
:105810003FFE0D99834604980CF051FE011C58463A
:105820000CF036FE011C50460CF032FE3899206117
:10583000301C0CF044FE31998246381C0CF03FFEBF
:10584000011C50460CF024FE2A99824640460CF07A
:1058500036FE2399834648460CF031FE011C58461B
:105860000CF016FE011C50460CF012FE1C998246EC
:1058700006980CF024FE1599834605980CF01FFE3F
:10588000011C58460CF004FE0E99834604980CF057
:1058900016FE011C58460CF0FBFD011C50460CF096
:1058A000F7FD4946606124980CF009FE41468146A7
:1058B0002B980CF004FE011C48460CF0E9FD391C45
:1058C000804632980CF0FBFD311C071C39980CF017
:1058D000F6FD011C381C0CF0DBFD011C40460CF0F1
:1058E000D7FD0599061C16980CF0E9FD0699071CD2
:1058F0001D980CF0E4FD011C381C0CF0C9FD049946
:10590000071C0F980CF0DBFD011C381C0CF0C0FDCF
:10591000011C301C0CF0BCFD089B1C35A0611C3424
:105920009D4200D050E63C9BA2AC9946F6AB069354
:10593000DAAB08934B463C943D93079B586D1A682D
:105940008146996B186F0492069A804605914846E5
:105950001E99DD691768D6690CF0B1FD259982465C
:1059600040460CF0ACFD011C50460CF091FD2C990A
:105970008246381C0CF0A3FD33998346301C0CF092
:105980009EFD011C58460CF083FD011C50460CF096
:105990007FFD10998246281C0CF091FD17998346D3
:1059A00005980CF08CFD011C58460CF071FD09990E
:1059B000834604980CF083FD011C58460CF068FDEA
:1059C000011C50460CF064FD20601F9948460CF005
:1059D00076FD2699824640460CF071FD011C50462A
:1059E0000CF056FD2D998246381C0CF068FD349958
:1059F0008346301C0CF063FD011C58460CF048FD3A
:105A0000011C50460CF044FD11998246281C0CF0F4
:105A100056FD1899834605980CF051FD011C584617
:105A20000CF036FD0A99834604980CF048FD011CE1
:105A300058460CF02DFD011C50460CF029FD209914
:105A4000606048460CF03BFD2799824640460CF0CA
:105A500036FD011C50460CF01BFD2E998246381C69
:105A60000CF02DFD35998346301C0CF028FD011CEF
:105A700058460CF00DFD011C50460CF009FD129922
:105A80008246281C0CF01BFD1999834605980CF0E2
:105A900016FD011C58460CF0FBFC0B99834604983C
:105AA0000CF00DFD011C58460CF0F2FC011C504698
:105AB0000CF0EEFC2199A06048460CF000FD2899FE
:105AC000824640460CF0FBFC011C50460CF0E0FC0A
:105AD0002F998246381C0CF0F2FC36998346301C14
